:02000002B0004C
:1040000000400B00568E0B00000006000D0005025C
:0840100004017D150000000011
:0440180078870B009A
:10401C0081F0004102E000BF83F0004330B54FEA6D
:10402C0041044FEA430594EA050F08BF90EA020FDA
:10403C001FBF54EA000C55EA020C7FEA645C7FEA6D
:10404C00655C00F0E2804FEA5454D4EB5555B8BF90
:10405C006D420CDD2C4480EA020281EA030382EA01
:10406C00000083EA010180EA020281EA0303362D93
:10407C0088BF30BD11F0004F4FEA01314FF4801C66
:10408C004CEA113102D0404261EB410113F0004F78
:10409C004FEA03334CEA133302D0524263EB43032F
:1040AC0094EA050F00F0A780A4F10104D5F1200ECD
:1040BC000DDB02FA0EFC22FA05F2801841F1000128
:1040CC0003FA0EF2801843FA05F359410EE0A5F1FC
:1040DC0020050EF1200E012A03FA0EFC28BF4CF02D
:1040EC00020C43FA05F3C01851EBE37101F00045E3
:1040FC0007D54FF0000EDCF1000C7EEB00006EEBF0
:10410C000101B1F5801F1BD3B1F5001F0CD3490879
:10411C005FEA30004FEA3C0C04F101044FEA4452D0
:10412C0012F5800F80F09A80BCF1004F08BF5FEA57
:10413C00500C50F1000041EB045141EA050130BD37
:10414C005FEA4C0C404141EB0101013C28BFB1F549
:10415C00801FE9D291F0000F04BF01460020B1FA94
:10416C0081F308BF2033A3F10B03B3F120020CDA67
:10417C000C3208DD02F1140CC2F10C0201FA0CF045
:10418C0021FA02F10CE002F11402D8BFC2F1200CAA
:10419C0001FA02F120FA0CFCDCBF41EA0C01904060
:1041AC00E41AA2BF01EB0451294330BD6FEA0404A9
:1041BC001F3C1CDA0C340EDC04F11404C4F1200294
:1041CC0020FA04F001FA02F340EA030021FA04F3A6
:1041DC0045EA030130BDC4F10C04C4F1200220FAFD
:1041EC0002F001FA04F340EA0300294630BD21FA3B
:1041FC0004F0294630BD94F0000F83F4801306BF01
:10420C0081F480110134013D4EE77FEA645C18BFF4
:10421C007FEA655C29D094EA050F08BF90EA020F8B
:10422C0005D054EA000C04BF1946104630BD91EA83
:10423C00030F1EBF0021002030BD5FEA545C05D186
:10424C004000494128BF41F0004130BD14F58004C5
:10425C003CBF01F5801130BD01F0004545F0FE4139
:10426C0041F470014FF0000030BD7FEA645C1ABF6E
:10427C00194610467FEA655C1CBF0B46024650EAA5
:10428C00013406BF52EA033591EA030F41F40021D1
:10429C0030BD00BF90F0000F04BF0021704730B557
:1042AC004FF4806404F132044FF000054FF000012C
:1042BC0050E700BF90F0000F04BF0021704730B5ED
:1042CC004FF4806404F1320410F0004548BF4042C2
:1042DC004FF000013EE700BF42004FEAE2014FEA17
:1042EC0031014FEA02701FBF12F07F4393F07F4FF2
:1042FC0081F06051704732F07F4208BF704793F0F5
:10430C007F4F04BF41F40021704730B54FF4607407
:10431C0001F0004521F000411CE700BF50EA01020A
:10432C0008BF704730B54FF000050AE050EA0102B3
:10433C0008BF704730B511F0004502D5404261EB23
:10434C0041014FF4806404F132045FEA915C3FF464
:10435C00D8AE4FF003025FEADC0C18BF03325FEA01
:10436C00DC0C18BF033202EBDC02C2F1200300FAB2
:10437C0003FC20FA02F001FA03FE40EA0E0021FAD7
:10438C0002F11444BDE600BF70B54FF0FF0C4CF4C5
:10439C00E06C1CEA11541DBF1CEA135594EA0C0F77
:1043AC0095EA0C0F00F0DEF82C4481EA030621EAB2
:1043BC004C5123EA4C5350EA013518BF52EA0335ED
:1043CC0041F4801143F4801338D0A0FB02CE4FF09F
:1043DC000005E1FB02E506F00042E0FB03E54FF0CF
:1043EC000006E1FB03569CF0000F18BF4EF0010EC7
:1043FC00A4F1FF04B6F5007F64F5407404D25FEAC3
:10440C004E0E6D4146EB060642EAC62141EA555175
:10441C004FEAC52040EA5E504FEACE2EB4F1FD0CB7
:10442C0088BFBCF5E06F1ED8BEF1004F08BF5FEA35
:10443C00500E50F1000041EB045170BD06F00046E7
:10444C0046EA010140EA020081EA0301B4EB5C0494
:10445C00C2BFD4EB0C0541EA045170BD41F480118C
:10446C004FF0000E013C00F3AB8014F1360FDEBFB1
:10447C00002001F0004170BDC4F10004203C35DA8D
:10448C000C341BDC04F11404C4F1200500FA05F310
:10449C0020FA04F001FA05F240EA020001F00042B1
:1044AC0021F0004110EBD37021FA04F642EB060127
:1044BC005EEA430E08BF20EAD37070BDC4F10C0451
:1044CC00C4F1200500FA04F320FA05F001FA04F215
:1044DC0040EA020001F0004110EBD37041F1000101
:1044EC005EEA430E08BF20EAD37070BDC4F120050C
:1044FC0000FA05F24EEA020E20FA04F301FA05F274
:10450C0043EA020321FA04F001F0004121FA04F21B
:10451C0020EA020000EBD3705EEA430E08BF20EAEB
:10452C00D37070BD94F0000F0FD101F00046400025
:10453C0041EB010111F4801F08BF013CF7D041EAA7
:10454C00060195F0000F18BF704703F000465200AB
:10455C0043EB030313F4801F08BF013DF7D043EA7C
:10456C000603704794EA0C0F0CEA135518BF95EA32
:10457C000C0F0CD050EA410618BF52EA4306D1D1B9
:10458C0081EA030101F000414FF0000070BD50EAD8
:10459C00410606BF1046194652EA430619D094EA62
:1045AC000C0F02D150EA013613D195EA0C0F05D14C
:1045BC0052EA03361CBF104619460AD181EA0301A0
:1045CC0001F0004141F0FE4141F470014FF0000058
:1045DC0070BD41F0FE4141F4780170BD70B54FF0F3
:1045EC00FF0C4CF4E06C1CEA11541DBF1CEA135573
:1045FC0094EA0C0F95EA0C0F00F0A7F8A4EB050455
:10460C0081EA030E52EA03354FEA013100F088804B
:10461C004FEA03334FF0805545EA131343EA126314
:10462C004FEA022245EA111545EA10654FEA0026C9
:10463C000EF000419D4208BF964244F1FD0404F582
:10464C00407402D25B084FEA3202B61A65EB0305DE
:10465C005B084FEA32024FF480104FF4002CB6EB9B
:10466C00020E75EB030E22BFB61A754640EA0C001B
:10467C005B084FEA3202B6EB020E75EB030E22BF5B
:10468C00B61A754640EA5C005B084FEA3202B6EB9C
:10469C00020E75EB030E22BFB61A754640EA9C005B
:1046AC005B084FEA3202B6EB020E75EB030E22BF2B
:1046BC00B61A754640EADC0055EA060E18D04FEAE9
:1046CC00051545EA16754FEA06164FEAC30343EA89
:1046DC0052734FEAC2025FEA1C1CC0D111F4801F56
:1046EC000BD141EA00014FF000004FF0004CB6E74F
:1046FC0011F4801F04BF01430020B4F1FD0C88BFEE
:10470C00BCF5E06F3FF6AFAEB5EB030C04BFB6EBF8
:10471C00020C5FEA500C50F1000041EB045170BDEB
:10472C000EF0004E4EEA113114EB5C04C2BFD4EB18
:10473C000C0541EA045170BD41F480114FF0000E9C
:10474C00013C90E645EA060E8DE60CEA135594EA18
:10475C000C0F08BF95EA0C0F3FF43BAF94EA0C0F1B
:10476C000AD150EA01347FF434AF95EA0C0F7FF490
:10477C0025AF104619462CE795EA0C0F06D152EAE4
:10478C0003353FF4FDAE1046194622E750EA4106C8
:10479C0018BF52EA43067FF4C5AE50EA41047FF4D9
:1047AC000DAF52EA43057FF4EBAE12E74FF0FF3C3E
:1047BC0006E000BF4FF0010C02E000BF4FF0010C0F
:1047CC004DF804CD4FEA410C7FEA6C5C4FEA430C88
:1047DC0018BF7FEA6C5C1BD001B050EA410C0CBFD7
:1047EC0052EA430C91EA030F02BF90EA020F002039
:1047FC00704710F1000F91EA030F58BF994208BFA0
:10480C0090422CBFD8176FEAE37040F0010070475C
:10481C004FEA410C7FEA6C5C02D150EA013C07D1B3
:10482C004FEA430C7FEA6C5CD6D152EA033CD3D0FE
:10483C005DF8040B704700BF8446104662468C46F8
:10484C001946634600E000BF01B5FFF7B7FF00282B
:10485C0048BF10F1000F01BD4DF808EDFFF7F4FF54
:10486C000CBF012000205DF808FB00BF4DF808EDDF
:10487C00FFF7EAFF34BF012000205DF808FB00BF02
:10488C004DF808EDFFF7E0FF94BF012000205DF824
:10489C0008FB00BF4DF808EDFFF7CEFF94BF0120D9
:1048AC0000205DF808FB00BF4DF808EDFFF7C4FFD2
:1048BC0034BF012000205DF808FB00BF4FEA410C1B
:1048CC007FEA6C5C02D150EA013C0AD14FEA430CFE
:1048DC007FEA6C5C02D152EA033C02D14FF000003B
:1048EC0070474FF0010070474FEA410212F5001279
:1048FC0015D211D56FF47873B3EB625212D94FEA1B
:10490C00C12343F0004343EA505311F0004F23FA04
:10491C0002F018BF404270474FF00000704750EA59
:10492C00013005D111F0004008BF6FF00040704716
:10493C004FF00000704700BF4A0011D212F5001270
:10494C0011D20DD56FF47873B3EB62520ED44FEADB
:10495C00C12343F0004343EA505323FA02F070475B
:10496C004FF00000704750EA013002D14FF0FF3099
:10497C0070474FF00000704710F8012B11F8013B05
:10498C00012A28BF9A42F7D0D01A7047034613F871
:10499C00012B002AFBD1181A0138704709480A4923
:1049AC00884208B505D0094A824202D0121A03F097
:1049BC0027FD0748074A0021121A03F049FD014858
:1049CC0008BD00BF4CE50320AC8D0B00C8E50320EF
:1049DC00C8E50320F0E7032070B5074E074C03F041
:1049EC00A1FBA41BA4080025AC4200D170BD56F855
:1049FC00043B98470135F7E7648D0B00888D0B005D
:104A0C0000F076B808B500F047FBBDE8084003F0AD
:104A1C0041BB00F011BF00F00FBF00F015BF00004C
:104A2C0008B5034A03490C2000F000FEFEE700BF66
:104A3C00B9530B008C870B000078B0FA80F040095A
:104A4C0070470123037070477047000010B5084988
:104A5C00044603F0A8F940B90649204603F0A3F92F
:104A6C00B0FA80F04009404210BD0120FCE700BFC5
:104A7C00A1870B00A4870B000A4B10B504460360FA
:104A8C0002F082F8214602F0BAFA03F0BBFA03F006
:104A9C00ADFA2046044B40F8043B02F04BF920469B
:104AAC0010BD00BF00890B00E8880B0010B5044650
:104ABC00FFF7E2FF20462421FFF7AFFF204610BD91
:104ACC000EB400B58CB00DAA4FF0200C52F8041B9C
:104ADC000392CDE900120023016804AA1E20CDE93F
:104AEC0004C300F0ABFD0CB05DF804EB03B07047F1
:104AFC002DE9F04132493348DFF8F880324E96B058
:104B0C000023092200F0F8FD304B03221A60304BD1
:104B1C000121188803F076FB00242E4A2E492F48D9
:104B2C00C8F8004001F0A7F870682246214600F052
:104B3C003BFE002841D031460EA800F059FF0EA8CC
:104B4C0000F0D2FF264F0EA887ED000A00F0FCFF04
:104B5C00244B83ED000AD8F8003010EE105A63B3E2
:104B6C003868FFF7B9FB02460B462846CDE902230D
:104B7C00FFF7B2FBDDE90223CDE900011A491B481E
:104B8C00FFF79EFF22462146706800F0EDFD811C68
:104B9C0008A801F06BFC08A904A803F017F9144944
:104BAC00049A1248FFF78CFF04A803F00DF803F0E9
:104BBC0029FA4FF4165103F015FA16B0BDE8F0813E
:104BCC00D8E50320A8870B0048E60320F4E5032072
:104BDC004CE50320B8870B00594A0B00575C0B00BF
:104BEC00E4E50320E0E50320BC870B008CE6032002
:104BFC00F2870B00E8E5032008B50A4801F042FBF8
:104C0C0010EE100AFFF768FB074BC3E90001074BD6
:104C1C001B68012B05D102460B4605480549FFF7D9
:104C2C004FFF08BDECE50320D8E50320E8E50320A1
:104C3C008CE60320FE870B0038B585B20C4628465F
:104C4C00012103F0F0FA204600F03EFE2846002138
:104C5C0003F0E9FA2046BDE8384000F035BE00000C
:104C6C0010B5094C00F0AAFB2368C01A074B9842F8
:104C7C0008D900F059FD10B1002000F065FD00F0DE
:104C8C009DFB206010BD00BFF8E50320005C2605ED
:104C9C0038B5046805467CB16368013B63605BB959
:104CAC00236820469B689847A368013BA3601BB907
:104CBC0023682046DB689847284638BD70B5D0E994
:104CCC0000531426044606FB0356AE4204D0284675
:104CDC0002F07AFF1435F8E7206800F0B5FD2046A5
:104CEC0070BD38B50468002000F0D8FC20B16378A2
:104CFC0013B900F011FDFAE76378BFF35B8F651C05
:104D0C000BB9002038BD002000F0C8FC20B12B7876
:104D1C0013B900F001FDFAE72378012BF1D1207BC8
:104D2C00F0E700002DE9F04F1820814E814C87B040
:104D3C0000F0EEFA3368206053B17F4B7F491A685C
:104D4C007F48FFF7BDFE22687E497D48FFF7B8FE1D
:104D5C007D4F23683A68934200F00F81DFF80C8294
:104D6C00D8F80020934200F0088133682BB1724BC5
:104D7C0076491A687248FFF7A3FE41F2883000F0BA
:104D8C00A3FD182000F0C4FA3B682060984200F0A4
:104D9C00F48033682BB1684B6D491A686848FFF78B
:104DAC008FFE2368052B47D1634D6A49DFF8B49118
:104DBC00DFF8BCB1DFF8B0A1284602F0AFFFFFF777
:104DCC001BFF2A68644902A803F01AF802A9484696
:104DDC0002F09CFF02A802F0F7FE9AF800209BF864
:104DEC0000305E4913438DF80030D9F800203C2385
:104DFC0002A801F037F802A8FFF773FF054603A8D5
:104E0C00FFF746FF2368C8F800305449A5B99AF853
:104E1C0000209BF8003013438DF80030D9F80020A7
:104E2C003C2302A801F01EF802A8FFF75AFF054622
:104E3C0003A8FFF72DFFE8E72368012B3BD13E4D7C
:104E4C004749DFF82091DFF828A1DFF81CB128468C
:104E5C0002F064FF2A68404902A802F0D1FF02A9BF
:104E6C00484602F053FF02A802F0AEFE9BF8002069
:104E7C009AF80030394913438DF80030D9F80020E6
:104E8C003C2302A800F0EEFF02A8FFF72AFF05461C
:104E9C0003A8FFF7FDFE314955B99AF800209BF89D
:104EAC00003013438DF80030D9F800203C23E8E79C
:104EBC002368C8F800302368023B022B5DD81E4DD6
:104ECC002749DFF8A090DFF8A8B0DFF89CA02846AF
:104EDC0002F024FF2A68204902A802F091FF02A9DF
:104EEC00484602F013FF02A802F06EFE9AF800206A
:104EFC009BF80030194913438DF80030D9F8002085
:104F0C003C2302A800F0AEFF02A8FFF7EAFE05461C
:104F1C0003A8FFF7BDFE114965BB9AF800209BF86A
:104F2C00003013438DF80030D9F800203C23E8E71B
:104F3C00E8E5032020E6032024E603201A880B0072
:104F4C008CE603202C880B00F4E503203E880B0034
:104F5C0060880B0082880B0095880B00AA880B00D8
:104F6C00B7880B0034E60320D5E5032050E5032079
:104F7C00D4E503202368C8F8003022683B689A42C5
:104F8C006CD1DFF80881D8F800309A4266D0013332
:104F9C0064D03368334D23B12A6833493348FFF763
:104FAC008FFD41F2883000F08FFC182000F0B0F932
:104FBC002F4920602B4802F0B1FE22683B689A42D0
:104FCC004CD133684BB12A682A492848FFF778FD41
:104FDC00226829492548FFF773FD2368023B022B01
:104FEC003CD8264E2A682649264FDFF8A490DFF8D5
:104FFC00A4A002A802F004FF02A9304602F086FE2B
:10500C0002A802F0E1FD99F800203B781E491343F9
:10501C008DF8003032683C2302A800F023FF02A870
:10502C00FFF75FFE054603A8FFF732FE9DB93A78FD
:10503C0099F8003013438DF8003032683C23514608
:10504C0002A800F00FFF02A8FFF74BFE054603A8CD
:10505C00FFF71EFEEAE72368C8F8003007B0BDE88A
:10506C00F08F00BF24E603203E880B008CE6032063
:10507C00B7880B0060880B002C880B0034E60320EB
:10508C0095880B00D5E50320AA880B0050E503207A
:10509C00D4E50320CE880B0030B5214B1B688DB0B6
:1050AC00002B3AD01F4B204C1868C821FFF7C4FDC9
:1050BC0000226068114600F077FB28B3214604A853
:1050CC0000F096FC04A800F00FFD184D04A885ED27
:1050DC00000A00F039FD164B286883ED000A10EE2B
:1050EC00104AFFF7F9F802460B462046CDE9022399
:1050FC00FFF7F2F8DDE90223CDE900010D490E4876
:10510C00FFF7DEFCFFF778FDFFF70CFE42F21070A4
:10511C000DB0BDE8304000F0D7BBFFF7A1FDF3E7C1
:10512C00E8E503204CE5032048E60320E4E50320F2
:10513C00E0E50320BC870B008CE603208842F8B521
:10514C0004460D46164616D9904215D2A2F1140605
:10515C00751AA1F114072C44B7421CD02CB131465E
:10516C00204602F0AEFD337C2374304602F02CFD59
:10517C00143E143CF0E70ED0B5420CD02CB12946AD
:10518C00204602F09EFD2B7C2374284602F01CFD69
:10519C0014351434F0E7F8BD2DE9F0410023C0E9D3
:1051AC00003383604F689F4204460E4623DD4FF068
:1051BC00140808FB07F000F03FFB0546D8B1D4E912
:1051CC00001208FB0212FFF7B9FF206800F03CFB4D
:1051DC002560A760D6E9007308FB0378B84508D0B2
:1051EC003946284602F087FD3B7C2B741437143566
:1051FC00F4E7736863602046BDE8F0812F4B70B50F
:10520C0001251D702E4B08221A702E4B2E4A9A60C7
:10521C0000248CB0C3E90044284600F027FA21464C
:10522C00284600F033FA2146284800F0DFFFCDE98C
:10523C000044029402F0E6FE254C0546694603A89C
:10524C00FFF7AAFF264603A906A8FFF7A5FF214BE7
:10525C0046F8043B06A909A8FFF79EFF09AA1E21E0
:10526C00304601F0AFFF09A8FFF728FD06A8FFF7AD
:10527C0025FD194B2360256203A8FFF71FFD174B73
:10528C00236002F0BFFE4FF4165102F0ABFE01F0AA
:10529C007BFC214601F06CFE6846FFF70FFD00F029
:1052AC008DF80F4B0F4918600F4802F0D8FC0D49D0
:1052BC000E480CB0BDE8704002F0D1BCD4E5032020
:1052CC00D5E50320C8E503200000FFFFECE5032033
:1052DC00FCE50320E8880B00B88A0B0000890B0062
:1052EC00F8E503207F8A0B0024E6032034E6032034
:1052FC0038B50446C06883180A2B154605D82044D7
:10530C0003F07EF8E2682A44E260012038BD000018
:10531C0010B588B0002404AB0122ADF80E00009348
:10532C000194094BADF8164011460DF10E00ADF885
:10533C001840079400F0C2F9079B0A2B0CBFDDF84C
:10534C001600204608B010BDFD520B0008B5024BEC
:10535C001B685B6C019308BD7402030008B5024B1B
:10536C001B685B6C019308BD4802030008B5024B37
:10537C001B689B6C019308BD4802030008B5024BE7
:10538C001B68DB6C019308BD4802030008B5024B97
:10539C001B685B6D019308BD4802030008B5024B06
:1053AC001B685B68019308BD1802030008B5024B2B
:1053BC001B68DB68019308BD1802030008B5024B9B
:1053CC001B685B69019308BD1802030008B5024B0A
:1053DC001B689B68019308BD2C02030008B5024BA7
:1053EC001B68DB68019308BD2C02030008B5024B57
:1053FC001B681B69019308BD2C02030008B5024B06
:10540C001B689B69019308BD2802030008B5024B79
:10541C001B68DB69019308BD2802030008B5024B29
:10542C001B681B6A019308BD2802030008B5024BD8
:10543C001B685B6A019308BD2802030008B5024B88
:10544C001B689B6A019308BD2802030008B5024B38
:10545C001B68DB6A019308BD2802030008B5024BE8
:10546C001B681B6B019308BD2802030008B5024B97
:10547C001B685B6B019308BD2802030008B5024B47
:10548C001B681B6C019308BD2802030008B5024B76
:10549C001B689B6C019308BD2802030008B5024BE6
:1054AC001B68DB6C019308BD2802030008B5024B96
:1054BC001B681B6D019308BD2802030008B5024B45
:1054CC001B685B69019308BD6402030008B5024BBD
:1054DC001B689B68019308BD6802030008B5024B6A
:1054EC001B68DB68019308BD6802030008B5024B1A
:1054FC001B68DB69019308BD3002030008B5024B41
:10550C001B681B6A019308BD3002030008B5024BEF
:10551C001B689B68019308BD3C02030008B5024B55
:10552C001B68DB68019308BD3C02030008B5024B05
:10553C001B681B69019308BD3C02030008B5024BB4
:10554C001B685B69019308BD3C02030008B5024B64
:10555C001B689B69019308BD3C02030008B5024B14
:10556C001B68DB69019308BD3C02030008B5024BC4
:10557C001B681B6A019308BD3C02030008B5024B73
:10558C001B689B6A019308BD3C02030008B5024BE3
:10559C001B68DB6A019308BD3C02030008B5024B93
:1055AC001B681B6C019308BD3C02030008B5024B41
:1055BC001B681B68019308BD4C02030008B5024B25
:1055CC001B685B68019308BD4C02030008B5024BD5
:1055DC001B689B68019308BD4C02030008B5024B85
:1055EC001B681B69019308BD4C02030008B5024BF4
:1055FC001B685B69019308BD4C02030008B5024BA4
:10560C001B689B69019308BD4C02030008B5024B53
:10561C001B68DB69019308BD4C02030008B5024B03
:10562C001B681B6A019308BD4C02030008B5024BB2
:10563C001B685B6B019308BD6002030008B5024B4D
:10564C001B685B6D019308BD6002030008B5024B3B
:10565C001B68DB6E019308BD6002030008B5024BAA
:10566C001B681B6F019308BD6002030008B5024B59
:10567C001B685B68019308BD2002030008B5024B50
:10568C001B685B69019308BD2002030008B5024B3F
:10569C001B68DB6A019308BD2002030008B5024BAE
:1056AC001B68DB6C019308BD2002030008B5024B9C
:1056BC001B685B6D019308BD2002030008B5034B0A
:1056CC001B68D3F88430019308BD0000200203004E
:1056DC0008B5034B1B68D3F88830019308BD000054
:1056EC002002030008B5034B1B68D3F894300193D8
:1056FC0008BD00002002030008B5024B1B681B68A4
:10570C00019308BD4402030008B5024B1B685B689B
:10571C00019308BD4402030008B5024B1B689B684B
:10572C00019308BD4402030008B5024B1B685B697A
:10573C00019308BD4402030008B5024B1B681B6AA9
:10574C00019308BD4402030008B5024B1B68DB6AD9
:10575C00019308BD4402030008B5024B1B68DB6BC8
:10576C00019308BD4402030008B5024B1B681B687B
:10577C00019308BD4002030008B5024B1B685B682F
:10578C00019308BD4002030008B5024B1B689B68DF
:10579C00019308BD4002030008B5024B1B68DB688F
:1057AC00019308BD4002030008B5024B1B681B693E
:1057BC00019308BD4002030008B5024B1B685B69EE
:1057CC00019308BD4002030008B5024B1B689B699E
:1057DC00019308BD4002030008B5024B1B68DB694E
:1057EC00019308BD4002030008B5024B1B681B6AFD
:1057FC00019308BD4002030008B5024B1B681B6BEC
:10580C00019308BD4002030008B5024B1B685B6B9B
:10581C00019308BD4002030008B5024B1B681B6CCA
:10582C00019308BD4002030008B5024B1B685B6C7A
:10583C00019308BD4002030008B5024B1B681B68AE
:10584C00019308BD1C02030008B5024B1B685B6882
:10585C00019308BD1C02030008B5024B1B689B6832
:10586C00019308BD1C02030008B5024B1B685B6A60
:10587C00019308BD1C02030008B5024B1B68DB6AD0
:10588C00019308BD1C02030008B5024B1B681B6B7F
:10589C00019308BD1C02030008B5024B1B68DB6BAF
:1058AC00019308BD1C02030008B5024B1B681B6C5E
:1058BC00019308BD1C02030008B5024B1B685B6C0E
:1058CC00019308BD1C0203000021FFF7D7BE10B5E1
:1058DC00836804460BB902F081FDC3689847A3683E
:1058EC001BB1032221462046984720461021BDE8D3
:1058FC001040FFF792B810B58368044613B1032229
:10590C0001469847204610BD10B54368013B04463C
:10591C00436063B903689B689847A368013BA36025
:10592C002BB923682046DB68BDE81040184710BD32
:10593C0070B5D0E90053044605EB0316AE4204D013
:10594C00284602F041F91035F8E72068FFF77CFF94
:10595C00204670BD13B50B460246D0E900016C46DB
:10596C0084E8030093E8030082E8030094E8030052
:10597C0083E8030002B010BD024800230360FFF768
:10598C00EDBC00BF44E60320002240681146FFF73F
:10599C000BBF002240681146FFF726BF002240686B
:1059AC001146FFF731BF40680022FFF725BF406862
:1059BC00002281F00101FFF70FBF002340681A4657
:1059CC001946FFF701BF002340681A461946FFF736
:1059DC00F3BE002240681146FFF7D6BE4068002295
:1059EC000221FFF7D9BE002340681A46FFF7C4BE58
:1059FC0070B5134B03601825303386B00E464360E8
:105A0C002A4600210446083002F022FD002270686C
:105A1C001146FFF7C9FE78B100212A46684602F00C
:105A2C0017FD69460020ADF80050FFF78FFC18B940
:105A3C006946204600F0B8F8204606B070BD00BF9D
:105A4C0054890B00084B10B5282422461846002117
:105A5C0002F0FEFC054B04804FF0FF324260042242
:105A6C005A60034A1A6010BD50E6032048E6032032
:105A7C0018890B007047007B7047037B4BB103699F
:105A8C00B3F1004F05D08069B0F1004018BF012080
:105A9C0070470020704703681B6A184770B503688D
:105AAC000D461B69064698470221284602F064F809
:105ABC002C210446284601F075FF336804449B6989
:105ACC00304698470221284602F056F8204470BD13
:105ADC00A0F10400FFF7E2BF10B520210446FEF749
:105AEC009CFF204610BD0000037B7BB14369002B5B
:105AFC000CDB07EE903A9FED077AF8EEE77A87EE2B
:105B0C00870ADFED057A20EE270A7047BFEE000A00
:105B1C00704700BF00FF7F470000C842037B63B1A2
:105B2C000369B3F1004F08D007EE903A9FED047A69
:105B3C00F8EEE77A87EE870A70479FED020A704706
:105B4C000000C84200000000037B7BB1C369002B3E
:105B5C000CDB07EE903A9FED077AF8EEE77A87EECA
:105B6C00870ADFED057A20EE270A7047BFEE000AA0
:105B7C00704700BF00FF7F470000C842037B63B142
:105B8C008369B3F1004F08D007EE903A9FED047A89
:105B9C00F8EEE77A87EE870A70479FED020A7047A6
:105BAC000000C8420000000030B50D4600F10804AA
:105BBC000FCD0FC495E8030084E80300012030BD2D
:105BCC0070470020704710B510210446FEF725FFE2
:105BDC00204610BD08B5FFF7F6FF08BD30B5002212
:105BEC004FF69C74026084808D888C800C68858054
:105BFC0004600A6030BD10B504460068FFF724FE4F
:105C0C00204610BD38B5C468F4B12378022B03D1FB
:105C1C0004F10C00FFF7EFFF656835B12846FFF77C
:105C2C006AFE10212846FEF7F8FEA56835B1284615
:105C3C00FFF761FE10212846FEF7EFFE20461421E7
:105C4C00BDE83840FEF7E9BE38BD10B588B0044653
:105C5C00684602F004F8694604A802F04CF804A85F
:105C6C00A047044604A801F0AFFF684601F0ACFF62
:105C7C00204608B010BD1FB50023CDE902010192EA
:105C8C0010241A4669461846ADF80230ADF80040AB
:105C9C00FFF73AFD04B010BD0B6803604B6843601E
:105CAC0013B15A6801325A60704737B504466846DA
:105CBC000D46FFF7F1FF009B019A23606260002301
:105CCC0001A801930093FEF7E3FF35B1281DFEF701
:105CDC00DFFF08212846FEF7A0FE204603B030BDAA
:105CEC00826810B50AB902F079FBBDE81040C368B0
:105CFC00184708B5006800F11001FFF7F1FF08BD67
:105D0C00826810B50AB902F069FBBDE81040C3689F
:105D1C00184708B5006800F11001FFF7F1FF08BD46
:105D2C0038B500230446036010200D46FEF771FEC3
:105D3C0028B10123C0E90133024B0360C560206028
:105D4C00204638BD90890B0038B5002383608B68E2
:105D5C0004460D462BB102229847EB68E360AB6812
:105D6C00A360204638BD0000F0B589B004686846D1
:105D7C00FFF734FF4FF00203D4E84F2F002A03D172
:105D8C00C4E8413F0029F7D125D104F10C0569463F
:105D9C002846FFF723FFBFF35B8F012363700020BE
:105DAC0004F10803BFF35B8F53E8006F43E8000274
:105DBC00002AF9D1BFF35B8F6EB1FFF76FFC78B19E
:105DCC0029463046FFF78CFF3046FFF794FD102133
:105DDC003046FEF722FE6846FFF70DFF09B0F0BD16
:105DEC00314602A8FFF7B0FFE068B4F9105008B1D3
:105DFC0002F084FB06901020ADF81C50FEF709FE53
:105E0C000546E8B1002787601820FEF702FE04461D
:105E1C0088B10146876002A8FFF79CFD049BA2682D
:105E2C00A360059B049206A9E268E36004F11000EC
:105E3C000592FFF7D3FE084BEB60084B2C60AB6070
:105E4C0006A8FFF7D8FE02A8FFF755FD0022294649
:105E5C000348FFF72BFCB7E7FF5C0B00815F0B00DF
:105E6C00DB580B002DE9F04F8BB005469DF850A088
:105E7C000F4690469946FFF757FC07AE834638BB52
:105E8C004FF62E73059005A93046ADF81830FFF784
:105E9C00A5FE1420FEF7BDFD044648B10223037095
:105EAC000123C0E901BB437031460C30FFF796FE6D
:105EBC002846214640F8044BFFF732FF3046FFF7E7
:105ECC009AFE05A8FFF797FE28460BB0BDE8F08FA9
:105EDC000C2300241420CDE908440793FEF799FD08
:105EEC00014618B1C0E901440470447004A8039140
:105EFC00FFF716FF1E4B08930820FEF78AFD044699
:105F0C0010B103A9FFF7C8FE00965FFA8AF34A4660
:105F1C00414638460994FFF70FFCB8B9039B5B78F0
:105F2C0003F0FF0293B94FF69C7305A903A80592E1
:105F3C00ADF81830FFF718FF05A8FFF75CFE05A8B1
:105F4C000999FFF7B2FE06A8FEF7A2FE03A905A861
:105F5C00FFF7A2FE059B069A2B606A60002306A839
:105F6C0006930593FEF794FE04A8FEF791FEABE7AB
:105F7C00FD5F0B00012AF8B5054603D10B680360E1
:105F8C000020F8BD022A10D0032AF9D10468002C95
:105F9C00F6D004F11000FFF72EFE2046FFF7ABFC05
:105FAC0018212046FEF739FDEAE718200E68FEF7A7
:105FBC0030FD044650B13146FFF7C6FE3069B6F9E4
:105FCC00147008B102F09AFA2061A7822C60D7E70E
:105FDC0038B5002383608B6804460D462BB1022232
:105FEC009847EB68E360AB68A360204638BD0000BF
:105FFC00F0B589B004460D4601A81146FFF755FED1
:10600C00A4B124B21DB1284602F078FA054601A8C5
:10601C0003A90395ADF81040FFF7A6FE03A8FFF700
:10602C00EAFD02A8FEF734FE09B0F0BD019D012384
:10603C00D5E84F2F002A03D1C5E8413F0029F7D1FD
:10604C00EFD12B73BFF35B8F6B702B1DBFF35B8F8B
:10605C0053E8006F43E80042002AF9D1BFF35B8F8D
:10606C00002EDED02046FFF719FB074660B105F184
:10607C000C013046FFF744FE3046FFF73CFC102184
:10608C003046FEF7CAFCCCE7314603A8FFF7A0FF69
:10609C002B7B8DF81C301020FEF7BBFC0546D0B1D5
:1060AC0087601420FEF7B5FC044678B18760014682
:1060BC0003A8FFF74FFC059BA268A360069B059203
:1060CC00E268E3609DF81C3006922374064BEB608B
:1060DC00064B2C60AB6003A8FFF70DFC0022294691
:1060EC000348FFF7E3FAC7E71F5D0B0001610B00E4
:1060FC00DB580B00012A70B5044603D10B68036012
:10610C00002070BD022A0CD0032AF9D10468002C9F
:10611C00F6D02046FFF7EFFB14212046FEF77DFC5E
:10612C00EEE714200E68FEF774FC054620B13146EC
:10613C00FFF74EFF337C2B742560E1E700224068AB
:10614C001146FFF751BB002240681146FFF75CBBBC
:10615C0040680022FFF750BB4068002281F001012B
:10616C00FFF73ABB002340681A461946FFF72CBBD1
:10617C00002340681A461946FFF71EBB00224068F0
:10618C001146FFF711BB002240681146FFF7FCBA1D
:10619C00406800220221FFF7FFBA002340681A462C
:1061AC00FFF7EABA024B03225A60024A1A607047A0
:1061BC0078E60320AC890B00090941EA001107EECF
:1061CC00901A9FED030AF8EEE77A87EE800A704783
:1061DC0000004844006800F0EEB810B504460160B9
:1061EC0002710AB1FFF7F6FF204610BD13B5044645
:1061FC00019102F08BF8019A01462046FFF7EDFF62
:10620C00204602B010BD006800F0DEB82DE9FF4159
:10621C0004460D4617461E46FFF7DCFF36220023C8
:10622C00CDE9002320680A234FF001086946CDE927
:10623C00028300F0A4F82068036829469B689847FD
:10624C002068414600F0B3F8054640B16FF09F0559
:10625C002046FFF7D8FF284604B0BDE8F0810223A2
:10626C0020680193694600F073F80228EED120688B
:10627C0003685B6998473870206803685B699847C6
:10628C003070E5E707B500238DF806308DF8073040
:10629C000DF106020DF107030221FFF7B7FF40B91C
:1062AC009DF807109DF8060003B05DF804EBFFF7AE
:1062BC0083BFBFEE000A03B05DF804FB7047F8B56E
:1062CC00064615460C468F18BC4206D0336814F8A7
:1062DC00011B9B6830469847F6E72846F8BD007CC2
:1062EC000022FFF79BB8007C0021FFF79FB8007CD1
:1062FC000021FFF7A3B8007C0021FFF7A7B8007CB2
:10630C000021FFF7ABB810B514210446FEF785FB4E
:10631C00204610BD38B5044615464FF47A7300225A
:10632C00C4E90123094B2174084623602946FFF771
:10633C00A5F8BF3008D16B69DB0705D56868FFF796
:10634C0083FAE868FFF780FA204638BDE8890B002D
:10635C007FB500221423CDE90122ADF804300B786F
:10636C008DF808304B680393CB680493007C0B7A50
:10637C00059301A9FFF79AF807B05DF804FB7FB508
:10638C000023CDE901334A6803921423CA68ADF89F
:10639C0004300B7804920A7A0592007C8DF8083050
:1063AC0001AA1946FFF72AF807B05DF804FB007C38
:1063BC000022FFF72BB808B50021007CFFF766F828
:1063CC00B0FA80F0400908BD08B50021007CFFF749
:1063DC0065F8B0FA80F0400908BD704710B5182177
:1063EC000446FEF71AFB204610BDF0B5037D062BC4
:1063FC008DB00E4600F104074FF0000412D000F1EE
:10640C00080515F8011D0A22304601F0CEFAAF42FC
:10641C00044419D0002CF4D02E21304601F0C2FADD
:10642C000444EEE72F236A4639460A208DF80040D3
:10643C00FFF744F86846FEF7A9FA33680246DB68B2
:10644C00694630469847044620460DB0F0BD000022
:10645C0010B5054B0446112240F8043B002101F015
:10646C00F7FF204610BD00BF108A0B000346074AF9
:10647C0010B543F8042B01F1100251F8044B43F80A
:10648C00044B9142F9D10A781A7010BD108A0B0096
:10649C0010B59DF8084044EA032343EA024242EA5D
:1064AC00016104234160037510BD000007B5064B64
:1064BC000360CB7800938B784A780978FFF7E8FF74
:1064CC0003B05DF804FB00BF108A0B0000F1100351
:1064DC00012213F8101C0129184608D153F8041C8A
:1064EC0002EB4102013A03F11003F2D17047022989
:1064FC0004BF53F8041C5218F4E70EB4F0B588B07E
:10650C0000AF07F13405102155F8042B7A600446CE
:10651C002B467818FD60FFF7A7F90F287A681AD96F
:10652C0000F1080323F007036E46ADEB030D411C8D
:10653C002B466846FD60FFF797F9021E04DD2368C1
:10654C0069469B6820469847B5462037BD46BDE84E
:10655C00F04003B070470028F7D0236802469B68D0
:10656C0007F1100120469847EFE738B50B68036038
:10657C004D6843689D42044608D015B16B680133E1
:10658C006B60606808B1FFF7BFF9656038BD07B58F
:10659C0003688DF807109B6801220DF107019847DD
:1065AC0003B05DF804FB0B461146002210B5C0E9A0
:1065BC000022044683600BB9204610BDFFF7D5FFBF
:1065CC00FAE78368EBB11A78032A1AD8DFE802F0ED
:1065DC000417021B0520704702685B685268D05C88
:1065EC002D2812D0A0F13003092B0ED974280ED00F
:1065FC0066280CD0A0F16E03584258417047062013
:10660C007047002070470420704703207047022019
:10661C00704710B50446FFF7D4FF02280ED0C31EF6
:10662C00DBB2012B14D82268A36850685B68BDE804
:10663C0010400A220021184402F028B82268A368EE
:10664C0052685B68D05CA0F174035842584110BD8D
:10665C000020FCE738B50023C0E9003304460E489F
:10666C00C4E90203A9B10B78032B06D08BB91368CC
:10667C0058684B68C35C6E2B07D013684D6858681C
:10668C008B6828445B1BA060E36011462046FFF733
:10669C006CFF204638BD00BF7F8A0B0038B5002543
:1066AC000B46C0E90055C0E90255C0E90455044643
:1066BC0011464BB11A78012A06D103F11002DB689E
:1066CC0082604361FFF751FF204638BD10B5436926
:1066DC00044663B18068E060013B1030A06020612B
:1066EC00636113B1FFF7F2FEA060012000E01846D1
:1066FC0010BD10B57D210446FFF749FF012323711E
:10670C00204610BD08B50379012B02D0022B04D012
:10671C0008BD2C21FFF73BFFFAE73A21FAE710B549
:10672C000446FFF7EFFF20467B21FFF730FF0023E5
:10673C002371204610BD000013B504460191FFF7EC
:10674C00E1FF2368019ADB6803492046984701233F
:10675C002046237102B010BD3B880B0013B50446D4
:10676C000191FFF7CFFF2368019ADB6803492046AC
:10677C00984701232046237102B010BD1C8A0B00E0
:10678C002DE9F0470D46222190460446FFF7FFFE07
:10679C00DFF8A490A8442F464745BA463DD017F8D9
:1067AC00016B222E06D05C2E04D0304601F020FE68
:1067BC000028F1D12368AAEB05029B6829462046E4
:1067CC0098475C212046FFF7E2FE0D2E0AD8072ED3
:1067DC001CD9A6F10803052B18D8DFE803F00D0F20
:1067EC0011171315222E01D05C2E0FD131462046E5
:1067FC00FFF7CDFE3D46CFE76221F8E77421F6E7BF
:10680C006E21F4E76621F2E77221F0E72368324645
:10681C00DB68494620469847ECE7BD4205D0236823
:10682C007A1B9B6829462046984722212046FFF771
:10683C00AEFEBDE8F08700BF1F8A0B0013B50446FF
:10684C00CDE90021FFF75EFF2046DDE90021FFF7CF
:10685C0097FF02232046237102B010BD13B50446E6
:10686C00CDE90021FFF74EFF2046DDE90021FFF7BF
:10687C0087FF01232046237102B010BD8068036896
:10688C00DB6818477047084611B10B685B681847FE
:10689C007047704770477047704738B504460D46CF
:1068AC0000682E2101F017FE2368C31A2B6023B158
:1068BC00037803B1013023682060184638BD10B549
:1068CC000C210446FEF7A9F8204610BD10B5042192
:1068DC000446FEF7A2F8204610BD10B5042104466C
:1068EC00FEF79BF8204610BDFEF748BD08B5FEF735
:1068FC0043F8B0FA80F0400908BD704710B50C465B
:10690C0001F080FB844210D001F040FD844205D19F
:10691C0001F03CFDBDE8104001F00FBB2CB1236829
:10692C0020465B68BDE81040184710BD0B6803603B
:10693C004B68436013B15A6801325A60704713B503
:10694C00044608460191FEF721F8019902462046BB
:10695C0002B0BDE81040FFF781BF13B504460846EE
:10696C000191FEF713F823680199DB680246204673
:10697C0002B0BDE81040184707B503688DF8071042
:10698C00DB6801220DF10701984703B05DF804FBA9
:10699C000A6802604A6842600022C0E9022210B50F
:1069AC0002618C688460CC68C4600C698A60CA60BF
:1069BC0004610A6110BD00002DE9F74FD0E9008495
:1069CC004FF0140A00930AFB04F4184BA41017465A
:1069DC005C434546002C21DD66100AFB06F005EBF6
:1069EC0000093A46B9F804B0285801915F4528BF10
:1069FC005A4601F0A0FD002801994FF001030BD17C
:106A0C005F4503D1009A13703446E3E7FCD9A61B0B
:106A1C0009F11405013EF7E7F9DBF5E7A5EB0805ED
:106A2C000248AD10684303B0BDE8F08FCDCCCCCCA0
:106A3C007FB50369057E019103B3F9B1002600F11E
:106A4C000C04039603A901A8FFF727FF0146A8B180
:106A5C000DF10B03039A8DF80B602046FFF7ACFF8A
:106A6C009DF80B3053B12368142404FB0034083414
:106A7C0034F9023C002BA8BFDDB2E3E7284604B092
:106A8C0070BD0EB4F0B58CB000AF07F144050446F0
:106A9C0055F8042B7A602B46202107F11000FD607D
:106AAC00FEF7E2FE1F287A681AD900F1080323F0DA
:106ABC0007036E46ADEB030D411C2B466846FD608B
:106ACC00FEF7D2FE021E04DD23686946DB68204611
:106ADC009847B5463037BD46BDE8F04003B0704727
:106AEC000028F7D023680246DB6807F11001204626
:106AFC009847EFE710B5094C2378BFF35B8FDB07A2
:106B0C0009D42046FDF798FF28B12046FDF799FFE0
:106B1C00034801F066FC034810BD00BF84E6032067
:106B2C009F680B0054E5032010B5094C2378BFF384
:106B3C005B8FDB0709D42046FDF77EFF28B120468A
:106B4C00FDF77FFF034801F04CFC034810BD00BF6C
:106B5C0088E6032007690B0058E5032038B50025AB
:106B6C000446C0E90055C0E904558560856140F8CC
:106B7C00245FFEF7F3FBFFF7BDFFE061FFF7D4FFE7
:106B8C0025732062204638BD10B50A4C2378BFF31C
:106B9C005B8FDB070CD42046FDF74EFF40B1064857
:106BAC00FFF7DCFF2046FDF74CFF044801F019FC11
:106BBC00014810BD80E6032090E60320E9700B002D
:106BCC00024A034903480023FEF748BDCD6E0B0073
:106BDC00596E0B00D96D0B0000231A461946184646
:106BEC00FEF73CBD37B58D6804466846FFF79EFE40
:106BFC006A4629462046FFF751FD01A8FEF748F8E2
:106C0C00204603B030BD37B5CD6804466846FFF763
:106C1C008DFE6A4629462046FFF71CFD01A8FEF7AB
:106C2C0037F8204603B030BD37B50D6904466846C9
:106C3C00FFF77CFE6A4629462046FFF7B4FC01A804
:106C4C00FEF726F8204603B030BD000070B58AB0C0
:106C5C000D46014604A8FFF7C5FF144E04A8FFF724
:106C6C0035FDE8B104A96846FFF7CDFF029831461F
:106C7C00FFF73CFE044610B12C1E18BF012401A8DE
:106C8C00FEF706F8002CE9D004A96846FFF7CCFF04
:106C9C006846FFF7BEFC286001A8FDF7F9FFDDE7A9
:106CAC0005A8FDF7F5FF0AB070BD00BF258A0B00E3
:106CBC0037B50C46204613491546FDF75DFE50B915
:106CCC0001F0A0F94FF4165101F08CF903B0BDE8B6
:106CDC00304001F097B90C492046FDF74DFE78B9CC
:106CEC004FF4165301A928460193FFF7AFFF01F0AB
:106CFC004DFB019901F01EF901F048FB03B030BDCA
:106D0C000020FBE72A8A0B00318A0B0070B5D0E912
:106D1C0000531426044606FB0356AE4205D005F17B
:106D2C000800FFF7F3FF1435F7E72068FEF78CFD3A
:106D3C00204670BD10B504460C30FFF7E7FF204627
:106D4C00FEF7F6FD204610BD10B5044B044640F886
:106D5C00043BFFF7EFFF204610BD00BFE8880B0097
:106D6C0010B50446FFF7F0FF20462421FDF755FE31
:106D7C00204610BD10B5034B03600446FFF7E4FF3B
:106D8C00204610BDD08A0B0010B50446FFF7F2FF69
:106D9C0020462421FDF741FE204610BD0022C0E90B
:106DAC00002210B582600C6804604C6844608C68EA
:106DBC000A604A6084608A6010BD10B5036804469E
:106DCC001868FEF7E3FA204610BD00002DE9F04FDD
:106DDC0087B0804603931C4B5B68C3F3080389465A
:106DEC0016466BB9FFF7D0FE044600F12403406A47
:106DFC000593FFF779FD237B2BB105A8FFF7DDFF8A
:106E0C0007B0BDE8F08F01232373D4E900535FFA78
:106E1C0089F905EB830AAA4512D055F8047B314653
:106E2C00381DFFF705FE8145F5D33B68039A0092A8
:106E3C00D3F808B04A46334641463846D847EAE7C5
:106E4C0000232373D9E700BF00ED00E02DE9F74FD5
:106E5C009B461A4B5B68C3F308038046894616466B
:106E6C006BB9FFF791FE044600F12403406A0193CD
:106E7C00FFF73AFD237B2BB101A8FFF79EFF03B070
:106E8C00BDE8F08F01232373D4E90053F6B205EB70
:106E9C00830A55450ED055F8047B5946381DFFF72B
:106EAC00C7FD8642F5D33B684A46DB684146384607
:106EBC009847EEE700232373DEE700BF00ED00E008
:106ECC002DE9F341164B5B68C3F3080305460F46E7
:106EDC001BBBFFF759FE00F124030446406A0193E3
:106EEC00FFF702FDD4E90063462406EB8308B045A6
:106EFC0009D101A8FFF761FFA542B4BF0020012012
:106F0C0002B0BDE8F08156F8040B39460430FFF7A7
:106F1C008FFD8442A8BF0446E9E70020F0E700BFDC
:106F2C0000ED00E0F8B5D0E901539D4204460E4651
:106F3C000DDB6F1C002F006804DDB900FEF78CFC24
:106F4C0018B9F8BDFEF780FC00202060A760276808
:106F5C00626807EB85019200A2EB8502081D01F027
:106F6C005DFA47F825606368013363600120E8E748
:106F7C0037B500F124030446406A01930D46FFF730
:106F8C00B3FCD4E9003203EB8202934219460BD0D6
:106F9C000968A94203F10403F7D101A8FFF70DFF1B
:106FAC000025284603B030BD29462046FFF7BAFF1E
:106FBC0005460028F1D06368012B01D1FFF700FED4
:106FCC0001A8FFF7FAFEECE770B50446D0E9000221
:106FDC000B4600EB820282420FD001461D6851F82D
:106FEC00046BAE4207D1521A01F018FA6368013BE8
:106FFC006360012070BD0846EDE70020FAE71FB57D
:10700C0000F124030446406A01910393FFF76CFCE2
:10701C0001A92046FFF7D8FF18B163680BB9FFF739
:10702C00DBFD03A8FFF7C9FE04B010BD70B5D0E9B5
:10703C0004561823044603FB0656AE4215D005F140
:10704C0010012046FFF7C0FF63680BB9FFF7C4FDC2
:10705C00E06929690368DB689847696919B1206A96
:10706C000368DB6898471835E7E7D4E9045318261A
:10707C0006FB0356AE4204D0284600F0A5FD183599
:10708C00F8E70023636170BD73B50446FFF7A4FDF8
:10709C0004F12403606A0193FFF726FC2046FFF7F6
:1070AC00C5FF01A8FFF789FE606A08B1FEF75EF91B
:1070BC00D4E90453182606FB0356AE4204D02846E6
:1070CC0000F082FD1835F8E72069FEF7BDFB20685B
:1070DC00FEF7BAFB204602B070BD00000148FFF776
:1070EC00D3BF00BF90E603208842F8B504460D4696
:1070FC00164615D9904214D2A2F11406751AA1F1B4
:10710C0014072C44B7421AD01CB131462046FFF765
:10711C003FFC06F10800FFF7F9FD143E143CF1E7C3
:10712C000DD0B5420BD01CB129462046FFF730FCE0
:10713C0005F10800FFF7EAFD14351434F1E7F8BD4A
:10714C008842F8B504460D46164614D9904213D21F
:10715C00A2F11006751AA1F110072C44B74218D0F1
:10716C001CB13146204600F0ACFD304600F02CFD41
:10717C00103E103CF2E70CD0B5420AD01CB12946A7
:10718C00204600F09EFD284600F01EFD1035103400
:10719C00F2E7F8BD70B50E1E054611DD3001FEF7A5
:1071AC004BFB044658B1D5E9001201EB0212FFF774
:1071BC00C7FF2868FEF748FB2C60AE60012070BD4D
:1071CC000024F6E72DE9F04F904695B0002303918B
:1071DC00D8F804100A9346229942C0E90033C0E95A
:1071EC000233C0E90433CDE908330446027623DCCC
:1071FC00D8E90057142303FB0757AF423BD029466D
:10720C000BA800F05EFD0BA90FA8099E00F059FD1C
:10721C00DDE9091399421BDA089B099A03EB061660
:10722C0003EB0212314606F11000FFF789FFEEB9AD
:10723C00099B0133099311E008A8FFF7ABFF002865
:10724C00D6D108A8FEF774FB204615B0BDE8F08F28
:10725C00013108A8FFF79EFF0028DDD10FA800F030
:10726C00B3FC0BA800F0B0FC1435C6E70FA93046F0
:10727C0000F027FDDCE70026CDE90B660D964FF0FC
:10728C001409DDE908239E427CDA3301D3580693B6
:10729C000BB90136F5E70023079309FB06F30293BC
:1072AC000BAD07A906A8FFF7F8FA82460028F0D024
:1072BC004FF000038DF817300146079A0DF11703B4
:1072CC002846FFF779FB9DF817700190002F4AD1E3
:1072DC00BDF81C30ADF84030CDE911774FF6FF7397
:1072EC00CDF83CA0ADF842301397D5E9013293426A
:1072FC0017DB03F1010ABAF1000F30DD09FB0AF0CC
:10730C00FEF79AFA834660B3D5E9001209FB021224
:10731C00FFF7EAFE2868FEF797FAC5F800B0C5F843
:10732C0008A02B68019A09FB023A6A68514609FBCE
:10733C0002320AF11400FFF7D7FEBAF1000F03D0A6
:10734C000FA95046FFF724FB6B6801336B6011A843
:10735C00FFF7DCFC3FB10BA8FFF7D8FC71E7BB468D
:10736C00D8E70127F3E7019B2D6809FB0355069B22
:10737C001B782BB9D8F80030029A13441B7CEB8095
:10738C0008358EE72168226062686360A368099201
:10739C000A9A0A93E368A2600B9A0B932369E26042
:1073AC000C9A0C93636922610D9A0D93039B0891BF
:1073BC0062612376CFE70000F0B5044687B00D4636
:1073CC002646194668461746FDF7E6FE0B4B46F86F
:1073DC00043B694603A8FDF7DFFE03AA3946304695
:1073EC00FFF7F0FE03A8FDF769FC6846FDF766FCA5
:1073FC00034B23602046256207B0F0BDE8880B00E4
:10740C00B88A0B00F0B50F4685B01D490A9C38466A
:10741C0016461D46FDF7B0FAC0B9A4B1294601A81D
:10742C00FFF7BCFC1749242000F0D4FF054630B10F
:10743C0001AB32462146FFF7BFFF134B2B6001A86F
:10744C00FDF73CFC2C46204605B0F0BD0F493846F4
:10745C00FDF792FA90B9002CF5D0294601A8FFF758
:10746C009DFC0849242000F0B5FF05460028E6D015
:10747C0001AB32462146FFF79FFFE0E70024E2E72D
:10748C00398A0B00F08B0B00D08A0B003D8A0B0065
:10749C00014B024A1A6070478CE603204E8A0B009F
:1074AC002DE9F047089DD0F8209004460E4617466B
:1074BC00984600F0A7FD81454CD02B79190704D5CF
:1074CC006A6954492046FFF7DCFAB8F1000F0DD079
:1074DC005B212046FFF750FA41462046FFF73DFA64
:1074EC0023684D49DB680222204698472B79DA073E
:1074FC0023D5D5F808802F21404601F030F808B18B
:10750C0000F1010841462046FFF727FA2B799B072B
:10751C0008D53A212046FFF72FFAEA683F49204662
:10752C00FFF7AFFA2A79236812F0040FDB6814BF57
:10753C003B493C490222204698472B7958071DD5D8
:10754C0029690B461A4613F8010B60B1202808D1A3
:10755C001946F7E7344800F082F90028ADD0BDE8B1
:10756C00F0872828EED12368521ADB68204698470A
:10757C0023682E49DB6804222046984700213846B0
:10758C00FEF764F801462046FFF7E7F92368254922
:10759C00DB680222204698471EB131462046FFF791
:1075AC00DCF92B7913F0300F2CD023682049DB68E1
:1075BC000222204698472B79D9060AD523681D4903
:1075CC00DB68072220469847AA691B492046FFF72B
:1075DC0058FA2B799A0611D5DB0605D52368104984
:1075EC00DB6802222046984723681449DB68204652
:1075FC000A229847E9692046FFF7AFF95D2120463A
:10760C00FFF7BAF923680E49DB6820460222BDE871
:10761C00F0471847528A0B00598A0B003B880B0025
:10762C005C8A0B00618A0B00B8E603205F8A0B00B2
:10763C00648A0B00678A0B006F8A0B00728A0B003E
:10764C007D8A0B002DE9F0410446076A0D4616466B
:10765C0000F0D8FC874207D0206A036832462946DE
:10766C00DB68BDE8F0411847034800F0F8F8002843
:10767C00F2D0BDE8F08100BFB8E603202DE9F0435D
:10768C0085B0D0F820900C9C05460F4690461E46BF
:10769C0000F0B8FC814505D1494800F0E0F800281D
:1076AC0040F08A802B6A474A01924FF0000901A8EA
:1076BC0003938DF80890FFF732F849464046FDF7E2
:1076CC00C5FF41498046012201A8FFF7B7F84146A2
:1076DC00FFF735F93FB13D49012201A8FFF7AEF89C
:1076EC003946FFF72CF93EB13949012201A8FFF7C1
:1076FC00A5F83146FFF723F92379DF070ED5A668E5
:10770C002F21304600F02BFF00B1461C31490122DD
:10771C0001A8FFF793F83146FFF711F923799E077B
:10772C0007D52D49022201A8FFF788F8E168FFF779
:10773C0003F82379580714D5266933461F4613F8E6
:10774C00012B2AB1202A01D11E46F7E7282AF5D1B0
:10775C002249022201A8FFF771F8BA1B3146FFF744
:10776C007DF82379190707D51D49012201A8FFF7D8
:10777C0065F86169FEF7F2FF2379DA0608D5042271
:10778C0018490DEB0200FFF759F8A169FEF7D4FF79
:10779C0023799B0607D51449062201A8FFF74EF85A
:1077AC00E169FFF7CCF801A8FEF7A3FF286A0F499F
:1077BC0003680222DB68984705B0BDE8F08300BF80
:1077CC00B8E60320A08A0B002F8A0B00808A0B00DE
:1077DC005F8C0B0018880B00828A0B00858A0B00CB
:1077EC00888A0B008A8A0B008F8A0B007D8A0B001B
:1077FC00002340681A46FDF7BFBF406800220221F3
:10780C00FDF7CABF002240681146FDF7BDBF00223C
:10781C0040681146FDF7C8BF002340681A46194658
:10782C00FDF7CABF002340681A461946FDF7CCBFC6
:10783C0040680021FDF7F0BF40680021FDF7F4BF60
:10784C004068002281F00101FDF7C6BF40680022AC
:10785C00FDF7D2BF002240681146FDF7D5BF0022CC
:10786C0040681146FDF7C0BF2DE9F04395B01446B2
:10787C000D460746FEF7ECFD00211C220DA80091D9
:10788C0000F0E6FD40230C9320466B460CAA002129
:10789C00FDF724FE044600284BD1024601216868FE
:1078AC00FDF782FF0221804622466868FDF77CFFC7
:1078BC00009E81462146002E3BD0002939D17368A9
:1078CC00022B03D00A2B11D0F669F4E7B8F1000FA4
:1078DC00FAD0716906A8043107ADFEF7E7FD0FCDAC
:1078EC003C1D0FC42B6823704146EDE7B9F1000F26
:1078FC00EAD07469102201A800F0AAFD06238DF8C5
:10790C00143001AD04F108031834186859682A467C
:10791C0003C20833A3421546F7D101A906A807AD47
:10792C00FEF7A4FD0FCD3C1D0FC42B6823704946F8
:10793C00CAE70098FDF7CAFD384615B0BDE8F083DC
:10794C00024B034A1A6000225A607047B8E60320C3
:10795C00188B0B00F8B506460D468F180024BD4257
:10796C000CD0336815F8011B9B6830469847031EF2
:10797C0001DB1C44F3E7002C08BF1C462046F8BD75
:10798C0013B50446084659B10191FCF7FFFF236873
:10799C000199DB680246204602B0BDE8104018474A
:1079AC0002B010BD03689B68184730B58BB000233C
:1079BC00012A8DF8243098BF0A2209AC0D46B1FB80
:1079CC00F2F101FB125303F0FF03092B94BF303388
:1079DC003733DBB2AA4204F8013DEFD92146FFF759
:1079EC00CFFF0BB030BD00002DE9F74F55EC104B1D
:1079FC0006460F4610EE102A10EE100A2B462946AA
:107A0C00FCF75CFF40B153493046FFF7B9FF8246A3
:107A1C00504603B0BDE8F08F25F000494E4B4FF0B7
:107A2C00FF3220464946FCF749FF48B94A4B4FF014
:107A3C00FF3220464946FCF723FF08B94749E3E7E4
:107A4C00474B4FF0604220462946FCF72DFF08B10A
:107A5C004449D9E7444B4FF0604220462946FCF795
:107A6C0005FF0028F4D10022002320462946FCF70C
:107A7C00FDFED0B12D213046FFF794FF05F10043F8
:107A8C0082461D463949DFF8EC904FF0000B002080
:107A9C004FF000085FFA8BF39F4208D942464B46E1
:107AAC00FCF79CFD0BF1010BF4E78246EAE722465A
:107ABC002B46FCF7B3FA0D460446FCF73DFF804617
:107ACC00FCF7E8FB02460B4620462946FCF7A4FAD5
:107ADC000A2204460D4630464146FFF766FF8244B3
:107AEC00002F95D02249DFF88C903046FFF748FFE5
:107AFC004FF000088244002F8AD042464B46204665
:107B0C002946FCF741FC04460D46FCF7EDFEB0F1AE
:107B1C00000B1CDA2D213046FFF744FFCBF100019E
:107B2C0003460A2230460193FFF73FFF019B18449E
:107B3C0082445846FCF7BEFB02460B4620462946BB
:107B4C00FCF76AFA013F04460D46FFB2D3E75946EB
:107B5C000023E6E74C8B0B00FFFFEF7F508B0B00F5
:107B6C00FFFFEF41548B0B00FFFFEFC10000E03F24
:107B7C00588B0B000000244038B5044610EE100A58
:107B8C00CDB2FCF7A9FB41EC100B29462046BDE811
:107B9C003840FFF729BF0000014B00229A60704764
:107BAC00C0E6032010B5044608462170FDF79EFC84
:107BBC0000236360204610BD704710B50C210446AD
:107BCC00FCF72BFF204610BD10B504460068FDF7EE
:107BDC003BFE204610BD10B50446006808B1FDF709
:107BEC0033FE0023C4E90133236010BD38B50446CD
:107BFC000D4600680131FDF72FFE10B1C4E90005F8
:107C0C00012038BD10B50368044623B143688B428C
:107C1C0001D3012010BD2046FFF7E8FF0028F9D062
:107C2C00A368002BF5D122681370F2E737B50D4627
:107C3C00114601920446FFF7E5FF019A28B9204648
:107C4C00FFF7C9FF204603B030BDA260294620686B
:107C5C0000F0D6FB2268A3680021D154F2E7002380
:107C6C0013B5C0E9003304468360037341B1084681
:107C7C000191FCF78BFE019902462046FFF7D6FFD7
:107C8C00204602B010BD38B5054600680C4670B1F0
:107C9C006A688B689A4208D3096831B100F025FCF8
:107CAC00A368AB600023A36038BDFDF7CDFD23684E
:107CBC002B6063686B60A368AB600023C4E900337E
:107CCC00F1E710B50023C0E9003304468360037369
:107CDC00FFF7D9FF204610BD884210B5044605D0E9
:107CEC000B682BB18A681946FFF7A0FF204610BD20
:107CFC00FFF771FFFAE710B500230446C0E9003323
:107D0C0083600373FFF7E8FF204610BD884210B56F
:107D1C00044601D0FFF7B7FF204610BD13B504464B
:107D2C0059B108460191FCF731FE019902462046F3
:107D3C00FFF77CFF204602B010BDFFF74CFFF9E7C0
:107D4C0070B505460E4609B9002070BD6AB184684D
:107D5C0014442146FFF756FF0028F5D02868AB687D
:107D6C003146184400F0C1FBAC600120EDE738B59A
:107D7C00044680688568FFF7E3FFA3689868401B9A
:107D8C0038BD07B500238DF80410012201A98DF828
:107D9C000530FFF7D5FF03B05DF804FB08B580682C
:107DAC00FFF7EFFF08BD08B582683AB921B1087832
:107DBC00B0FA80F0400900E0012008BD006809B964
:107DCC000078F5E7FCF7D8FDF2E7000030B585B098
:107DDC0000230D460293C0E9003383600373142122
:107DEC00064B019304460390FFF70CFF2B6801A987
:107DFC001B6828469847204605B030BD648B0B00A5
:107E0C000EB470B587B00BAD044655F8042B019237
:107E1C002B46052104A80395FDF726FD0B490646C4
:107E2C002046FFF71CFF31462046FFF7EBFE20688B
:107E3C0030B1019A03952B46711CFDF715FDA0601E
:107E4C00204607B0BDE8704003B070477F8A0B0036
:107E5C00054B02221A60054B054A9A600020C3E9C3
:107E6C000000FDF703BC00BFDCE60320D0E60320D6
:107E7C000000FFFF024B1A68024B1A60704700BFEC
:107E8C005CE50320E0E6032070474174704708B5B9
:107E9C00007CFDF773FB20EAE07008BD08B5007CA0
:107EAC00FDF744FB20EAE07008BD08B5007CFDF747
:107EBC004DFB40EAE07008BD08B5007CFDF73EFBC9
:107ECC0040EAE07008BD007CFDF748BB37B5457C47
:107EDC0004462DB1207C03B0BDE83040FDF71EBB3D
:107EEC00007C0191FDF74AFB00280199F2DC284641
:107EFC0003B030BD10B514210446FCF78EFD2046AE
:107F0C0010BD000010B54FF47A73044608461146B4
:107F1C000022C4E90123044B236001232074637401
:107F2C00FDF73CFB204610BD988B0B00007C00231A
:107F3C00FDF72CBB0022FFF7F9BF007CFDF7E6BA7A
:107F4C00417470477047704708B50021007CFDF7FD
:107F5C0055FB40EAE07008BD08B50121007CFDF737
:107F6C004DFB40EAE07008BD08B5007CFDF73EFB18
:107F7C0020EAE07008BD08B5007CFDF72FFB20EA75
:107F8C00E07008BD13B50446007C0191FDF72EFB93
:107F9C000028019901DC607C20B1207CFDF736FBC8
:107FAC0020EAE07002B010BD007CFDF737BB10B5C5
:107FBC0014210446FCF731FD204610BD10B54FF4DA
:107FCC007A73044608460021C4E90113044B23606C
:107FDC000123207463741146FDF7E8FA204610BDA6
:107FEC00C88B0B00007C0022FDF7E8BA007CFDF783
:107FFC00EDBA10B514220446002100F029FA2046EF
:10800C0010BD000010B50F4C88B003A8FFF7F1FFAE
:10801C002178BFF35B8F11F001010FD12046019144
:10802C00FCF70AFD019948B103AA0748FFF7C6FF00
:10803C002046FCF706FD054800F0D3F9024808B0CD
:10804C0010BD00BFE4E60320E8E60320517F0B00DF
:10805C00014B1860704700BF60E5032008B50B4B5F
:10806C0043B1FFF7CFFF03681B699847002801DD78
:10807C00AFF30080064B43B100F088F903681B692D
:10808C009847002801DDAFF3008008BD0000000018
:10809C000000000008B5FFF7E1FFFDF78FF9014B79
:1080AC00186008BD10E703200548064A064908B5C4
:1080BC00121A00F0A5F9054B054A1A6008BD00BF5D
:1080CC0000F4032004F40320288E0B0000F403209A
:1080DC001E1C279A07B5002300931A466FF07701F0
:1080EC00FDF700FB03B05DF804FB000007B5438807
:1080FC000A2B08D0502B0BD1094B1B684BB103B08A
:10810C005DF804EB1847FFF7E5FF03B05DF804FBDF
:10811C00002300931A466FF07701FDF7E3FAF4E7BA
:10812C0000E7032010B512480021FDF7C5FB114BE9
:10813C001A68114B9A42114B0CBF012200221A7083
:10814C0001D0FFF7B1FFFDF729F9044600F088F9DB
:10815C000B4B13B12046AFF3008000210848FDF70C
:10816C00FBFABDE8104007480021FDF7B1BA00BF8B
:10817C005D800B0000F403201E1C279AFCE60320F4
:10818C0000000000F9800B00232813B502D9002051
:10819C0002B010BDA0F10B03022B1AD8174C21789A
:1081AC00BFF35B8F11F001010BD120460191FCF75D
:1081BC0043FC019928B11248FFF7F4FC2046FCF768
:1081CC0040FC0F4B1878FDF799F90028DFD10120FE
:1081DC00DEE7012809D800F075F80021007CFDF7D6
:1081EC0045F980F00100C0B2D2E709380128EED879
:1081FC0000F0CCF8007CFDF7B9F9F2E704E70320B6
:10820C0008E70320232838B504460D460AD8FF2971
:10821C0008D0FFF7B9FF28B129462046BDE8384001
:10822C00FDF7D4B838BD38B504460D46FDF7D6F881
:10823C00FF2810D0062804D84D2323FA00F0C307DA
:10824C0009D42046FFF7A0FF28B129462046BDE8F7
:10825C003840FDF7CBB838BD7047704738B50A4B7E
:10826C0003600123044643610849202000F0B4F860
:10827C00202560600549A560284600F0ADF8C4E9EA
:10828C000305204638BD00BF18000100F08B0B0021
:10829C0038B50A4B0360012304464361084920208A
:1082AC0000F09AF8202560600549A560284600F08A
:1082BC0093F8C4E90305204638BD00BF180001003F
:1082CC00F08B0B0030B50E4D2978BFF35B8F11F09E
:1082DC00010487B011D12846FCF7AEFB68B16846A3
:1082EC00FFF7BCFF6A4621460648FEF713F82846FE
:1082FC00FCF7A7FB044800F074F8024807B030BD47
:10830C0014E703201CE7032065820B0010B50E4C0C
:10831C002378BFF35B8FDB0786B011D42046FCF7C4
:10832C008BFB68B16846FFF7B3FF6A46012107482B
:10833C00FDF7F0FF2046FCF784FB054800F051F8F0
:10834C00024806B010BD00BF18E7032030E7032039
:10835C0067820B007047000038B5044614252A4686
:10836C00002100F075F82580402507492581284615
:10837C00258200F031F804496060284600F02CF8A2
:10838C00E060204638BD00BFF08B0B0030B50E4DC1
:10839C002978BFF35B8F11F0010487B011D1284607
:1083AC00FCF74AFB68B101A8FFF7D6FF01AA2146EA
:1083BC000648FFF7A7FD2846FCF743FB044800F0EE
:1083CC0010F8024807B030BD44E7032048E703200B
:1083DC0061830B00FCF71DBBFCF71DBB08B5FDF75B
:1083EC004BFA002301461A46184600F059B9000012
:1083FC00024B1844407800F097007047618C0B00DA
:10840C000A44914200F1FF3300D1704710B511F8C6
:10841C00014B03F8014F9142F9D110BD884210B5C0
:10842C0001EB020402D98442234607D8431EA14221
:10843C0008D011F8012B03F8012FF8E7024401468C
:10844C008A4200D110BD13F8014D02F8014DF7E737
:10845C0002440346934200D1704703F8011BF9E72D
:10846C0038B5104B1D68AB6B0446B3B91820FDF73B
:10847C00E3F90246A86320B90B4B0C484221FDF7E7
:10848C0013FA0B490B4BC0E900130B4B83600B2306
:10849C00838100210120C2E90401AB6B00221C6125
:1084AC005A6138BD60E50320F18B0B00088C0B0082
:1084BC000E33CDAB34126DE6ECDE0500C9B20346CB
:1084CC0010F8012B1AB18A42F9D1184670470029CD
:1084DC0018BF0023F9E710B50446FFF7EFFF18B9F2
:1084EC002046FCF753FA204410BD034611F8012B2B
:1084FC0003F8012B002AF9D170470000024B01460A
:10850C00186800F003B800BF60E5032037B50446D7
:10851C0008460D46FCF73AFA421C114620460192D9
:10852C00FDF7B2F9044618B1019A2946FFF768FF26
:10853C00204603B030BD10B57AB10346013984181A
:10854C0013F8010B11F8012F904201D1A34201D174
:10855C00801A10BD0028F3D1FAE71046F9E738B5B8
:10856C0003460C4669B9BDE83840FFF7A7BF431C6A
:10857C00054621461846FFF7A1FF0028F7D12846EB
:10858C0038BD0025F5E70000012B2DE9F04701D09F
:10859C00242B06D9FDF780F9162303600020BDE8D3
:1085AC00F087DFF8E4C00D462E4615F8014B14F8A1
:1085BC000C7017F00807F7D12D2C32D12C7801272D
:1085CC00B51C002B5BD0102B09D1302C07D12C788B
:1085DC0004F0DF04582C4DD16C781023023507F1D0
:1085EC00004808F1FF384FF0000CB8FBF3F9664671
:1085FC0003FB198AA4F1300EBEF1090F16D874468C
:10860C00A34224DDBCF1000F1EDBB1451CD301D10C
:10861C00A24519DB06FB03464FF0010C15F8014B84
:10862C00E8E72B2C04BF2C78B51CCAE7A4F1410E4B
:10863C00BEF1190F01D8373CE2E7A4F1610EBEF18F
:10864C00190F04D8573CDBE74FF0FF3CE6E7BCF1D1
:10865C00000F05DA22230360464642B930469EE7F6
:10866C0007B17642002AF9D0BCF1000F00D0691E88
:10867C001160F3E73024002BB1D10823AFE7302C85
:10868C00A5D00A23ABE700BF628C0B0013460A4649
:10869C00014602480068FFF777BF00BF60E5032082
:1086AC002DE9F843DFF8B8800646D8F800001F46DD
:1086BC000D46914600F056F8254B1C6834B9254CF4
:1086CC001C60254B13B11B68C4F8883063681F2BE2
:1086DC0007DDD8F8000000F047F84FF0FF30BDE898
:1086EC00F8834EB3D4F8880088B91C4B23B9D8F85A
:1086FC00000000F038F8F0E74FF48470FDF79CF8B8
:10870C000028F4D00023C0E94033C4F88800636823
:10871C0040F8239001229A4000EB8301D0F80031FD
:10872C001343C0F80031022EC1F8807002BFD0F89C
:10873C0004311343C0F804316368D8F800005A1CA4
:10874C000233626044F8235000F00EF80020C6E7B4
:10875C00E8E703205CE703200000000045580B000D
:10876C00C4E503207047704770470000A9490B000F
:10877C00E5490B000D4A0B00114A0B0000000000EC
:10878C0043616C6C206F6E20707572652076697217
:10879C007475616C006F6E006F6666006261747454
:1087AC006572795F766F6C74616765006C656400E7
:1087BC0043656C6C756C61722072656164792061C3
:1087CC007420737461727475703A2025662073740A
:1087DC0072656E67746820616E6420256620717501
:1087EC00616C697479006C6F63616C49503A202537
:1087FC00730043757272656E742062617474657275
:10880C007920766F6C746167653A20256600706F0D
:10881C0077657220737263207374723A202573002B
:10882C00706F7765722073726320494E543A20251D
:10883C006400506F74656E7469616C20506F77655D
:10884C007220736F75726365206368616E67653A39
:10885C0020257300436F6E6669726D656420506FDE
:10886C0077657220736F75726365206368616E67DC
:10887C00653A20257300504F574552204C4F5353A7
:10888C0020415420444D4F43007B22706F7765721A
:10889C00536F75726365223A222573227D00706FC7
:1088AC007765725F6368616E676500504F5745521C
:1088BC0020524553544F52454420415420444D4F6F
:1088CC004300706F7765725F6368616E67652073D4
:1088DC00000000000000000000000000000000008C
:1088EC00000000002D4A0B00554A0B000000000050
:1088FC0000000000854A0B00B94A0B00AD740B0058
:10890C0051760B000000000000000000F3590B0032
:10891C00E9590B00DF590B0095590B00D3590B008B
:10892C00C7590B003D780B0045780B00BB590B0069
:10893C00B3590B00A9590B009F590B0075780B000C
:10894C000000000000000000815A0B00E55A0B00EB
:10895C00835A0B00F55A0B00295B0B00555B0B007F
:10896C00895B0B00A95A0B00875A0B00A35A0B000A
:10897C00FCFFFFFF00000000DD5A0B0000000000B0
:10898C0000000000CD5B0B00D35B0B00115C0B00F7
:10899C00E15B0B00CF5B0B0000000000000000004F
:1089AC00A7610B009D610B0093610B0089610B00AB
:1089BC007D610B0071610B003D780B0045780B005D
:1089CC0065610B005D610B0053610B0049610B008D
:1089DC0075780B000000000000000000C9620B005D
:1089EC0013630B00EB620B00CB620B00F3620B000A
:1089FC00FB620B0003630B000B630B000000000019
:108A0C0000000000F7630B00E7630B00E9630B0049
:108A1C0025750075253034780062617564005365E6
:108A2C007269616C0053657269616C31004A534F15
:108A3C004E53747265616D4C6F6748616E646C6502
:108A4C00720061707000253031307520005D20009F
:108A5C002C200028293A2000205B00636F646520DD
:108A6C003D200025690064657461696C73203D20AC
:108A7C00000D0A006D006C6E00666E007400636F72
:108A8C0064650064657461696C000000000000009E
:108A9C0000000000A5680B00CB680B0089680B0078
:108AAC0007650B000000000000000000556D0B0076
:108ABC006D6D0B00AD740B0051760B0000000000C7
:108ACC0000000000816D0B00956D0B0089760B008A
:108ADC0091680B000000000000000000A3680B0070
:108AEC00D9680B0011740B0093680B000000000098
:108AFC0000000000A1680B00E7680B00BD6C0B00C8
:108B0C0009690B000000000000000000FD770B005D
:108B1C0007780B0011780B001B780B0025780B00E5
:108B2C0031780B003D780B0045780B004D780B002D
:108B3C0059780B0061780B006B780B0075780B0083
:108B4C006E616E00696E66006F7666002E00000026
:108B5C000000000000000000C57B0B00C77B0B0071
:108B6C00A97D0B007B7D0B0025592D256D2D2564D2
:108B7C005425483A254D3A2553257A006173637480
:108B8C00696D65000000000000000000957E0B0080
:108B9C00017F0B00D97E0B0061790B00A97E0B00C5
:108BAC00C57E0B00B77E0B00D37E0B00977E0B00AF
:108BBC009B7E0B000000000000000000537F0B00A8
:108BCC00BB7F0B00917F0B0061790B00837F0B0047
:108BDC00557F0B00657F0B00B57F0B00757F0B007D
:108BEC004D7F0B00005245454E54206D616C6C6FEF
:108BFC006320737563636565646564002F746D70C1
:108C0C002F6A656E6B696E732D4743432D31302D82
:108C1C00706970656C696E652D34385F3230323036
:108C2C00313132345F313630363138303633392FDA
:108C3C007372632F6E65776C69622F6E65776C69E2
:108C4C00622F6C6962632F7374646C69622F72613A
:108C5C006E642E630000202020202020202020285D
:108C6C0028282828202020202020202020202020D8
:108C7C002020202020208810101010101010101010
:108C8C001010101010100404040404040404040450
:108C9C0010101010101010414141414141010101CF
:108CAC0001010101010101010101010101010101A8
:108CBC0001101010101010424242424242020202B5
:108CCC000202020202020202020202020202020278
:108CDC000210101010200000000000000000000026
:108CEC000000000000000000000000000000000078
:108CFC000000000000000000000000000000000068
:108D0C000000000000000000000000000000000057
:108D1C000000000000000000000000000000000047
:108D2C000000000000000000000000000000000037
:108D3C000000000000000000000000000000000027
:108D4C000000000000000000000000000000000017
:108D5C00000000000000000009520B0085590B00B8
:108D6C00515A0B00B1610B009D740B004D790B0037
:0C8D7C00A57B0B005D7E0B00817E0B00D0
:108D8800040000001400000003000000474E5500D6
:108D9800F9567E0EB51492C13EBE49E4350D5F3AD0
:048DA80090011DAC6D
:108DAC0005000000FFFFFFFFE88A0B00008B0B00A3
:108DBC00888B0B0064E5032000000000000000001D
:108DCC000000000000000000000000000000000097
:108DDC000000000000000000000000000000000087
:108DEC000000000000000000000000000000000077
:108DFC000000000000000000000000000000000067
:108E0C000000000000000000000000000000000056
:0C8E1C000000000000000000ECE7032054
:048E28000000000046
:108E320000000102030405060708090A0B0C0D0EC7
:108E42000F101112131415161718191A1B1C1D1EB8
:048E52001F202800B5
:048E56007856341204
:04000003B000401CED
:00000001FF
