:02000002B0004C
:1040000000400B00EC4E0B00000006000C00050207
:0840100004016810000000002B
:044018003C4C0B0011
:10401C0009480A49884208B505D0094A824202D0AB
:10402C00121A00F053FD0748074A0021121A00F03B
:10403C005BFD014808BD00BF70E60320584E0B0025
:10404C00DCE60320DCE60320EDE7032070B5074E29
:10405C00074C00F0C1FCA41BA4080025AC4200D105
:10406C0070BD56F8043B98470135F7E70C4E0B0032
:10407C002C4E0B0000F013B808B500F011F8BDE899
:10408C00084000F061BC00F029B900F02FB90078AD
:10409C00B0FA80F0400970470123037070477047F5
:1040AC007047000008B5024B1B685B6C019308BDA0
:1040BC004802030008B5024B1B685B68019308BDFE
:1040CC001802030008B5024B1B685B69019308BD1D
:1040DC001802030008B5024B1B685B69019308BD0D
:1040EC006402030008B5024B1B689B68019308BD72
:1040FC006802030008B5024B1B68DB68019308BD1E
:10410C006802030008B5024B1B68DB68019308BD0D
:10411C003C02030008B5024B1B681B69019308BDE8
:10412C003C02030008B5024B1B685B69019308BD98
:10413C003C02030008B5024B1B689B69019308BD48
:10414C003C02030008B5024B1B68DB69019308BDF8
:10415C003C02030008B5024B1B689B6A019308BD27
:10416C003C02030008B5024B1B681B6C019308BD95
:10417C003C02030008B5024B1B681B68019308BD89
:10418C004C02030008B5024B1B681B69019308BD68
:10419C004C02030008B5024B1B685B69019308BD18
:1041AC004C02030008B5024B1B689B69019308BDC8
:1041BC004C02030008B5024B1B68DB69019308BD78
:1041CC004C02030008B5024B1B681B6A019308BD27
:1041DC004C02030008B5024B1B685B68019308BDD9
:1041EC002002030008B5034B1B68D3F888300193F9
:1041FC0008BD00002002030008B5034B1B68D3F870
:10420C009430019308BD00002002030008B5024B56
:10421C001B68DB6B019308BD4402030008B5024B1D
:10422C001B685B68019308BD4002030008B5024B94
:10423C001B689B68019308BD4002030008B5024B44
:10424C001B68DB68019308BD4002030008B5024BF4
:10425C001B681B69019308BD4002030008B5024BA3
:10426C001B685B69019308BD4002030008B5024B53
:10427C001B689B69019308BD4002030008B5024B03
:10428C001B68DB69019308BD4002030008B5024BB3
:10429C001B681B6A019308BD4002030008B5024B62
:1042AC001B681B6B019308BD4002030008B5024B51
:1042BC001B685B6B019308BD4002030008B5024B01
:1042CC001B681B6C019308BD4002030008B5024B30
:1042DC001B685B6C019308BD4002030008B5024BE0
:1042EC001B681B68019308BD1C02030008B5024B38
:1042FC001B685B68019308BD1C02030008B5024BE8
:10430C001B681B6C019308BD1C02030008B5024B13
:10431C001B685B6C019308BD1C0203000248002360
:10432C000360FFF7BFBE00BFDCE60320002240683D
:10433C001146FFF7ABBF002240681146FFF7B6BF2E
:10434C0040680022FFF7AABF4068002281F00101FB
:10435C00FFF794BF002340681A461946FFF786BF43
:10436C00002340681A461946FFF778BF00224068C0
:10437C001146FFF76BBF002240681146FFF756BF8E
:10438C00406800220221FFF759BF002340681A46FB
:10439C00FFF744BF024B03225A60024A1A6070476F
:1043AC00E0E60320584C0B00704710B5182104466A
:1043BC00FFF76BFE204610BDF0B5037D062B8DB0CC
:1043CC000E4600F104074FF0000412D000F108056E
:1043DC0015F8011D0A22304600F043F9AF4204449F
:1043EC0019D0002CF4D02E21304600F037F90444BB
:1043FC00EEE72F236A4639460A208DF80040FFF776
:10440C0069FE684600F0A6FB33680246DB68694625
:10441C0030469847044620460DB0F0BD10B5054B0C
:10442C000446112240F8043B002100F05DFB2046BD
:10443C0010BD00BF944C0B000346074A10B543F85F
:10444C00042B01F1100251F8044B43F8044B914238
:10445C00F9D10A781A7010BD944C0B0010B59DF868
:10446C00084044EA032343EA024242EA016104237E
:10447C004160037510BD000007B5064B0360CB7897
:10448C0000938B784A780978FFF7E8FF03B05DF862
:10449C0004FB00BF944C0B00014B024A1A6070479E
:1044AC00E8E60320A04C0B00002340681A46FFF7F7
:1044BC00B5BE406800220221FFF7C0BE0022406852
:1044CC001146FFF7B3BE002240681146FFF7BEBE8F
:1044DC00002340681A461946FFF7C0BE0023406807
:1044EC001A461946FFF7C2BE40680021FFF7E6BE28
:1044FC0040680021FFF7EABE4068002281F001010C
:10450C00FFF7BCBE40680022FFF7C8BE002240681F
:10451C001146FFF7CBBE002240681146FFF7B6BE2E
:10452C002DE9F04395B014460D460746FFF776FF8C
:10453C0000211C220DA8009100F0D6FA40230C9308
:10454C0020466B460CAA0021FFF7D4FD0446002838
:10455C004BD1024601216868FFF778FE02218046A4
:10456C0022466868FFF772FE009E81462146002EA7
:10457C003BD0002939D17368022B03D00A2B11D000
:10458C00F669F4E7B8F1000FFAD0716906A80431A6
:10459C0007ADFFF771FF0FCD3C1D0FC42B682370C7
:1045AC004146EDE7B9F1000FEAD07469102201A879
:1045BC0000F09AFA06238DF8143001AD04F10803CB
:1045CC001834186859682A4603C20833A3421546A2
:1045DC00F7D101A906A807ADFFF72EFF0FCD3C1DA3
:1045EC000FC42B6823704946CAE70098FFF77AFD81
:1045FC00384615B0BDE8F083024B034A1A6000221E
:10460C005A607047ECE60320AC4C0B00F8B506463C
:10461C000D468F180024BD420CD0336815F8011BD1
:10462C009B6830469847031E01DB1C44F3E7002CC3
:10463C0008BF1C462046F8BD13B50446084659B1C0
:10464C00019100F087FA23680199DB680246204645
:10465C0002B0BDE81040184702B010BD03689B685B
:10466C00184730B58BB00023012A8DF8243098BF41
:10467C000A2209AC0D46B1FBF2F101FB125303F017
:10468C00FF03092B94BF30333733DBB2AA4204F853
:10469C00013DEFD92146FFF7CFFF0BB030BD000035
:1046AC00014B00229A607047F4E60320054B02226E
:1046BC001A60054B054A9A600020C3E90000FFF719
:1046CC0089BD00BF10E7032004E703200000FFFFB3
:1046DC00024B1A68024B1A60704700BF70E6032049
:1046EC0014E7032070474174704708B5007CFFF74E
:1046FC0031FD20EAE07008BD08B5007CFFF70AFD2B
:10470C0020EAE07008BD08B5007CFFF713FD40EA15
:10471C00E07008BD08B5007CFFF704FD40EAE070CE
:10472C0008BD007CFFF70EBD37B5457C04462DB1A6
:10473C00207C03B0BDE83040FFF7E4BC007C019165
:10474C00FFF708FD00280199F2DC284603B030BDC4
:10475C0010B514210446FFF798FC204610BD00004C
:10476C0010B54FF47A730446084611460022C4E98A
:10477C000123044B2360012320746374FFF7F2FCC4
:10478C00204610BD044D0B004174704770477047B4
:10479C0008B50021007CFFF705FD40EAE07008BD7C
:1047AC0008B50121007CFFF7FDFC40EAE07008BD74
:1047BC0008B5007CFFF7EEFC20EAE07008BD08B5F8
:1047CC00007CFFF7DFFC20EAE07008BD13B504465F
:1047DC00007C0191FFF7DEFC0028019901DC607C74
:1047EC0020B1207CFFF7E6FC20EAE07002B010BD9F
:1047FC00007CFFF7E7BC10B514210446FFF745FC1D
:10480C00204610BD10B54FF47A73044608460021BB
:10481C00C4E90113044B2360012320746374114613
:10482C00FFF7A8FC204610BD344D0B0010B5142228
:10483C000446002100F058F9204610BD10B50F4C6D
:10484C0088B003A8FFF7F2FF2178BFF35B8F11F05C
:10485C0001010FD120460191FFF719FC019948B1D4
:10486C0003AA0748FFF7CEFF2046FFF715FC0548C3
:10487C0000F026F9024808B010BD00BF18E703206D
:10488C001CE7032099470B00002240681146FFF7F4
:10489C00DDBC002240681146FFF7F8BC00224068DE
:1048AC001146FFF703BD40680022FFF7F7BC4068D4
:1048BC00002281F00101FFF7E1BC002340681A4699
:1048CC001946FFF7D3BC002340681A461946FFF778
:1048DC00C5BC002240681146FFF7A8BC4068002206
:1048EC000221FFF7ABBC002340681A46FFF796BCC9
:1048FC00024B04225A60024A1A60704730E70320C8
:10490C00644D0B00014B1860704700BF74E6032028
:10491C0008B50B4B43B1FFF791FF03681B69984730
:10492C00002801DDAFF30080064B43B100F0A2F884
:10493C0003681B699847002801DDAFF3008008BDB0
:10494C00000000000000000008B5FFF7E1FFFFF7D2
:10495C00B9FB014B186008BD40E703200548064A27
:10496C00064908B5121A00F0B1F8054B054A1A6051
:10497C0008BD00BF00F4032004F40320544E0B00C8
:10498C0000F403201E1C279A07B5002300931A4637
:10499C006FF07701FFF730FC03B05DF804FB00000B
:1049AC0007B543880A2B08D0502B0BD1094B1B6839
:1049BC004BB103B05DF804EB1847FFF7E5FF03B00C
:1049CC005DF804FB002300931A466FF07701FFF7A4
:1049DC0013FCF4E73CE7032010B512480021FFF765
:1049EC0095FC114B1A68114B9A42114B0CBF0122CA
:1049FC0000221A7001D0FFF7B1FFFFF75BFB0446F2
:104A0C0000F07AF80B4B13B12046AFF30080002175
:104A1C000848FFF7FBFBBDE8104007480021FFF7F3
:104A2C00E1BB00BF11490B0000F403201E1C279AA8
:104A3C0038E7032000000000AD490B007047000070
:104A4C0038B5044614252A46002100F04DF825807F
:104A5C004025074925812846258200F02FF8044976
:104A6C006060284600F02AF8E060204638BD00BFA0
:104A7C00984D0B0030B50E4D2978BFF35B8F11F0BC
:104A8C00010487B011D12846FFF701FB68B101A8DA
:104A9C00FFF7D6FF01AA21460648FFF761FE28461C
:104AAC00FFF7FAFA044800F00BF8024807B030BDE3
:104ABC0044E7032048E70320494A0B00FFF7E3BA19
:104ACC00002301461A46184600F04CB80A4491429D
:104ADC0000F1FF3300D1704710B511F8014B03F80A
:104AEC00014F9142F9D110BD02440346934200D1CB
:104AFC00704703F8011BF9E738B5104B1D68AB6B19
:104B0C000446B3B91820FFF7E9FB0246A86320B9A5
:104B1C000B4B0C484221FFF7F1FB0B490B4BC0E947
:104B2C0000130B4B83600B23838100210120C2E90E
:104B3C000401AB6B00221C615A6138BD74E6032082
:104B4C00994D0B00B04D0B000E33CDAB34126DE60E
:104B5C00ECDE0500034613F8012B002AFBD1181AD2
:104B6C00013870472DE9F843DFF8B8800646D8F8CD
:104B7C0000001F460D46914600F056F8254B1C6868
:104B8C0034B9254C1C60254B13B11B68C4F8883014
:104B9C0063681F2B07DDD8F8000000F047F84FF0D2
:104BAC00FF30BDE8F8834EB3D4F8880088B91C4BAD
:104BBC0023B9D8F8000000F038F8F0E74FF484700F
:104BCC00FFF78CFB0028F4D00023C0E94033C4F875
:104BDC008800636840F8239001229A4000EB83011F
:104BEC00D0F800311343C0F80031022EC1F88070A8
:104BFC0002BFD0F804311343C0F804316368D8F80D
:104C0C0000005A1C0233626044F8235000F00EF886
:104C1C000020C6E7E8E703205CE703200000000063
:104C2C00E9420B00D8E6032070477047704700003C
:104C3C001D400B0059400B0081400B0085400B00C0
:104C4C0000000000000000000000000097430B0073
:104C5C008D430B0083430B0079430B006D430B001A
:104C6C0061430B00F5440B00FD440B0055430B0056
:104C7C004D430B0043430B0039430B002D450B00F8
:104C8C000000000000000000C5430B00B5430B0002
:104C9C00B7430B00617070000000000000000000C2
:104CAC00B5440B00BF440B00C9440B00D3440B00AC
:104CBC00DD440B00E9440B00F5440B00FD440B00F4
:104CCC0005450B0011450B0019450B0023450B0046
:104CDC002D450B0025592D256D2D25645425483A5D
:104CEC00254D3A2553257A0061736374696D65000F
:104CFC000000000000000000F1460B005D470B00B7
:104D0C0035470B0019460B0005470B0021470B00DC
:104D1C0013470B002F470B00F3460B00F7460B0015
:104D2C0000000000000000009B470B0003480B0034
:104D3C00D9470B0019460B00CB470B009D470B00C6
:104D4C00AD470B00FD470B00BD470B0095470B0013
:104D5C000000000000000000F3480B00E9480B00C5
:104D6C00DF480B0095480B00D3480B00C7480B00DD
:104D7C00F5440B00FD440B00BB480B00B3480B0083
:104D8C00A9480B009F480B002D450B0000524545D0
:104D9C004E54206D616C6C6F632073756363656535
:104DAC00646564002F746D702F6A656E6B696E7329
:104DBC002D4743432D31302D706970656C696E65DC
:104DCC002D34385F32303230313132345F3136305D
:104DDC00363138303633392F7372632F6E65776CFA
:104DEC0069622F6E65776C69622F6C6962632F73D1
:104DFC0074646C69622F72616E642E630000000033
:104E0C0029430B00A1430B00A5440B0005460B00E6
:104E1C00AD460B00B9460B00DD460B00FD480B0000
:044E2C000000000082
:104E3000040000001400000003000000474E55006D
:104E40008DF29EB2686FACCD6F5B4F563E5B6CD6F9
:044E50002B9C3DA6B4
:044E5400000000005A
:104E5800F44C0B0078E6032000000000000000007E
:104E6800000000000000000000000000000000003A
:104E7800000000000000000000000000000000002A
:104E8800000000000000000000000000000000001A
:104E9800000000000000000000000000000000000A
:104EA80000000000000000000000000000000000FA
:0C4EB8000000000000000000ECE70320F8
:104EC400FFFFFFFF00000102030405060708090AAB
:104ED4000B0C0D0E0F101112131415161718191AA6
:084EE4001B1C1D1E1F202800ED
:044EEC0078563412AE
:04000003B000401CED
:00000001FF
