:02000002B0004C
:1040000000400B003EAB0B00000006000D00050257
:0840100004017D150000000011
:0440180030A20B00C7
:10401C0081F0004102E000BF83F0004330B54FEA6D
:10402C0041044FEA430594EA050F08BF90EA020FDA
:10403C001FBF54EA000C55EA020C7FEA645C7FEA6D
:10404C00655C00F0E2804FEA5454D4EB5555B8BF90
:10405C006D420CDD2C4480EA020281EA030382EA01
:10406C00000083EA010180EA020281EA0303362D93
:10407C0088BF30BD11F0004F4FEA01314FF4801C66
:10408C004CEA113102D0404261EB410113F0004F78
:10409C004FEA03334CEA133302D0524263EB43032F
:1040AC0094EA050F00F0A780A4F10104D5F1200ECD
:1040BC000DDB02FA0EFC22FA05F2801841F1000128
:1040CC0003FA0EF2801843FA05F359410EE0A5F1FC
:1040DC0020050EF1200E012A03FA0EFC28BF4CF02D
:1040EC00020C43FA05F3C01851EBE37101F00045E3
:1040FC0007D54FF0000EDCF1000C7EEB00006EEBF0
:10410C000101B1F5801F1BD3B1F5001F0CD3490879
:10411C005FEA30004FEA3C0C04F101044FEA4452D0
:10412C0012F5800F80F09A80BCF1004F08BF5FEA57
:10413C00500C50F1000041EB045141EA050130BD37
:10414C005FEA4C0C404141EB0101013C28BFB1F549
:10415C00801FE9D291F0000F04BF01460020B1FA94
:10416C0081F308BF2033A3F10B03B3F120020CDA67
:10417C000C3208DD02F1140CC2F10C0201FA0CF045
:10418C0021FA02F10CE002F11402D8BFC2F1200CAA
:10419C0001FA02F120FA0CFCDCBF41EA0C01904060
:1041AC00E41AA2BF01EB0451294330BD6FEA0404A9
:1041BC001F3C1CDA0C340EDC04F11404C4F1200294
:1041CC0020FA04F001FA02F340EA030021FA04F3A6
:1041DC0045EA030130BDC4F10C04C4F1200220FAFD
:1041EC0002F001FA04F340EA0300294630BD21FA3B
:1041FC0004F0294630BD94F0000F83F4801306BF01
:10420C0081F480110134013D4EE77FEA645C18BFF4
:10421C007FEA655C29D094EA050F08BF90EA020F8B
:10422C0005D054EA000C04BF1946104630BD91EA83
:10423C00030F1EBF0021002030BD5FEA545C05D186
:10424C004000494128BF41F0004130BD14F58004C5
:10425C003CBF01F5801130BD01F0004545F0FE4139
:10426C0041F470014FF0000030BD7FEA645C1ABF6E
:10427C00194610467FEA655C1CBF0B46024650EAA5
:10428C00013406BF52EA033591EA030F41F40021D1
:10429C0030BD00BF90F0000F04BF0021704730B557
:1042AC004FF4806404F132044FF000054FF000012C
:1042BC0050E700BF90F0000F04BF0021704730B5ED
:1042CC004FF4806404F1320410F0004548BF4042C2
:1042DC004FF000013EE700BF42004FEAE2014FEA17
:1042EC0031014FEA02701FBF12F07F4393F07F4FF2
:1042FC0081F06051704732F07F4208BF704793F0F5
:10430C007F4F04BF41F40021704730B54FF4607407
:10431C0001F0004521F000411CE700BF50EA01020A
:10432C0008BF704730B54FF000050AE050EA0102B3
:10433C0008BF704730B511F0004502D5404261EB23
:10434C0041014FF4806404F132045FEA915C3FF464
:10435C00D8AE4FF003025FEADC0C18BF03325FEA01
:10436C00DC0C18BF033202EBDC02C2F1200300FAB2
:10437C0003FC20FA02F001FA03FE40EA0E0021FAD7
:10438C0002F11444BDE600BF70B54FF0FF0C4CF4C5
:10439C00E06C1CEA11541DBF1CEA135594EA0C0F77
:1043AC0095EA0C0F00F0DEF82C4481EA030621EAB2
:1043BC004C5123EA4C5350EA013518BF52EA0335ED
:1043CC0041F4801143F4801338D0A0FB02CE4FF09F
:1043DC000005E1FB02E506F00042E0FB03E54FF0CF
:1043EC000006E1FB03569CF0000F18BF4EF0010EC7
:1043FC00A4F1FF04B6F5007F64F5407404D25FEAC3
:10440C004E0E6D4146EB060642EAC62141EA555175
:10441C004FEAC52040EA5E504FEACE2EB4F1FD0CB7
:10442C0088BFBCF5E06F1ED8BEF1004F08BF5FEA35
:10443C00500E50F1000041EB045170BD06F00046E7
:10444C0046EA010140EA020081EA0301B4EB5C0494
:10445C00C2BFD4EB0C0541EA045170BD41F480118C
:10446C004FF0000E013C00F3AB8014F1360FDEBFB1
:10447C00002001F0004170BDC4F10004203C35DA8D
:10448C000C341BDC04F11404C4F1200500FA05F310
:10449C0020FA04F001FA05F240EA020001F00042B1
:1044AC0021F0004110EBD37021FA04F642EB060127
:1044BC005EEA430E08BF20EAD37070BDC4F10C0451
:1044CC00C4F1200500FA04F320FA05F001FA04F215
:1044DC0040EA020001F0004110EBD37041F1000101
:1044EC005EEA430E08BF20EAD37070BDC4F120050C
:1044FC0000FA05F24EEA020E20FA04F301FA05F274
:10450C0043EA020321FA04F001F0004121FA04F21B
:10451C0020EA020000EBD3705EEA430E08BF20EAEB
:10452C00D37070BD94F0000F0FD101F00046400025
:10453C0041EB010111F4801F08BF013CF7D041EAA7
:10454C00060195F0000F18BF704703F000465200AB
:10455C0043EB030313F4801F08BF013DF7D043EA7C
:10456C000603704794EA0C0F0CEA135518BF95EA32
:10457C000C0F0CD050EA410618BF52EA4306D1D1B9
:10458C0081EA030101F000414FF0000070BD50EAD8
:10459C00410606BF1046194652EA430619D094EA62
:1045AC000C0F02D150EA013613D195EA0C0F05D14C
:1045BC0052EA03361CBF104619460AD181EA0301A0
:1045CC0001F0004141F0FE4141F470014FF0000058
:1045DC0070BD41F0FE4141F4780170BD70B54FF0F3
:1045EC00FF0C4CF4E06C1CEA11541DBF1CEA135573
:1045FC0094EA0C0F95EA0C0F00F0A7F8A4EB050455
:10460C0081EA030E52EA03354FEA013100F088804B
:10461C004FEA03334FF0805545EA131343EA126314
:10462C004FEA022245EA111545EA10654FEA0026C9
:10463C000EF000419D4208BF964244F1FD0404F582
:10464C00407402D25B084FEA3202B61A65EB0305DE
:10465C005B084FEA32024FF480104FF4002CB6EB9B
:10466C00020E75EB030E22BFB61A754640EA0C001B
:10467C005B084FEA3202B6EB020E75EB030E22BF5B
:10468C00B61A754640EA5C005B084FEA3202B6EB9C
:10469C00020E75EB030E22BFB61A754640EA9C005B
:1046AC005B084FEA3202B6EB020E75EB030E22BF2B
:1046BC00B61A754640EADC0055EA060E18D04FEAE9
:1046CC00051545EA16754FEA06164FEAC30343EA89
:1046DC0052734FEAC2025FEA1C1CC0D111F4801F56
:1046EC000BD141EA00014FF000004FF0004CB6E74F
:1046FC0011F4801F04BF01430020B4F1FD0C88BFEE
:10470C00BCF5E06F3FF6AFAEB5EB030C04BFB6EBF8
:10471C00020C5FEA500C50F1000041EB045170BDEB
:10472C000EF0004E4EEA113114EB5C04C2BFD4EB18
:10473C000C0541EA045170BD41F480114FF0000E9C
:10474C00013C90E645EA060E8DE60CEA135594EA18
:10475C000C0F08BF95EA0C0F3FF43BAF94EA0C0F1B
:10476C000AD150EA01347FF434AF95EA0C0F7FF490
:10477C0025AF104619462CE795EA0C0F06D152EAE4
:10478C0003353FF4FDAE1046194622E750EA4106C8
:10479C0018BF52EA43067FF4C5AE50EA41047FF4D9
:1047AC000DAF52EA43057FF4EBAE12E74FF0FF3C3E
:1047BC0006E000BF4FF0010C02E000BF4FF0010C0F
:1047CC004DF804CD4FEA410C7FEA6C5C4FEA430C88
:1047DC0018BF7FEA6C5C1BD001B050EA410C0CBFD7
:1047EC0052EA430C91EA030F02BF90EA020F002039
:1047FC00704710F1000F91EA030F58BF994208BFA0
:10480C0090422CBFD8176FEAE37040F0010070475C
:10481C004FEA410C7FEA6C5C02D150EA013C07D1B3
:10482C004FEA430C7FEA6C5CD6D152EA033CD3D0FE
:10483C005DF8040B704700BF8446104662468C46F8
:10484C001946634600E000BF01B5FFF7B7FF00282B
:10485C0048BF10F1000F01BD4DF808EDFFF7F4FF54
:10486C000CBF012000205DF808FB00BF4DF808EDDF
:10487C00FFF7EAFF34BF012000205DF808FB00BF02
:10488C004DF808EDFFF7E0FF94BF012000205DF824
:10489C0008FB00BF4DF808EDFFF7CEFF94BF0120D9
:1048AC0000205DF808FB00BF4DF808EDFFF7C4FFD2
:1048BC0034BF012000205DF808FB00BF4FEA410C1B
:1048CC007FEA6C5C02D150EA013C0AD14FEA430CFE
:1048DC007FEA6C5C02D152EA033C02D14FF000003B
:1048EC0070474FF0010070474FEA410212F5001279
:1048FC0015D211D56FF47873B3EB625212D94FEA1B
:10490C00C12343F0004343EA505311F0004F23FA04
:10491C0002F018BF404270474FF00000704750EA59
:10492C00013005D111F0004008BF6FF00040704716
:10493C004FF00000704700BF4A0011D212F5001270
:10494C0011D20DD56FF47873B3EB62520ED44FEADB
:10495C00C12343F0004343EA505323FA02F070475B
:10496C004FF00000704750EA013002D14FF0FF3099
:10497C0070474FF0000070474FEA4102B2F1E0433C
:10498C0024BFB3F5001CDCF1FE5C0DD901F0004C2A
:10499C004FEAC0024CEA5070B2F1004F40EB83007A
:1049AC0008BF20F00100704711F0804F21D113F1A6
:1049BC003872BCBF01F00040704741F480114FEADF
:1049CC005252C2F11802C2F1200C10FA0CF320FA68
:1049DC0002F018BF40F001004FEAC1234FEAD32385
:1049EC0003FA0CFC40EA0C0023FA02F34FEA4303EF
:1049FC00CCE77FEA625307D150EA01331EBF4FF078
:104A0C00FE4040F44000704701F0004040F0FE4092
:104A1C0040F40000704700BF10F8012B11F8013B67
:104A2C00012A28BF9A42F7D0D01A7047034613F8D0
:104A3C00012B002AFBD1181A0138704709480A4982
:104A4C00884208B505D0094A824202D0121A05F0F4
:104A5C0039FA0748074A0021121A05F05BFA014897
:104A6C0008BD00BF30E503209CAA0B00A4E5032081
:104A7C00A8E50320F4E7032070B5074E074C05F0BA
:104A8C0037F8A41BA4080025AC4200D170BD56F821
:104A9C00043B98470135F7E754AA0B0078AA0B00A2
:104AAC0000F09EB808B500F083F9BDE8084004F0AA
:104ABC00D7BF00F0E7BC00F0E5BC00F0EBBC000099
:104ACC0008B5034A03490C2000F010FCFEE700BFB8
:104ADC0029510B0044A20B000078B0FA80F0400979
:104AEC0070470123037070477047000010B502290E
:104AFC002DED028B0C461BD1B0F90000FFF7DAFB51
:104B0C000D4B0022FFF76AFDFFF736FF08EE100A87
:104B1C0004F05EFF094904F053FC04F059FFB0EEB9
:104B2C00480ABDEC028B2146BDE8104004F066BD7E
:104B3C00BDEC028B10BD00BF0000594059A20B0008
:104B4C000A4B10B50446036003F02CFD214603F01C
:104B5C0064FF04F03DFF04F02FFF2046044B40F8A7
:104B6C00043B03F0F5FD204610BD00BFDCA20B009A
:104B7C00C4A20B0010B50446FFF7E2FF2046242127
:104B8C00FFF79BFF204610BD10B54368013B044660
:104B9C00436063B903689B689847A368013BA360B3
:104BAC002BB923682046DB68BDE81040184710BDC0
:104BBC000EB400B58CB00DAA4FF0200C52F8041BAB
:104BCC000392CDE900120023016804AA1E20CDE94E
:104BDC0004C300F09BFB0CB05DF804EB03B0704712
:104BEC002DE9F04156495748574C90B00023092203
:104BFC0000F0C8FB554B606803221A600022114676
:104C0C0000F0F8FBA8B1214608A802F061FF08A843
:104C1C0002F0DAFF4E4B08A883ED000A03F004F80B
:104C2C004C4B83ED000A04F0D3FE4FF4165104F004
:104C3C00BFFE01F041F901F089F901F03DF9464957
:104C4C0001F08BF9454801F0A9F80446002873D10E
:104C5C0001F032F9014601A802F0E2FD029A002AA5
:104C6C0058D03F493F48DFF814813C4EFFF7A0FF76
:104C7C00DDE901139C424DDA2425654300222944C9
:104C8C0004A800F051FE0022414608A800F04CFE9A
:104C9C0008A904A804F0B5FD074608A804F0C4FC54
:104CAC0004A804F0C1FC002F32D004F091FE2E4970
:104CBC0004F099FB01F000F9019A014601232A4402
:104CCC0008A802F02DFC089B099D336073689D4277
:104CDC0008D015B16B6801336B60706808B1FFF7D1
:104CEC0053FF756008A801F004FA304601F056F83D
:104CFC0070B104F06DFE1D4904F075FB1C4A1D4992
:104D0C00304602F0A0F81C491A48002202F0C5F8FF
:104D1C000134ADE7DDE90143242505FB0345A5423C
:104D2C0007D0606900F0B6FBA06800F0B3FB243438
:104D3C00F5E7019800F0AEFB10B0BDE8F08100BFC4
:104D4C00E8E5032069A20B0070E6032000E60320CF
:104D5C00F4E50320F0E5032079A20B002CE60320F8
:104D6C007FA20B00B4E6032090A20B009FA20B00C5
:104D7C00D4E503203CE60320F94A0B00B4E50320FC
:104D8C0010B5094C00F0D2F92368C01A074B9842B1
:104D9C0008D900F0FFFA10B1002000F003FB00F07E
:104DAC00C5F9206010BD00BF04E60320005C260599
:104DBC00FFF7E6BF10B50446006808B1FFF7E4FE44
:104DCC00204610BD70B5D0E900531426044606FBEE
:104DDC000356AE4204D0284604F026FC1435F8E7FE
:104DEC00206800F057FB204670BD8842F8B5044699
:104DFC000D46164616D9904215D2A2F11406751A14
:104E0C00A1F114072C44B7421CD02CB131462046DA
:104E1C0004F087FC337C2374304604F005FC143E0C
:104E2C00143CF0E70ED0B5420CD02CB129462046EC
:104E3C0004F077FC2B7C2374284604F0F5FB143526
:104E4C001434F0E7F8BD2DE9F0410023C0E900333C
:104E5C0083604F689F4204460E4623DD4FF01408D2
:104E6C0008FB07F000F00EFB0546D8B1D4E90012A0
:104E7C0008FB0212FFF7B9FF206800F00BFB25605E
:104E8C00A760D6E9007308FB0378B84508D039460B
:104E9C00284604F060FC3B7C2B7414371435F4E783
:104EAC00736863602046BDE8F08100003B4BF0B5B1
:104EBC0001251D703A4B08221A703A4B3A4A9A60F7
:104ECC0000248DB0C3E90044284600F037FA21468F
:104EDC00284600F03BFA21463448354D02F02AFFB3
:104EEC00CDE90044029404F073FD6946064603A81C
:104EFC00FFF7A9FF2F4603A906A8FFF7A4FF2D4B28
:104F0C0047F8043B06A909A8FFF79DFF09AA1E2133
:104F1C00384603F065FE09A8FFF754FF06A8FFF713
:104F2C0051FF254B2B602E6203A8FFF74BFF234B41
:104F3C002B6004F04DFD4FF4165104F039FD03F0D5
:104F4C0031FB294603F022FD6846FFF73BFF00F0DA
:104F5C00EDF81B4B1B4918601B4804F0B0FB1949BA
:104F6C001A4804F0ACFB1A4800F0F6FE41F61A01A0
:104F7C00184800F03AFD42F66E21174800F035FD56
:104F8C00164800F06DFE164800F06AFE15491648EA
:104F9C0022460DB0BDE8F04000F038BCD0E503204F
:104FAC00D1E50320A8E503200000FFFFF8E503206E
:104FBC0008E60320C4A20B00D0A60B00DCA20B0059
:104FCC0004E6032096A60B0044E6032054E60320D7
:104FDC002CE60320BCE50320D4E503203CE60320AB
:104FEC0034E60320AAA20B00B4E5032008B5024B5B
:104FFC001B689B68019308BD7802030008B5024B3F
:10500C001B681B6A019308BD7802030008B5024BAC
:10501C001B68DB6F019308BD7802030008B5034BD6
:10502C001B68D3F88430019308BD0000780203009C
:10503C0008B5034B1B68D3F89830019308BD0000EA
:10504C007802030008B5034B1B68D3F8BC300193FE
:10505C0008BD00007802030008B5034B1B68D3F8A9
:10506C00C430019308BD00007802030008B5034B5F
:10507C001B68D3F8E030019308BD000078020300F0
:10508C0008B5034B1B68D3F8E430019308BD00004E
:10509C007802030008B5034B1B68D3F8F03001937A
:1050AC0008BD00007802030008B5034B1B68D3F859
:1050BC00F430019308BD00007802030008B5024BE0
:1050CC001B685B6C019308BD7402030008B5024BAE
:1050DC001B685B6C019308BD4802030008B5024BCA
:1050EC001B689B6C019308BD4802030008B5024B7A
:1050FC001B68DB6C019308BD4802030008B5024B2A
:10510C001B685B6D019308BD4802030008B5024B98
:10511C001B685B68019308BD1802030008B5024BBD
:10512C001B68DB68019308BD1802030008B5024B2D
:10513C001B685B69019308BD1802030008B5024B9C
:10514C001B681B6A019308BD2802030008B5024BBB
:10515C001B685B6A019308BD2802030008B5024B6B
:10516C001B689B6A019308BD2802030008B5024B1B
:10517C001B68DB6A019308BD2802030008B5024BCB
:10518C001B681B6B019308BD2802030008B5024B7A
:10519C001B681B6C019308BD2802030008B5024B69
:1051AC001B689B6C019308BD2802030008B5024BD9
:1051BC001B685B69019308BD6402030008B5024BD0
:1051CC001B689B68019308BD6802030008B5024B7D
:1051DC001B68DB68019308BD6802030008B5024B2D
:1051EC001B689B68019308BD3C02030008B5024B89
:1051FC001B68DB68019308BD3C02030008B5024B39
:10520C001B681B69019308BD3C02030008B5024BE7
:10521C001B685B69019308BD3C02030008B5024B97
:10522C001B689B69019308BD3C02030008B5024B47
:10523C001B68DB69019308BD3C02030008B5024BF7
:10524C001B689B6A019308BD3C02030008B5024B26
:10525C001B68DB6A019308BD3C02030008B5024BD6
:10526C001B681B6C019308BD3C02030008B5024B84
:10527C001B681B68019308BD4C02030008B5024B68
:10528C001B685B68019308BD4C02030008B5024B18
:10529C001B689B68019308BD4C02030008B5024BC8
:1052AC001B681B69019308BD4C02030008B5024B37
:1052BC001B685B69019308BD4C02030008B5024BE7
:1052CC001B689B69019308BD4C02030008B5024B97
:1052DC001B68DB69019308BD4C02030008B5024B47
:1052EC001B681B6A019308BD4C02030008B5024BF6
:1052FC001B685B6B019308BD6002030008B5024B91
:10530C001B681B6D019308BD6002030008B5024BBE
:10531C001B685B6D019308BD6002030008B5024B6E
:10532C001B68DB6E019308BD6002030008B5024BDD
:10533C001B681B6F019308BD6002030008B5024B8C
:10534C001B685B68019308BD2002030008B5024B83
:10535C001B68DB6A019308BD2002030008B5034BF0
:10536C001B68D3F88830019308BD000020020300AD
:10537C0008B5034B1B68D3F89430019308BD0000AB
:10538C002002030008B5024B1B681B68019308BD83
:10539C004402030008B5024B1B685B69019308BD0E
:1053AC004402030008B5024B1B68DB6A019308BD7D
:1053BC004402030008B5024B1B68DB6B019308BD6C
:1053CC004402030008B5024B1B685B68019308BDDF
:1053DC004002030008B5024B1B689B68019308BD93
:1053EC004002030008B5024B1B68DB68019308BD43
:1053FC004002030008B5024B1B681B69019308BDF2
:10540C004002030008B5024B1B685B69019308BDA1
:10541C004002030008B5024B1B689B69019308BD51
:10542C004002030008B5024B1B68DB69019308BD01
:10543C004002030008B5024B1B681B6A019308BDB0
:10544C004002030008B5024B1B681B6B019308BD9F
:10545C004002030008B5024B1B685B6B019308BD4F
:10546C004002030008B5024B1B681B6C019308BD7E
:10547C004002030008B5024B1B685B6C019308BD2E
:10548C004002030008B5024B1B681B68019308BD62
:10549C001C02030008B5024B1B685B68019308BD36
:1054AC001C02030008B5024B1B689B68019308BDE6
:1054BC001C02030008B5024B1B685B6A019308BD14
:1054CC001C02030008B5024B1B68DB6A019308BD84
:1054DC001C02030008B5024B1B68DB6B019308BD73
:1054EC001C02030008B5024B1B681B6C019308BD22
:1054FC001C02030008B5024B1B685B6C019308BDD2
:10550C001C0203007047704770477047064B994266
:10551C0010B500F10C0405D0084604F0A3FB0028DC
:10552C0008BF0024204610BDECA20B00064B99428C
:10553C0010B500F10C0405D0084604F093FB0028CC
:10554C0008BF0024204610BDECA20B00064B99426C
:10555C0010B500F10C0405D0084604F083FB0028BC
:10556C0008BF0024204610BDECA20B0010B568212A
:10557C000446FFF7A2FA204610BD10B528210446B8
:10558C00FFF79BFA204610BD10B530210446FFF7FB
:10559C0094FA204610BD6821FFF78FBA2821FFF737
:1055AC008CBA3021FFF789BAF0B50025EC1C8C427F
:1055BC000DD86E1C445D875D974205D12644B142DF
:1055CC0005D31D60601CF0BD01342544EEE70020BE
:1055DC00F9E70000024A03490A20FFF787BE00BF23
:1055EC0029510B00F4A20B0030B40D4611461A469B
:1055FC00036809682868D3E90043A44630BC6047B7
:10560C00012A38B5044602D10B68236003E0022A54
:10561C0003D0032A0DD0002038BD08200D68FFF7F9
:10562C0048FA03460028F0D095E8030083E803000D
:10563C00EBE700680028EED00821FFF73EFAEAE716
:10564C0010B5836804462BB103220146984700230A
:10565C00C4E9023310BD10B5836804462BB1032294
:10566C00014698470023C4E9023310BD10B500234E
:10567C008AB02022CDE902230446084A0092084948
:10568C0002AA0120FFF73AFE206806490088002391
:10569C0022460AB0BDE81040FFF7D4BC16A30B009D
:1056AC000BA30B0051700B0010B5013802EB41013C
:1056BC0010F8013F1B0903F13004392C88BF03F1AA
:1056CC00370402F8024B037803F00F0303F13004A4
:1056DC00392C88BF03F13704914202F8014CE7D111
:1056EC0010BD10B58368044613B1032201469847D8
:1056FC00204610BD10B504465830FFF7F2FF04F1F8
:10570C004800BDE8104003F08FBF38B503688B42EA
:10571C0005460C4608D011B14B6801334B60286824
:10572C0008B1FFF731FA2C6038BDA0F13003DAB2C2
:10573C00092A01D818467047A0F16103052B01D83E
:10574C0057387047A0F14103052B94BF37384FF001
:10575C00FF30704710B500230370044B04461868E3
:10576C00FFF7C4FC01232370204610BD68E603201C
:10577C0010B5037804461BB1024B1868FFF7BEFC4A
:10578C00204610BD68E603202DE9F843064617466F
:10579C000D46B1B34FF000094FF006081121284611
:1057AC0004F021FC484508D842460021304604F05C
:1057BC00B1FBB7710020BDE8F883B8F1000FF8D049
:1057CC0015F80900FFF7B1FF030617D4000108F123
:1057DC00FF38C4B206F808401121284604F003FC37
:1057EC0009F10109814509D215F80900FFF79DFF60
:1057FC0043B2002BA4BF234306F8083009F101097A
:10580C00CCE70148D7E700BFF2FEFFFF10B5044616
:10581C00FFF7BAFF204610BD82B0034608684968FE
:10582C006A4603C26A4603CA18601846596002B039
:10583C00704708B582798B799A4206D1062204F01A
:10584C0031FBB0FA80F0400908BD0020FCE74FF0B6
:10585C00FF33036083800020704708B502460021A7
:10586C0001604160FFF7F3FF9171104608BD10B560
:10587C00431D01391C7801F8014F834203F1FF33BA
:10588C00F8D110BD70B5144688B01A460D460029E3
:10589C0048D0A4B101A9FFF7EAFF9AB103AA0621E7
:1058AC0001A8661EFFF700FF112E28BF11263246F5
:1058BC0003A9284604F006FB0023AB55741C2046B4
:1058CC0008B070BD03AA012101A8FFF7EDFE3A262E
:1058DC000DF10F0201210DF105008DF80E60FFF79F
:1058EC00E3FE0DF1120201210DF106008DF811609D
:1058FC00FFF7DAFE0DF1150201210DF107008DF80D
:10590C001460FFF7D1FE06AA012102A88DF81760DA
:10591C00FFF7CAFE8DF81A600DF11B0201210DF183
:10592C000900BEE70C46CAE710B586B0044613461C
:10593C000846122201A9FFF7A5FF01A9204603F092
:10594C00BEFE204606B010BD10B501230361054B09
:10595C00024603F1100153F8044B42F8044B8B42FE
:10596C00F9D110BD1EA20B000B7C13F0FD0330B55A
:10597C000DD103610C4B024603F1100453F8045B88
:10598C0042F8045BA342F9D10B88838130BD01231B
:10599C00036101F11002034651F8044B43F8044B28
:1059AC009142F9D1F2E700BF1EA20B0010B50B46D5
:1059BC000446B1B1012A01F110020AD1014653F893
:1059CC00040B41F8040B9342F9D1012323612046C7
:1059DC0010BD411E12F8010D01F8010F9A42F9D1C8
:1059EC00F3E7102204F096FAF1E738B504460D46B9
:1059FC00FFF7AAFF00232361A581204638BD08B517
:105A0C0002690B699A4206D1102204F04BFAB0FAE3
:105A1C0080F0400908BD0020FCE710B500F10F0331
:105A2C0001391C7801F8014F834203F1FF33F8D19F
:105A3C0010BD2DE9F0411F468EB00D4600295BD0FC
:105A4C00DAB1D0F81080541EB8F1000F19D1838947
:105A5C00CDF814805BBA05AA022101A8ADF8043078
:105A6C00FFF722FE042C28BF0424224605A9284651
:105A7C0004F028FA05F80480621C10460EB0BDE84C
:105A8C00F08101A9FFF7C9FF05AA7FB1102101A878
:105A9C00FFF70AFE242C28BF2424224605A92846F9
:105AAC0004F010FA00232B55621CE6E704210DEBE1
:105ABC000100FFF7F9FD2D260DF11D02022102A8B0
:105ACC008DF81C60FFF7F0FD0DF1220202210DF1A3
:105ADC000A008DF82160FFF7E7FD0DF12702022186
:105AEC0003A88DF82660FFF7DFFD8DF82B600BAA5D
:105AFC0006210DF10E00CBE70A46BEE710B58AB0C1
:105B0C0004460023252208466946FFF792FF6946A2
:105B1C00204603F0D4FD20460AB010BDF7B505466B
:105B2C0016461F460A4601ABD0E90001FFF73CFDC3
:105B3C0030F002040CD0841EBC4228BF3C463EB15F
:105B4C0001992B68023122461944304604F0BAF907
:105B5C00204603B0F0BD37B513460C4601920A46F9
:105B6C0008210546FFF7DAFF40B9019B22460921BF
:105B7C00284603B0BDE83040FFF7D0BF03B030BDBE
:105B8C00F0B50C4689B00C49054603F098FD1F2270
:105B9C0069462046FFF7DFFF064650B16C460027EA
:105BAC0014F8011B284603F00AFE10B10137BE425F
:105BBC00F6D1284609B0F0BD96A60B0007B5022316
:105BCC0001AA1921FFF7AAFF08B1BDF8040003B020
:105BDC005DF804FB38B54FF6FF730025044643808F
:105BEC000E22294605700571063004F093F904F174
:105BFC001400FFF7A9FE04F12800FFF7A5FE0449E5
:105C0C0004F13C0003F05BFD6565204638BD00BF28
:105C1C0096A60B0038B50D680446014605F1280020
:105C2C00FFF7EDFE40B1AB89A28A9A4205D8E08A13
:105C3C00984234BF0020012038BD0020FCE710B58D
:105C4C00D0E9063203EBC2029342184606D0046830
:105C5C0024888C4203F10803F6D110BD0020FCE728
:105C6C00002370B5036005466820FEF722FF041E72
:105C7C0004F10C0607D00123C4E90133044B236063
:105C8C003046FFF7A7FFC5E90064284670BD00BF8A
:105C9C00F4A40B0070B50C681434064605460FCC02
:105CAC000FC523682B60304670BD000010B503682B
:105CBC001A7886B052BB5C884FF6FF70844225D0B0
:105CCC00188A30B3CDE903220592134A0092134A85
:105CDC00CDE901235A88ADF80C201A8AADF80E20B4
:105CEC009A89ADF8102059B11A79920644BF022254
:105CFC0005921B79DB0642BF059B43F0010305931C
:105D0C0000216846FFF7D0F906B010BD6FF0D10046
:105D1C00FAE76FF07700F7E703001800FD5E0B0061
:105D2C00F8B50026066005462820FEF7C2FE041EC4
:105D3C0004F10C070AD00123C4E90133054B23609D
:105D4C003846FFF701FE266284F82460C5E900742A
:105D5C002846F8BD10A50B0070B500250560064659
:105D6C003020FEF7A6FE044688B10123C0E90133BA
:105D7C00094B03604FF6FF7383810E30FFF76DFD07
:105D8C00C4E90655C4E90855C4E90A55A5757460FB
:105D9C000C343460304670BD2CA50B0013B5044692
:105DAC0001A8FFF7D7FC23681C884FF6FF73E41A91
:105DBC0001A818BF0124FFF7DBFC204602B010BD80
:105DCC0037B505460C4601A8FFF7C4FC2A682368C2
:105DDC00C2F802306368C2F8063001A8FFF7C8FCAD
:105DEC0003B030BD37B50D46044601A8FFF7B2FC31
:105DFC002A68D2F802302360D2F80630636001A81A
:105E0C00FFF7B6FC204603B030BD30B5054687B071
:105E1C000C4601A8FFF79EFC2A68236812881B8891
:105E2C009A420DD1294602A8FFF7DCFF214604A8AF
:105E3C00FFF7D8FF04A902A8FFF7FBFC044600B942
:105E4C00002401A8FFF794FC204607B030BD0000E9
:105E5C0010B504466420FEF72CFE68B10023C0E99F
:105E6C000033C0E90233C0E90433C0E906330362EE
:105E7C00C362C363C364C365206020B90A4A0B497B
:105E8C000A20FFF733FA0020FFF7B0F820B1064ADA
:105E9C0007490A20FFF72AFA216806480022FFF773
:105EAC00F9F8204610BD00BF29510B00F4A20B00DD
:105EBC0032A30B0065680B0010B50A4C2378BFF3B6
:105ECC005B8FDB070CD42046FEF706FE40B106487C
:105EDC00FFF7BEFF2046FEF704FE044803F0D4FF94
:105EEC00014810BD64E603206CE6032069610B00D9
:105EFC0030B50368093B012B8DB004460D4611D813
:105F0C00FFF7DAFFA1880068FFF799FE034658B93E
:105F1C002022CDE904200B4A00920B4904AA32201E
:105F2C00FFF7ECF90DB030BD6A6D002AFAD0D4E958
:105F3C00032105F14C00CDE90312AC6D04AA03A9B1
:105F4C00A047EFE774A30B000BA30B0008B50020D0
:105F5C00FFF74CF800EAE07008BD10B50C4621B113
:105F6C001421204604F03FF8014620460022BDE8EB
:105F7C001040FFF743B810B504464069FFF78AFAA2
:105F8C00A068FFF787FA204610BD002247F67F7104
:105F9C00C0E90022C0E90222C0E90422C0E90E22B5
:105FAC00C0E91022C0E91222C0E91422C0E916226D
:105FBC00C0E91822C0E91B2202620263A0F8681033
:105FCC00704770B5D0E90053044605EB0316AE429A
:105FDC0004D0284603F028FB1035F8E72068FFF7BB
:105FEC0059FA204670BD10B504460068FFF752FA06
:105FFC00204610BD70B50446C06DFFF74BFA206DFE
:10600C00FFF748FA04F1380504F14400FFF7EBFF01
:10601C002846FFF7D6FF04F12800FFF762FB04F1D6
:10602C001800FFF75EFBD4E90053242606FB035649
:10603C00AE4204D02846FFF79EFF2435F8E72068CF
:10604C00FFF728FA204670BD38B5141E4368054684
:10605C0002DB62189A4200DD5C1A2A68501801199A
:10606C001A44521A03F03CFF6A68121B6A6038BD6E
:10607C0038B500230446836008200D46FEF719FD51
:10608C0018B12B6803606B684360034BE360034BF0
:10609C002060A360204638BDF5550B000D560B0053
:1060AC000B68036013B15A6801325A60704710B51F
:1060BC0051F8043B044640F8043BFFF7F1FF23681A
:1060CC000BB9FFF787FA204610BD10B551F8043B09
:1060DC00044640F8043BFFF7E3FF204610BD10B523
:1060EC0051F8043B044640F8043BFFF7D9FF204627
:1060FC0010BD10B504460430FEF75CFE204610BD02
:10610C0070B5D0E90053044605EBC306AE4204D08B
:10611C00281DFEF74FFE0835F8E72068FFF7BAF99F
:10612C00204670BD70B5D0E90053044605EBC3069C
:10613C00AE4204D0281DFEF73DFE0835F8E7206876
:10614C00FFF7A8F9204670BD10B504462430FFF7C0
:10615C00E9FF04F11800FFF7D3FF10BD70B5174B22
:10616C001C6854B304F15400FFF7BBFA04F144006B
:10617C00FFF7B7FA04F13400FFF7B3FA04F1240087
:10618C00FFF7AFFAD4E9065305EBC306AE4204D0D1
:10619C00281DFEF70FFE0835F8E7A069FFF77AF91E
:1061AC0004F10C00FFF7BEFF2046FFF7A9FF2046C5
:1061BC006421BDE87040FEF780BC70BD6CE6032026
:1061CC00826810B50AB903F049FDBDE81040C368F8
:1061DC0018472DE9F0470023C0E900338360D1F85C
:1061EC000480984505460F464ADD4FEA0810FFF734
:1061FC0049F90646002843D0D5E90041A04204EBFA
:10620C00011A16D9504515D2AAF1100AA4F1100999
:10621C00AAEB04040444D1451DD01CB151462046C0
:10622C0003F07FFA504603F0FFF9AAF1100A103C74
:10623C00F1E710D0B146A2450DD0B9F1000F03D053
:10624C002146484603F06DFA204603F0EDF9103470
:10625C0009F11009EFE72868FFF71CF9C5F8088069
:10626C002E60D7E9004304EB0318A04506D0214665
:10627C00304603F070FA10341036F6E77B686B602A
:10628C002846BDE8F08730B58DB00C4600F13801DA
:10629C0001A8FFF79EFF029B002B2FDD04F11401D8
:1062AC0004A8FFF76DFC04F1080108A8FFF768FCCF
:1062BC000A9A069B13431FD0DDE9014504EB051533
:1062CC00AC4219D004A9204603F09BFA60B101241A
:1062DC0008A803F0A9F904A803F0A6F901A8FFF790
:1062EC0070FE20460DB030BD204608A903F089FA97
:1062FC0010340028E4D0EAE70024E9E70124EDE7B4
:10630C00F8B50023C0E9003383604F689F4205460F
:10631C000E463EDDF800FFF7B5F80446C8B3D5E9E4
:10632C000003844200EBC30310D99C420FD2083BFC
:10633C001A1AA0F1080C22449C4518D01AB11968FD
:10634C00116059685160083B083AF5E70FD00146D7
:10635C0022468B420BD03AB1D1F800C0C2F800C033
:10636C00D1F804C0C2F804C008310832F1E7FFF7D5
:10637C0091F82C60AF60D6E9003103EBC100984274
:10638C0006D01A6822605A68626008330834F6E74F
:10639C0069602846F8BD70B504460020C4E90000C9
:1063AC00A0604E6886420D4612DD7100FFF77AF848
:1063BC0070B12060A660D5E9003203EB42029A422C
:1063CC0004D033F8021B20F8021BF8E76B686360FB
:1063DC00204670BD10B50379044623B903681868CC
:1063EC0008B1FFF757F8204610BD10B503790446E5
:1063FC0023B90368186808B1FFF74CF8204610BDA4
:10640C002DE9F043D0F86C808FB00F46B8F1000F37
:10641C0072D0056F002D6FD001F114091F230022DB
:10642C00FF214846FFF77AFB0837FF23044600227A
:10643C0019463846FFF772FBAC42064606D0AE4210
:10644C0030D0002420460FB0BDE8F0832046FFF783
:10645C0019F803AB04930023044603908DF8143011
:10646C0070B92023CDE90630244B00932449034610
:10647C0006AA3220FEF742FF04A8FFF7ABFFE1E7C4
:10648C000246FF212B464846FFF748FB03982A4655
:10649C00414603F007FD18B104A8FFF79BFFCEE7B8
:1064AC000124E9E72846FEF7EDFF002403AB06467E
:1064BC00039004938DF8144078B92023CDE906306D
:1064CC000E4B00930E49034606AA3220FEF716FF28
:1064DC00344604A8FFF789FFB4E70246FF212B4698
:1064EC003846FFF71BFB03982A46414603F0DAFCBB
:1064FC000028EED10124ECE70124A3E78CA30B00C8
:10650C000BA30B0038B50D1E0446006803DDFEF727
:10651C00C9FF18B938BDFEF7BDFF00202060A5608B
:10652C000120F7E708B583688B4202DAFFF7EAFF30
:10653C0008BD0120FCE738B50023C0E900338360B7
:10654C000D4649689942044610DDFFF7DBFF68B140
:10655C00D5E9003122681944994205D00AB118785E
:10656C00107001330132F7E76B686360204638BD69
:10657C0038B50B6803604B68436004460D46083021
:10658C000831FFF7D8FF05F1140104F11400FFF7EF
:10659C00D2FF95F8203084F82030204638BD1FB546
:1065AC00044601A8FFF7C7FF019B029A20682360ED
:1065BC0063686260039A0293A368A26001900393DC
:1065CC00FEF768FF04B010BD2DE9F0410F4641689D
:1065DC001D461944836899420446904612DC26688D
:1065EC0062683E44D21B3146701903F079FC2A468E
:1065FC004146304603F066FC63682B44636001201F
:10660C00BDE8F081FFF77EFF0028E8D1F8E71346DC
:10661C000A46002110B50446416002B10BB90020B6
:10662C0010BDFF2B28BFFF23FFF7CEFF0028F7D0AC
:10663C006068F5E7F8B50D46D0E9011399420446B8
:10664C0016460BDA276862687919521B481C03F04E
:10665C0047FC7E55636801336360F8BD0131FFF779
:10666C0051FF0028EED1F8E70A464168FFF7E2BF78
:10667C002DE9F74304461D460F4601AB90460A46EA
:10668C00D0E900019DF82890FEF78EFFAE1C6368E0
:10669C000246B9F1000F26D128B333441B1AFF2B45
:1066AC0009D801992046FFF7CFFC61682046314498
:1066BC00FFF738FF18B9606803B0BDE8F0836A1CB7
:1066CC000199D2B22046FFF7B5FF01993A46013144
:1066DC002046FFF7AFFF01992B4642460231204678
:1066EC00FFF772FFE7E7F118FF29E4D82046FFF720
:1066FC0019FF0028DFD0691CC9B22046FFF7B4FF90
:10670C0039462046FFF7B0FF61682B464246E6E764
:10671C0030B49DF808501AB1029530BCFFF7A8BFF1
:10672C00406830BC70471FB50023C0E9003383605C
:10673C000622009301238DF80F2019460DF10F024C
:10674C000446FFF7E5FF204604B010BD8842F8B5BB
:10675C0004460D46164614D9904213D2A2F10806EF
:10676C00751AA1F108072C44B74218D01CB1314658
:10677C002046FFF7B4FC301DFEF71CFB083E083C1E
:10678C00F2E70CD0B5420AD01CB129462046FFF7DF
:10679C00A6FC281DFEF70EFB08350834F2E7F8BD01
:1067AC00F7B5044646686846FFF799FCD4E90173CF
:1067BC009F4212DB0137002F29DDF800FEF762FE45
:1067CC000546F0B1D4E9001201EBC202FFF7BEFF9F
:1067DC002068FEF75FFE2560A7602368626803EB04
:1067EC00C60603EBC202314606F10800FFF7AEFF06
:1067FC001EB169463046FFF772FC63680133636073
:10680C00012501A8FEF7D6FA284603B0F0BD0025F5
:10681C00DEE7F8B5D0E9004305460F4604EBC306A6
:10682C00A64205D039462046FFF7EFFA08B114B955
:10683C00F8BD0834F4E7201DFEF7BCFAD5E90032A8
:10684C0004F1080103EBC2022046FFF77FFF6B68DF
:10685C00013B6B60ECE700002DE9F04105468EB082
:10686C0003A80C46FEF776FF2E68F31E0D2B3CD8C2
:10687C00DFE813F00E0057003B00CF003B003B005D
:10688C003B003B003B00990099009900990099004E
:10689C0004A8FFF761FA049BAA891A806968049816
:1068AC0008310230FEF7B8FF04A906A8FFF717FC61
:1068BC0006A904F11800FFF773FF054607A8FEF7B9
:1068CC0079FAC5B92023CDE906355C4B5C490093B8
:1068DC0006AA2B460120FEF711FD049B29461888B9
:1068EC00FEF7A6FB05A8FEF765FA03A8FEF740FF26
:1068FC000EB0BDE8F081E36A23B104A904F12400D1
:10690C00FFF75EFC05A8FEF755FA20210023CDE920
:10691C0006134C4A00924A4906AA0120FEF7EEFCE7
:10692C00E3E7A9892046FFF78AF906460028DCD060
:10693C000568D5E906324FF6FF71298003EBC202D8
:10694C009A4203D053F8080B4180F9E7D5E9037359
:10695C0007EBC308B84504D0381DFEF72BFA0837EF
:10696C00F8E700232B61D5E9067307EBC308B8459C
:10697C0004D0381DFEF71EFA0837F8E70023EB6148
:10698C00AB72E36B23B1314604F13400FFF718FC12
:10699C00314604F11800FFF73CFF20220023CDE91B
:1069AC000623294AB6E7A9892046FFF748F90028AB
:1069BC009BD0E36C002B98D000230D2EADF8163035
:1069CC0001D0102E17D1002369681A4606258DF8C0
:1069DC00153004918DF814200690DDE9040109AB03
:1069EC008DF81C60089583E80300236D06A904F15B
:1069FC004400984779E70F2E01BF2B7A696803F0A2
:106A0C00010208250FBFC3F340031A4619461D4661
:106A1C00DDE7A9892046FFF712F9014600283FF46B
:106A2C0064AFE36D002B3FF460AF6B68069306AA6E
:106A3C00236E04F15400984757E700BFA7A30B003F
:106A4C000BA30B00CDA30B00D7A30B0038B50D1E69
:106A5C000446006805DD14216943FEF723FD18B9CF
:106A6C0038BDFEF717FD00202060A5600120F7E778
:106A7C002DE9F8430024C0E9004484608846496845
:106A8C00A14207461ADDFFF7E1FFB8B1D8E9009340
:106A9C004FF0140CD7F800E00CFB039C09EB040539
:106AAC00AC4508D01EEB04061FBF0FCD0FC62B68DC
:106ABC0033601434F2E7D8F804307B603846BDE814
:106ACC00F8832DE9F843D1E9008745688368E91913
:106ADC009942044617DC1423266862685D4303FB65
:106AEC0007F95A432E44521B314606EB090003F0BA
:106AFC00F7F94A464146304603F0E4F963683B44F3
:106B0C006360BDE8F883FFF7A1FF0028E3D1F8E745
:106B1C0082B070B50C4604A981E80C00D0E90113D1
:106B2C009942054617DA142303FB04F16A682C68B2
:106B3C005A430C44521AE018214604AE03F0D0F923
:106B4C000FCE0FC4336823606B6801336B60BDE8F4
:106B5C00704002B070470131FFF778FF0028E2D196
:106B6C00F5E72DE9F04F002493B0931EC0E90044E3
:106B7C00DBB205460F4690468460059379688C42DB
:106B8C0072DA386807AB4246091B2044FEF70CFD4D
:106B9C000646002868D0059B012B2FD8A0F1020BCC
:106BAC004FEA5B0B4FF000090DF13C0A079BCB45FC
:106BBC00234455D03A6803EB4903134408A8D97809
:106BCC009B7843EA0121FEF710FF0DF1200EBEE881
:106BDC000F000DF1340CACE80F00DEF80030CCF8EF
:106BEC0000309AE807008DE807000DAB0CCB696804
:106BFC002846FFF78DFF09F10109D7E7A8F1060335
:106C0C00012B2DD8A0F1020B4FEA1B1B4FF00009F2
:106C1C000DF13C0ACB45079B22D002333968234443
:106C2C0003EB09130122194408A8FEF7BFFE0DF16E
:106C3C00200EBEE80F000DF1340CACE80F00DEF8AE
:106C4C000030CCF800309AE807008DE80700DDE949
:106C5C000D2369682846FFF75BFF09F10109D9E7A5
:106C6C00079B1C44344489E7284613B0BDE8F08FD9
:106C7C0030B5002385B0C0E900338360044602229E
:106C8C0001A80D46FFF76DFF01A92046FFF719FF7C
:106C9C0001A8FFF7A8F90222294601A8FFF761FF16
:106CAC0001A92046FFF70DFF01A8FFF79CF903226D
:106CBC00294601A8FFF755FF01A92046FFF701FF60
:106CCC0001A8FFF790F90622294601A8FFF749FF12
:106CDC0001A92046FFF7F5FE01A8FFF784F907226A
:106CEC00294601A8FFF73DFF01A92046FFF7E9FE61
:106CFC0001A8FFF778F9204605B030BD2DE9F04F1B
:106D0C008BB00C4600F1440101A8FFF7B1FE029BC9
:106D1C00002B4ADD04F1140104A8FFF7A9FF04F1CC
:106D2C00080107A8FFF7A4FF059D089E002D01DCB4
:106D3C00002E38DD019A029FDDF81080DDF81C90E2
:106D4C00142303FB072703FB058503FB06969246DA
:106D5C00BA4528D0C346AB4515D059465046FEF728
:106D6C004EFE0BF1140B04460028F4D007A8FFF7D5
:106D7C003AF904A8FFF737F901A8FFF734F92046D0
:106D8C000BB0BDE8F08FCB46B34509D05946504601
:106D9C00FEF735FE0BF1140B04460028F4D0E5E7A2
:106DAC000AF1140AD4E70024E0E70124E4E713B560
:106DBC000B460246D0E900016C4684E8030093E8D8
:106DCC00030082E8030094E8030083E8030002B0A8
:106DDC0010BD38B505460C46FFF7E9FFAB68A26855
:106DEC00AA60A360EB68E268EA60E36038BD30B586
:106DFC0085B0002302938B6805460C4633B1022202
:106E0C0068469847E3680393A3680293294668464B
:106E1C00FFF7DFFF6846FEF764FC05B030BD38B500
:106E2C000D4601684B6D044623B128684C314C303B
:106E3C00FFF7DDFF20462B6840F8043B6968FEF73E
:106E4C0064FC204638BD2DE9F043044687B0684603
:106E5C000E461746FEF77EFC2368D3E9064304EB87
:106E6C00C3084445A14616D0214601A8FEF712FFDF
:106E7C00394601A8FEF7C3FD083405460028F0D0BA
:106E8C0049463046FFF7CBFF6846FEF771FC2846B3
:106E9C0007B0BDE8F0830025F6E710B504688AB0AA
:106EAC004C34B9B1CDE9001202A86946FFF7E0F8FD
:106EBC00002306A902A80893FFF78BFF214606A81A
:106ECC00FFF787FF06A8FEF70CFC02A8FEF709FCEB
:106EDC000AB010BD0491EBE78842F8B504460D46A4
:106EEC00164614D9904213D2A2F10806751AA1F1D4
:106EFC0008072C44B74218D01CB131462046FFF786
:106F0C00E4F8301DFDF756FF083E083CF2E70CD0C4
:106F1C00B5420AD01CB129462046FFF7D6F8281DE9
:106F2C00FDF748FF08350834F2E7F8BD70B50E1EC2
:106F3C00054611DDF000FEF7A5FA044658B1D5E977
:106F4C00001201EBC202FFF7C7FF2868FEF7A2FA96
:106F5C002C60AE60012070BD0024F6E72DE9F041F5
:106F6C000023C0E9003383600D464968994204460A
:106F7C0013DDFFF7DBFF80B1D5E90063276806EB73
:106F8C00C308B04507D01FB131463846FFF79DF80E
:106F9C0008360837F5E76B6863602046BDE8F0817A
:106FAC0037B50D46044601A8FEF7D4FB29682046E8
:106FBC000C31FFF7D3FF01A8FEF7DAFB204603B034
:106FCC0030BD38B50B689B7A05460C4633B908467C
:106FDC00FEF74CFB10B9236801229A722846214611
:106FEC00FFF7DEFF284638BD73B504464568684692
:106FFC00FFF76BF8D4E90113994210DA2368626841
:10700C0003EBC50503EBC202294605F10800FFF7A7
:10701C0063FF8DB9636801336360012606E00131BB
:10702C002046FFF783FF06460028E7D101A8FDF7AD
:10703C00C1FE304602B070BD69462846FFF745F8E0
:10704C00E8E700002DE9F04FDFF8B890DFF8B8A0C2
:10705C0093B00546884600272B68BB424ED903A83F
:10706C00FEF75EFE1C266A68039C7E4332440DF1DB
:10707C00140C131DE346143218685968E646AEE842
:10708C00030008339342F446F6D11868CEF800009A
:10709C0059460AA8FEF768FC0DF1280CBCE80F0055
:1070AC000FC4DCF8003023606B68039A334403A9E7
:1070BC001B8B93826B6833445B8BD382D8F80000B4
:1070CC0000F10C040AA8FFF700F820460AA9FFF704
:1070DC008BFF04460BA8FDF76DFE54B92023CDE9B8
:1070EC000A34CDF8009023460AAA51463220FEF706
:1070FC0005F904A8FDF75EFE0137ADE713B0BDE856
:10710C00F08F00BFE4A30B000BA30B008842F8B573
:10711C0004460D46164614D9904213D2A2F1080625
:10712C00751AA1F108072C44B74218D01CB131468E
:10713C002046FEF7BCFF301DFDF73CFE083E083C28
:10714C00F2E70CD0B5420AD01CB129462046FEF716
:10715C00AEFF281DFDF72EFE08350834F2E7F8BD0A
:10716C0070B50E1E054611DDF000FEF78BF90446D6
:10717C0058B1D5E9001201EBC202FFF7C7FF28682E
:10718C00FEF788F92C60AE60012070BD0024F6E794
:10719C002DE9F0410023C0E9003383600D464968B6
:1071AC009942044613DDFFF7DBFF80B1D5E900639C
:1071BC00276806EBC308B04507D01FB131463846E7
:1071CC00FEF775FF08360837F5E76B6863602046F5
:1071DC00BDE8F08137B50D46044601A8FEF7BAFAB2
:1071EC00296820461831FFF7D3FF01A8FEF7C0FA33
:1071FC00204603B030BD73B5044645686846FEF7BB
:10720C0056FFD4E90113994210DA2368626803EB44
:10721C00C50503EBC202294605F10800FFF776FF0E
:10722C008DB9636801336360012606E001312046A5
:10723C00FFF796FF06460028E7D101A8FDF7BAFD37
:10724C00304602B070BD69462846FEF730FFE8E7CD
:10725C00F0B585B0054601A80C461746FEF77AFA3C
:10726C000023C5E90033AB602368D3E9064604EB81
:10727C00C606B44211D038682146FEF7CBFC50B19B
:10728C00214602A8FEF713FF02A92846FFF7B3FF19
:10729C0003A8FDF78FFD0834EBE701A8FEF768FAA9
:1072AC00284605B0F0BD00002DE9F0430B689B7A31
:1072BC0091B006460F46904633B9C0E9003383605F
:1072CC00304611B0BDE8F08311680D7E002D58D109
:1072DC0020232A4603A8CDE90835FEF70FFC039BB3
:1072EC0001932B4B2B49009308AA2B460120FEF748
:1072FC0005F803A802F098F91C23ADF82230D8F851
:10730C0000309A8AADF83820DB8AADF83A303B6809
:10731C00214A1888009508A9FDF79EFE002830DB4D
:10732C003B68D3E9064304EBC3090834A4F1080312
:10733C00994522D054F8083CDB89002BF5D010225B
:10734C0000210DEB0200039502F0E4FD54F8083C1B
:10735C00D9893B6803AA188800951323FDF786FE8C
:10736C000028E2D010AB184403A900F8345C54F8A0
:10737C00080C3C3002F0FAF9D7E7D8F800300122BB
:10738C001A76424639463046FFF762FF98E700BF4F
:10739C0009A40B000BA30B004D750B00F0B50B688B
:1073AC009B7A85B006460D462BB901A8FFF709FE5E
:1073BC0001A8FEF7A5FE2B68D3E9034704EBC7072A
:1073CC00BC4209D02246294601A8FFF76DFF01A84F
:1073DC00FEF7A8FE0834F3E730462946FFF7FAFE1D
:1073EC00304605B0F0BD00002DE9F043054693B0E2
:1073FC00086807920F46496898460AAC414B0493BB
:10740C0003C405AB4FF0000983E80300CDE90899EC
:10741C00FEF752FD3C4B0893FEF74EFD29680368BE
:10742C0009934A4604A8FDF72BFE0AAE044638B170
:10743C002B684FF6FF721A80204613B0BDE8F0831C
:10744C0003A8FEF787F939462846FEF7B9FCFEF784
:10745C0033FD0768294618373046FEF740FE3146A3
:10746C003846FFF79DF907460BA8FDF7A3FC4FF034
:10747C0020091FBB3246254B254E2649009332204E
:10748C002346CDE90A94FDF739FF3068FDF736FE47
:10749C002B688DF80C40214618881F4CFDF7C8FD51
:1074AC003068FDF723FE01238DF80C302B684FF666
:1074BC00FF721A8003A8FEF75BF9BDE703A8FEF77D
:1074CC0057F9164B00931349234632460120CDE958
:1074DC000A94FDF713FFB8F1000FADD029463046E2
:1074EC00FFF75CFFDDE90A5305EBC307BD4205D08E
:1074FC0028460121FEF7DAFB0835F7E73046FEF7A0
:10750C0011FE99E70300180065680B003BA40B0003
:10751C0068E603200BA30B00FCFEFFFF57A40B0037
:10752C0013B50446CDE90032FEF716FC009B019919
:10753C0000222046FFF758FF204602B010BD000085
:10754C002DE9F04F202395B00026CDE90C36664B83
:10755C00009305460F4633466449DFF89491DFF8F3
:10756C008C81DFF890A10CAA0120FDF7C7FE2B68D7
:10757C00B34240F2B58003A8FEF772FB05A8FEF7F4
:10758C00CFFB4FF02A0B6B68039A0BFB06FB5B449B
:10759C00D98B1181198C5181598C9181988CD08106
:1075AC00D88C10821B8D5382D7E9033203EBC202B5
:1075BC009A427DD01868C48A8C4277D3848A8C42D4
:1075CC0074D85968059006A8FEF79FF8DDF814C02A
:1075DC00DDF80CE0BCE80F000EF128040FC4DCF859
:1075EC00003023602B89AEF802306B68039C5B443F
:1075FC005B7E13F0020F6ED16B685B445B7E5807A9
:10760C0042BF237943F0040323716B685B445B7EB8
:10761C00190742BF237943F0080323716B685B445D
:10762C005B7EDA0642BF237943F0100323716B684B
:10763C005B4407AA5B7E9B0642BF237943F0200381
:10764C0023716B689B440BF1040396460BF1140BEE
:10765C00186859689446ACE8030008335B456246E9
:10766C00F6D11868CCF8000071460CA8FEF77CF92E
:10767C000DF1300CBCE80F0014340FC4DCF80030F2
:10768C00236003A90CA8FEF712FD0CA907F1180042
:10769C00FFF7B1FD04460DA8FDF78CFB9CB9202328
:1076AC00CDE90C34CDF800A0234607E008337FE782
:1076BC0020240023CDE90C43CDF800900CAA4146C0
:1076CC003220FDF71BFE06A8FDF774FB04A8FDF79E
:1076DC0071FB01364BE7237943F0020323718BE7EF
:1076EC0015B0BDE8F08F00BF74A40B000BA30B000A
:1076FC008FA40B00BEA40B008842F8B504460D46BF
:10770C00164614D9904213D2A2F12406751AA1F18F
:10771C0024072C44B74218D01CB131462046FEF742
:10772C0027FF3046FEF727FC243E243CF2E70CD022
:10773C00B5420AD01CB129462046FEF719FF28464F
:10774C00FEF719FC24352434F2E7F8BDF8B50E1E0B
:10775C00054613DD242707FB06F0FDF793FE0446D0
:10776C0058B1D5E9001207FB0212FFF7C5FF2868D4
:10777C00FDF790FE2C60AE600120F8BD0024F6E70A
:10778C002DE9F0410023C0E9003383600F464968BE
:10779C009942054629DDFFF7D9FF30B3D7E90043FD
:1077AC004FF024082E6808FB03480834A4F10802A3
:1077BC00904518D0A6B154F8083C336054F8043CFA
:1077CC007360214606F10800FEF7B5FE04F10C01CA
:1077DC0006F11400FEF7AFFE94F9183086F820304D
:1077EC0024362434E2E77B686B602846BDE8F081E0
:1077FC0038B50C46054601F11800FDF721FF04F1E0
:10780C002800FDF728FF002221460448FDF7FEFB67
:10781C0021462846FFF7B4FF284638BD4D780B00AB
:10782C0010B59EB0044601A8FEF7AFFB01A9204697
:10783C00FFF7DEFF01A8FEF7DDFB20461EB010BDF2
:10784C002DE9F0439DB001AD064628460C46FEF7E7
:10785C0004F803A8FEF767FF06A8FEF764FF30697B
:10786C007169F28913AB03C385E803003378B168FF
:10787C008DF8243006A8FEF7CAFEB289716803A8F9
:10788C00FEF7C5FE94F968307F2B13AF03D09DF93A
:10789C0024209A425CDB94F969307F2B03D09DF94C
:1078AC0024209A4254DC04F150013846FEF728FD9E
:1078BC00149B002B52DD139E06EBC309B14550D02F
:1078CC0030462946FDF7B5FF083680460028F5D02E
:1078DC001398FDF7DFFDB8F1000F39D0294620468B
:1078EC00FEF7D1FCA0B329462046FFF707FA06465F
:1078FC0070B304F15C013846FEF74DFD149B002B70
:10790C0012DD06A8FEF75AF9804603A8FEF756F9D1
:10791C00DDE9133203EB42029A4225D033F8021B05
:10792C00884501D08842F7D11398FDF7B3FD7EB19D
:10793C0029462046FEF764FD50B1236AB3B1636952
:10794C00139501336361636A394604F11800984753
:10795C002846FEF710FB1DB0BDE8F0834FF0010880
:10796C00B6E74FF00008B3E70026DDE7D4F8308027
:10797C00B8F1000F07D06369013363612946636B6B
:10798C0004F12800E3E7D4F80CC0BCF1000F24D0BC
:10799C00D4E904239342DBD2242253432A4603CA5C
:1079AC000CEB03064CF80300716006F1080003A908
:1079BC00FEF7F5FD06A906F11400FEF7F0FD9DF9A2
:1079CC00243086F820306369226901339342636165
:1079DC00BED34046FDF722FBBAE795E803000DF154
:1079EC00280888E8030003A90CA8FEF7A4FD06A943
:1079FC000FA8FEF7A0FD9DF824308DF848304146C5
:107A0C0038466668FEF7B4FDD4E90113994210DAE2
:107A1C0023686168242202FB063606F1240002FB6F
:107A2C0001323146FFF768FE86B963680133636043
:107A3C0005E001312046FFF789FE0028E8D13846E1
:107A4C00FEF799FA4046FEF796FA81E7394630463A
:107A5C00FEF78EFDE9E70000024800230360FDF706
:107A6C0035BB00BF68E60320002240681146FDF7D5
:107A7C00C1BC002240681146FDF7DCBC0022406806
:107A8C001146FDF7E7BC40680022FDF7DBBC4068FF
:107A9C00002281F00101FDF7C5BC002340681A46A5
:107AAC001946FDF7B7BC002340681A461946FDF786
:107ABC00A9BC002240681146FDF78CBC406800222E
:107ACC000221FDF78FBC002340681A46FDF77ABCF3
:107ADC0070B5134B03601825303386B00E464360E7
:107AEC002A4600210446083002F014FA002270687D
:107AFC001146FDF77FFC78B100212A46684602F05A
:107B0C0009FA69460020ADF80050FDF7D7FA18B90C
:107B1C006946204600F0B8F8204606B070BD00BF9C
:107B2C0084A50B00084B10B52824224618460021CA
:107B3C0002F0F0F9054B04804FF0FF324260042252
:107B4C005A60034A1A6010BD78E6032070E60320E1
:107B5C0048A50B007047007B7047037B4BB1036952
:107B6C00B3F1004F05D08069B0F1004018BF01207F
:107B7C0070470020704703681B6A184770B503688C
:107B8C000D461B69064698470221284601F01CFD4C
:107B9C002C210446284601F017FC336804449B69E9
:107BAC00304698470221284601F00EFD204470BD56
:107BBC00A0F10400FFF7E2BF10B520210446FCF74A
:107BCC007CFF204610BD0000037B7BB14369002B7A
:107BDC000CDB07EE903A9FED077AF8EEE77A87EE2A
:107BEC00870ADFED057A20EE270A7047BFEE000A00
:107BFC00704700BF00FF7F470000C842037B63B1A2
:107C0C000369B3F1004F08D007EE903A9FED047A68
:107C1C00F8EEE77A87EE870A70479FED020A704705
:107C2C000000C84200000000037B7BB1C369002B3D
:107C3C000CDB07EE903A9FED077AF8EEE77A87EEC9
:107C4C00870ADFED057A20EE270A7047BFEE000A9F
:107C5C00704700BF00FF7F470000C842037B63B141
:107C6C008369B3F1004F08D007EE903A9FED047A88
:107C7C00F8EEE77A87EE870A70479FED020A7047A5
:107C8C000000C8420000000030B50D4600F10804A9
:107C9C000FCD0FC495E8030084E80300012030BD2C
:107CAC00002240681146FDF7C5BB00224068114612
:107CBC00FDF7D0BB40680022FDF7C4BB4068002232
:107CCC0081F00101FDF7AEBB002340681A4619464E
:107CDC00FDF7A0BB002340681A461946FDF792BB7E
:107CEC00002240681146FDF785BB00224068114612
:107CFC00FDF770BB406800220221FDF773BB002327
:107D0C0040681A46FDF75EBB024B03225A60024ADA
:107D1C001A607047A0E60320C0A50B00006800F0B5
:107D2C0061B810B50446016002710AB1FFF7F6FFA5
:107D3C00204610BD13B50446019101F027FF019AAE
:107D4C0001462046FFF7EDFF204602B010BD7047FC
:107D5C00F8B5064615460C468F18BC4206D033685B
:107D6C0014F8011B9B6830469847F6E72846F8BD87
:107D7C00007C0022FDF7E2B9007C0021FDF7E6B99A
:107D8C00007C0021FDF7EAB9007C0021FDF7EEB97B
:107D9C00007C0021FDF7F2B910B514210446FCF764
:107DAC008CFE204610BD000038B5044615464FF435
:107DBC007A730022C4E90123094B2174084623601D
:107DCC002946FDF7E3F9BF3008D16B69DB0705D510
:107DDC006868FDF75FFBE868FDF75CFB204638BD83
:107DEC00FCA50B0008B50021007CFDF7D7F9B0FA13
:107DFC0080F0400908BD704710B518210446FCF707
:107E0C005CFE204610BDF0B5037D062B8DB00E46F2
:107E1C0000F104074FF0000412D000F1080515F82A
:107E2C00011D0A22304601F0E8FAAF42044419D091
:107E3C00002CF4D02E21304601F0C6FA0444EEE7B3
:107E4C002F236A4639460A208DF80040FDF7AEF91B
:107E5C006846FCF7EBFD33680246DB686946304642
:107E6C009847044620460DB0F0BD000010B5054BF8
:107E7C000446112240F8043B002102F04BF8204646
:107E8C0010BD00BF24A60B000346074A10B543F8EB
:107E9C00042B01F1100251F8044B43F8044B9142AE
:107EAC00F9D10A781A7010BD24A60B0010B59DF8F4
:107EBC00084044EA032343EA024242EA01610423F4
:107ECC004160037510BD000007B5064B0360CB780D
:107EDC0000938B784A780978FFF7E8FF03B05DF8D8
:107EEC0004FB00BF24A60B0000F11003012213F8C1
:107EFC00101C0129184608D153F8041C02EB41024E
:107F0C00013A03F11003F2D17047022904BF53F870
:107F1C00041C5218F4E70EB4F0B588B000AF07F1AA
:107F2C003405102155F8042B7A6004462B4678183A
:107F3C00FD60FDF7BFFA0F287A681AD900F1080323
:107F4C0023F007036E46ADEB030D411C2B46684630
:107F5C00FD60FDF7AFFA021E04DD236869469B68DD
:107F6C0020469847B5462037BD46BDE8F04003B0E3
:107F7C0070470028F7D0236802469B6807F1100170
:107F8C0020469847EFE738B50B6803604D684368A7
:107F9C009D42044608D015B16B6801336B60606874
:107FAC0008B1FCF7F1FD656038BD07B503688DF8C5
:107FBC0007109B6801220DF10701984703B05DF88B
:107FCC0004FB0B461146002210B5C0E90022044602
:107FDC0083600BB9204610BDFFF7D5FFFAE7836825
:107FEC00EBB11A78032A1AD8DFE802F00417021B47
:107FFC000520704702685B685268D05C2D2812D04F
:10800C00A0F13003092B0ED974280ED066280CD0A1
:10801C00A0F16E035842584170470620704700206B
:10802C00704704207047032070470220704710B53A
:10803C000446FFF7D4FF02280ED0C31EDBB2012B7F
:10804C0014D82268A36850685B68BDE810400A2207
:10805C000021184402F06AB82268A36852685B6871
:10806C00D05CA0F174035842584110BD0020FCE7CD
:10807C0038B50023C0E9003304460E48C4E90203B6
:10808C00A9B10B78032B06D08BB9136858684B68D1
:10809C00C35C6E2B07D013684D6858688B682844F6
:1080AC005B1BA060E36011462046FFF76CFF204687
:1080BC0038BD00BF96A60B0038B500250B46C0E9AD
:1080CC000055C0E90255C0E90455044611464BB1B0
:1080DC001A78012A06D103F11002DB688260436131
:1080EC00FFF751FF204638BD10B54369044663B114
:1080FC008068E060013B1030A0602061636113B1C7
:10810C00FFF7F2FEA060012000E0184610BD10B58C
:10811C007D210446FFF749FF01232371204610BD42
:10812C0008B50379012B02D0022B04D008BD2C21F9
:10813C00FFF73BFFFAE73A21FAE710B50446FFF7E1
:10814C00EFFF20467B21FFF730FF002323712046F1
:10815C0010BD000013B504460191FFF7E1FF236841
:10816C00019ADB6803492046984701232046237176
:10817C0002B010BD30A60B0013B504460191FFF7F9
:10818C00CFFF2368019ADB680349204698470123F7
:10819C002046237102B010BD33A60B002DE9F04729
:1081AC000D46222190460446FFF7FFFEDFF8A4900F
:1081BC00A8442F464745BA463DD017F8016B222EEE
:1081CC0006D05C2E04D0304601F064FE0028F1D1BC
:1081DC002368AAEB05029B682946204698475C2138
:1081EC002046FFF7E2FE0D2E0AD8072E1CD9A6F169
:1081FC000803052B18D8DFE803F00D0F1117131522
:10820C00222E01D05C2E0FD131462046FFF7CDFE39
:10821C003D46CFE76221F8E77421F6E76E21F4E7DB
:10822C006621F2E77221F0E723683246DB684946A3
:10823C0020469847ECE7BD4205D023687A1B9B6823
:10824C0029462046984722212046FFF7AEFEBDE87E
:10825C00F08700BF36A60B0013B50446CDE900210C
:10826C00FFF75EFF2046DDE90021FFF797FF0223B1
:10827C002046237102B010BD13B50446CDE9002190
:10828C00FFF74EFF2046DDE90021FFF787FF0123B2
:10829C002046237102B010BD80680368DB68184764
:1082AC007047084611B10B685B68184770477047F8
:1082BC0070477047704738B504460D4600682E214C
:1082CC0001F06BFE2368C31A2B6023B1037803B152
:1082DC00013023682060184638BD10B50C210446C7
:1082EC00FCF7EBFB204610BD10B504210446FCF74F
:1082FC00E4FB204610BD10B504210446FCF7DDFB61
:10830C00204610BDFCF7F2BE08B5FCF785FBB0FAB1
:10831C0080F0400908BD704710B50C4601F058FBC1
:10832C00844210D001F072FC844205D101F06EFC45
:10833C00BDE8104001F0E7BA2CB1236820465B6819
:10834C00BDE81040184710BD0B6803604B684360D4
:10835C0013B15A6801325A60704713B50446084687
:10836C000191FCF763FB01990246204602B0BDE87F
:10837C001040FFF781BF13B5044608460191FCF786
:10838C0055FB23680199DB680246204602B0BDE824
:10839C001040184707B503688DF80710DB680122F9
:1083AC000DF10701984703B05DF804FB0A68026001
:1083BC004A6842600022C0E9022210B502618C6852
:1083CC008460CC68C4600C698A60CA6004610A610C
:1083DC0010BD00002DE9F74FD0E900844FF0140ACE
:1083EC0000930AFB04F4184BA41017465C43454653
:1083FC00002C21DD66100AFB06F005EB00093A465D
:10840C00B9F804B0285801915F4528BF5A4601F0CD
:10841C00D6FD002801994FF001030BD15F4503D124
:10842C00009A13703446E3E7FCD9A61B09F1140536
:10843C00013EF7E7F9DBF5E7A5EB08050248AD10BF
:10844C00684303B0BDE8F08FCDCCCCCC7FB50369CD
:10845C00057E019103B3F9B1002600F10C040396DB
:10846C0003A901A8FFF727FF0146A8B10DF10B03E3
:10847C00039A8DF80B602046FFF7ACFF9DF80B308C
:10848C0053B12368142404FB0034083434F9023C3F
:10849C00002BA8BFDDB2E3E7284604B070BD0EB4D4
:1084AC00F0B58CB000AF07F14405044655F8042B29
:1084BC007A602B46202107F11000FD60FCF7FAFFD3
:1084CC001F287A681AD900F1080323F007036E46B7
:1084DC00ADEB030D411C2B466846FD60FCF7EAFF33
:1084EC00021E04DD23686946DB6820469847B546C2
:1084FC003037BD46BDE8F04003B070470028F7D0D8
:10850C0023680246DB6807F1100120469847EFE725
:10851C0010B5094C2378BFF35B8FDB0709D42046D9
:10852C00FCF7DAFA28B12046FCF7DBFA034801F035
:10853C00ABFC034810BD00BFACE60320BB820B00B4
:10854C0030E5032010B5094C2378BFF35B8FDB07B4
:10855C0009D42046FCF7C0FA28B12046FCF7C1FA32
:10856C00034801F091FC034810BD00BFB0E60320A6
:10857C0023830B0034E5032038B500250446C0E9FD
:10858C000055C0E904558560856140F8245FFCF70F
:10859C009DFDFFF7BDFFE061FFF7D4FF257320625F
:1085AC00204638BD10B50A4C2378BFF35B8FDB0730
:1085BC000CD42046FCF790FA40B10648FFF7DCFFDC
:1085CC002046FCF78EFA044801F05EFC014810BD11
:1085DC00A8E60320B8E60320058B0B00024A0349EA
:1085EC0003480023FCF7A2BEE9880B0075880B003A
:1085FC00F5870B0000231A4619461846FCF796BE61
:10860C0037B58D6804466846FFF79EFE6A462946D4
:10861C002046FFF751FD01A8FCF7CCFB204603B028
:10862C0030BD37B5CD6804466846FFF78DFE6A4607
:10863C0029462046FFF71CFD01A8FCF7BBFB204692
:10864C0003B030BD37B50D6904466846FFF77CFEB4
:10865C006A4629462046FFF7B4FC01A8FCF7AAFBA2
:10866C00204603B030BD000070B58AB00D460146FF
:10867C0004A8FFF7C5FF144E04A8FFF735FDE8B1B9
:10868C0004A96846FFF7CDFF02983146FFF73CFE80
:10869C00044610B12C1E18BF012401A8FCF78AFB5C
:1086AC00002CE9D004A96846FFF7CCFF6846FFF719
:1086BC00BEFC286001A8FCF77DFBDDE705A8FCF7F4
:1086CC0079FB0AB070BD00BF3CA60B0037B50C4659
:1086DC00204613491546FCF79FF950B901F078F97B
:1086EC004FF4165101F064F903B0BDE8304001F0CD
:1086FC006FB90C492046FCF78FF978B94FF4165333
:10870C0001A928460193FFF7AFFF01F07FFA019909
:10871C0001F0F6F801F07AFA03B030BD0020FBE767
:10872C0041A60B0048A60B0070B5D0E900531426E7
:10873C00044606FB0356AE4205D005F10800FFF7D0
:10874C00F3FF1435F7E72068FCF7A4FE204670BD54
:10875C0010B504460C30FFF7E7FF2046FDF731FC5F
:10876C00204610BD10B5044B044640F8043BFFF7FF
:10877C00EFFF204610BD00BFC4A20B0010B504468D
:10878C00FFF7F0FF20462421FCF797F9204610BD97
:10879C0010B5034B03600446FFF7E4FF204610BD01
:1087AC00E8A60B0010B50446FFF7F2FF2046242183
:1087BC00FCF783F9204610BD0022C0E9002210B559
:1087CC0082600C6804604C6844608C680A604A6083
:1087DC0084608A6010BD10B5036804461868FCF705
:1087EC008DFC204610BD00002DE9F04F87B080466F
:1087FC0003931C4B5B68C3F30803894616466BB99D
:10880C00FFF7D0FE044600F12403406A0593FFF7FE
:10881C0079FD237B2BB105A8FFF7DDFF07B0BDE881
:10882C00F08F01232373D4E900535FFA89F905EB28
:10883C00830AAA4512D055F8047B3146381DFFF740
:10884C0005FE8145F5D33B68039A0092D3F808B036
:10885C004A46334641463846D847EAE70023237355
:10886C00D9E700BF00ED00E02DE9F74F9B461A4B0E
:10887C005B68C3F308038046894616466BB9FFF75D
:10888C0091FE044600F12403406A0193FFF73AFD80
:10889C00237B2BB101A8FFF79EFF03B0BDE8F08F3F
:1088AC0001232373D4E90053F6B205EB830A554533
:1088BC000ED055F8047B5946381DFFF7C7FD86428C
:1088CC00F5D33B684A46DB68414638469847EEE7A5
:1088DC0000232373DEE700BF00ED00E02DE9F34138
:1088EC00164B5B68C3F3080305460F461BBBFFF72B
:1088FC0059FE00F124030446406A0193FFF702FD80
:10890C00D4E90063462406EB8308B04509D101A8DD
:10891C00FFF761FFA542B4BF0020012002B0BDE803
:10892C00F08156F8040B39460430FFF78FFD844272
:10893C00A8BF0446E9E70020F0E700BF00ED00E027
:10894C00F8B5D0E901539D4204460E460DDB6F1C71
:10895C00002F006804DDB900FCF7A4FD18B9F8BDC0
:10896C00FCF798FD00202060A7602768626807EB81
:10897C0085019200A2EB8502081D01F0B1FA47F8BF
:10898C0025606368013363600120E8E737B500F1C7
:10899C0024030446406A01930D46FFF7B3FCD4E967
:1089AC00003203EB8202934219460BD00968A942AC
:1089BC0003F10403F7D101A8FFF70DFF00252846AA
:1089CC0003B030BD29462046FFF7BAFF0546002804
:1089DC00F1D06368012B01D1FFF700FE01A8FFF76E
:1089EC00FAFEECE770B50446D0E900020B4600EB4A
:1089FC00820282420FD001461D6851F8046BAE42D0
:108A0C0007D1521A01F06CFA6368013B63600120D4
:108A1C0070BD0846EDE70020FAE71FB500F124030E
:108A2C000446406A01910393FFF76CFC01A92046B0
:108A3C00FFF7D8FF18B163680BB9FFF7DBFD03A88C
:108A4C00FFF7C9FE04B010BD70B5D0E90456182369
:108A5C00044603FB0656AE4215D005F11001204624
:108A6C00FFF7C0FF63680BB9FFF7C4FDE069296924
:108A7C000368DB689847696919B1206A0368DB6889
:108A8C0098471835E7E7D4E90453182606FB035634
:108A9C00AE4204D0284600F0C7FD1835F8E7002395
:108AAC00636170BD73B50446FFF7A4FD04F12403A4
:108ABC00606A0193FFF726FC2046FFF7C5FF01A86B
:108ACC00FFF789FE606A08B1FCF708FBD4E9045390
:108ADC00182606FB0356AE4204D0284600F0A4FD2F
:108AEC001835F8E72069FCF7D5FC2068FCF7D2FCB8
:108AFC00204602B070BD00000148FFF7D3BF00BF95
:108B0C00B8E603208842F8B504460D46164615D93A
:108B1C00904214D2A2F11406751AA1F114072C4438
:108B2C00B7421AD01CB131462046FFF73FFC06F184
:108B3C000800FFF7F9FD143E143CF1E70DD0B542E7
:108B4C000BD01CB129462046FFF730FC05F108007C
:108B5C00FFF7EAFD14351434F1E7F8BD8842F8B597
:108B6C0004460D46164614D9904213D2A2F11006B3
:108B7C00751AA1F110072C44B74218D01CB131461C
:108B8C00204600F0CEFD304600F04EFD103E103C6D
:108B9C00F2E70CD0B5420AD01CB12946204600F0B1
:108BAC00C0FD284600F040FD10351034F2E7F8BD4A
:108BBC0070B50E1E054611DD3001FCF763FC044652
:108BCC0058B1D5E9001201EB0212FFF7C7FF286874
:108BDC00FCF760FC2C60AE60012070BD0024F6E751
:108BEC002DE9F04F904695B000230391D8F804106E
:108BFC000A9346229942C0E90033C0E90233C0E926
:108C0C000433CDE908330446027623DCD8E9005757
:108C1C00142303FB0757AF423BD029460BA800F0A7
:108C2C0080FD0BA90FA8099E00F07BFDDDE909135F
:108C3C0099421BDA089B099A03EB061603EB021206
:108C4C00314606F11000FFF789FFEEB9099B01339D
:108C5C00099311E008A8FFF7ABFF0028D6D108A8AC
:108C6C00FDF7AFF9204615B0BDE8F08F013108A82B
:108C7C00FFF79EFF0028DDD10FA800F0D5FC0BA854
:108C8C0000F0D2FC1435C6E70FA9304600F049FDC0
:108C9C00DCE70026CDE90B660D964FF01409DDE9F3
:108CAC0008239E427CDA3301D35806930BB9013664
:108CBC00F5E70023079309FB06F302930BAD07A915
:108CCC0006A8FFF7F8FA82460028F0D04FF0000310
:108CDC008DF817300146079A0DF117032846FFF758
:108CEC0079FB9DF817700190002F4AD1BDF81C300C
:108CFC00ADF84030CDE911774FF6FF73CDF83CA0BD
:108D0C00ADF842301397D5E90132934217DB03F1EA
:108D1C00010ABAF1000F30DD09FB0AF0FCF7B2FBD7
:108D2C00834660B3D5E9001209FB0212FFF7EAFE95
:108D3C002868FCF7AFFBC5F800B0C5F808A02B6895
:108D4C00019A09FB023A6A68514609FB02320AF1A0
:108D5C001400FFF7D7FEBAF1000F03D00FA950464D
:108D6C00FFF724FB6B6801336B6011A8FFF7DCFC89
:108D7C003FB10BA8FFF7D8FC71E7BB46D8E701273A
:108D8C00F3E7019B2D6809FB0355069B1B782BB958
:108D9C00D8F80030029A13441B7CEB8008358EE720
:108DAC002168226062686360A36809920A9A0A9338
:108DBC00E368A2600B9A0B932369E2600C9A0C9304
:108DCC00636922610D9A0D93039B0891626123766E
:108DDC00CFE70000F0B5044687B00D46264619468D
:108DEC0068461746FCF72FF80B4B46F8043B6946D0
:108DFC0003A8FCF728F803AA39463046FFF7F0FE23
:108E0C0003A8FBF7DFFF6846FBF7DCFF034B23608F
:108E1C002046256207B0F0BDC4A20B00D0A60B0003
:108E2C00F0B50F4685B01D490A9C384616461D46BE
:108E3C00FBF7F2FDC0B9A4B1294601A8FFF7BCFCB1
:108E4C001749242000F006FF054630B101AB32462D
:108E5C002146FFF7BFFF134B2B6001A8FBF7B2FFB6
:108E6C002C46204605B0F0BD0F493846FBF7D4FD23
:108E7C0090B9002CF5D0294601A8FFF79DFC0849B4
:108E8C00242000F0E7FE05460028E6D001AB324670
:108E9C002146FFF79FFFE0E70024E2E750A60B0016
:108EAC00ECA70B00E8A60B0054A60B00014B024AE2
:108EBC001A607047B4E6032065A60B002DE9F04755
:108ECC00089DD0F8209004460E461746984600F0B0
:108EDC007FFD81454CD02B79190704D56A6954491B
:108EEC002046FFF7DCFAB8F1000F0DD05B212046CD
:108EFC00FFF750FA41462046FFF73DFA23684D49EB
:108F0C00DB680222204698472B79DA0723D5D5F85F
:108F1C0008802F21404601F072F808B100F10108D9
:108F2C0041462046FFF727FA2B799B0708D53A21B3
:108F3C002046FFF72FFAEA683F492046FFF7AFFAC1
:108F4C002A79236812F0040FDB6814BF3B493C49B3
:108F5C000222204698472B7958071DD529690B46C4
:108F6C001A4613F8010B60B1202808D11946F7E70F
:108F7C00344800F082F90028ADD0BDE8F0872828ED
:108F8C00EED12368521ADB682046984723682E4995
:108F9C00DB6804222046984700213846FCF7BEF9CE
:108FAC0001462046FFF7E7F923682549DB680222D2
:108FBC00204698471EB131462046FFF7DCF92B7945
:108FCC0013F0300F2CD023682049DB680222204696
:108FDC0098472B79D9060AD523681D49DB680722E7
:108FEC0020469847AA691B492046FFF758FA2B7967
:108FFC009A0611D5DB0605D523681049DB680222D9
:10900C002046984723681449DB6820460A22984773
:10901C00E9692046FFF7AFF95D212046FFF7BAF961
:10902C0023680E49DB6820460222BDE8F04718474A
:10903C0069A60B0070A60B0030A60B0073A60B00E4
:10904C0078A60B00E0E6032076A60B007BA60B00AF
:10905C007EA60B0086A60B0089A60B0094A60B001F
:10906C002DE9F0410446076A0D46164600F0B0FCA7
:10907C00874207D0206A036832462946DB68BDE880
:10908C00F0411847034800F0F8F80028F2D0BDE88A
:10909C00F08100BFE0E603202DE9F04385B0D0F865
:1090AC0020900C9C05460F4690461E4600F090FC06
:1090BC00814505D1494800F0E0F8002840F08A804D
:1090CC002B6A474A01924FF0000901A803938DF8CF
:1090DC000890FFF732F849464046FCF71FF9414922
:1090EC008046012201A8FFF7B7F84146FFF735F992
:1090FC003FB13D49012201A8FFF7AEF83946FFF711
:10910C002CF93EB13949012201A8FFF7A5F83146E7
:10911C00FFF723F92379DF070ED5A6682F213046F8
:10912C0000F06DFF00B1461C3149012201A8FFF788
:10913C0093F83146FFF711F923799E0707D52D498E
:10914C00022201A8FFF788F8E168FFF703F82379FA
:10915C00580714D5266933461F4613F8012B2AB13C
:10916C00202A01D11E46F7E7282AF5D122490222EE
:10917C0001A8FFF771F8BA1B3146FFF77DF8237988
:10918C00190707D51D49012201A8FFF765F8616988
:10919C00FEF7F2FF2379DA0608D5042218490DEB05
:1091AC000200FFF759F8A169FEF7D4FF23799B065B
:1091BC0007D51449062201A8FFF74EF8E169FFF71D
:1091CC00CCF801A8FEF7A3FF286A0F490368022216
:1091DC00DB68984705B0BDE8F08300BFE0E60320EC
:1091EC00B8A60B0046A60B0097A60B004FA90B00C8
:1091FC006AA70B0099A60B009CA60B009FA60B0060
:10920C00A1A60B00A6A60B0094A60B000023406899
:10921C001A46FCF7D7B8406800220221FCF7E2B8E6
:10922C00002240681146FCF7D5B800224068114670
:10923C00FCF7E0B8002340681A461946FCF7E2B880
:10924C00002340681A461946FCF7E4B84068002130
:10925C00FCF708B940680021FCF70CB94068002203
:10926C0081F00101FCF7DEB840680022FCF7EAB897
:10927C00002240681146FCF7EDB800224068114608
:10928C00FCF7D8B82DE9F04395B014460D460746C7
:10929C00FEF7ECFD00211C220DA8009100F03AFE17
:1092AC0040230C9320466B460CAA0021FBF78EFF43
:1092BC00044600284BD1024601216868FCF79AF855
:1092CC000221804622466868FCF794F8009E81468D
:1092DC002146002E3BD0002939D17368022B03D0D4
:1092EC000A2B11D0F669F4E7B8F1000FFAD07169C6
:1092FC0006A8043107ADFEF7E7FD0FCD3C1D0FC4EA
:10930C002B6823704146EDE7B9F1000FEAD0746980
:10931C00102201A800F0FEFD06238DF8143001ADDB
:10932C0004F108031834186859682A4603C2083334
:10933C00A3421546F7D101A906A807ADFEF7A4FD77
:10934C000FCD3C1D0FC42B6823704946CAE700980B
:10935C00FBF734FF384615B0BDE8F083024B034AE7
:10936C001A6000225A607047E0E6032030A70B0019
:10937C00F8B506460D468F180024BD420CD0336854
:10938C0015F8011B9B6830469847031E01DB1C44F3
:10939C00F3E7002C08BF1C462046F8BD13B5044665
:1093AC00084659B10191FBF741FB23680199DB6831
:1093BC000246204602B0BDE81040184702B010BD6E
:1093CC0008B5FFF7EBFF08BD03689B68184738B575
:1093DC000D210546FFF7F8FF0A2104462846FFF742
:1093EC00F3FF204438BD38B50546FFF7D7FF0446D8
:1093FC002846FFF7ECFF204438BD30B58BB0002376
:10940C00012A8DF8243098BF0A2209AC0D46B1FB15
:10941C00F2F101FB125303F0FF03092B94BF30331D
:10942C003733DBB2AA4204F8013DEFD92146FFF7EE
:10943C00B5FF0BB030BD00002DE9F74F55EC104BCC
:10944C0006460F4610EE102A10EE100A2B4629463F
:10945C00FBF734FA40B153493046FFF79FFF824681
:10946C00504603B0BDE8F08F25F000494E4B4FF04D
:10947C00FF3220464946FBF721FA48B94A4B4FF0D8
:10948C00FF3220464946FBF7FBF908B94749E3E7A9
:10949C00474B4FF0604220462946FBF705FA08B1CE
:1094AC004449D9E7444B4FF0604220462946FBF72C
:1094BC00DDF90028F4D10022002320462946FBF7D1
:1094CC00D5F9D0B12D213046FFF77EFF05F10043D1
:1094DC0082461D463949DFF8EC904FF0000B002016
:1094EC004FF000085FFA8BF39F4208D942464B4677
:1094FC00FBF774F80BF1010BF4E78246EAE722461E
:10950C002B46FAF78BFD0D460446FBF715FA804601
:10951C00FAF7C0FE02460B4620462946FAF77CFDB8
:10952C000A2204460D4630464146FFF766FF824448
:10953C00002F95D02249DFF88C903046FFF72EFF94
:10954C004FF000088244002F8AD042464B462046FA
:10955C002946FAF719FF04460D46FBF7C5F9B0F199
:10956C00000B1CDA2D213046FFF72EFFCBF100014A
:10957C0003460A2230460193FFF73FFF019B184434
:10958C0082445846FAF796FE02460B462046294678
:10959C00FAF742FD013F04460D46FFB2D3E75946A8
:1095AC000023E6E764A70B00FFFFEF7F68A70B0023
:1095BC00FFFFEF416CA70B00FFFFEFC10000E03F86
:1095CC00A8A20B000000244038B5044610EE100A87
:1095DC00CDB2FAF781FE41EC100B29462046BDE8CE
:1095EC003840FFF729BF38B5C9B20546FFF724FF4D
:1095FC0004462846FFF7EBFE204438BD38B5044638
:10960C0010EE100A0D46FAF767FE41EC100B2946D6
:10961C002046BDE83840FFF7E6BF0000014B0022B2
:10962C009A607047E8E6032010B504460068FBF723
:10963C0031FF204610BD10B50446006808B1FBF799
:10964C0029FF0023C4E90133236010BD38B504465B
:10965C000D4600680131FBF725FF10B1C4E9000588
:10966C00012038BD10B50368044623B143688B4212
:10967C0001D3012010BD2046FFF7E8FF0028F9D0E8
:10968C00A368002BF5D122681370F2E737B50D46AD
:10969C00114601920446FFF7E5FF019A28B92046CE
:1096AC00FFF7C9FF204603B030BDA26029462068F1
:1096BC0000F008FC2268A3680021D154F2E70023D3
:1096CC0013B5C0E9003304468360037341B1084607
:1096DC000191FBF7ABF9019902462046FFF7D6FF43
:1096EC00204602B010BD38B5054600680C4670B176
:1096FC006A688B689A4208D3096831B100F057FC4C
:10970C00A368AB600023A36038BDFBF7C3FE2368DE
:10971C002B6063686B60A368AB600023C4E9003303
:10972C00F1E710B50023C0E90033044683600373EE
:10973C00FFF7D9FF204610BD884210B5044605D06E
:10974C000B682BB18A681946FFF7A0FF204610BDA5
:10975C00FFF771FFFAE710B500230446C0E90033A8
:10976C0083600373FFF7E8FF204610BD13B5044672
:10977C0059B108460191FBF759F901990246204667
:10978C00FFF784FF204602B010BDFFF754FFF9E746
:10979C0070B505460E4609B9002070BD6AB18468E3
:1097AC0014442146FFF75EFF0028F5D02868AB680B
:1097BC003146184400F0FBFBAC600120EDE707B527
:1097CC0000238DF80410012201A98DF80530FFF754
:1097DC00DFFF03B05DF804FB02680B46096862B159
:1097EC0041B9806860B110787047986840B10978C9
:1097FC00484270471046FBF70FB90029F5D10846CF
:10980C00704708B582688B689A4205D1FFF7E4FF70
:10981C00B0FA80F0400908BD0020FCE7054B02229D
:10982C001A60054B054A9A600020C3E90000FBF75B
:10983C0085BD00BF04E70320F8E603200000FFFF0E
:10984C00024B1A68024B1A60704700BF38E50320C0
:10985C0008E7032070474174704708B5007CFBF79C
:10986C00EDFC20EAE07008BD08B5007CFBF7C6FCF7
:10987C0020EAE07008BD08B5007CFBF7CFFC40EA9D
:10988C00E07008BD08B5007CFBF7C0FC40EAE07056
:10989C0008BD007CFBF7CABC37B5457C04462DB12E
:1098AC00207C03B0BDE83040FBF7A0BC007C0191EC
:1098BC00FBF7C4FC00280199F2DC284603B030BD4C
:1098CC0010B514210446FBF7F8F8204610BD000033
:1098DC0010B54FF47A730446084611460022C4E9C9
:1098EC000123044B2360012320746374FBF7B6FC43
:1098FC00204610BD94A70B00007C0023FBF7A6BCF0
:10990C000022FFF7F9BF007CFBF768BC417470477D
:10991C007047704708B50021007CFBF7CFFC40EA8C
:10992C00E07008BD08B50121007CFBF7C7FC40EADC
:10993C00E07008BD08B5007CFBF7B8FC20EAE070CD
:10994C0008BD08B5007CFBF7A9FC20EAE07008BD57
:10995C0013B50446007C0191FBF7A8FC0028019983
:10996C0001DC607C20B1207CFBF7B0FC20EAE070CD
:10997C0002B010BD007CFBF7B1BC10B5142104463D
:10998C00FBF79BF8204610BD10B54FF47A730446D4
:10999C0008460021C4E90113044B23600123207401
:1099AC0063741146FBF762FC204610BDC4A70B0084
:1099BC00007C0022FBF762BC007CFBF767BC10B597
:1099CC0014220446002100F0A5FA204610BD000028
:1099DC0010B50F4C88B003A8FFF7F1FF2178BFF347
:1099EC005B8F11F001010FD120460191FBF774F848
:1099FC00019948B103AA0748FFF7C6FF2046FBF7B9
:109A0C0070F8054800F040FA024808B010BD00BFDD
:109A1C000CE7032010E703201D990B00014B186085
:109A2C00704700BF3CE5032008B50B4B43B1FFF773
:109A3C00CFFF03681B699847002801DDAFF3008056
:109A4C00064B43B100F0E2F803681B699847002805
:109A5C0001DDAFF3008008BD000000000000000035
:109A6C0008B5FFF7E1FFFBF761FB014B186008BD80
:109A7C002CE703200548064A064908B5121A00F0DF
:109A8C0021FA054B054A1A6008BD00BF00F40320FB
:109A9C0004F4032010AB0B0000F403201E1C279AC7
:109AAC0007B5002300931A466FF07701FBF760FCB3
:109ABC0003B05DF804FB000007B543880A2B08D0FF
:109ACC00502B0BD1094B1B684BB103B05DF804EB69
