:02000002B0004C
:1040000000400B00EA910B00000006000D000502C5
:0840100004017D150000000011
:044018002C8A0B00E3
:10401C0081F0004102E000BF83F0004330B54FEA6D
:10402C0041044FEA430594EA050F08BF90EA020FDA
:10403C001FBF54EA000C55EA020C7FEA645C7FEA6D
:10404C00655C00F0E2804FEA5454D4EB5555B8BF90
:10405C006D420CDD2C4480EA020281EA030382EA01
:10406C00000083EA010180EA020281EA0303362D93
:10407C0088BF30BD11F0004F4FEA01314FF4801C66
:10408C004CEA113102D0404261EB410113F0004F78
:10409C004FEA03334CEA133302D0524263EB43032F
:1040AC0094EA050F00F0A780A4F10104D5F1200ECD
:1040BC000DDB02FA0EFC22FA05F2801841F1000128
:1040CC0003FA0EF2801843FA05F359410EE0A5F1FC
:1040DC0020050EF1200E012A03FA0EFC28BF4CF02D
:1040EC00020C43FA05F3C01851EBE37101F00045E3
:1040FC0007D54FF0000EDCF1000C7EEB00006EEBF0
:10410C000101B1F5801F1BD3B1F5001F0CD3490879
:10411C005FEA30004FEA3C0C04F101044FEA4452D0
:10412C0012F5800F80F09A80BCF1004F08BF5FEA57
:10413C00500C50F1000041EB045141EA050130BD37
:10414C005FEA4C0C404141EB0101013C28BFB1F549
:10415C00801FE9D291F0000F04BF01460020B1FA94
:10416C0081F308BF2033A3F10B03B3F120020CDA67
:10417C000C3208DD02F1140CC2F10C0201FA0CF045
:10418C0021FA02F10CE002F11402D8BFC2F1200CAA
:10419C0001FA02F120FA0CFCDCBF41EA0C01904060
:1041AC00E41AA2BF01EB0451294330BD6FEA0404A9
:1041BC001F3C1CDA0C340EDC04F11404C4F1200294
:1041CC0020FA04F001FA02F340EA030021FA04F3A6
:1041DC0045EA030130BDC4F10C04C4F1200220FAFD
:1041EC0002F001FA04F340EA0300294630BD21FA3B
:1041FC0004F0294630BD94F0000F83F4801306BF01
:10420C0081F480110134013D4EE77FEA645C18BFF4
:10421C007FEA655C29D094EA050F08BF90EA020F8B
:10422C0005D054EA000C04BF1946104630BD91EA83
:10423C00030F1EBF0021002030BD5FEA545C05D186
:10424C004000494128BF41F0004130BD14F58004C5
:10425C003CBF01F5801130BD01F0004545F0FE4139
:10426C0041F470014FF0000030BD7FEA645C1ABF6E
:10427C00194610467FEA655C1CBF0B46024650EAA5
:10428C00013406BF52EA033591EA030F41F40021D1
:10429C0030BD00BF90F0000F04BF0021704730B557
:1042AC004FF4806404F132044FF000054FF000012C
:1042BC0050E700BF90F0000F04BF0021704730B5ED
:1042CC004FF4806404F1320410F0004548BF4042C2
:1042DC004FF000013EE700BF42004FEAE2014FEA17
:1042EC0031014FEA02701FBF12F07F4393F07F4FF2
:1042FC0081F06051704732F07F4208BF704793F0F5
:10430C007F4F04BF41F40021704730B54FF4607407
:10431C0001F0004521F000411CE700BF50EA01020A
:10432C0008BF704730B54FF000050AE050EA0102B3
:10433C0008BF704730B511F0004502D5404261EB23
:10434C0041014FF4806404F132045FEA915C3FF464
:10435C00D8AE4FF003025FEADC0C18BF03325FEA01
:10436C00DC0C18BF033202EBDC02C2F1200300FAB2
:10437C0003FC20FA02F001FA03FE40EA0E0021FAD7
:10438C0002F11444BDE600BF70B54FF0FF0C4CF4C5
:10439C00E06C1CEA11541DBF1CEA135594EA0C0F77
:1043AC0095EA0C0F00F0DEF82C4481EA030621EAB2
:1043BC004C5123EA4C5350EA013518BF52EA0335ED
:1043CC0041F4801143F4801338D0A0FB02CE4FF09F
:1043DC000005E1FB02E506F00042E0FB03E54FF0CF
:1043EC000006E1FB03569CF0000F18BF4EF0010EC7
:1043FC00A4F1FF04B6F5007F64F5407404D25FEAC3
:10440C004E0E6D4146EB060642EAC62141EA555175
:10441C004FEAC52040EA5E504FEACE2EB4F1FD0CB7
:10442C0088BFBCF5E06F1ED8BEF1004F08BF5FEA35
:10443C00500E50F1000041EB045170BD06F00046E7
:10444C0046EA010140EA020081EA0301B4EB5C0494
:10445C00C2BFD4EB0C0541EA045170BD41F480118C
:10446C004FF0000E013C00F3AB8014F1360FDEBFB1
:10447C00002001F0004170BDC4F10004203C35DA8D
:10448C000C341BDC04F11404C4F1200500FA05F310
:10449C0020FA04F001FA05F240EA020001F00042B1
:1044AC0021F0004110EBD37021FA04F642EB060127
:1044BC005EEA430E08BF20EAD37070BDC4F10C0451
:1044CC00C4F1200500FA04F320FA05F001FA04F215
:1044DC0040EA020001F0004110EBD37041F1000101
:1044EC005EEA430E08BF20EAD37070BDC4F120050C
:1044FC0000FA05F24EEA020E20FA04F301FA05F274
:10450C0043EA020321FA04F001F0004121FA04F21B
:10451C0020EA020000EBD3705EEA430E08BF20EAEB
:10452C00D37070BD94F0000F0FD101F00046400025
:10453C0041EB010111F4801F08BF013CF7D041EAA7
:10454C00060195F0000F18BF704703F000465200AB
:10455C0043EB030313F4801F08BF013DF7D043EA7C
:10456C000603704794EA0C0F0CEA135518BF95EA32
:10457C000C0F0CD050EA410618BF52EA4306D1D1B9
:10458C0081EA030101F000414FF0000070BD50EAD8
:10459C00410606BF1046194652EA430619D094EA62
:1045AC000C0F02D150EA013613D195EA0C0F05D14C
:1045BC0052EA03361CBF104619460AD181EA0301A0
:1045CC0001F0004141F0FE4141F470014FF0000058
:1045DC0070BD41F0FE4141F4780170BD70B54FF0F3
:1045EC00FF0C4CF4E06C1CEA11541DBF1CEA135573
:1045FC0094EA0C0F95EA0C0F00F0A7F8A4EB050455
:10460C0081EA030E52EA03354FEA013100F088804B
:10461C004FEA03334FF0805545EA131343EA126314
:10462C004FEA022245EA111545EA10654FEA0026C9
:10463C000EF000419D4208BF964244F1FD0404F582
:10464C00407402D25B084FEA3202B61A65EB0305DE
:10465C005B084FEA32024FF480104FF4002CB6EB9B
:10466C00020E75EB030E22BFB61A754640EA0C001B
:10467C005B084FEA3202B6EB020E75EB030E22BF5B
:10468C00B61A754640EA5C005B084FEA3202B6EB9C
:10469C00020E75EB030E22BFB61A754640EA9C005B
:1046AC005B084FEA3202B6EB020E75EB030E22BF2B
:1046BC00B61A754640EADC0055EA060E18D04FEAE9
:1046CC00051545EA16754FEA06164FEAC30343EA89
:1046DC0052734FEAC2025FEA1C1CC0D111F4801F56
:1046EC000BD141EA00014FF000004FF0004CB6E74F
:1046FC0011F4801F04BF01430020B4F1FD0C88BFEE
:10470C00BCF5E06F3FF6AFAEB5EB030C04BFB6EBF8
:10471C00020C5FEA500C50F1000041EB045170BDEB
:10472C000EF0004E4EEA113114EB5C04C2BFD4EB18
:10473C000C0541EA045170BD41F480114FF0000E9C
:10474C00013C90E645EA060E8DE60CEA135594EA18
:10475C000C0F08BF95EA0C0F3FF43BAF94EA0C0F1B
:10476C000AD150EA01347FF434AF95EA0C0F7FF490
:10477C0025AF104619462CE795EA0C0F06D152EAE4
:10478C0003353FF4FDAE1046194622E750EA4106C8
:10479C0018BF52EA43067FF4C5AE50EA41047FF4D9
:1047AC000DAF52EA43057FF4EBAE12E74FF0FF3C3E
:1047BC0006E000BF4FF0010C02E000BF4FF0010C0F
:1047CC004DF804CD4FEA410C7FEA6C5C4FEA430C88
:1047DC0018BF7FEA6C5C1BD001B050EA410C0CBFD7
:1047EC0052EA430C91EA030F02BF90EA020F002039
:1047FC00704710F1000F91EA030F58BF994208BFA0
:10480C0090422CBFD8176FEAE37040F0010070475C
:10481C004FEA410C7FEA6C5C02D150EA013C07D1B3
:10482C004FEA430C7FEA6C5CD6D152EA033CD3D0FE
:10483C005DF8040B704700BF8446104662468C46F8
:10484C001946634600E000BF01B5FFF7B7FF00282B
:10485C0048BF10F1000F01BD4DF808EDFFF7F4FF54
:10486C000CBF012000205DF808FB00BF4DF808EDDF
:10487C00FFF7EAFF34BF012000205DF808FB00BF02
:10488C004DF808EDFFF7E0FF94BF012000205DF824
:10489C0008FB00BF4DF808EDFFF7CEFF94BF0120D9
:1048AC0000205DF808FB00BF4DF808EDFFF7C4FFD2
:1048BC0034BF012000205DF808FB00BF4FEA410C1B
:1048CC007FEA6C5C02D150EA013C0AD14FEA430CFE
:1048DC007FEA6C5C02D152EA033C02D14FF000003B
:1048EC0070474FF0010070474FEA410212F5001279
:1048FC0015D211D56FF47873B3EB625212D94FEA1B
:10490C00C12343F0004343EA505311F0004F23FA04
:10491C0002F018BF404270474FF00000704750EA59
:10492C00013005D111F0004008BF6FF00040704716
:10493C004FF00000704700BF4A0011D212F5001270
:10494C0011D20DD56FF47873B3EB62520ED44FEADB
:10495C00C12343F0004343EA505323FA02F070475B
:10496C004FF00000704750EA013002D14FF0FF3099
:10497C0070474FF00000704710F8012B11F8013B05
:10498C00012A28BF9A42F7D0D01A7047034613F871
:10499C00012B002AFBD1181A0138704709480A4923
:1049AC00884208B505D0094A824202D0121A03F097
:1049BC0075FE0748074A0021121A03F097FE0148BA
:1049CC0008BD00BF70E5032044910B00E8E503200F
:1049DC00E8E50320F0E7032070B5074E074C03F021
:1049EC0073FCA41BA4080025AC4200D170BD56F882
:1049FC00043B98470135F7E7FC900B0020910B0026
:104A0C0000F076B808B500F021FABDE8084003F0D4
:104A1C0013BC00F053BD00F051BD00F057BD0000B9
:104A2C0008B5034A03490C2000F052FCFEE700BF16
:104A3C00CD500B00408A0B000078B0FA80F0400992
:104A4C00704701230370704738B50446C06883185B
:104A5C000A2B154605D8204403F020FEE2682A44B0
:104A6C00E260012038BD000010B588B0002404AB12
:104A7C000122ADF80E0000930194094BADF81640DD
:104A8C0011460DF10E00ADF81840079400F068FCCB
:104A9C00079B0A2B0CBFDDF81600204608B010BD92
:104AAC00554A0B00704700000A4B10B504460360D2
:104ABC0002F0AEF9214602F0E6FB03F075FB03F0C1
:104ACC0067FB2046044B40F8043B02F077FA204683
:104ADC0010BD00BFD88A0B00C08A0B0010B504466D
:104AEC00FFF7E2FF20462421FFF797FF204610BD79
:104AFC0010B5194919481A4C88B00023092200F046
:104B0C004DFC184B606803221A600022114600F01D
:104B1C008DFCA8B12146684601F0D4F8684601F036
:104B2C004DF9114B684683ED000A01F077F90F4BF4
:104B3C0083ED000A03F038FB4FF4165103F024FB0D
:104B4C0000F036FE00F050FE00F032FE084908B0CE
:104B5C00BDE8104000F04FBEF8E50320558A0B006D
:104B6C006CE6032010E6032004E6032000E6032095
:104B7C00658A0B0008B5054801F0C8FC10EE100A58
:104B8C00FFF7AAFB024BC3E9000108BD08E60320AE
:104B9C00F8E5032010B5094C00F09AFA2368C01A06
:104BAC00074B984208D900F009FC10B1002000F026
:104BBC0015FC00F08DFA206010BD00BF14E6032038
:104BCC00005C260538B5046805467CB16368013B7A
:104BDC0063605BB9236820469B689847A368013BD8
:104BEC00A3601BB923682046DB689847284638BD6C
:104BFC0070B5D0E900531426044606FB0356AE42AA
:104C0C0004D0284603F012F91435F8E7206800F0B8
:104C1C005DFC204670BD38B50468002000F090FBA8
:104C2C0020B1637813B900F0C1FBFAE76378BFF3E6
:104C3C005B8F651C0BB9002038BD002000F080FB99
:104C4C0020B12B7813B900F0B1FBFAE72378012BD4
:104C5C00F1D1207BF0E700002DE9F041224C2349F3
:104C6C00234D244E244FDFF8988086B0204603F065
:104C7C0087F9FFF77FFF2268204902A803F092F919
:104C8C0002A9284603F074F902A803F0CFF83A7889
:104C9C0033781B4913438DF800302A683C2302A853
:104CAC0001F024FA02A8FFF7B6FF044603A8FFF7A9
:104CBC0089FF144B1A68144B1A6094B932783B78FC
:104CCC0013438DF800302A683C23414602A801F0BA
:104CDC000DFA02A8FFF79FFF044603A8FFF772FF27
:104CEC00EBE706B0BDE8F08140E603206B8A0B00D1
:104CFC0050E60320F4E50320F5E503207E8A0B0043
:104D0C00938A0B003CE6032070E503202DE9F0416B
:104D1C00214C2249224D234E234FDFF8948086B03C
:104D2C00204603F02DF92268204902A803F03AF935
:104D3C0002A9284603F01CF902A803F077F83A7888
:104D4C0033781B4913438DF800302A683C2302A8A2
:104D5C0001F0CCF902A8FFF75EFF044603A8FFF7A9
:104D6C0031FF94B932783B7813438DF800302A68C0
:104D7C003C23414602A801F0B9F902A8FFF74BFF0A
:104D8C00044603A8FFF71EFFEBE70A4B1A680A4B11
:104D9C001A6006B0BDE8F08140E60320A08A0B0043
:104DAC0050E60320F4E50320F5E503207E8A0B0092
:104DBC00938A0B003CE6032070E5032038B51820DD
:104DCC001F4D204CFFF750FE2B68206098421DD0E1
:104DDC001D4B1B68984219D041F2883000F0B6FB8D
:104DEC001820FFF741FE2B68206098420ED0052852
:104DFC0001D1FFF731FF2368012B01D1FFF786FFAB
:104E0C002368023B022B01D8FFF780FF22682B6836
:104E1C009A4214D10C4B1B689A4210D001330ED01D
:104E2C0041F2883000F092FB1820FFF71DFE2B6832
:104E3C002060984203D1BDE83840FFF767BF38BD0A
:104E4C0010E603203CE6032070E5032008B5FFF7CD
:104E5C00A1FEFFF7B3FFBDE8084041F2883000F037
:104E6C0075BB8842F8B504460D46164616D99042D5
:104E7C0015D2A2F11406751AA1F114072C44B742ED
:104E8C001CD02CB13146204603F04DF8337C2374F2
:104E9C00304602F0CBFF143E143CF0E70ED0B54286
:104EAC000CD02CB12946204603F03DF82B7C237402
:104EBC00284602F0BBFF14351434F0E7F8BD2DE999
:104ECC00F0410023C0E9003383604F689F420446E1
:104EDC000E4623DD4FF0140808FB07F000F0EEFA45
:104EEC000546D8B1D4E9001208FB0212FFF7B9FF4E
:104EFC00206800F0EBFA2560A760D6E9007308FB88
:104F0C000378B84508D03946284603F026F83B7C90
:104F1C002B7414371435F4E7736863602046BDE8CE
:104F2C00F08100002F4B70B501251D702E4B08220F
:104F3C001A702E4B2E4A9A6000248CB0C3E90044A0
:104F4C00284600F0E5F92146284600F0F1F9214603
:104F5C00284801F08FFACDE90044029403F024F9BB
:104F6C00254C0546694603A8FFF7A9FF264603A969
:104F7C0006A8FFF7A4FF214B46F8043B06A909A895
:104F8C00FFF79DFF09AA1E21304602F05FFA09A81F
:104F9C00FFF72EFE06A8FFF72BFE194B23602562A8
:104FAC0003A8FFF725FE174B236003F0FDF84FF421
:104FBC00165103F0E9F801F02BFF214602F01CF921
:104FCC006846FFF715FE00F083F80F4B0F49186089
:104FDC000F4802F076FF0D490E480CB0BDE870404A
:104FEC0002F06FBFF4E50320F5E50320E8E50320AC
:104FFC000000FFFF08E6032018E60320C08A0B0020
:10500C00788D0B00D88A0B0014E603203E8D0B0024
:10501C0040E6032050E6032008B5024B1B689B6852
:10502C00019308BD7802030008B5024B1B681B6A8C
:10503C00019308BD7802030008B5034B1B68D3F835
:10504C009830019308BD00007802030008B5034BAB
:10505C001B68D3F8F030019308BD00007802030000
:10506C0008B5024B1B685B6C019308BD740203000E
:10507C0008B5024B1B685B6C019308BD480203002A
:10508C0008B5024B1B689B6C019308BD48020300DA
:10509C0008B5024B1B68DB6C019308BD480203008A
:1050AC0008B5024B1B685B6D019308BD48020300F9
:1050BC0008B5024B1B685B68019308BD180203001E
:1050CC0008B5024B1B68DB68019308BD180203008E
:1050DC0008B5024B1B685B69019308BD18020300FD
:1050EC0008B5024B1B689B69019308BD280203009D
:1050FC0008B5024B1B68DB69019308BD280203004D
:10510C0008B5024B1B681B6A019308BD28020300FB
:10511C0008B5024B1B685B6A019308BD28020300AB
:10512C0008B5024B1B689B6A019308BD280203005B
:10513C0008B5024B1B68DB6A019308BD280203000B
:10514C0008B5024B1B681B6B019308BD28020300BA
:10515C0008B5024B1B681B6C019308BD28020300A9
:10516C0008B5024B1B689B6C019308BD2802030019
:10517C0008B5024B1B68DB6C019308BD28020300C9
:10518C0008B5024B1B681B6D019308BD2802030078
:10519C0008B5024B1B685B69019308BD64020300F0
:1051AC0008B5024B1B689B68019308BD680203009D
:1051BC0008B5024B1B68DB68019308BD680203004D
:1051CC0008B5024B1B689B68019308BD3C020300A9
:1051DC0008B5024B1B68DB68019308BD3C02030059
:1051EC0008B5024B1B681B69019308BD3C02030008
:1051FC0008B5024B1B685B69019308BD3C020300B8
:10520C0008B5024B1B689B69019308BD3C02030067
:10521C0008B5024B1B68DB69019308BD3C02030017
:10522C0008B5024B1B689B6A019308BD3C02030046
:10523C0008B5024B1B68DB6A019308BD3C020300F6
:10524C0008B5024B1B681B6C019308BD3C020300A4
:10525C0008B5024B1B681B68019308BD4C02030088
:10526C0008B5024B1B685B68019308BD4C02030038
:10527C0008B5024B1B689B68019308BD4C020300E8
:10528C0008B5024B1B681B69019308BD4C02030057
:10529C0008B5024B1B685B69019308BD4C02030007
:1052AC0008B5024B1B689B69019308BD4C020300B7
:1052BC0008B5024B1B68DB69019308BD4C02030067
:1052CC0008B5024B1B681B6A019308BD4C02030016
:1052DC0008B5024B1B685B6B019308BD60020300B1
:1052EC0008B5024B1B681B6D019308BD60020300DF
:1052FC0008B5024B1B68DB6E019308BD600203000E
:10530C0008B5024B1B681B6F019308BD60020300BC
:10531C0008B5024B1B685B68019308BD20020300B3
:10532C0008B5024B1B685B69019308BD20020300A2
:10533C0008B5024B1B68DB6A019308BD2002030011
:10534C0008B5024B1B68DB6C019308BD20020300FF
:10535C0008B5024B1B685B6D019308BD200203006E
:10536C0008B5034B1B68D3F88430019308BD0000CB
:10537C002002030008B5034B1B68D3F88830019357
:10538C0008BD00002002030008B5034B1B68D3F8CE
:10539C009430019308BD00002002030008B5024BB5
:1053AC001B681B68019308BD4402030008B5024B3F
:1053BC001B689B68019308BD4402030008B5024BAF
:1053CC001B685B69019308BD4402030008B5024BDE
:1053DC001B681B6A019308BD4402030008B5024B0D
:1053EC001B68DB6A019308BD4402030008B5024B3D
:1053FC001B68DB6B019308BD4402030008B5024B2C
:10540C001B685B68019308BD4002030008B5024BA2
:10541C001B689B68019308BD4002030008B5024B52
:10542C001B68DB68019308BD4002030008B5024B02
:10543C001B681B69019308BD4002030008B5024BB1
:10544C001B685B69019308BD4002030008B5024B61
:10545C001B689B69019308BD4002030008B5024B11
:10546C001B68DB69019308BD4002030008B5024BC1
:10547C001B681B6A019308BD4002030008B5024B70
:10548C001B681B6B019308BD4002030008B5024B5F
:10549C001B685B6B019308BD4002030008B5024B0F
:1054AC001B681B6C019308BD4002030008B5024B3E
:1054BC001B685B6C019308BD4002030008B5024BEE
:1054CC001B681B68019308BD1C02030008B5024B46
:1054DC001B685B68019308BD1C02030008B5024BF6
:1054EC001B689B68019308BD1C02030008B5024BA6
:1054FC001B685B6A019308BD1C02030008B5024BD4
:10550C001B68DB6A019308BD1C02030008B5024B43
:10551C001B681B6B019308BD1C02030008B5024BF2
:10552C001B68DB6B019308BD1C02030008B5024B22
:10553C001B681B6C019308BD1C02030008B5024BD1
:10554C001B685B6C019308BD1C0203000021FFF774
:10555C00E7BE10B5836804460BB902F06BFFC36855
:10556C009847A3681BB10322214620469847204642
:10557C001021BDE81040FFF750BA7047064B994216
:10558C0010B500F10C0405D0084602F057FF0028B6
:10559C0008BF0024204610BDE88A0B0010B530214E
:1055AC000446FFF73AFA204610BD3021FFF735BA12
:1055BC0010B58368044613B1032201469847204670
:1055CC0010BD10B54368013B0446436063B90368E2
:1055DC009B689847A368013BA3602BB923682046BE
:1055EC00DB68BDE81040184710BD000010B5002363
:1055FC000370044B04461868FFF74AFD012323701F
:10560C00204610BD64E6032010B5037804461BB198
:10561C00024B1868FFF744FD204610BD64E60320DA
:10562C0082B00346086849686A4603C26A4603CAE0
:10563C0018601846596002B0704708B582798B79AA
:10564C009A4206D1062203F019F8B0FA80F040090C
:10565C0008BD0020FCE74FF0FF330360838000207F
:10566C00704708B50246002101604160FFF7F3FF67
:10567C009171104608BD10B5D0E9063203EBC20299
:10568C009342184606D0046824888C4203F1080320
:10569C00F6D110BD0020FCE770B50025056006466C
:1056AC003020FFF7B6F9044688B10123C0E9013375
:1056BC00094B03604FF6FF7383810E30FFF7D1FF68
:1056CC00C4E90655C4E90855C4E90A55A5757460C2
:1056DC000C343460304670BDB88B0B0037B50D46BA
:1056EC00044601A8FFF782FF2A68D2F80230236033
:1056FC00D2F80630636001A8FFF786FF204603B09E
:10570C0030BD30B5054687B00C4601A8FFF76EFFDB
:10571C002A68236812881B889A420DD1294602A850
:10572C00FFF7DCFF214604A8FFF7D8FF04A902A865
:10573C00FFF783FF044600B9002401A8FFF764FFBC
:10574C00204607B030BD000010B504466420FFF7BA
:10575C0060F968B10023C0E90033C0E90233C0E945
:10576C000433C0E906330362C362C363C364C36515
:10577C00206020B90A4A0B490A20FFF7A9FD002036
:10578C00FFF74AFC20B1064A07490A20FFF7A0FDA3
:10579C00216806480022FFF759FC204610BD00BFC7
:1057AC00CD500B00F08A0B002E8B0B00415A0B00D6
:1057BC0010B50A4C2378BFF35B8FDB070CD4204663
:1057CC00FFF73AF940B10648FFF7BEFF2046FFF756
:1057DC0038F9044802F044FF014810BD60E603208C
:1057EC0068E60320C1580B0008B50020FFF714FC35
:1057FC0000EAE07008BD10B50C4621B1142120461A
:10580C0002F0FBFF014620460022BDE81040FFF7E6
:10581C000BBC70B5D0E90053044605EB0316AE4241
:10582C0004D0284602F002FB1035F8E72068FFF799
:10583C004DFE204670BD0B68036013B15A680132EF
:10584C005A60704710B551F8043B044640F8043BCD
:10585C00FFF7F1FF204610BD70B5D0E900530446A8
:10586C0005EBC306AE4204D0281DFFF7ABF9083593
:10587C00F8E72068FFF72AFE204670BD70B5D0E926
:10588C000053044605EBC306AE4204D0281DFFF7B7
:10589C0099F90835F8E72068FFF718FE204670BD27
:1058AC0010B504462430FFF7E9FF04F11800FFF7A8
:1058BC00D3FF10BD70B5174B1C6854B304F15400E2
:1058CC00FFF776FE04F14400FFF772FE04F134009A
:1058DC00FFF76EFE04F12400FFF76AFED4E90653CD
:1058EC0005EBC306AE4204D0281DFFF76BF9083553
:1058FC00F8E7A069FFF7EAFD04F10C00FFF7BEFF23
:10590C002046FFF7A9FF20466421BDE87040FFF751
:10591C0084B870BD68E60320826810B50AB902F03D
:10592C0089FDBDE81040C36818478842F8B50446A5
:10593C000D46164614D9904213D2A2F10806751AD8
:10594C00A1F108072C44B74218D01CB131462046AF
:10595C00FFF778FF301DFFF735F9083E083CF2E7FA
:10596C000CD0B5420AD01CB129462046FFF76AFF7D
:10597C00281DFFF727F908350834F2E7F8BDF7B50D
:10598C00044646686846FFF75DFFD4E901739F4201
:10599C0012DB0137002F29DDF800FFF78FFD0546DC
:1059AC00F0B1D4E9001201EBC202FFF7BEFF206890
:1059BC00FFF78CFD2560A7602368626803EBC606C1
:1059CC0003EBC202314606F10800FFF7AEFF1EB131
:1059DC0069463046FFF736FF636801336360012583
:1059EC0001A8FFF7EFF8284603B0F0BD0025DEE76D
:1059FC00F8B5D0E9004305460F4604EBC306A642B2
:105A0C0005D039462046FFF77CFE08B114B9F8BD25
:105A1C000834F4E7201DFFF7D5F8D5E9003204F17E
:105A2C00080103EBC2022046FFF77FFF6B68013BC6
:105A3C006B60ECE72DE9F04105468EB003A80C46EF
:105A4C00FFF7D4FD2E68F31E0D2B3CD8DFE813F0C6
:105A5C000E0057003B00CF003B003B003B003B00DF
:105A6C003B009900990099009900990004A8FFF750
:105A7C0013FE049BAA891A806968049808310230C5
:105A8C00FFF7CEFD04A906A8FFF7DCFE06A904F17A
:105A9C001800FFF774FF054607A8FFF793F8C5B980
:105AAC002023CDE906355C4B5C49009306AA2B46B6
:105ABC000120FFF715FC049B29461888FFF7BCFA58
:105ACC0005A8FFF77FF803A8FFF79EFD0EB0BDE811
:105ADC00F081E36A23B104A904F12400FFF71CFF51
:105AEC0005A8FFF76FF820210023CDE906134C4AD7
:105AFC0000924A4906AA0120FFF7F2FBE3E7A989C5
:105B0C002046FFF7B8FD06460028DCD00568D5E92D
:105B1C0006324FF6FF71298003EBC2029A4203D082
:105B2C0053F8080B4180F9E7D5E9037307EBC30879
:105B3C00B84504D0381DFFF745F80837F8E70023BF
:105B4C002B61D5E9067307EBC308B84504D0381DA3
:105B5C00FFF738F80837F8E70023EB61AB72E36B1B
:105B6C0023B1314604F13400FFF7D6FE314604F17F
:105B7C001800FFF73DFF20220023CDE90623294A18
:105B8C00B6E7A9892046FFF776FD00289BD0E36C89
:105B9C00002B98D000230D2EADF8163001D0102E0E
:105BAC0017D1002369681A4606258DF81530049123
:105BBC008DF814200690DDE9040109AB8DF81C600A
:105BCC00089583E80300236D06A904F14400984767
:105BDC0079E70F2E01BF2B7A696803F001020825C3
:105BEC000FBFC3F340031A4619461D46DDE7A989CA
:105BFC002046FFF740FD014600283FF464AFE36DFB
:105C0C00002B3FF460AF6B68069306AA236E04F179
:105C1C005400984757E700BF708B0B00078B0B00A5
:105C2C00968B0B00A08B0B0013B50B460246D0E9EC
:105C3C0000016C4684E8030093E8030082E803004B
:105C4C0094E8030083E8030002B010BD024800236F
:105C5C000360FFF70DBA00BF64E603200022406822
:105C6C001146FFF7E3BB002240681146FFF7FEBB6D
:105C7C00002240681146FFF709BC40680022FFF77C
:105C8C00FDBB4068002281F00101FFF7E7BB002358
:105C9C0040681A461946FFF7D9BB002340681A46DC
:105CAC001946FFF7CBBB002240681146FFF7AEBB8D
:105CBC00406800220221FFF7B1BB002340681A465E
:105CCC00FFF79CBB70B5134B03601825303386B0BF
:105CDC000E4643602A4600210446083002F006FDB9
:105CEC00002270681146FFF7A1FB78B100212A460B
:105CFC00684602F0FBFC69460020ADF80050FFF747
:105D0C00AFF918B96946204600F0B8F8204606B03D
:105D1C0070BD00BF108C0B00084B10B52824224618
:105D2C001846002102F0E2FC054B04804FF0FF32D4
:105D3C00426004225A60034A1A6010BD74E60320C4
:105D4C006CE60320D48B0B007047007B7047037B01
:105D5C004BB10369B3F1004F05D08069B0F100403D
:105D6C0018BF012070470020704703681B6A184752
:105D7C0070B503680D461B690646984702212846F4
:105D8C0002F03EF82C210446284601F04FFF336800
:105D9C0004449B69304698470221284602F030F8AB
:105DAC00204470BDA0F10400FFF7E2BF10B5202124
:105DBC000446FEF732FE204610BD0000037B7BB18B
:105DCC004369002B0CDB07EE903A9FED077AF8EE57
:105DDC00E77A87EE870ADFED057A20EE270A70470F
:105DEC00BFEE000A704700BF00FF7F470000C842AB
:105DFC00037B63B10369B3F1004F08D007EE903A0F
:105E0C009FED047AF8EEE77A87EE870A70479FEDEC
:105E1C00020A70470000C84200000000037B7BB1FF
:105E2C00C369002B0CDB07EE903A9FED077AF8EE76
:105E3C00E77A87EE870ADFED057A20EE270A7047AE
:105E4C00BFEE000A704700BF00FF7F470000C8424A
:105E5C00037B63B18369B3F1004F08D007EE903A2E
:105E6C009FED047AF8EEE77A87EE870A70479FED8C
:105E7C00020A70470000C8420000000030B50D4611
:105E8C0000F108040FCD0FC495E8030084E803006B
:105E9C00012030BD70470020704710B5102104461A
:105EAC00FEF7BBFD204610BD08B5FFF7F6FF08BD99
:105EBC0030B500224FF69C74026084808D888C80F3
:105ECC000C68858004600A6030BD10B5044600681B
:105EDC00FFF7FCFA204610BD38B5C468F4B123783E
:105EEC00022B03D104F10C00FFF7EFFF656835B10D
:105EFC002846FFF75DFB10212846FEF78EFDA568AE
:105F0C0035B12846FFF754FB10212846FEF785FDD6
:105F1C0020461421BDE83840FEF77FBD38BD0B6824
:105F2C0003604B68436013B15A6801325A60704782
:105F3C0037B5044668460D46FFF7F1FF009B019A02
:105F4C0023606260002301A801930093FEF73AFEE0
:105F5C0035B1281DFEF736FE08212846FEF75DFDFB
:105F6C00204603B030BD826810B50AB902F062FA5F
:105F7C00BDE81040C368184708B5006800F110016F
:105F8C00FFF7F1FF08BD826810B50AB902F052FAAA
:105F9C00BDE81040C368184708B5006800F110014F
:105FAC00FFF7F1FF08BD000038B50023044603607D
:105FBC0010200D46FEF72DFD28B10123C0E9013359
:105FCC00024B0360C5602060204638BD4C8C0B0032
:105FDC0038B5002383608B6804460D462BB1022232
:105FEC009847EB68E360AB68A360204638BD0000BF
:105FFC00F0B589B004686846FFF75AFF4FF002030A
:10600C00D4E84F2F002A03D1C4E8413F0029F7D12F
:10601C0025D104F10C0569462846FFF749FFBFF36B
:10602C005B8F01236370002004F10803BFF35B8FC7
:10603C0053E8006F43E80002002AF9D1BFF35B8FED
:10604C006EB1FFF77DF978B129463046FFF78BFF2B
:10605C003046FFF7ADFA10213046FEF7DEFC6846FD
:10606C00FFF733FF09B0F0BD314602A8FFF7B0FFD0
:10607C00E068B4F9105008B102F08EFB06901020C5
:10608C00ADF81C50FEF7C5FC0546E8B1002787604B
:10609C001820FEF7BEFC044688B10146876002A8B2
:1060AC00FFF7C2FD049BA268A360059B049206A99E
:1060BC00E268E36004F110000592FFF7F9FE084B6B
:1060CC00EB60084B2C60AB6006A8FFF7FEFE02A845
:1060DC00FFF76EFA002229460348FFF739F9B7E7B4
:1060EC00855F0B0009620B005F550B002DE9F04F2B
:1060FC008BB005469DF850A00F4690469946FFF789
:10610C005DF907AE834638BB4FF62E73059005A993
:10611C003046ADF81830FFF7CBFE1420FEF779FCB3
:10612C00044648B1022303700123C0E901BB43704C
:10613C0031460C30FFF7BCFE2846214640F8044B94
:10614C00FFF732FF3046FFF7C0FE05A8FFF7BDFE94
:10615C0028460BB0BDE8F08F0C2300241420CDE9A9
:10616C0008440793FEF755FC014618B1C0E90144F9
:10617C000470447004A80391FFF716FF1E4B08939C
:10618C000820FEF746FC044610B103A9FFF7C7FE32
:10619C0000965FFA8AF34A46414638460994FFF75F
:1061AC0015F9B8B9039B5B7803F0FF0293B94FF66E
:1061BC009C7305A903A80592ADF81830FFF718FFDA
:1061CC0005A8FFF782FE05A80999FFF7B1FE06A8FE
:1061DC00FEF7F8FC03A905A8FFF7A1FE059B069A9C
:1061EC002B606A60002306A806930593FEF7EAFC71
:1061FC0004A8FEF7E7FCABE785620B00012AF8B5B3
:10620C00054603D10B6803600020F8BD022A10D0AC
:10621C00032AF9D10468002CF6D004F11000FFF722
:10622C0054FE2046FFF7C4F918212046FEF7F5FB73
:10623C00EAE718200E68FEF7ECFB044650B1314635
:10624C00FFF7C6FE3069B6F9147008B102F0A4FA73
:10625C002061A7822C60D7E738B5002383608B6858
:10626C0004460D462BB102229847EB68E360AB68FD
:10627C00A360204638BD0000F0B589B004460D4639
:10628C0001A81146FFF754FEA4B124B21DB1284653
:10629C0002F082FA054601A803A90395ADF8104057
:1062AC00FFF7A6FE03A8FFF710FE02A8FEF78AFC74
:1062BC0009B0F0BD019D0123D5E84F2F002A03D171
:1062CC00C5E8413F0029F7D1EFD12B73BFF35B8FAA
:1062DC006B702B1DBFF35B8F53E8006F43E80042DC
:1062EC00002AF9D1BFF35B8F002EDED02046FFF7DA
:1062FC0027F8074660B105F10C013046FFF743FE65
:10630C003046FFF755F910213046FEF786FBCCE7F7
:10631C00314603A8FFF7A0FF2B7B8DF81C30102013
:10632C00FEF777FB0546D0B187601420FEF771FBB2
:10633C00044678B18760014603A8FFF775FC059BFE
:10634C00A268A360069B0592E268E3609DF81C308E
:10635C0006922374064BEB60064B2C60AB6003A8D3
:10636C00FFF726F9002229460348FEF7F1FFC7E79D
:10637C00A55F0B0089630B005F550B00012A70B5FC
:10638C00044603D10B680360002070BD022A0CD0B8
:10639C00032AF9D10468002CF6D02046FFF708F93F
:1063AC0014212046FEF739FBEEE714200E68FEF7A9
:1063BC0030FB054620B13146FFF74EFF337C2B7482
:1063CC002560E1E7002240681146FFF74FB8002234
:1063DC0040681146FFF75AB840680022FFF74EB8E4
:1063EC004068002281F00101FFF738B800234068B3
:1063FC001A461946FFF72AB8002340681A46194670
:10640C00FFF71CB8002240681146FFF70FB80022B6
:10641C0040681146FEF7FABF406800220221FEF7E1
:10642C00FDBF002340681A46FEF7E8BF024B03226B
:10643C005A60024A1A6070479CE60320688C0B0075
:10644C00090941EA001107EE901A9FED030AF8EED4
:10645C00E77A87EE800A704700004844006800F035
:10646C00EEB810B50446016002710AB1FFF7F6FFF1
:10647C00204610BD13B50446019101F073FF019A3B
:10648C0001462046FFF7EDFF204602B010BD006824
:10649C0000F0DEB82DE9FF4104460D4617461E46B6
:1064AC00FFF7DCFF36220023CDE9002320680A2306
:1064BC004FF001086946CDE9028300F0A4F820688A
:1064CC00036829469B6898472068414600F0B3F85A
:1064DC00054640B16FF09F052046FFF7D8FF2846D0
:1064EC0004B0BDE8F081022320680193694600F0F6
:1064FC0073F80228EED1206803685B6998473870FE
:10650C00206803685B6998473070E5E707B500239E
:10651C008DF806308DF807300DF106020DF10703EA
:10652C000221FFF7B7FF40B99DF807109DF8060050
:10653C0003B05DF804EBFFF783BFBFEE000A03B0B6
:10654C005DF804FB7047F8B5064615460C468F18E7
:10655C00BC4206D0336814F8011B9B683046984740
:10656C00F6E72846F8BD007C0022FEF7C9BD007C8A
:10657C000021FEF7CDBD007C0021FEF7D1BD007CD3
:10658C000021FEF7D5BD007C0021FEF7D9BD10B56A
:10659C0014210446FEF741FA204610BD38B50446D6
:1065AC0015464FF47A730022C4E90123094B217478
:1065BC00084623602946FEF7CBFDBF3008D16B6936
:1065CC00DB0705D56868FEF781FFE868FEF77EFFFC
:1065DC00204638BDA48C0B007FB500221423CDE9D6
:1065EC000122ADF804300B788DF808304B6803931A
:1065FC00CB680493007C0B7A059301A9FEF7C0FDD0
:10660C0007B05DF804FB7FB50023CDE901334A6880
:10661C0003921423CA68ADF804300B7804920A7AFA
:10662C000592007C8DF8083001AA1946FEF758FD3A
:10663C0007B05DF804FB007C0022FEF759BD08B5DD
:10664C000021007CFEF78CFDB0FA80F0400908BDFB
:10665C0008B50021007CFEF78BFDB0FA80F04009F4
:10666C0008BD704710B518210446FEF7D6F9204630
:10667C0010BDF0B5037D062B8DB00E4600F104075E
:10668C004FF0000412D000F1080515F8011D0A2284
:10669C00304601F0CEFAAF42044419D0002CF4D0AD
:1066AC002E21304601F0C2FA0444EEE72F236A464D
:1066BC0039460A208DF80040FEF76AFD6846FEF761
:1066CC0065F933680246DB686946304698470446EC
:1066DC0020460DB0F0BD000010B5054B044611224C
:1066EC0040F8043B002102F001F8204610BD00BF29
:1066FC00CC8C0B000346074A10B543F8042B01F170
:10670C00100251F8044B43F8044B9142F9D10A782A
:10671C001A7010BDCC8C0B0010B59DF8084044EAE3
:10672C00032343EA024242EA0161042341600375F8
:10673C0010BD000007B5064B0360CB7800938B7837
:10674C004A780978FFF7E8FF03B05DF804FB00BF57
:10675C00CC8C0B0000F11003012213F8101C012942
:10676C00184608D153F8041C02EB4102013A03F11C
:10677C001003F2D17047022904BF53F8041C5218BD
:10678C00F4E70EB4F0B588B000AF07F13405102172
:10679C0055F8042B7A6004462B467818FD60FEF7FA
:1067AC00A5FE0F287A681AD900F1080323F0070315
:1067BC006E46ADEB030D411C2B466846FD60FEF7A3
:1067CC0095FE021E04DD236869469B6820469847A7
:1067DC00B5462037BD46BDE8F04003B070470028F1
:1067EC00F7D0236802469B6807F1100120469847B2
:1067FC00EFE738B50B6803604D6843689D4204466B
:10680C0008D015B16B6801336B60606808B1FEF796
:10681C00D8FE656038BD07B503688DF807109B6816
:10682C0001220DF10701984703B05DF804FB0B46FC
:10683C001146002210B5C0E90022044683600BB952
:10684C00204610BDFFF7D5FFFAE78368EBB11A7845
:10685C00032A1AD8DFE802F00417021B0520704740
:10686C0002685B685268D05C2D2812D0A0F130030E
:10687C00092B0ED974280ED066280CD0A0F16E030B
:10688C00584258417047062070470020704704203A
:10689C007047032070470220704710B50446FFF77D
:1068AC00D4FF02280ED0C31EDBB2012B14D82268F1
:1068BC00A36850685B68BDE810400A2200211844A8
:1068CC0002F03EB82268A36852685B68D05CA0F105
:1068DC0074035842584110BD0020FCE738B5002322
:1068EC00C0E9003304460E48C4E90203A9B10B7891
:1068FC00032B06D08BB9136858684B68C35C6E2B9E
:10690C0007D013684D6858688B6828445B1BA060DF
:10691C00E36011462046FFF76CFF204638BD00BFF0
:10692C003E8D0B0038B500250B46C0E90055C0E97B
:10693C000255C0E90455044611464BB11A78012A98
:10694C0006D103F11002DB6882604361FFF751FF4F
:10695C00204638BD10B54369044663B18068E060D9
:10696C00013B1030A0602061636113B1FFF7F2FEB0
:10697C00A060012000E0184610BD10B57D21044632
:10698C00FFF749FF01232371204610BD08B5037999
:10699C00012B02D0022B04D008BD2C21FFF73BFFAA
:1069AC00FAE73A21FAE710B50446FFF7EFFF204665
:1069BC007B21FFF730FF00232371204610BD000020
:1069CC0013B504460191FFF7E1FF2368019ADB68D8
:1069DC0003492046984701232046237102B010BD7D
:1069EC00D88C0B0013B504460191FFF7CFFF236839
:1069FC00019ADB68034920469847012320462371FE
:106A0C0002B010BDDB8C0B002DE9F0470D462221A6
:106A1C0090460446FFF7FFFEDFF8A490A8442F46EB
:106A2C004745BA463DD017F8016B222E06D05C2E96
:106A3C0004D0304601F01AFE0028F1D12368AAEBED
:106A4C0005029B682946204698475C212046FFF7A3
:106A5C00E2FE0D2E0AD8072E1CD9A6F10803052B31
:106A6C0018D8DFE803F00D0F11171315222E01D0E3
:106A7C005C2E0FD131462046FFF7CDFE3D46CFE7C9
:106A8C006221F8E77421F6E76E21F4E76621F2E75C
:106A9C007221F0E723683246DB6849462046984766
:106AAC00ECE7BD4205D023687A1B9B68294620463B
:106ABC00984722212046FFF7AEFEBDE8F08700BFC5
:106ACC00DE8C0B0013B50446CDE90021FFF75EFF09
:106ADC002046DDE90021FFF797FF022320462371B2
:106AEC0002B010BD13B50446CDE90021FFF74EFFEF
:106AFC002046DDE90021FFF787FF012320462371A3
:106B0C0002B010BD80680368DB6818477047084600
:106B1C0011B10B685B681847704770477047704736
:106B2C00704738B504460D4600682E2101F021FE51
:106B3C002368C31A2B6023B1037803B10130236897
:106B4C002060184638BD10B50C210446FDF765FFD2
:106B5C00204610BD10B504210446FDF75EFF20460B
:106B6C0010BD10B504210446FDF757FF204610BD9B
:106B7C00FEF78EBA08B5FDF7FFFEB0FA80F04009BB
:106B8C0008BD704710B50C4601F00EFB844210D0C6
:106B9C0001F028FC844205D101F024FCBDE8104032
:106BAC0001F09DBA2CB1236820465B68BDE810400B
:106BBC00184710BD0B6803604B68436013B15A68EB
:106BCC0001325A60704713B5044608460191FDF72F
:106BDC00DDFE01990246204602B0BDE81040FFF7E9
:106BEC0081BF13B5044608460191FDF7CFFE23681B
:106BFC000199DB680246204602B0BDE810401847F8
:106C0C0007B503688DF80710DB6801220DF1070149
:106C1C00984703B05DF804FB0A6802604A6842605A
:106C2C000022C0E9022210B502618C688460CC6835
:106C3C00C4600C698A60CA6004610A6110BD0000FE
:106C4C002DE9F74FD0E900844FF0140A00930AFBAA
:106C5C0004F4184BA41017465C434546002C21DD68
:106C6C0066100AFB06F005EB00093A46B9F804B0C9
:106C7C00285801915F4528BF5A4601F0AAFD00280B
:106C8C0001994FF001030BD15F4503D1009A1370AA
:106C9C003446E3E7FCD9A61B09F11405013EF7E7DE
:106CAC00F9DBF5E7A5EB08050248AD10684303B026
:106CBC00BDE8F08FCDCCCCCC7FB50369057E0191BE
:106CCC0003B3F9B1002600F10C04039603A901A843
:106CDC00FFF727FF0146A8B10DF10B03039A8DF8BE
:106CEC000B602046FFF7ACFF9DF80B3053B12368C7
:106CFC00142404FB0034083434F9023C002BA8BFE4
:106D0C00DDB2E3E7284604B070BD0EB4F0B58CB02C
:106D1C0000AF07F14405044655F8042B7A602B4666
:106D2C00202107F11000FD60FEF7E0FB1F287A68B8
:106D3C001AD900F1080323F007036E46ADEB030DDF
:106D4C00411C2B466846FD60FEF7D0FB021E04DD9D
:106D5C0023686946DB6820469847B5463037BD4600
:106D6C00BDE8F04003B070470028F7D02368024616
:106D7C00DB6807F1100120469847EFE710B5094C86
:106D8C002378BFF35B8FDB0709D42046FDF754FE55
:106D9C0028B12046FDF755FE034801F061FC03487D
:106DAC0010BD00BFA8E60320276B0B0074E5032081
:106DBC0010B5094C2378BFF35B8FDB0709D4204651
:106DCC00FDF73AFE28B12046FDF73BFE034801F0E3
:106DDC0047FC034810BD00BFACE603208F6B0B00D3
:106DEC0078E5032038B500250446C0E90055C0E914
:106DFC0004558560856140F8245FFEF739F9FFF78B
:106E0C00BDFFE061FFF7D4FF25732062204638BD3B
:106E1C0010B50A4C2378BFF35B8FDB070CD42046EC
:106E2C00FDF70AFE40B10648FFF7DCFF2046FDF7F0
:106E3C0008FE044801F014FC014810BDA4E6032030
:106E4C00B4E6032071730B00024A03490348002384
:106E5C00FEF756BA55710B00E1700B0061700B0018
:106E6C0000231A4619461846FEF74ABA37B58D68FC
:106E7C0004466846FFF79EFE6A4629462046FFF701
:106E8C0051FD01A8FDF79EFE204603B030BD37B57D
:106E9C00CD6804466846FFF78DFE6A4629462046B3
:106EAC00FFF71CFD01A8FDF78DFE204603B030BD99
:106EBC0037B50D6904466846FFF77CFE6A462946DD
:106ECC002046FFF7B4FC01A8FDF77CFE204603B07A
:106EDC0030BD000070B58AB00D46014604A8FFF71E
:106EEC00C5FF144E04A8FFF735FDE8B104A96846A8
:106EFC00FFF7CDFF02983146FFF73CFE044610B178
:106F0C002C1E18BF012401A8FDF75CFE002CE9D053
:106F1C0004A96846FFF7CCFF6846FFF7BEFC286063
:106F2C0001A8FDF74FFEDDE705A8FDF74BFE0AB003
:106F3C0070BD00BFE48C0B0037B50C4620461349DE
:106F4C001546FDF719FD50B901F02EF94FF4165105
:106F5C0001F01AF903B0BDE8304001F025B90C4935
:106F6C002046FDF709FD78B94FF4165301A92846C0
:106F7C000193FFF7AFFF01F035FA019901F0ACF87E
:106F8C0001F030FA03B030BD0020FBE7E98C0B00B8
:106F9C00F08C0B0070B5D0E900531426044606FBA8
:106FAC000356AE4205D005F10800FFF7F3FF143588
:106FBC00F7E72068FEF78AFA204670BD10B5044644
:106FCC000C30FFF7E7FF2046FEF723FC204610BDF0
:106FDC0010B5044B044640F8043BFFF7EFFF204686
:106FEC0010BD00BFC08A0B0010B50446FFF7F0FFC0
:106FFC0020462421FDF711FD204610BD10B5034B92
:10700C0003600446FFF7E4FF204610BD908D0B0093
:10701C0010B50446FFF7F2FF20462421FDF7FDFCD6
:10702C00204610BD0022C0E9002210B582600C6819
:10703C0004604C6844608C680A604A6084608A60B2
:10704C0010BD10B5036804461868FEF729F82046F1
:10705C0010BD00002DE9F04F87B0804603931C4B08
:10706C005B68C3F30803894616466BB9FFF7D0FE7D
:10707C00044600F12403406A0593FFF779FD237B56
:10708C002BB105A8FFF7DDFF07B0BDE8F08F01239A
:10709C002373D4E900535FFA89F905EB830AAA45F7
:1070AC0012D055F8047B3146381DFFF705FE81459B
:1070BC00F5D33B68039A0092D3F808B04A4633469E
:1070CC0041463846D847EAE700232373D9E700BF87
:1070DC0000ED00E02DE9F74F9B461A4B5B68C3F3BC
:1070EC0008038046894616466BB9FFF791FE0446A5
:1070FC0000F12403406A0193FFF73AFD237B2BB187
:10710C0001A8FFF79EFF03B0BDE8F08F01232373A6
:10711C00D4E90053F6B205EB830A55450ED055F869
:10712C00047B5946381DFFF7C7FD8642F5D33B68F3
:10713C004A46DB68414638469847EEE700232373FE
:10714C00DEE700BF00ED00E02DE9F341164B5B6874
:10715C00C3F3080305460F461BBBFFF759FE00F1AE
:10716C0024030446406A0193FFF702FDD4E900634F
:10717C00462406EB8308B04509D101A8FFF761FF4F
:10718C00A542B4BF0020012002B0BDE8F08156F842
:10719C00040B39460430FFF78FFD8442A8BF044628
:1071AC00E9E70020F0E700BF00ED00E0F8B5D0E91A
:1071BC0001539D4204460E460DDB6F1C002F0068E8
:1071CC0004DDB900FEF78AF918B9F8BDFEF77EF9AF
:1071DC0000202060A7602768626807EB8501920099
:1071EC00A2EB8502081D01F067FA47F82560636879
:1071FC00013363600120E8E737B500F1240304464E
:10720C00406A01930D46FFF7B3FCD4E9003203EB5F
:10721C008202934219460BD00968A94203F1040378
:10722C00F7D101A8FFF70DFF0025284603B030BDAC
:10723C0029462046FFF7BAFF05460028F1D06368BF
:10724C00012B01D1FFF700FE01A8FFF7FAFEECE7D6
:10725C0070B50446D0E900020B4600EB8202824274
:10726C000FD001461D6851F8046BAE4207D1521A7B
:10727C0001F022FA6368013B6360012070BD08468F
:10728C00EDE70020FAE71FB500F124030446406A3D
:10729C0001910393FFF76CFC01A92046FFF7D8FF7F
:1072AC0018B163680BB9FFF7DBFD03A8FFF7C9FE44
:1072BC0004B010BD70B5D0E904561823044603FB86
:1072CC000656AE4215D005F110012046FFF7C0FF5F
:1072DC0063680BB9FFF7C4FDE06929690368DB68D3
:1072EC009847696919B1206A0368DB6898471835B3
:1072FC00E7E7D4E90453182606FB0356AE4204D044
:10730C00284600F093FD1835F8E70023636170BD43
:10731C0073B50446FFF7A4FD04F12403606A0193DE
:10732C00FFF726FC2046FFF7C5FF01A8FFF789FEF3
:10733C00606A08B1FDF7A4FED4E90453182606FBD5
:10734C000356AE4204D0284600F070FD1835F8E71D
:10735C002069FEF7BBF82068FEF7B8F8204602B0AB
:10736C0070BD00000148FFF7D3BF00BFB4E6032097
:10737C008842F8B504460D46164615D9904214D2EB
:10738C00A2F11406751AA1F114072C44B7421AD0B5
:10739C001CB131462046FFF73FFC06F10800FFF711
:1073AC00F9FD143E143CF1E70DD0B5420BD01CB1E5
:1073BC0029462046FFF730FC05F10800FFF7EAFDEF
:1073CC0014351434F1E7F8BD8842F8B504460D467F
:1073DC00164614D9904213D2A2F11006751AA1F1D7
:1073EC0010072C44B74218D01CB13146204600F08F
:1073FC009AFD304600F01AFD103E103CF2E70CD01E
:10740C00B5420AD01CB12946204600F08CFD284616
:10741C0000F00CFD10351034F2E7F8BD70B50E1EFF
:10742C00054611DD3001FEF749F8044658B1D5E99F
:10743C00001201EB0212FFF7C7FF2868FEF746F8AF
:10744C002C60AE60012070BD0024F6E72DE9F04FF2
:10745C00904695B000230391D8F804100A93462265
:10746C009942C0E90033C0E90233C0E90433CDE9E5
:10747C0008330446027623DCD8E90057142303FBB7
:10748C000757AF423BD029460BA800F04CFD0BA987
:10749C000FA8099E00F047FDDDE9091399421BDA9C
:1074AC00089B099A03EB061603EB0212314606F110
:1074BC001000FFF789FFEEB9099B0133099311E026
:1074CC0008A8FFF7ABFF0028D6D108A8FEF7A1F952
:1074DC00204615B0BDE8F08F013108A8FFF79EFFDC
:1074EC000028DDD10FA800F0A1FC0BA800F09EFC39
:1074FC001435C6E70FA9304600F015FDDCE7002671
:10750C00CDE90B660D964FF01409DDE908239E4278
:10751C007CDA3301D35806930BB90136F5E7002317
:10752C00079309FB06F302930BAD07A906A8FFF717
:10753C00F8FA82460028F0D04FF000038DF817308F
:10754C000146079A0DF117032846FFF779FB9DF8C2
:10755C0017700190002F4AD1BDF81C30ADF84030A7
:10756C00CDE911774FF6FF73CDF83CA0ADF8423062
:10757C001397D5E90132934217DB03F1010ABAF1F3
:10758C00000F30DD09FB0AF0FDF798FF834660B36E
:10759C00D5E9001209FB0212FFF7EAFE2868FDF795
:1075AC0095FFC5F800B0C5F808A02B68019A09FB37
:1075BC00023A6A68514609FB02320AF11400FFF7DD
:1075CC00D7FEBAF1000F03D00FA95046FFF724FBEA
:1075DC006B6801336B6011A8FFF7DCFC3FB10BA8A3
:1075EC00FFF7D8FC71E7BB46D8E70127F3E7019B0F
:1075FC002D6809FB0355069B1B782BB9D8F8003076
:10760C00029A13441B7CEB8008358EE721682260BC
:10761C0062686360A36809920A9A0A93E368A2609D
:10762C000B9A0B932369E2600C9A0C9363692261A9
:10763C000D9A0D93039B089162612376CFE70000AE
:10764C00F0B5044687B00D462646194668461746DF
:10765C00FDF735FC0B4B46F8043B694603A8FDF7D8
:10766C002EFC03AA39463046FFF7F0FE03A8FDF7BF
:10767C00BFFA6846FDF7BCFA034B2360204625622F
:10768C0007B0F0BDC08A0B00788D0B00F0B50F462B
:10769C0085B01D490A9C384616461D46FDF76CF907
:1076AC00C0B9A4B1294601A8FFF7BCFC1749242096
:1076BC0000F0BCFE054630B101AB32462146FFF767
:1076CC00BFFF134B2B6001A8FDF792FA2C46204606
:1076DC0005B0F0BD0F493846FDF74EF990B9002CB6
:1076EC00F5D0294601A8FFF79DFC0849242000F09D
:1076FC009DFE05460028E6D001AB32462146FFF739
:10770C009FFFE0E70024E2E7F88C0B00948E0B005F
:10771C00908D0B00FC8C0B00014B024A1A607047D9
:10772C00B0E603200D8D0B002DE9F047089DD0F835
:10773C00209004460E461746984600F035FD8145CC
:10774C004CD02B79190704D56A6954492046FFF7A8
:10775C00DCFAB8F1000F0DD05B212046FFF750FA90
:10776C0041462046FFF73DFA23684D49DB6802226B
:10777C00204698472B79DA0723D5D5F808802F2196
:10778C00404601F046F808B100F101084146204698
:10779C00FFF727FA2B799B0708D53A212046FFF7EC
:1077AC002FFAEA683F492046FFF7AFFA2A79236897
:1077BC0012F0040FDB6814BF3B493C4902222046FF
:1077CC0098472B7958071DD529690B461A4613F88B
:1077DC00010B60B1202808D11946F7E7344800F0B6
:1077EC0082F90028ADD0BDE8F0872828EED12368B7
:1077FC00521ADB682046984723682E49DB6804221E
:10780C002046984700213846FDF772FD0146204678
:10781C00FFF7E7F923682549DB68022220469847E1
:10782C001EB131462046FFF7DCF92B7913F0300FEF
:10783C002CD023682049DB680222204698472B79FC
:10784C00D9060AD523681D49DB68072220469847CC
:10785C00AA691B492046FFF758FA2B799A0611D5CD
:10786C00DB0605D523681049DB68022220469847C1
:10787C0023681449DB6820460A229847E9692046A8
:10788C00FFF7AFF95D212046FFF7BAF923680E49DF
:10789C00DB6820460222BDE8F0471847118D0B002B
:1078AC00188D0B00D88C0B001B8D0B00208D0B0042
:1078BC00DCE603201E8D0B00238D0B00268D0B00A8
:1078CC002E8D0B00318D0B003C8D0B002DE9F04102
:1078DC000446076A0D46164600F066FC874207D040
:1078EC00206A036832462946DB68BDE8F041184738
:1078FC00034800F0F8F80028F2D0BDE8F08100BF92
:10790C00DCE603202DE9F04385B0D0F820900C9CE8
:10791C0005460F4690461E4600F046FC814505D1B3
:10792C00494800F0E0F8002840F08A802B6A474A6A
:10793C0001924FF0000901A803938DF80890FFF70E
:10794C0032F849464046FDF7D3FC414980460122B6
:10795C0001A8FFF7B7F84146FFF735F93FB13D49AC
:10796C00012201A8FFF7AEF83946FFF72CF93EB11A
:10797C003949012201A8FFF7A5F83146FFF723F991
:10798C002379DF070ED5A6682F21304600F041FF82
:10799C0000B1461C3149012201A8FFF793F831468A
:1079AC00FFF711F923799E0707D52D49022201A86B
:1079BC00FFF788F8E168FFF703F82379580714D527
:1079CC00266933461F4613F8012B2AB1202A01D110
:1079DC001E46F7E7282AF5D12249022201A8FFF713
:1079EC0071F8BA1B3146FFF77DF82379190707D5D3
:1079FC001D49012201A8FFF765F86169FEF7F2FF46
:107A0C002379DA0608D5042218490DEB0200FFF79A
:107A1C0059F8A169FEF7D4FF23799B0607D51449C1
:107A2C00062201A8FFF74EF8E169FFF7CCF801A890
:107A3C00FEF7A3FF286A0F4903680222DB68984708
:107A4C0005B0BDE8F08300BFDCE60320608D0B00C1
:107A5C00EE8C0B003F8D0B00F78F0B00128E0B0082
:107A6C00418D0B00448D0B00478D0B00498D0B0095
:107A7C004E8D0B003C8D0B00002340681A46FDF721
:107A8C00BDBC406800220221FDF7C8BC0022406842
:107A9C001146FDF7BBBC002240681146FDF7C6BC81
:107AAC00002340681A461946FDF7C8BC00234068FD
:107ABC001A461946FDF7CABC40680021FDF7EEBC1A
:107ACC0040680021FDF7F2BC4068002281F0010102
:107ADC00FDF7C4BC40680022FDF7D0BC0022406812
:107AEC001146FDF7D3BC002240681146FDF7BEBC21
:107AFC002DE9F04395B014460D460746FEF7ECFD14
:107B0C0000211C220DA8009100F0F0FD40230C93E5
:107B1C0020466B460CAA0021FDF74AFB04460028C0
:107B2C004BD1024601216868FDF780FC022180469A
:107B3C0022466868FDF77AFC009E81462146002E9D
:107B4C003BD0002939D17368022B03D00A2B11D0FA
:107B5C00F669F4E7B8F1000FFAD0716906A80431A0
:107B6C0007ADFEF7E7FD0FCD3C1D0FC42B6823704E
:107B7C004146EDE7B9F1000FEAD07469102201A873
:107B8C0000F0B4FD06238DF8143001AD04F10803A8
:107B9C001834186859682A4603C20833A34215469C
:107BAC00F7D101A906A807ADFEF7A4FD0FCD3C1D2A
:107BBC000FC42B6823704946CAE70098FDF7F0FA0A
:107BCC00384615B0BDE8F083024B034A1A60002218
:107BDC005A607047DCE60320D88D0B00F8B50646DA
:107BEC000D468F180024BD420CD0336815F8011BCC
:107BFC009B6830469847031E01DB1C44F3E7002CBE
:107C0C0008BF1C462046F8BD13B50446084659B1BA
:107C1C000191FCF7BBFE23680199DB680246204604
:107C2C0002B0BDE81040184702B010BD03689B6855
:107C3C00184730B58BB00023012A8DF8243098BF3B
:107C4C000A2209AC0D46B1FBF2F101FB125303F011
:107C5C00FF03092B94BF30333733DBB2AA4204F84D
:107C6C00013DEFD92146FFF7CFFF0BB030BD00002F
:107C7C002DE9F74F55EC104B06460F4610EE102A27
:107C8C0010EE100A2B462946FCF718FE40B153495A
:107C9C003046FFF7B9FF8246504603B0BDE8F08F7F
:107CAC0025F000494E4B4FF0FF3220464946FCF779
:107CBC0005FE48B94A4B4FF0FF3220464946FCF7C7
:107CCC00DFFD08B94749E3E7474B4FF060422046D8
:107CDC002946FCF7E9FD08B14449D9E7444B4FF07C
:107CEC00604220462946FCF7C1FD0028F4D1002251
:107CFC00002320462946FCF7B9FDD0B12D21304692
:107D0C00FFF794FF05F1004382461D463949DFF821
:107D1C00EC904FF0000B00204FF000085FFA8BF353
:107D2C009F4208D942464B46FCF758FC0BF1010B1D
:107D3C00F4E78246EAE722462B46FCF76FF90D463C
:107D4C000446FCF7F9FD8046FCF7A4FA02460B4604
:107D5C0020462946FCF760F90A2204460D463046B7
:107D6C004146FFF766FF8244002F95D02249DFF889
:107D7C008C903046FFF748FF4FF000088244002FEC
:107D8C008AD042464B4620462946FCF7FDFA04466B
:107D9C000D46FCF7A9FDB0F1000B1CDA2D21304685
:107DAC00FFF744FFCBF1000103460A223046019352
:107DBC00FFF73FFF019B184482445846FCF77AFAC0
:107DCC0002460B4620462946FCF726F9013F04469D
:107DDC000D46FFB2D3E759460023E6E70C8E0B00A5
:107DEC00FFFFEF7F108E0B00FFFFEF41148E0B0097
:107DFC00FFFFEFC10000E03F948B0B00000024401C
:107E0C0038B5044610EE100ACDB2FCF765FA41EC19
:107E1C00100B29462046BDE83840FFF729BF00006B
:107E2C00014B00229A607047E4E6032010B504462B
:107E3C000068FDF74BFB204610BD10B504460068EA
:107E4C0008B1FDF743FB0023C4E90133236010BDE7
:107E5C0038B504460D4600680131FDF73FFB10B103
:107E6C00C4E90005012038BD10B50368044623B1F0
:107E7C0043688B4201D3012010BD2046FFF7E8FF79
:107E8C000028F9D0A368002BF5D122681370F2E713
:107E9C0037B50D46114601920446FFF7E5FF019AEE
:107EAC0028B92046FFF7C9FF204603B030BDA260B9
:107EBC002946206800F0F2FB2268A3680021D15407
:107ECC00F2E7002313B5C0E9003304468360037363
:107EDC0041B108460191FCF759FD01990246204633
:107EEC00FFF7D6FF204602B010BD38B50546006836
:107EFC000C4670B16A688B689A4208D3096831B134
:107F0C0000F041FCA368AB600023A36038BDFDF713
:107F1C00DDFA23682B6063686B60A368AB60002399
:107F2C00C4E90033F1E710B50023C0E9003304467F
:107F3C0083600373FFF7D9FF204610BD884210B54C
:107F4C00044605D00B682BB18A681946FFF7A0FFD1
:107F5C00204610BDFFF771FFFAE710B50023044669
:107F6C00C0E9003383600373FFF7E8FF204610BDC0
:107F7C00884210B5044601D0FFF7B7FF204610BD6C
:107F8C0013B5044659B108460191FCF7FFFC019961
:107F9C0002462046FFF77CFF204602B010BDFFF7DB
:107FAC004CFFF9E70EB470B587B00BAD044655F82D
:107FBC00042B01922B46052104A80395FDF796FA94
:107FCC000B4906462046FFF77CFF31462046FFF75B
:107FDC004BFF206830B1019A03952B46711CFDF7BD
:107FEC0085FAA060204607B0BDE8704003B070472A
:107FFC003E8D0B00054B02221A60054B054A9A6018
:10800C000020C3E90000FDF783B900BF00E703209F
:10801C00F4E603200000FFFF024B1A68024B1A60C3
:10802C00704700BF7CE5032004E7032070474174D0
:10803C00704708B5007CFDF7F3F820EAE07008BD46
:10804C0008B5007CFDF7CCF820EAE07008BD08B557
:10805C00007CFDF7D5F840EAE07008BD08B5007C5F
:10806C00FDF7C6F840EAE07008BD007CFDF7D0B81B
:10807C0037B5457C04462DB1207C03B0BDE83040BB
:10808C00FDF7A6B8007C0191FDF7CAF8002801990C
:10809C00F2DC284603B030BD10B514210446FCF7C1
:1080AC00BCFC204610BD000010B54FF47A7304469A
:1080BC00084611460022C4E90123044B2360012326
:1080CC0020746374FDF7BCF8204610BD3C8E0B0089
:1080DC00007C0023FDF7ACB80022FFF7F9BF007C51
:1080EC00FDF76EB8417470477047704708B50021B2
:1080FC00007CFDF7D5F840EAE07008BD08B5012119
:10810C00007CFDF7CDF840EAE07008BD08B5007CB6
:10811C00FDF7BEF820EAE07008BD08B5007CFDF75D
:10812C00AFF820EAE07008BD13B50446007C01915D
:10813C00FDF7AEF80028019901DC607C20B1207CB1
:10814C00FDF7B6F820EAE07002B010BD007CFDF738
:10815C00B7B810B514210446FCF75FFC204610BDDF
:10816C0010B54FF47A73044608460021C4E9011394
:10817C00044B23600123207463741146FDF768F8E7
:10818C00204610BD6C8E0B00007C0022FDF768B8F9
:10819C00007CFDF76DB810B514220446002100F0E8
:1081AC00A5FA204610BD000010B50F4C88B003A8EE
:1081BC00FFF7F1FF2178BFF35B8F11F001010FD1B5
:1081CC0020460191FCF738FC019948B103AA0748F5
:1081DC00FFF7C6FF2046FCF734FC054800F040FAD8
:1081EC00024808B010BD00BF08E703200CE70320CD
:1081FC00F5800B00014B1860704700BF80E5032031
:10820C0008B50B4B43B1FFF7CFFF03681B699847C9
:10821C00002801DDAFF30080064B43B100F0E2F81B
:10822C0003681B699847002801DDAFF3008008BD87
:10823C00000000000000000008B5FFF7E1FFFCF7AC
:10824C0047FF014B186008BD28E703200548064A84
:10825C00064908B5121A00F021FA054B054A1A60B6
:10826C0008BD00BF00F4032004F40320BC910B00F4
:10827C0000F403201E1C279A07B5002300931A460E
:10828C006FF07701FDF780F803B05DF804FB000098
:10829C0007B543880A2B08D0502B0BD1094B1B6810
:1082AC004BB103B05DF804EB1847FFF7E5FF03B0E3
:1082BC005DF804FB002300931A466FF07701FDF77D
:1082CC0063F8F4E724E7032010B512480021FDF70A
:1082DC0035F9114B1A68114B9A42114B0CBF012204
:1082EC0000221A7001D0FFF7B1FFFCF7E1FE044643
:1082FC0000F004FA0B4B13B12046AFF300800021C1
:10830C000848FDF773F8BDE8104007480021FDF759
:10831C0031B800BF01820B0000F403201E1C279A09
:10832C0020E70320000000009D820B007047000036
:10833C0038B50A4B036001230446436108492020E9
:10834C0000F076F8202560600549A560284600F00D
:10835C006FF8C4E90305204638BD00BF18000100C2
:10836C00948E0B0010B50E4C2378BFF35B8FDB079C
:10837C0086B011D42046FCF75FFB68B16846FFF766
:10838C00D7FF6A4601210748FEF708F92046FCF79B
:10839C0058FB054800F064F9024806B010BD00BF58
:1083AC002CE7032030E7032039830B0070470000D3
:1083BC0038B5044614252A46002100F097F925808B
:1083CC004025074925812846258200F031F80449CB
:1083DC006060284600F02CF8E060204638BD00BFF5
:1083EC00948E0B0030B50E4D2978BFF35B8F11F0D6
:1083FC00010487B011D12846FCF71EFB68B101A817
:10840C00FFF7D6FF01AA21460648FFF74DFE284686
:10841C00FCF717FB044800F023F9024807B030BD05
:10842C0044E7032048E70320B9830B00FCF7F1BABB
:10843C00FCF7F1BA08B5FDF761F80000014900F04E
:10844C00F9B800BFB08E0B007FB500241023CDE926
:10845C000234036815469E6912686B46CDE90044E8
:10846C00B0479DF8043003F00603062B03BF009BB6
:10847C002B600120204604B070BD0098904214BFC0
:10848C00012006207047000010B5034B0360044622
:10849C0000F0CDF8204610BDF08E0B0010B5044650
:1084AC00FFF7F2FF20460821FCF7B7FA204610BD73
:1084BC002DE9F0411F46DDE90834DDF818809845B8
:1084CC000646154607D1079900F0B4F818B1657146
:1084DC000020BDE8F0813946304600F0ABF80028AA
:1084EC00F6D00123C4F800802571A371F0E738B5EC
:1084FC0015461C4600F09EF820B10823E3600623C5
:10850C002560237138BD73B505460C4601921E4695
:10851C0000F090F850B9032E08D82368019A5B69D3
:10852C002946204602B0BDE87040184702B070BD25
:10853C0010B5034B03600446FFF7A6FF204610BDA1
:10854C00508F0B0010B50446FFF7F2FF20460C21AC
:10855C00FCF763FA204610BDF7B5089F9742054615
:10856C000E4614460AD0A86802680897156A314668
:10857C002246AC4603B0BDE8F04060471946019373
:10858C0000F058F8019B0028EDD0062003B0F0BD98
:10859C002DE9F14F0D461946DDE90A4BDDE90CA634
:1085AC0081461746984600F045F890B1002D34608E
:1085BC00377109DB61198A450CBF06210121B171A4
:1085CC00002001B0BDE8F08F0235F9D10123B37161
:1085DC00F6E7544506D15946484600F02BF808B149
:1085EC007771EDE7D9F808000368CDE90CA6CDE961
:1085FC000A4BDC693A4643462946A44601B0BDE81D
:10860C00F04F60472DE9F04107460C4615461E46D3
:10861C00FFF76DFF48B9B86803689F692A4633466F
:10862C002146BC46BDE8F0416047BDE8F08170478B
:10863C0000207047814208B50ED0406803782A2B81
:10864C000CD049680B782A2B08BF0131FCF794F940
:10865C00B0FA80F0400908BD0120FCE70020FAE7E1
:10866C00002301461A46184600F074B9024B184410
:10867C00407800F097007047F98F0B0010B5013966
:10868C000244904201D1002005E0037811F8014F1B
:10869C00A34201D0181B10BD0130F2E70A449142ED
:1086AC0000F1FF3300D1704710B511F8014B03F8FE
:1086BC00014F9142F9D110BD884210B501EB020473
:1086CC0002D98442234607D8431EA14208D011F890
:1086DC00012B03F8012FF8E7024401468A4200D12E
:1086EC0010BD13F8014D02F8014DF7E702440346A3
:1086FC00934200D1704703F8011BF9E738B5104BD2
:10870C001D68AB6B0446B3B91820FCF7D7FE0246C4
:10871C00A86320B90B4B0C484221FCF707FF0B490F
:10872C000B4BC0E900130B4B83600B23838100219F
:10873C000120C2E90401AB6B00221C615A6138BDF7
:10874C0080E50320898F0B00A08F0B000E33CDAB7F
:10875C0034126DE6ECDE0500C9B2034610F8012BAD
:10876C001AB18A42F9D118467047002918BF002364
:10877C00F9E710B50446FFF7EFFF18B92046FCF7F0
:10878C0005F9204410BD034611F8012B03F8012B09
:10879C00002AF9D170470000024B0146186800F01E
:1087AC0003B800BF80E5032037B5044608460D46E4
:1087BC00FCF7ECF8421C114620460192FCF7A6FE91
:1087CC00044618B1019A2946FFF768FF204603B00A
:1087DC0030BD10B57AB103460139841813F8010B7A
:1087EC0011F8012F904201D1A34201D1801A10BD82
:1087FC000028F3D1FAE71046F9E710B50246014418
:10880C008A42134603D01C780132002CF8D1181A76
:10881C0010BD38B503460C4669B9BDE83840FFF7C2
:10882C009BBF431C054621461846FFF795FF0028C1
:10883C00F7D1284638BD0025F5E70000012B2DE9BE
:10884C00F04701D0242B06D9FCF768FE16230360F1
:10885C000020BDE8F087DFF8E4C00D462E4615F881
:10886C00014B14F80C7017F00807F7D12D2C32D1EE
:10887C002C780127B51C002B5BD0102B09D1302C88
:10888C0007D12C7804F0DF04582C4DD16C781023D0
:10889C00023507F1004808F1FF384FF0000CB8FB27
:1088AC00F3F9664603FB198AA4F1300EBEF1090FE9
:1088BC0016D87446A34224DDBCF1000F1EDBB14573
:1088CC001CD301D1A24519DB06FB03464FF0010C6A
:1088DC0015F8014BE8E72B2C04BF2C78B51CCAE724
:1088EC00A4F1410EBEF1190F01D8373CE2E7A4F117
:1088FC00610EBEF1190F04D8573CDBE74FF0FF3C7B
:10890C00E6E7BCF1000F05DA22230360464642B9C4
:10891C0030469EE707B17642002AF9D0BCF1000F31
:10892C0000D0691E1160F3E73024002BB1D108236D
:10893C00AFE7302CA5D00A23ABE700BFFA8F0B00B2
:10894C0013460A46014602480068FFF777BF00BF8E
:10895C0080E503202DE9F843DFF8B8800646D8F807
:10896C0000001F460D46914600F056F8254B1C683A
:10897C0034B9254C1C60254B13B11B68C4F88830E6
:10898C0063681F2B07DDD8F8000000F047F84FF0A4
:10899C00FF30BDE8F8834EB3D4F8880088B91C4B7F
:1089AC0023B9D8F8000000F038F8F0E74FF48470E1
:1089BC00FCF784FD0028F4D00023C0E94033C4F850
:1089CC008800636840F8239001229A4000EB8301F1
:1089DC00D0F800311343C0F80031022EC1F880707A
:1089EC0002BFD0F804311343C0F804316368D8F8DF
:1089FC0000005A1C0233626044F8235000F00EF859
:108A0C000020C6E7E8E703205CE703200000000035
:108A1C00C9540B00E4E50320704770477047000011
:108A2C00A9490B00E5490B000D4A0B00114A0B003C
:108A3C000000000043616C6C206F6E2070757265D5
:108A4C00207669727475616C0062617474657279F8
:108A5C005F766F6C74616765004B4E454C4C0050F3
:108A6C004F574552204C4F535320415420444D4FA7
:108A7C0043007B22706F776572536F75726365224A
:108A8C003A222573227D00706F7765725F6368618F
:108A9C006E676500504F57455220524553544F5204
:108AAC00454420415420444D4F4300000000000039
:108ABC000000000000000000000000002D4A0B0028
:108ACC00B14A0B000000000000000000B54A0B008A
:108ADC00E94A0B0035770B00D9780B000000000039
:108AEC0000000000417373657274696F6E466169B2
:108AFC006C7572652066616C736500776972696E5E
:108B0C00672E626C650053746172742064697363C0
:108B1C006F766572696E67207365727669636573CB
:108B2C002E00417373657274696F6E4661696C7562
:108B3C0072652068616C5F626C655F737461636BF6
:108B4C005F696E6974286E756C6C70747229203D47
:108B5C003D2053595354454D5F4552524F525F4E31
:108B6C004F4E45004661696C656420746F206170DE
:108B7C0070656E6420706565722043656E747261F9
:108B8C006C206465766963652E00436F6E6E656359
:108B9C0074656400446973636F6E6E6563746564B9
:108BAC0000000000000000000000000087550B00D2
:108BBC00A9550B00AD580B00B7550B0089550B0090
:108BCC000000000000000000C75C0B00BD5C0B0047
:108BDC00B35C0B00695C0B00A75C0B009B5C0B008F
:108BEC00C57A0B00CD7A0B008F5C0B00875C0B00F9
:108BFC007D5C0B00735C0B00FD7A0B000000000029
:108C0C0000000000555D0B00B95D0B00575D0B00BB
:108C1C00C95D0B00FD5D0B00295E0B005D5E0B005A
:108C2C007D5D0B005B5D0B00775D0B00FCFFFFFFB8
:108C3C0000000000B15D0B0000000000000000000F
:108C4C00A15E0B00A75E0B00E55E0B00B55E0B0092
:108C5C00A35E0B0000000000000000002F640B005E
:108C6C0025640B001B640B0011640B0005640B00E6
:108C7C00F9630B00C57A0B00CD7A0B00ED630B008A
:108C8C00E5630B00DB630B00D1630B00FD7A0B007B
:108C9C00000000000000000051650B009B650B00FC
:108CAC0073650B0053650B007B650B0083650B0034
:108CBC008B650B0093650B000000000000000000AA
:108CCC007F660B006F660B0071660B002564002538
:108CDC0075007525303478006261756400536572D7
:108CEC0069616C0053657269616C31004A534F4E77
:108CFC0053747265616D4C6F6748616E646C65721C
:108D0C000061707000253031307520005D20002C22
:108D1C00200028293A2000205B00636F6465203D09
:108D2C00200025690064657461696C73203D200026
:108D3C000D0A006D006C6E00666E007400636F644B
:108D4C00650064657461696C00000000000000003F
:108D5C00000000002D6B0B00536B0B00116B0B0014
:108D6C008F670B000000000000000000DD6F0B009F
:108D7C00F56F0B0035770B00D9780B000000000065
:108D8C000000000009700B001D700B0011790B0026
:108D9C00196B0B0000000000000000002B6B0B0097
:108DAC00616B0B0099760B001B6B0B000000000035
:108DBC0000000000296B0B006F6B0B00456F0B0064
:108DCC00916B0B000000000000000000857A0B0086
:108DDC008F7A0B00997A0B00A37A0B00AD7A0B00FB
:108DEC00B97A0B00C57A0B00CD7A0B00D57A0B0043
:108DFC00E17A0B00E97A0B00F37A0B00FD7A0B0099
:108E0C006E616E00696E66006F76660025592D25C1
:108E1C006D2D25645425483A254D3A2553257A0065
:108E2C0061736374696D6500000000000000000050
:108E3C0039800B00A5800B007D800B00E97B0B00BB
:108E4C004D800B0069800B005B800B0077800B0062
:108E5C003B800B003F800B00000000000000000076
:108E6C00F7800B005F810B0035810B00E97B0B0059
:108E7C0027810B00F9800B0009810B0059810B0035
:108E8C0019810B00F1800B0000537431395F537062
:108E9C005F6D616B655F7368617265645F74616758
:108EAC0000000000F08E0B00958E0B00508F0B0015
:108EBC00C48E0B00748F0B004E31305F5F6378787B
:108ECC00616269763131375F5F636C6173735F74B4
:108EDC007970655F696E666F4500000000000000E8
:108EEC00B88E0B0095840B00A9840B003D860B00FB
:108EFC003D860B0013850B0055840B00FB840B0087
:108F0C00BD840B0087840B00508F0B00208F0B004F
:108F1C00B88E0B004E31305F5F6378786162697692
:108F2C003132305F5F73695F636C6173735F747947
:108F3C0070655F696E666F45000000000000000000
:108F4C00148F0B003D850B0051850B003D860B00EB
:108F5C003D860B0013850B0055840B0011860B000E
:108F6C009D850B0065850B00F08E0B007C8F0B0034
:108F7C00537439747970655F696E666F005245453C
:108F8C004E54206D616C6C6F632073756363656503
:108F9C00646564002F746D702F6A656E6B696E73F7
:108FAC002D4743432D31302D706970656C696E65AA
:108FBC002D34385F32303230313132345F3136302B
:108FCC00363138303633392F7372632F6E65776CC8
:108FDC0069622F6E65776C69622F6C6962632F739F
:108FEC0074646C69622F72616E642E6300002020C1
:108FFC00202020202020202828282828202020203D
:10900C0020202020202020202020202020208810FC
:10901C00101010101010101010101010101004045C
:10902C000404040404040404101010101010104163
:10903C0041414141410101010101010101010101D4
:10904C000101010101010101011010101010104269
:10905C0042424242420202020202020202020202A4
:10906C000202020202020202021010101020000082
:10907C0000000000000000000000000000000000E4
:10908C0000000000000000000000000000000000D4
:10909C0000000000000000000000000000000000C4
:1090AC0000000000000000000000000000000000B4
:1090BC0000000000000000000000000000000000A4
:1090CC000000000000000000000000000000000094
:1090DC000000000000000000000000000000000084
:1090EC000000000000000000000000000000000074
:1090FC00314F0B00595C0B00255D0B0039640B00E4
:10910C0025770B00D57B0B002D7E0B0001800B000F
:04911C0025800B009F
:10912000040000001400000003000000474E55003A
:1091300093363A746FA699192A5BC03038050A3EF7
:049140000DB8FE5810
:10914400FFFFFFFFA88D0B00C08D0B002C8E0B00C2
:1091540084E503200000000000000000000000007F
:1091640000000000000000000000000000000000FB
:1091740000000000000000000000000000000000EB
:1091840000000000000000000000000000000000DB
:1091940000000000000000000000000000000000CB
:1091A40000000000000000000000000000000000BB
:0891B40000000000ECE70320BD
:0491BC0000000000AF
:1091C60000000102030405060708090A0B0C0D0E30
:1091D6000F101112131415161718191A1B1C1D1E21
:0491E6001F2028001E
:0491EA00785634126D
:04000003B000401CED
:00000001FF
