:02000002B0004C
:1040000000400B00064F0B00000006000D000502EB
:0840100004017D150000000011
:04401800584C0B00F5
:10401C00034613F8012B002AFBD1181A01387047FC
:10402C0009480A49884208B505D0094A824202D09B
:10403C00121A00F061FD0748074A0021121A00F01D
:10404C0069FD014808BD00BF48E603206C4E0B001B
:10405C00B4E60320B4E60320F0E7032070B5074E66
:10406C00074C00F0CFFCA41BA4080025AC4200D1E7
:10407C0070BD56F8043B98470135F7E7284E0B0006
:10408C00484E0B0000F013B808B500F011F8BDE86D
:10409C00084000F06FBC00F029B900F02FB900788F
:1040AC00B0FA80F0400970470123037070477047E5
:1040BC007047000008B5024B1B685B6C019308BD90
:1040CC004802030008B5024B1B685B68019308BDEE
:1040DC001802030008B5024B1B685B69019308BD0D
:1040EC001802030008B5024B1B685B69019308BDFD
:1040FC006402030008B5024B1B689B68019308BD62
:10410C006802030008B5024B1B68DB68019308BD0D
:10411C006802030008B5024B1B68DB68019308BDFD
:10412C003C02030008B5024B1B681B69019308BDD8
:10413C003C02030008B5024B1B685B69019308BD88
:10414C003C02030008B5024B1B689B69019308BD38
:10415C003C02030008B5024B1B68DB69019308BDE8
:10416C003C02030008B5024B1B689B6A019308BD17
:10417C003C02030008B5024B1B681B6C019308BD85
:10418C003C02030008B5024B1B681B68019308BD79
:10419C004C02030008B5024B1B681B69019308BD58
:1041AC004C02030008B5024B1B685B69019308BD08
:1041BC004C02030008B5024B1B689B69019308BDB8
:1041CC004C02030008B5024B1B68DB69019308BD68
:1041DC004C02030008B5024B1B681B6A019308BD17
:1041EC004C02030008B5024B1B685B68019308BDC9
:1041FC002002030008B5034B1B68D3F888300193E9
:10420C0008BD00002002030008B5034B1B68D3F85F
:10421C009430019308BD00002002030008B5024B46
:10422C001B68DB6B019308BD4402030008B5024B0D
:10423C001B685B68019308BD4002030008B5024B84
:10424C001B689B68019308BD4002030008B5024B34
:10425C001B68DB68019308BD4002030008B5024BE4
:10426C001B681B69019308BD4002030008B5024B93
:10427C001B685B69019308BD4002030008B5024B43
:10428C001B689B69019308BD4002030008B5024BF3
:10429C001B68DB69019308BD4002030008B5024BA3
:1042AC001B681B6A019308BD4002030008B5024B52
:1042BC001B681B6B019308BD4002030008B5024B41
:1042CC001B685B6B019308BD4002030008B5024BF1
:1042DC001B681B6C019308BD4002030008B5024B20
:1042EC001B685B6C019308BD4002030008B5024BD0
:1042FC001B681B68019308BD1C02030008B5024B28
:10430C001B685B68019308BD1C02030008B5024BD7
:10431C001B681B6C019308BD1C02030008B5024B03
:10432C001B685B6C019308BD1C0203000248002350
:10433C000360FFF7BFBE00BFB4E603200022406855
:10434C001146FFF78BBF002240681146FFF7A6BF4E
:10435C00002240681146FFF7B1BF40680022FFF70A
:10436C00A5BF4068002281F00101FFF78FBF002339
:10437C0040681A461946FFF781BF002340681A4669
:10438C001946FFF773BF002240681146FFF756BF6E
:10439C00406800220221FFF759BF002340681A46EB
:1043AC00FFF744BF084B10B52824224618460021BD
:1043BC0000F0B0FB054B04804FF0FF32426004224A
:1043CC005A60034A1A6010BDC0E60320B8E6032009
:1043DC00744C0B00002240681146FFF75FBF0022AF
:1043EC0040681146FFF76ABF40680022FFF75EBFC6
:1043FC004068002281F00101FFF748BF00234068AC
:10440C001A461946FFF73ABF002340681A46194668
:10441C00FFF72CBF002240681146FFF71FBF002298
:10442C0040681146FFF70ABF406800220221FFF7DF
:10443C000DBF002340681A46FFF7F8BE024B03225B
:10444C005A60024A1A607047E8E60320B04C0B0031
:10445C00704710B518210446FFF71FFE204610BD0B
:10446C00F0B5037D062B8DB00E4600F104074FF01E
:10447C00000412D000F1080515F8011D0A2230467F
:10448C0000F043F9AF42044419D0002CF4D02E2193
:10449C00304600F037F90444EEE72F236A463946DC
:1044AC000A208DF80040FFF71DFE6846FFF7B0FDAF
:1044BC0033680246DB686946304698470446204616
:1044CC000DB0F0BD10B5054B0446112240F8043B6D
:1044DC00002100F01FFB204610BD00BFEC4C0B0070
:1044EC000346074A10B543F8042B01F1100251F8AA
:1044FC00044B43F8044B9142F9D10A781A7010BD61
:10450C00EC4C0B0010B59DF8084044EA032343EA39
:10451C00024242EA016104234160037510BD0000B0
:10452C0007B5064B0360CB7800938B784A780978F3
:10453C00FFF7E8FF03B05DF804FB00BFEC4C0B0089
:10454C00014B024A1A607047F0E60320F84C0B004E
:10455C00002340681A46FFF769BE4068002202211A
:10456C00FFF774BE002240681146FFF767BE0022B9
:10457C0040681146FFF772BE002340681A46194680
:10458C00FFF774BE002340681A461946FFF776BE43
:10459C0040680021FFF79ABE40680021FFF79EBEDD
:1045AC004068002281F00101FFF770BE40680022D4
:1045BC00FFF77CBE002240681146FFF77FBE002249
:1045CC0040681146FFF76ABE2DE9F04395B01446DA
:1045DC000D460746FFF776FF00211C220DA800911F
:1045EC0000F098FA40230C9320466B460CAA00214D
:1045FC00FFF788FD044600284BD10246012168686C
:10460C00FFF72CFE0221804622466868FFF726FE43
:10461C00009E81462146002E3BD0002939D173687B
:10462C00022B03D00A2B11D0F669F4E7B8F1000F76
:10463C00FAD0716906A8043107ADFFF771FF0FCDF1
:10464C003C1D0FC42B6823704146EDE7B9F1000FF8
:10465C00EAD07469102201A800F05CFA06238DF8E8
:10466C00143001AD04F108031834186859682A464F
:10467C0003C20833A3421546F7D101A906A807AD1A
:10468C00FFF72EFF0FCD3C1D0FC42B68237049463E
:10469C00CAE70098FFF72EFD384615B0BDE8F08349
:1046AC00024B034A1A6000225A607047F4E603205A
:1046BC00044D0B00F8B506460D468F180024BD427C
:1046CC000CD0336815F8011B9B6830469847031EC5
:1046DC0001DB1C44F3E7002C08BF1C462046F8BD48
:1046EC0013B50446084659B10191FFF791FC2368B4
:1046FC000199DB680246204602B0BDE8104018471D
:10470C0002B010BD03689B68184730B58BB000230E
:10471C00012A8DF8243098BF0A2209AC0D46B1FB52
:10472C00F2F101FB125303F0FF03092B94BF30335A
:10473C003733DBB2AA4204F8013DEFD92146FFF72B
:10474C00CFFF0BB030BD0000014B00229A607047C8
:10475C00FCE60320054B02221A60054B054A9A60C1
:10476C000020C3E90000FFF73DBD00BF18E70320A0
:10477C000CE703200000FFFF024B1A68024B1A6083
:10478C00704700BF48E603201CE7032070474174C4
:10479C00704708B5007CFFF7E5FC20EAE07008BD27
:1047AC0008B5007CFFF7BEFC20EAE07008BD08B538
:1047BC00007CFFF7C7FC40EAE07008BD08B5007C40
:1047CC00FFF7B8FC40EAE07008BD007CFFF7C2BC04
:1047DC0037B5457C04462DB1207C03B0BDE8304094
:1047EC00FFF798BC007C0191FFF7BCFC00280199F5
:1047FC00F2DC284603B030BD10B514210446FFF797
:10480C004CFC204610BD000010B54FF47A730446E2
:10481C00084611460022C4E90123044B23600123FE
:10482C0020746374FFF7A6FC204610BD5C4D0B0092
:10483C00417470477047704708B50021007CFFF742
:10484C00B9FC40EAE07008BD08B50121007CFFF717
:10485C00B1FC40EAE07008BD08B5007CFFF7A2FC93
:10486C0020EAE07008BD08B5007CFFF793FC20EA55
:10487C00E07008BD13B50446007C0191FFF792FC73
:10488C000028019901DC607C20B1207CFFF79AFCA8
:10489C0020EAE07002B010BD007CFFF79BBC10B5A5
:1048AC0014210446FFF7F9FB204610BD10B54FF458
:1048BC007A73044608460021C4E90113044B2360B3
:1048CC000123207463741146FFF75CFC204610BD75
:1048DC008C4D0B0010B514220446002100F01AF97F
:1048EC00204610BD10B50F4C88B003A8FFF7F2FF9F
:1048FC002178BFF35B8F11F001010FD1204601919C
:10490C00FFF7CDFB019948B103AA0748FFF7CEFF8B
:10491C002046FFF7C9FB054800F0E8F8024808B04C
:10492C0010BD00BF20E7032024E7032041480B0003
:10493C00014B1860704700BF4CE6032008B50B4BC9
:10494C0043B1FFF7CFFF03681B699847002801DDCF
:10495C00AFF30080064B43B100F0A2F803681B696B
:10496C009847002801DDAFF3008008BD000000006F
:10497C000000000008B5FFF7E1FFFFF7ABFB014BB0
:10498C00186008BD40E703200548064A064908B5EB
:10499C00121A00F0B1F8054B054A1A6008BD00BFA9
:1049AC0000F4032004F40320D84E0B0000F4032081
:1049BC001E1C279A07B5002300931A466FF0770147
:1049CC00FFF722FC03B05DF804FB000007B5438839
:1049DC000A2B08D0502B0BD1094B1B684BB103B0E1
:1049EC005DF804EB1847FFF7E5FF03B05DF804FB37
:1049FC00002300931A466FF07701FFF705FCF4E7EC
:104A0C003CE7032010B512480021FFF787FC114B3F
:104A1C001A68114B9A42114B0CBF012200221A70DA
:104A2C0001D0FFF7B1FFFFF74DFB044600F07AF819
:104A3C000B4B13B12046AFF3008000210848FFF761
:104A4C00EDFBBDE8104007480021FFF7D3BB00BFCA
:104A5C003D490B0000F403201E1C279A38E7032065
:104A6C0000000000D9490B007047000038B504461F
:104A7C0014252A46002100F04DF8258040250749D1
:104A8C0025812846258200F02FF8044960602846CD
:104A9C0000F02AF8E060204638BD00BFB44D0B0092
:104AAC0030B50E4D2978BFF35B8F11F0010487B040
:104ABC0011D12846FFF7F3FA68B101A8FFF7D6FF2A
:104ACC0001AA21460648FFF79FFE2846FFF7ECFA9D
:104ADC00044800F00BF8024807B030BD44E703204F
:104AEC0048E70320754A0B00FFF7D5BA00230146AF
:104AFC001A46184600F044B80A44914200F1FF33BC
:104B0C0000D1704710B511F8014B03F8014F9142D9
:104B1C00F9D110BD02440346934200D1704703F80B
:104B2C00011BF9E738B5104B1D68AB6B0446B3B9E4
:104B3C001820FFF7DBFB0246A86320B90B4B0C488F
:104B4C004221FFF7E3FB0B490B4BC0E900130B4B66
:104B5C0083600B23838100210120C2E90401AB6B2C
:104B6C0000221C615A6138BD4CE60320B54D0B0088
:104B7C00CC4D0B000E33CDAB34126DE6ECDE0500E4
:104B8C002DE9F843DFF8B8800646D8F800001F4638
:104B9C000D46914600F056F8254B1C6834B9254C4F
:104BAC001C60254B13B11B68C4F8883063681F2B3D
:104BBC0007DDD8F8000000F047F84FF0FF30BDE8F3
:104BCC00F8834EB3D4F8880088B91C4B23B9D8F8B5
:104BDC00000000F038F8F0E74FF48470FFF786FB24
:104BEC000028F4D00023C0E94033C4F8880063687F
:104BFC0040F8239001229A4000EB8301D0F8003159
:104C0C001343C0F80031022EC1F8807002BFD0F8F7
:104C1C0004311343C0F804316368D8F800005A1CFF
:104C2C000233626044F8235000F00EF80020C6E70F
:104C3C00E8E703205CE7032000000000F9420B00CA
:104C4C00B0E6032070477047704700002D400B0002
:104C5C0069400B0091400B0095400B0000000000D8
:104C6C000000000000000000A7430B009D430B0058
:104C7C0093430B0049430B0087430B007B430B0012
:104C8C009D450B00A5450B006F430B0067430B00C4
:104C9C005D430B0053430B00D5450B000000000097
:104CAC00000000003F440B0035440B002B440B006C
:104CBC0021440B0015440B0009440B009D450B00CF
:104CCC00A5450B00FD430B00F5430B00EB430B001C
:104CDC00E1430B00D5450B00000000000000000074
:104CEC006D440B005D440B005F440B006170700061
:104CFC0000000000000000005D450B0067450B0044
:104D0C0071450B007B450B0085450B0091450B0055
:104D1C009D450B00A5450B00AD450B00B9450B009F
:104D2C00C1450B00CB450B00D5450B0025592D2556
:104D3C006D2D25645425483A254D3A2553257A0086
:104D4C0061736374696D6500000000000000000071
:104D5C0099470B0005480B00DD470B00C1460B00C3
:104D6C00AD470B00C9470B00BB470B00D7470B00E7
:104D7C009B470B009F470B00000000000000000049
:104D8C0043480B00AB480B0081480B00C1460B009D
:104D9C0073480B0045480B0055480B00A5480B0009
:104DAC0065480B003D480B00005245454E54206DA4
:104DBC00616C6C6F63207375636365656465640017
:104DCC002F746D702F6A656E6B696E732D4743433C
:104DDC002D31302D706970656C696E652D34385FBE
:104DEC0032303230313132345F3136303631383066
:104DFC003633392F7372632F6E65776C69622F6E41
:104E0C0065776C69622F6C6962632F7374646C696B
:104E1C00622F72616E642E630000000039430B0038
:104E2C00B1430B0049440B004D450B00AD460B0044
:0C4E3C0055470B0061470B0085470B0039
:104E4800040000001400000003000000474E550055
:104E58001E236A129724221440DBDA135971D7EF04
:044E6800E2878CE869
:104E6C004C4D0B0050E60320000000000000000039
:104E7C000000000000000000000000000000000026
:104E8C000000000000000000000000000000000016
:104E9C000000000000000000000000000000000006
:104EAC0000000000000000000000000000000000F6
:104EBC0000000000000000000000000000000000E6
:0C4ECC000000000000000000ECE70320E4
:044ED80000000000D6
:104EE20000000102030405060708090A0B0C0D0E57
:104EF2000F101112131415161718191A1B1C1D1E48
:044F02001F20280044
:044F06007856341293
:04000003B000401CED
:00000001FF
