:02000002B0004C
:1040000000400B000E540B00000006000D000502DE
:0840100004015014000000003F
:04401800F4500B0055
:10401C00034613F8012B002AFBD1181A01387047FC
:10402C0009480A49884208B505D0094A824202D09B
:10403C00121A00F0AFFF0748074A0021121A00F0CD
:10404C00B7FF014808BD00BFFCE5032070530B000F
:10405C006CE603206CE60320F0E7032070B5074EF6
:10406C00074C00F037FEA41BA4080025AC4200D17D
:10407C0070BD56F8043B98470135F7E728530B0001
:10408C004C530B0000F014B808B500F041F8BDE833
:10409C00084000F0D7BD00F0FBB900F001BA007881
:1040AC00B0FA80F04009704701230370704700009C
:1040BC0008B50A4B0121188800F07CFE084B012240
:1040CC001A6000F077FD4FF4165100F067FD00F018
:1040DC0071FDBDE80840034900F067BCFCE5032016
:1040EC006CE6032008510B0038B585B20C46284607
:1040FC00012100F070FE204600F0EAF9284600216C
:10410C0000F069FE2046BDE8384000F0E1B900003F
:10411C0008B50A4B1B6883B100F04CFD084900F050
:10412C0044FC00F047FD074900F03FFC064BC8215A
:10413C001868BDE80840FFF7D7BF08BD6CE6032040
:10414C0015510B0033510B00FCE5032001480021F5
:10415C0000F060BA70E6032008B5024B1B685B6C7C
:10416C00019308BD4802030008B5024B1B685B684D
:10417C00019308BD1802030008B5024B1B685B696C
:10418C00019308BD1802030008B5024B1B689B681D
:10419C00019308BD2C02030008B5024B1B68DB68B9
:1041AC00019308BD2C02030008B5024B1B681B6968
:1041BC00019308BD2C02030008B5024B1B681B6A57
:1041CC00019308BD2802030008B5024B1B685B6A0B
:1041DC00019308BD2802030008B5024B1B689B6ABB
:1041EC00019308BD2802030008B5024B1B68DB6A6B
:1041FC00019308BD2802030008B5024B1B681B6B1A
:10420C00019308BD2802030008B5024B1B685B6BC9
:10421C00019308BD2802030008B5024B1B681B6CF8
:10422C00019308BD2802030008B5024B1B689B6C68
:10423C00019308BD2802030008B5024B1B685B699B
:10424C00019308BD6402030008B5024B1B689B6810
:10425C00019308BD6802030008B5024B1B68DB68BC
:10426C00019308BD6802030008B5024B1B68DB69AB
:10427C00019308BD3002030008B5024B1B681B6A92
:10428C00019308BD3002030008B5024B1B68DB68C4
:10429C00019308BD3C02030008B5024B1B681B6967
:1042AC00019308BD3C02030008B5024B1B685B6917
:1042BC00019308BD3C02030008B5024B1B689B69C7
:1042CC00019308BD3C02030008B5024B1B68DB6977
:1042DC00019308BD3C02030008B5024B1B681B6A26
:1042EC00019308BD3C02030008B5024B1B689B6A96
:1042FC00019308BD3C02030008B5024B1B681B6C04
:10430C00019308BD3C02030008B5024B1B681B68F7
:10431C00019308BD4C02030008B5024B1B685B6897
:10432C00019308BD4C02030008B5024B1B681B69C6
:10433C00019308BD4C02030008B5024B1B685B6976
:10434C00019308BD4C02030008B5024B1B689B6926
:10435C00019308BD4C02030008B5024B1B68DB69D6
:10436C00019308BD4C02030008B5024B1B681B6A85
:10437C00019308BD4C02030008B5024B1B685B6837
:10438C00019308BD2002030008B5024B1B685B6952
:10439C00019308BD2002030008B5034B1B68D3F83A
:1043AC008830019308BD00002002030008B5034BC0
:1043BC001B68D3F89430019308BD00002002030061
:1043CC0008B5024B1B68DB6B019308BD440203006C
:1043DC0008B5024B1B685B68019308BD40020300E3
:1043EC0008B5024B1B689B68019308BD4002030093
:1043FC0008B5024B1B68DB68019308BD4002030043
:10440C0008B5024B1B681B69019308BD40020300F1
:10441C0008B5024B1B685B69019308BD40020300A1
:10442C0008B5024B1B689B69019308BD4002030051
:10443C0008B5024B1B68DB69019308BD4002030001
:10444C0008B5024B1B681B6A019308BD40020300B0
:10445C0008B5024B1B681B6B019308BD400203009F
:10446C0008B5024B1B685B6B019308BD400203004F
:10447C0008B5024B1B681B6C019308BD400203007E
:10448C0008B5024B1B685B6C019308BD400203002E
:10449C0008B5024B1B681B68019308BD1C02030086
:1044AC0008B5024B1B685B68019308BD1C02030036
:1044BC0008B5024B1B681B6C019308BD1C02030062
:1044CC0008B5024B1B685B6C019308BD1C02030012
:1044DC000021FFF759BF0000024800230360FFF7DB
:1044EC003BBE00BF78E60320002240681146FFF770
:1044FC0087BF002240681146FFF7A2BF0022406828
:10450C001146FFF7ADBF40680022FFF7A1BF40681E
:10451C00002281F00101FFF78BBF002340681A468F
:10452C001946FFF77DBF002340681A461946FFF76E
:10453C006FBF002240681146FFF752BF406800224F
:10454C000221FFF755BF002340681A46FFF740BF12
:10455C00084B10B5282422461846002100F028FDEF
:10456C00054B04804FF0FF32426004225A60034A2C
:10457C001A6010BD84E603207CE603204C510B002E
:10458C00002240681146FFF75BBF002240681146CD
:10459C00FFF766BF40680022FFF75ABF4068002251
:1045AC0081F00101FFF744BF002340681A46194609
:1045BC00FFF736BF002340681A461946FFF728BF9D
:1045CC00002240681146FFF71BBF002240681146CD
:1045DC00FFF706BF406800220221FFF709BF002346
:1045EC0040681A46FFF7F4BE024B03225A60024A97
:1045FC001A607047ACE6032088510B00006800F08D
:10460C0061B810B50446016002710AB1FFF7F6FFFC
:10461C00204610BD13B50446019100F04FFC019AE1
:10462C0001462046FFF7EDFF204602B010BD704753
:10463C00F8B5064615460C468F18BC4206D03368B2
:10464C0014F8011B9B6830469847F6E72846F8BDDE
:10465C00007C0022FFF7B0BD007C0021FFF7B4BD49
:10466C00007C0021FFF7B8BD007C0021FFF7BCBD2A
:10467C00007C0021FFF7C0BD10B514210446FFF7E4
:10468C000CFD204610BD000038B5044615464FF40D
:10469C007A730022C4E90123094B21740846236074
:1046AC002946FFF7B9FDBF3008D16B69DB0705D58B
:1046BC006868FFF7F5FEE868FFF7F2FE204638BDA4
:1046CC00C4510B0008B50021007CFFF7ADFDB0FA1A
:1046DC0080F0400908BD704710B518210446FFF75B
:1046EC00DCFC204610BDF0B5037D062B8DB00E46CC
:1046FC0000F104074FF0000412D000F1080515F882
:10470C00011D0A22304600F05AF9AF42044419D078
:10471C00002CF4D02E21304600F038F90444EEE79A
:10472C002F236A4639460A208DF80040FFF784FD96
:10473C006846FFF76DFC33680246DB686946304615
:10474C009847044620460DB0F0BD000010B5054B4F
:10475C000446112240F8043B002100F029FC2046BD
:10476C0010BD00BFEC510B000346074A10B543F8CF
:10477C00042B01F1100251F8044B43F8044B914205
:10478C00F9D10A781A7010BDEC510B0010B59DF8D8
:10479C00084044EA032343EA024242EA016104234B
:1047AC004160037510BD000007B5064B0360CB7864
:1047BC0000938B784A780978FFF7E8FF03B05DF82F
:1047CC0004FB00BFEC510B00014B024A1A6070470E
:1047DC00B4E60320F8510B00002340681A46FFF79B
:1047EC00F7BD406800220221FFF702BE002240689C
:1047FC001146FFF7F5BD002240681146FFF700BED9
:10480C00002340681A461946FFF702BE0023406891
:10481C001A461946FFF704BE40680021FFF728BE70
:10482C0040680021FFF72CBE4068002281F0010196
:10483C00FFF7FEBD40680022FFF70ABE0022406869
:10484C001146FFF70DBE002240681146FFF7F8BD78
:10485C002DE9F04395B014460D460746FFF776FF59
:10486C0000211C220DA8009100F0A2FB40230C9308
:10487C0020466B460CAA0021FFF7EEFC04460028EC
:10488C004BD1024601216868FFF7BAFD0221804630
:10489C0022466868FFF7B4FD009E81462146002E33
:1048AC003BD0002939D17368022B03D00A2B11D0CD
:1048BC00F669F4E7B8F1000FFAD0716906A8043173
:1048CC0007ADFFF771FF0FCD3C1D0FC42B68237094
:1048DC004146EDE7B9F1000FEAD07469102201A846
:1048EC0000F066FB06238DF8143001AD04F10803CB
:1048FC001834186859682A4603C20833A34215466F
:10490C00F7D101A906A807ADFFF72EFF0FCD3C1D6F
:10491C000FC42B6823704946CAE70098FFF794FC34
:10492C00384615B0BDE8F083024B034A1A600022EA
:10493C005A607047B8E6032004520B00F8B50646DF
:10494C000D468F180024BD420CD0336815F8011B9E
:10495C009B6830469847031E01DB1C44F3E7002C90
:10496C0008BF1C462046F8BD13B50446084659B18D
:10497C000191FFF74DFB23680199DB680246204645
:10498C0002B0BDE81040184702B010BD03689B6828
:10499C00184738B50D210546FFF7F8FF0A210446E4
:1049AC002846FFF7F3FF204438BD38B50546FFF71E
:1049BC00DBFF04462846FFF7ECFF204438BD30B53A
:1049CC008BB00023012A8DF8243098BF0A2209AC41
:1049DC000D46B1FBF2F101FB125303F0FF03092B5F
:1049EC0094BF30333733DBB2AA4204F8013DEFD920
:1049FC002146FFF7B9FF0BB030BD0000014B002280
:104A0C009A607047C0E6032010B504460846217032
:104A1C00FFF72AFC00236360204610BD054B0222E1
:104A2C001A60054B054A9A600020C3E90000FFF7A5
:104A3C00A3BC00BFDCE60320D0E603200000FFFF90
:104A4C00024B1A68024B1A60704700BF00E6032045
:104A5C00E0E6032070474174704708B5007CFFF70F
:104A6C0043FC20EAE07008BD08B5007CFFF714FC9D
:104A7C0020EAE07008BD08B5007CFFF71DFC40EA99
:104A8C00E07008BD08B5007CFFF70EFC40EAE07052
:104A9C0008BD007CFFF718BC37B5457C04462DB12A
:104AAC00207C03B0BDE83040FFF7EEBB007C0191E9
:104ABC00FFF71AFC00280199F2DC284603B030BD40
:104ACC0010B514210446FFF7E8FA204610BD00008B
:104ADC0010B54FF47A730446084611460022C4E917
:104AEC000123044B2360012320746374FFF704FC3F
:104AFC00204610BD5C520B004174704770477047E4
:104B0C0008B50021007CFFF71FFC40EAE07008BDEF
:104B1C0008B50121007CFFF717FC40EAE07008BDE6
:104B2C0008B5007CFFF708FC20EAE07008BD08B56A
:104B3C00007CFFF7F9FB20EAE07008BD13B50446D2
:104B4C00007C0191FFF7F8FB0028019901DC607CE7
:104B5C0020B1207CFFF700FC20EAE07002B010BD11
:104B6C00007CFFF701BC10B514210446FFF795FA41
:104B7C00204610BD10B54FF47A7304460846002148
:104B8C00C4E90113044B23600123207463741146A0
:104B9C00FFF7BAFB204610BD8C520B00007C0022A4
:104BAC00FFF7BABB10B514220446002100F000FA3E
:104BBC00204610BD10B50F4C88B003A8FFF7F2FFCC
:104BCC002178BFF35B8F11F001010FD120460191C9
:104BDC00FFF765FA019948B103AA0748FFF7CAFF26
:104BEC002046FFF761FA054800F0CEF9024808B0FC
:104BFC0010BD00BFE4E60320E8E60320094B0B00E0
:104C0C00014B1860704700BF04E6032008B50B4B3E
:104C1C0043B1FFF7CFFF03681B699847002801DDFC
:104C2C00AFF30080064B43B100F088F903681B69B1
:104C3C009847002801DDAFF3008008BD000000009C
:104C4C000000000008B5FFF7E1FFFFF795FA014BF4
:104C5C00186008BD10E703200548064A064908B548
:104C6C00121A00F097F9054B054A1A6008BD00BFEF
:104C7C0000F4032004F40320E0530B0000F40320A1
:104C8C001E1C279A07B5002300931A466FF0770174
:104C9C00FFF78CFB03B05DF804FB000007B54388FD
:104CAC000A2B08D0502B0BD1094B1B684BB103B00E
:104CBC005DF804EB1847FFF7E5FF03B05DF804FB64
:104CCC00002300931A466FF07701FFF76FFBF4E7B0
:104CDC0000E7032010B512480021FFF7F1FB114B40
:104CEC001A68114B9A42114B0CBF012200221A7008
:104CFC0001D0FFF7B1FFFFF737FA044600F060F977
:104D0C000B4B13B12046AFF3008000210848FFF78E
:104D1C0057FBBDE8104007480021FFF73DBB00BF23
:104D2C000D4C0B0000F403201E1C279AFCE60320FC
:104D3C0000000000A94C0B00232813B502D9002059
:104D4C0002B010BDA0F10B03022B1AD8174C21781E
:104D5C00BFF35B8F11F001010BD120460191FFF7DE
:104D6C009EF9019928B11248FFF74EFE2046FFF735
:104D7C009BF90F4B1878FFF77FFA0028DFD1012041
:104D8C00DEE7012809D800F075F80021007CFFF758
:104D9C003BFA80F00100C0B2D2E709380128EED806
:104DAC0000F0CCF8007CFFF797FAF2E704E7032059
:104DBC0008E70320232838B504460D460AD8FF29F6
:104DCC0008D0FFF7B9FF28B129462046BDE8384086
:104DDC00FFF7DAB938BD38B504460D46FFF7DCF9F4
:104DEC00FF2810D0062804D84D2323FA00F0C3075F
:104DFC0009D42046FFF7A0FF28B129462046BDE87C
:104E0C003840FFF7D1B938BD7047704738B50A4BF9
:104E1C0003600123044643610849202000F0B2F8E6
:104E2C00202560600549A560284600F0ABF8C4E970
:104E3C000305204638BD00BF18000100B4520B001A
:104E4C0038B50A4B0360012304464361084920200E
:104E5C0000F098F8202560600549A560284600F010
:104E6C0091F8C4E90305204638BD00BF18000100C5
:104E7C00B4520B0030B50E4D2978BFF35B8F11F097
:104E8C00010487B011D12846FFF709F968B16846CB
:104E9C00FFF7BCFF6A4621460648FFF7F5FB28469C
:104EAC00FFF702F9044800F06FF8024807B030BD74
:104EBC0014E703201CE70320154E0B0010B50E4C15
:104ECC002378BFF35B8FDB0786B011D42046FFF746
:104EDC00E6F868B16846FFF7B3FF6A460121074858
:104EEC00FFF7D2FB2046FFF7DFF8054800F04CF83F
:104EFC00024806B010BD00BF18E7032030E70320BE
:104F0C00174E0B007047000038B5044614252A468E
:104F1C00002100F04DF825804025074925812846C1
:104F2C00258200F02FF804496060284600F02AF82A
:104F3C00E060204638BD00BFB4520B0030B50E4DBA
:104F4C002978BFF35B8F11F0010487B011D128468B
:104F5C00FFF7A5F868B101A8FFF7D6FF01AA214613
:104F6C000648FFF7B5FD2846FFF79EF8044800F009
:104F7C000BF8024807B030BD44E7032048E7032094
:104F8C00114F0B00FFF787B8002301461A4618464D
:104F9C0000F044B80A44914200F1FF3300D170474D
:104FAC0010B511F8014B03F8014F9142F9D110BD26
:104FBC0002440346934200D1704703F8011BF9E702
:104FCC0038B5104B1D68AB6B0446B3B91820FFF70E
:104FDC005FFA0246A86320B90B4B0C484221FFF73D
:104FEC0067FA0B490B4BC0E900130B4B83600B2387
:104FFC00838100210120C2E90401AB6B00221C61FA
:10500C005A6138BD04E60320B5520B00CC520B009C
:10501C000E33CDAB34126DE6ECDE05002DE9F84312
:10502C00DFF8B8800646D8F800001F460D469146BA
:10503C0000F056F8254B1C6834B9254C1C60254BE8
:10504C0013B11B68C4F8883063681F2B07DDD8F8D0
:10505C00000000F047F84FF0FF30BDE8F8834EB386
:10506C00D4F8880088B91C4B23B9D8F8000000F09C
:10507C0038F8F0E74FF48470FFF70AFA0028F4D000
:10508C000023C0E94033C4F88800636840F82390DB
:10509C0001229A4000EB8301D0F800311343C0F891
:1050AC000031022EC1F8807002BFD0F804311343D6
:1050BC00C0F804316368D8F800005A1C02336260EF
:1050CC0044F8235000F00EF80020C6E7E8E7032070
:1050DC005CE70320000000009D440B0068E6032001
:1050EC0070477047704700002D400B0069400B0063
:1050FC0091400B0095400B000000000048656C6C63
:10510C006F20576F726C642100426567696E6E691F
:10511C006E67206D61696E206C6F6F7020696E20F8
:10512C0064656275672E00466C617368696E6720F2
:10513C004C45443A20000000000000000000000034
:10514C0053450B0049450B003F450B00F5440B0044
:10515C0033450B0027450B0025480B002D480B0051
:10516C001B450B0013450B0009450B00FF440B00BE
:10517C005D480B000000000000000000EB450B0038
:10518C00E1450B00D7450B00CD450B00C1450B008D
:10519C00B5450B0025480B002D480B00A9450B000D
:1051AC00A1450B0097450B008D450B005D480B008E
:1051BC0000000000000000003B460B0085460B0081
:1051CC005D460B003D460B0065460B006D460B0023
:1051DC0075460B007D460B0000000000000000002F
:1051EC00F3460B00E3460B00E5460B0061707000C4
:1051FC000000000000000000E5470B00EF470B002B
:10520C00F9470B0003480B000D480B0019480B0025
:10521C0025480B002D480B0035480B0041480B006E
:10522C0049480B0053480B005D480B0025592D25B0
:10523C006D2D25645425483A254D3A2553257A0081
:10524C0061736374696D650000000000000000006C
:10525C00614A0B00CD4A0B00A54A0B0049490B00D3
:10526C00754A0B00914A0B00834A0B009F4A0B00B6
:10527C00634A0B00674A0B000000000000000000AE
:10528C000B4B0B00734B0B00494B0B0049490B00AC
:10529C003B4B0B000D4B0B001D4B0B006D4B0B00D8
:1052AC002D4B0B00054B0B00005245454E54206D09
:1052BC00616C6C6F63207375636365656465640012
:1052CC002F746D702F6A656E6B696E732D47434337
:1052DC002D31302D706970656C696E652D34385FB9
:1052EC0032303230313132345F3136303631383061
:1052FC003633392F7372632F6E65776C69622F6E3C
:10530C0065776C69622F6C6962632F7374646C6966
:10531C00622F72616E642E630000000059410B0015
:10532C00E5440B005D450B00F5450B00D5470B0024
:10533C0035490B00094A0B00294A0B004D4A0B005A
:10534C00040000001400000003000000474E55004C
:10535C00126C6081FCC78E6C3F2168CB2CBE459BC8
:04536C00FDC5573AEA
:10537000050000004C520B0008E60320000000006E
:10538000000000000000000000000000000000001D
:10539000000000000000000000000000000000000D
:1053A00000000000000000000000000000000000FD
:1053B00000000000000000000000000000000000ED
:1053C00000000000000000000000000000000000DD
:1053D000000000000000000000000000ECE70320D7
:0453E00000000000C9
:1053EA0000000102030405060708090A0B0C0D0E4A
:1053FA000F101112131415161718191A1B1C1D1E3B
:04540A001F20280037
:04540E007856341286
:04000003B000401CED
:00000001FF
