:02000002B0004C
:1040000000400B0036800B00000006000D0005028A
:0840100004015014000000003F
:04401800607A0B00BF
:10401C0081F0004102E000BF83F0004330B54FEA6D
:10402C0041044FEA430594EA050F08BF90EA020FDA
:10403C001FBF54EA000C55EA020C7FEA645C7FEA6D
:10404C00655C00F0E2804FEA5454D4EB5555B8BF90
:10405C006D420CDD2C4480EA020281EA030382EA01
:10406C00000083EA010180EA020281EA0303362D93
:10407C0088BF30BD11F0004F4FEA01314FF4801C66
:10408C004CEA113102D0404261EB410113F0004F78
:10409C004FEA03334CEA133302D0524263EB43032F
:1040AC0094EA050F00F0A780A4F10104D5F1200ECD
:1040BC000DDB02FA0EFC22FA05F2801841F1000128
:1040CC0003FA0EF2801843FA05F359410EE0A5F1FC
:1040DC0020050EF1200E012A03FA0EFC28BF4CF02D
:1040EC00020C43FA05F3C01851EBE37101F00045E3
:1040FC0007D54FF0000EDCF1000C7EEB00006EEBF0
:10410C000101B1F5801F1BD3B1F5001F0CD3490879
:10411C005FEA30004FEA3C0C04F101044FEA4452D0
:10412C0012F5800F80F09A80BCF1004F08BF5FEA57
:10413C00500C50F1000041EB045141EA050130BD37
:10414C005FEA4C0C404141EB0101013C28BFB1F549
:10415C00801FE9D291F0000F04BF01460020B1FA94
:10416C0081F308BF2033A3F10B03B3F120020CDA67
:10417C000C3208DD02F1140CC2F10C0201FA0CF045
:10418C0021FA02F10CE002F11402D8BFC2F1200CAA
:10419C0001FA02F120FA0CFCDCBF41EA0C01904060
:1041AC00E41AA2BF01EB0451294330BD6FEA0404A9
:1041BC001F3C1CDA0C340EDC04F11404C4F1200294
:1041CC0020FA04F001FA02F340EA030021FA04F3A6
:1041DC0045EA030130BDC4F10C04C4F1200220FAFD
:1041EC0002F001FA04F340EA0300294630BD21FA3B
:1041FC0004F0294630BD94F0000F83F4801306BF01
:10420C0081F480110134013D4EE77FEA645C18BFF4
:10421C007FEA655C29D094EA050F08BF90EA020F8B
:10422C0005D054EA000C04BF1946104630BD91EA83
:10423C00030F1EBF0021002030BD5FEA545C05D186
:10424C004000494128BF41F0004130BD14F58004C5
:10425C003CBF01F5801130BD01F0004545F0FE4139
:10426C0041F470014FF0000030BD7FEA645C1ABF6E
:10427C00194610467FEA655C1CBF0B46024650EAA5
:10428C00013406BF52EA033591EA030F41F40021D1
:10429C0030BD00BF90F0000F04BF0021704730B557
:1042AC004FF4806404F132044FF000054FF000012C
:1042BC0050E700BF90F0000F04BF0021704730B5ED
:1042CC004FF4806404F1320410F0004548BF4042C2
:1042DC004FF000013EE700BF42004FEAE2014FEA17
:1042EC0031014FEA02701FBF12F07F4393F07F4FF2
:1042FC0081F06051704732F07F4208BF704793F0F5
:10430C007F4F04BF41F40021704730B54FF4607407
:10431C0001F0004521F000411CE700BF50EA01020A
:10432C0008BF704730B54FF000050AE050EA0102B3
:10433C0008BF704730B511F0004502D5404261EB23
:10434C0041014FF4806404F132045FEA915C3FF464
:10435C00D8AE4FF003025FEADC0C18BF03325FEA01
:10436C00DC0C18BF033202EBDC02C2F1200300FAB2
:10437C0003FC20FA02F001FA03FE40EA0E0021FAD7
:10438C0002F11444BDE600BF70B54FF0FF0C4CF4C5
:10439C00E06C1CEA11541DBF1CEA135594EA0C0F77
:1043AC0095EA0C0F00F0DEF82C4481EA030621EAB2
:1043BC004C5123EA4C5350EA013518BF52EA0335ED
:1043CC0041F4801143F4801338D0A0FB02CE4FF09F
:1043DC000005E1FB02E506F00042E0FB03E54FF0CF
:1043EC000006E1FB03569CF0000F18BF4EF0010EC7
:1043FC00A4F1FF04B6F5007F64F5407404D25FEAC3
:10440C004E0E6D4146EB060642EAC62141EA555175
:10441C004FEAC52040EA5E504FEACE2EB4F1FD0CB7
:10442C0088BFBCF5E06F1ED8BEF1004F08BF5FEA35
:10443C00500E50F1000041EB045170BD06F00046E7
:10444C0046EA010140EA020081EA0301B4EB5C0494
:10445C00C2BFD4EB0C0541EA045170BD41F480118C
:10446C004FF0000E013C00F3AB8014F1360FDEBFB1
:10447C00002001F0004170BDC4F10004203C35DA8D
:10448C000C341BDC04F11404C4F1200500FA05F310
:10449C0020FA04F001FA05F240EA020001F00042B1
:1044AC0021F0004110EBD37021FA04F642EB060127
:1044BC005EEA430E08BF20EAD37070BDC4F10C0451
:1044CC00C4F1200500FA04F320FA05F001FA04F215
:1044DC0040EA020001F0004110EBD37041F1000101
:1044EC005EEA430E08BF20EAD37070BDC4F120050C
:1044FC0000FA05F24EEA020E20FA04F301FA05F274
:10450C0043EA020321FA04F001F0004121FA04F21B
:10451C0020EA020000EBD3705EEA430E08BF20EAEB
:10452C00D37070BD94F0000F0FD101F00046400025
:10453C0041EB010111F4801F08BF013CF7D041EAA7
:10454C00060195F0000F18BF704703F000465200AB
:10455C0043EB030313F4801F08BF013DF7D043EA7C
:10456C000603704794EA0C0F0CEA135518BF95EA32
:10457C000C0F0CD050EA410618BF52EA4306D1D1B9
:10458C0081EA030101F000414FF0000070BD50EAD8
:10459C00410606BF1046194652EA430619D094EA62
:1045AC000C0F02D150EA013613D195EA0C0F05D14C
:1045BC0052EA03361CBF104619460AD181EA0301A0
:1045CC0001F0004141F0FE4141F470014FF0000058
:1045DC0070BD41F0FE4141F4780170BD70B54FF0F3
:1045EC00FF0C4CF4E06C1CEA11541DBF1CEA135573
:1045FC0094EA0C0F95EA0C0F00F0A7F8A4EB050455
:10460C0081EA030E52EA03354FEA013100F088804B
:10461C004FEA03334FF0805545EA131343EA126314
:10462C004FEA022245EA111545EA10654FEA0026C9
:10463C000EF000419D4208BF964244F1FD0404F582
:10464C00407402D25B084FEA3202B61A65EB0305DE
:10465C005B084FEA32024FF480104FF4002CB6EB9B
:10466C00020E75EB030E22BFB61A754640EA0C001B
:10467C005B084FEA3202B6EB020E75EB030E22BF5B
:10468C00B61A754640EA5C005B084FEA3202B6EB9C
:10469C00020E75EB030E22BFB61A754640EA9C005B
:1046AC005B084FEA3202B6EB020E75EB030E22BF2B
:1046BC00B61A754640EADC0055EA060E18D04FEAE9
:1046CC00051545EA16754FEA06164FEAC30343EA89
:1046DC0052734FEAC2025FEA1C1CC0D111F4801F56
:1046EC000BD141EA00014FF000004FF0004CB6E74F
:1046FC0011F4801F04BF01430020B4F1FD0C88BFEE
:10470C00BCF5E06F3FF6AFAEB5EB030C04BFB6EBF8
:10471C00020C5FEA500C50F1000041EB045170BDEB
:10472C000EF0004E4EEA113114EB5C04C2BFD4EB18
:10473C000C0541EA045170BD41F480114FF0000E9C
:10474C00013C90E645EA060E8DE60CEA135594EA18
:10475C000C0F08BF95EA0C0F3FF43BAF94EA0C0F1B
:10476C000AD150EA01347FF434AF95EA0C0F7FF490
:10477C0025AF104619462CE795EA0C0F06D152EAE4
:10478C0003353FF4FDAE1046194622E750EA4106C8
:10479C0018BF52EA43067FF4C5AE50EA41047FF4D9
:1047AC000DAF52EA43057FF4EBAE12E74FF0FF3C3E
:1047BC0006E000BF4FF0010C02E000BF4FF0010C0F
:1047CC004DF804CD4FEA410C7FEA6C5C4FEA430C88
:1047DC0018BF7FEA6C5C1BD001B050EA410C0CBFD7
:1047EC0052EA430C91EA030F02BF90EA020F002039
:1047FC00704710F1000F91EA030F58BF994208BFA0
:10480C0090422CBFD8176FEAE37040F0010070475C
:10481C004FEA410C7FEA6C5C02D150EA013C07D1B3
:10482C004FEA430C7FEA6C5CD6D152EA033CD3D0FE
:10483C005DF8040B704700BF8446104662468C46F8
:10484C001946634600E000BF01B5FFF7B7FF00282B
:10485C0048BF10F1000F01BD4DF808EDFFF7F4FF54
:10486C000CBF012000205DF808FB00BF4DF808EDDF
:10487C00FFF7EAFF34BF012000205DF808FB00BF02
:10488C004DF808EDFFF7E0FF94BF012000205DF824
:10489C0008FB00BF4DF808EDFFF7CEFF94BF0120D9
:1048AC0000205DF808FB00BF4DF808EDFFF7C4FFD2
:1048BC0034BF012000205DF808FB00BF4FEA410C1B
:1048CC007FEA6C5C02D150EA013C0AD14FEA430CFE
:1048DC007FEA6C5C02D152EA033C02D14FF000003B
:1048EC0070474FF0010070474FEA410212F5001279
:1048FC0015D211D56FF47873B3EB625212D94FEA1B
:10490C00C12343F0004343EA505311F0004F23FA04
:10491C0002F018BF404270474FF00000704750EA59
:10492C00013005D111F0004008BF6FF00040704716
:10493C004FF00000704700BF4A0011D212F5001270
:10494C0011D20DD56FF47873B3EB62520ED44FEADB
:10495C00C12343F0004343EA505323FA02F070475B
:10496C004FF00000704750EA013002D14FF0FF3099
:10497C0070474FF00000704710F8012B11F8013B05
:10498C00012A28BF9A42F7D0D01A7047034613F871
:10499C00012B002AFBD1181A0138704709480A4923
:1049AC00884208B505D0094A824202D0121A02F098
:1049BC00B9FE0748074A0021121A02F0DBFE014833
:1049CC0008BD00BF84E50320907F0B00FCE50320AD
:1049DC00FCE50320F0E7032070B5074E074C02F00E
:1049EC0037FDA41BA4080025AC4200D170BD56F8BD
:1049FC00043B98470135F7E7487F0B006C7F0B00B1
:104A0C0000F076B808B500F017F9BDE8084002F0E0
:104A1C00D7BC00F05BBC00F059BC00F05FBC0000E0
:104A2C0008B5034A03490C2000F074FBFEE700BFF5
:104A3C00E14E0B00747A0B000078B0FA80F040095C
:104A4C0070470123037070477047000010B5084988
:104A5C00044602F067FB40B90649204602F062FBAF
:104A6C00B0FA80F04009404210BD0120FCE700BFC5
:104A7C00897A0B008C7A0B000A4B10B50446036044
:104A8C0001F05CFA214601F094FC02F051FC02F0BA
:104A9C0043FC2046044B40F8043B01F025FB204628
:104AAC0010BD00BFFC7A0B00E47A0B0010B5044675
:104ABC00FFF7E2FF20462421FFF7AFFF204610BD91
:104ACC000EB400B58CB00DAA4FF0200C52F8041B9C
:104ADC000392CDE900120023016804AA1E20CDE93F
:104AEC0004C300F01FFB0CB05DF804EB03B070477F
:104AFC00F0B52F4E2F48304D97B00222002331468F
:104B0C0000F054FB2D4B0121188802F011FD2C4AAA
:104B1C002C492D480123336000F07CFD002268688D
:104B2C00114600F08BFB002840D029460EA800F05F
:104B3C0073FC0EA800F0ECFC244F0EA887ED000AC5
:104B4C0000F016FD224B83ED000A336810EE104A7C
:104B5C0063B33868FFF7C0FB02460B462046CDE92D
:104B6C000223FFF7B9FBDDE90223CDE90001194966
:104B7C001948FFF7A5FF00221146686800F03EFBBC
:104B8C00811C08A800F04CFE08A904A802F0DCFA6D
:104B9C001249049A1048FFF793FF04A802F0EEF9AB
:104BAC0002F0C6FB4FF4165102F0B2FB17B0F0BD89
:104BBC0010E60320907A0B0048E6032084E50320DE
:104BCC00967A0B00594A0B00F5550B000CE60320A6
:104BDC0008E603209A7A0B008CE60320D07A0B00AF
:104BEC0038B585B20C462846012102F0B2FC2046AD
:104BFC0000F0A4FB2846002102F0ABFC2046BDE8E7
:104C0C00384000F09BBB000010B5094C00F06AF96D
:104C1C002368C01A074B984208D900F0D7FA10B194
:104C2C00002000F0DBFA00F05DF9206010BD00BF41
:104C3C001CE60320005C260530B58DB0FFF7E4FFC1
:104C4C001A4B1B687BB31A4B1A4C1868C821FFF718
:104C5C00C7FF00226068114600F0F0FA18B3214635
:104C6C0004A800F0D9FB04A800F052FC124D04A8D3
:104C7C0085ED000A00F07CFC104B286883ED000ADF
:104C8C0010EE104AFFF728FB02460B462046CDE9F2
:104C9C000223FFF721FBDDE90223CDE900010849DE
:104CAC000848FFF70DFF0DB030BD00BF10E6032024
:104CBC0084E5032048E603200CE6032008E60320E5
:104CCC009A7A0B008CE6032070B5D0E900531426B9
:104CDC00044606FB0356AE4204D0284602F04EF9B9
:104CEC001435F8E7206800F0F9FA204670BD8842C8
:104CFC00F8B504460D46164616D9904215D2A2F1C7
:104D0C001406751AA1F114072C44B7421CD02CB10F
:104D1C003146204602F0AEF9337C2374304602F063
:104D2C002DF9143E143CF0E70ED0B5420CD02CB14A
:104D3C002946204602F09EF92B7C2374284602F06B
:104D4C001DF914351434F0E7F8BD2DE9F0410023BA
:104D5C00C0E9003383604F689F4204460E4623DD52
:104D6C004FF0140808FB07F000F0B0FA0546D8B174
:104D7C00D4E9001208FB0212FFF7B9FF206800F01B
:104D8C00ADFA2560A760D6E9007308FB0378B84537
:104D9C0008D03946284602F087F93B7C2B7414372F
:104DAC001435F4E7736863602046BDE8F0810000B9
:104DBC0070B5284B284A9A6000248CB0C3E9004493
:104DCC00012000F0C7F92146012000F0D3F921465B
:104DDC00224800F07BFCCDE90044029402F0A8FAD2
:104DEC001F4C0546694603A8FFF7AFFF264603A9EB
:104DFC0006A8FFF7AAFF1B4B46F8043B06A909A817
:104E0C00FFF7A3FF09AA1E21304601F0B5FB09A844
:104E1C00FFF75AFF06A8FFF757FF134B23602562D5
:104E2C0003A8FFF751FF114B236002F081FA4FF4F6
:104E3C00165102F06DFA01F081F8214601F072FA78
:104E4C006846FFF741FF00F04DF8094B18600CB0B5
:104E5C0070BD00BFFCE503200000FFFF14E603203B
:104E6C0020E60320E47A0B009C7C0B00FC7A0B0000
:104E7C001CE6032008B5024B1B685B6C019308BD54
:104E8C007402030008B5024B1B685B6C019308BDF0
:104E9C004802030008B5024B1B689B6C019308BDCC
:104EAC004802030008B5024B1B68DB6C019308BD7C
:104EBC004802030008B5024B1B685B6D019308BDEB
:104ECC004802030008B5024B1B685B68019308BDE0
:104EDC001802030008B5024B1B68DB68019308BD80
:104EEC001802030008B5024B1B685B69019308BDEF
:104EFC001802030008B5024B1B689B68019308BDA0
:104F0C002C02030008B5024B1B68DB68019308BD3B
:104F1C002C02030008B5024B1B681B69019308BDEA
:104F2C002C02030008B5024B1B681B6A019308BDD9
:104F3C002802030008B5024B1B685B6A019308BD8D
:104F4C002802030008B5024B1B689B6A019308BD3D
:104F5C002802030008B5024B1B68DB6A019308BDED
:104F6C002802030008B5024B1B681B6B019308BD9C
:104F7C002802030008B5024B1B685B6B019308BD4C
:104F8C002802030008B5024B1B681B6C019308BD7B
:104F9C002802030008B5024B1B689B6C019308BDEB
:104FAC002802030008B5024B1B685B69019308BD1E
:104FBC006402030008B5024B1B689B68019308BD93
:104FCC006802030008B5024B1B68DB68019308BD3F
:104FDC006802030008B5024B1B68DB69019308BD2E
:104FEC003002030008B5024B1B681B6A019308BD15
:104FFC003002030008B5024B1B689B68019308BD87
:10500C003C02030008B5024B1B68DB68019308BD2A
:10501C003C02030008B5024B1B681B69019308BDD9
:10502C003C02030008B5024B1B685B69019308BD89
:10503C003C02030008B5024B1B689B69019308BD39
:10504C003C02030008B5024B1B68DB69019308BDE9
:10505C003C02030008B5024B1B681B6A019308BD98
:10506C003C02030008B5024B1B689B6A019308BD08
:10507C003C02030008B5024B1B68DB6A019308BDB8
:10508C003C02030008B5024B1B681B6C019308BD66
:10509C003C02030008B5024B1B681B68019308BD5A
:1050AC004C02030008B5024B1B685B68019308BDFA
:1050BC004C02030008B5024B1B689B68019308BDAA
:1050CC004C02030008B5024B1B681B69019308BD19
:1050DC004C02030008B5024B1B685B69019308BDC9
:1050EC004C02030008B5024B1B689B69019308BD79
:1050FC004C02030008B5024B1B68DB69019308BD29
:10510C004C02030008B5024B1B681B6A019308BDD7
:10511C004C02030008B5024B1B685B6B019308BD86
:10512C006002030008B5024B1B685B6D019308BD60
:10513C006002030008B5024B1B68DB6E019308BDCF
:10514C006002030008B5024B1B681B6F019308BD7E
:10515C006002030008B5024B1B685B68019308BD35
:10516C002002030008B5024B1B685B69019308BD64
:10517C002002030008B5024B1B68DB6A019308BDD3
:10518C002002030008B5034B1B68D3F88830019349
:10519C0008BD00002002030008B5034B1B68D3F8C0
:1051AC009430019308BD00002002030008B5024BA7
:1051BC001B681B68019308BD4402030008B5024B31
:1051CC001B685B68019308BD4402030008B5024BE1
:1051DC001B685B69019308BD4402030008B5024BD0
:1051EC001B68DB6A019308BD4402030008B5024B3F
:1051FC001B68DB6B019308BD4402030008B5024B2E
:10520C001B681B68019308BD4002030008B5024BE4
:10521C001B685B68019308BD4002030008B5024B94
:10522C001B689B68019308BD4002030008B5024B44
:10523C001B68DB68019308BD4002030008B5024BF4
:10524C001B681B69019308BD4002030008B5024BA3
:10525C001B685B69019308BD4002030008B5024B53
:10526C001B689B69019308BD4002030008B5024B03
:10527C001B68DB69019308BD4002030008B5024BB3
:10528C001B681B6A019308BD4002030008B5024B62
:10529C001B681B6B019308BD4002030008B5024B51
:1052AC001B685B6B019308BD4002030008B5024B01
:1052BC001B681B6C019308BD4002030008B5024B30
:1052CC001B685B6C019308BD4002030008B5024BE0
:1052DC001B681B68019308BD1C02030008B5024B38
:1052EC001B685B68019308BD1C02030008B5024BE8
:1052FC001B689B68019308BD1C02030008B5024B98
:10530C001B685B6A019308BD1C02030008B5024BC5
:10531C001B68DB6B019308BD1C02030008B5024B34
:10532C001B681B6C019308BD1C02030008B5024BE3
:10533C001B685B6C019308BD1C0203000021FFF786
:10534C0011BF10B54368013B0446436063B9036861
:10535C009B689847A368013BA3602BB92368204640
:10536C00DB68BDE81040184710BD70B5D0E900539C
:10537C00044605EB0316AE4204D0284601F0FEFDB0
:10538C001035F8E72068FFF7A9FF204670BD10B56F
:10539C000446006808B1FFF7D4FF204610BD00009A
:1053AC00024800230360FFF76DBD00BF44E60320F5
:1053BC00002240681146FFF741BF002240681146A9
:1053CC00FFF75CBF002240681146FFF767BF4068DB
:1053DC000022FFF75BBF4068002281F00101FFF75C
:1053EC0045BF002340681A461946FFF737BF002314
:1053FC0040681A461946FFF729BF0022406811463B
:10540C00FFF70CBF406800220221FFF70FBF0023FB
:10541C0040681A46FFF7FABE70B5134B03601825A7
:10542C00303386B00E4643602A46002104460830CD
:10543C0002F0A0F9002270681146FFF7FFFE78B168
:10544C0000212A46684602F095F969460020ADF81D
:10545C000050FFF70FFD18B96946204600F0B8F868
:10546C00204606B070BD00BF507B0B00084B10B53A
:10547C00282422461846002102F07CF9054B0480B2
:10548C004FF0FF32426004225A60034A1A6010BD8A
:10549C0050E6032048E60320147B0B007047007B8A
:1054AC007047037B4BB10369B3F1004F05D08069A2
:1054BC00B0F1004018BF012070470020704703680E
:1054CC001B6A184770B503680D461B69064698475A
:1054DC000221284601F02AFD2C210446284601F021
:1054EC003BFC336804449B693046984702212846AC
:1054FC0001F01CFD204470BDA0F10400FFF7E2BFD9
:10550C0010B520210446FFF788FA204610BD000094
:10551C00037B7BB14369002B0CDB07EE903A9FEDCC
:10552C00077AF8EEE77A87EE870ADFED057A20EE48
:10553C00270A7047BFEE000A704700BF00FF7F4785
:10554C000000C842037B63B10369B3F1004F08D07C
:10555C0007EE903A9FED047AF8EEE77A87EE870A29
:10556C0070479FED020A70470000C842000000001F
:10557C00037B7BB1C369002B0CDB07EE903A9FEDEC
:10558C00077AF8EEE77A87EE870ADFED057A20EEE8
:10559C00270A7047BFEE000A704700BF00FF7F4725
:1055AC000000C842037B63B18369B3F1004F08D09C
:1055BC0007EE903A9FED047AF8EEE77A87EE870AC9
:1055CC0070479FED020A70470000C84200000000BF
:1055DC0030B50D4600F108040FCD0FC495E803005B
:1055EC0084E80300012030BD10B588B0044668463D
:1055FC0001F00FFD694604A801F056FD04A8A04770
:10560C00044604A801F0BAFC684601F0B7FC204639
:10561C0008B010BD1FB50023CDE902010192102482
:10562C001A4669461846ADF80230ADF80040FFF74F
:10563C00C5FD04B010BD002240681146FFF71EBE28
:10564C00002240681146FFF729BE40680022FFF790
:10565C001DBE4068002281F00101FFF707BE002348
:10566C0040681A461946FFF7F9BD002340681A46F0
:10567C001946FFF7EBBD002240681146FFF7DEBD6F
:10568C00002240681146FFF7C9BD40680022022184
:10569C00FFF7CCBD002340681A46FFF7B7BD0000EA
:1056AC00024B03225A60024A1A60704778E60320C4
:1056BC008C7B0B00006800F061B810B504460160EB
:1056CC0002710AB1FFF7F6FF204610BD13B5044670
:1056DC00019101F0B1FF019A01462046FFF7EDFF61
:1056EC00204602B010BD7047F8B5064615460C466C
:1056FC008F18BC4206D0336814F8011B9B683046E7
:10570C009847F6E72846F8BD007C0022FFF70ABC54
:10571C00007C0021FFF70EBC007C0021FFF712BCBF
:10572C00007C0021FFF716BC007C0021FFF71ABC9F
:10573C0010B514210446FFF770F9204610BD000087
:10574C0038B5044615464FF47A730022C4E9012398
:10575C00094B2174084623602946FFF713FCBF3020
:10576C0008D16B69DB0705D56868FFF7B7FDE868FA
:10577C00FFF7B4FD204638BDC87B0B0008B50021EF
:10578C00007CFFF707FCB0FA80F0400908BD7047B9
:10579C0010B518210446FFF740F9204610BDF0B5AE
:1057AC00037D062B8DB00E4600F104074FF000046C
:1057BC0012D000F1080515F8011D0A22304601F03F
:1057CC00CEFAAF42044419D0002CF4D02E2130462E
:1057DC0001F0C2FA0444EEE72F236A4639460A2048
:1057EC008DF80040FFF7DEFB6846FFF7CFF8336813
:1057FC000246DB68694630469847044620460DB0A1
:10580C00F0BD000010B5054B0446112240F8043BD6
:10581C00002101F0AFFF204610BD00BFF07B0B0054
:10582C000346074A10B543F8042B01F1100251F856
:10583C00044B43F8044B9142F9D10A781A7010BD0D
:10584C00F07B0B0010B59DF8084044EA032343EAB3
:10585C00024242EA016104234160037510BD00005D
:10586C0007B5064B0360CB7800938B784A780978A0
:10587C00FFF7E8FF03B05DF804FB00BFF07B0B0003
:10588C0000F11003012213F8101C0129184608D14D
:10589C0053F8041C02EB4102013A03F11003F2D15C
:1058AC007047022904BF53F8041C5218F4E70EB4D5
:1058BC00F0B588B000AF07F13405102155F8042B72
:1058CC007A6004462B467818FD60FFF717FD0F2809
:1058DC007A681AD900F1080323F007036E46ADEB82
:1058EC00030D411C2B466846FD60FFF707FD021EA9
:1058FC0004DD236869469B6820469847B5462037E7
:10590C00BD46BDE8F04003B070470028F7D02368CF
:10591C0002469B6807F1100120469847EFE738B51F
:10592C000B6803604D6843689D42044608D015B16E
:10593C006B6801336B60606808B1FFF702FD65604E
:10594C0038BD07B503688DF807109B6801220DF16F
:10595C000701984703B05DF804FB0B461146002283
:10596C0010B5C0E90022044683600BB9204610BD77
:10597C00FFF7D5FFFAE78368EBB11A78032A1AD838
:10598C00DFE802F00417021B0520704702685B6811
:10599C005268D05C2D2812D0A0F13003092B0ED9FF
:1059AC0074280ED066280CD0A0F16E0358425841D2
:1059BC007047062070470020704704207047032072
:1059CC0070470220704710B50446FFF7D4FF022839
:1059DC000ED0C31EDBB2012B14D82268A36850680A
:1059EC005B68BDE810400A220021184401F0C2BFD8
:1059FC002268A36852685B68D05CA0F174035842BB
:105A0C00584110BD0020FCE738B50023C0E9003335
:105A1C0004460E48C4E90203A9B10B78032B06D047
:105A2C008BB9136858684B68C35C6E2B07D013682E
:105A3C004D6858688B6828445B1BA060E360114676
:105A4C002046FFF76CFF204638BD00BF627C0B0080
:105A5C0038B500250B46C0E90055C0E90255C0E930
:105A6C000455044611464BB11A78012A06D103F1AC
:105A7C001002DB6882604361FFF751FF204638BD9E
:105A8C0010B54369044663B18068E060013B103097
:105A9C00A0602061636113B1FFF7F2FEA0600120EA
:105AAC0000E0184610BD10B57D210446FFF749FFF4
:105ABC0001232371204610BD08B50379012B02D0B8
:105ACC00022B04D008BD2C21FFF73BFFFAE73A214B
:105ADC00FAE710B50446FFF7EFFF20467B21FFF7EE
:105AEC0030FF00232371204610BD000013B504467F
:105AFC000191FFF7E1FF2368019ADB680349204617
:105B0C00984701232046237102B010BDFC7B0B008B
:105B1C0013B504460191FFF7CFFF2368019ADB68A8
:105B2C0003492046984701232046237102B010BD3B
:105B3C00FF7B0B002DE9F0470D46222190460446D1
:105B4C00FFF7FFFEDFF8A490A8442F464745BA465E
:105B5C003DD017F8016B222E06D05C2E04D03046B7
:105B6C0001F0D8FD0028F1D12368AAEB05029B684F
:105B7C002946204698475C212046FFF7E2FE0D2E71
:105B8C000AD8072E1CD9A6F10803052B18D8DFE874
:105B9C0003F00D0F11171315222E01D05C2E0FD10F
:105BAC0031462046FFF7CDFE3D46CFE76221F8E7B0
:105BBC007421F6E76E21F4E76621F2E77221F0E733
:105BCC0023683246DB68494620469847ECE7BD42DD
:105BDC0005D023687A1B9B682946204698472221CA
:105BEC002046FFF7AEFEBDE8F08700BF027C0B003D
:105BFC0013B50446CDE90021FFF75EFF2046DDE931
:105C0C000021FFF797FF02232046237102B010BD3D
:105C1C0013B50446CDE90021FFF74EFF2046DDE920
:105C2C000021FFF787FF01232046237102B010BD2E
:105C3C0080680368DB6818477047084611B10B6829
:105C4C005B6818477047704770477047704738B5A6
:105C5C0004460D4600682E2101F0CFFD2368C31ABF
:105C6C002B6023B1037803B1013023682060184600
:105C7C0038BD10B50C210446FEF7CFFE204610BDF2
:105C8C0010B504210446FEF7C8FE204610BD10B521
:105C9C0004210446FEF7C1FE204610BDFFF702B9F1
:105CAC0008B5FEF769FEB0FA80F0400908BD7047F0
:105CBC0010B50C4601F03CFB844210D001F0FCFC0A
:105CCC00844205D101F0F8FCBDE8104001F0CBBADC
:105CDC002CB1236820465B68BDE81040184710BD06
:105CEC000B6803604B68436013B15A6801325A6009
:105CFC00704713B5044608460191FEF747FE01991B
:105D0C000246204602B0BDE81040FFF781BF13B534
:105D1C00044608460191FEF739FE23680199DB68B9
:105D2C000246204602B0BDE81040184707B503688C
:105D3C008DF80710DB6801220DF10701984703B0BD
:105D4C005DF804FB0A6802604A6842600022C0E900
:105D5C00022210B502618C688460CC68C4600C6946
:105D6C008A60CA6004610A6110BD00002DE9F74F1A
:105D7C00D0E900844FF0140A00930AFB04F4184B8A
:105D8C00A41017465C434546002C21DD66100AFB27
:105D9C0006F005EB00093A46B9F804B02858019111
:105DAC005F4528BF5A4601F03AFD002801994FF093
:105DBC0001030BD15F4503D1009A13703446E3E71E
:105DCC00FCD9A61B09F11405013EF7E7F9DBF5E751
:105DDC00A5EB08050248AD10684303B0BDE8F08F91
:105DEC00CDCCCCCC7FB50369057E019103B3F9B161
:105DFC00002600F10C04039603A901A8FFF727FF66
:105E0C000146A8B10DF10B03039A8DF80B602046E7
:105E1C00FFF7ACFF9DF80B3053B12368142404FB3F
:105E2C000034083434F9023C002BA8BFDDB2E3E7A0
:105E3C00284604B070BD0EB4F0B58CB000AF07F1BD
:105E4C004405044655F8042B7A602B46202107F1B3
:105E5C001000FD60FFF752FA1F287A681AD900F17A
:105E6C00080323F007036E46ADEB030D411C2B46D4
:105E7C006846FD60FFF742FA021E04DD236869469E
:105E8C00DB6820469847B5463037BD46BDE8F04044
:105E9C0003B070470028F7D023680246DB6807F18F
:105EAC00100120469847EFE710B5094C2378BFF353
:105EBC005B8FDB0709D42046FEF7BEFD28B12046D8
:105ECC00FEF7BFFD034801F01FFC034810BD00BFE7
:105EDC0084E60320535C0B0088E5032010B5094CC5
:105EEC002378BFF35B8FDB0709D42046FEF7A4FDB4
:105EFC0028B12046FEF7A5FD034801F005FC034838
:105F0C0010BD00BF88E60320BB5C0B008CE50320B2
:105F1C0038B500250446C0E90055C0E90455856034
:105F2C00856140F8245FFEF7ADFFFFF7BDFFE06130
:105F3C00FFF7D4FF25732062204638BD10B50A4CFC
:105F4C002378BFF35B8FDB070CD42046FEF774FD80
:105F5C0040B10648FFF7DCFF2046FEF772FD04480F
:105F6C0001F0D2FB014810BD80E6032090E603202F
:105F7C009D640B00024A034903480023FFF7E2B873
:105F8C0081620B000D620B008D610B0000231A4621
:105F9C0019461846FFF7D6B837B58D6804466846DB
:105FAC00FFF79EFE6A4629462046FFF751FD01A8E1
:105FBC00FFF7EDF9204603B030BD37B5CD68044688
:105FCC006846FFF78DFE6A4629462046FFF71CFD02
:105FDC0001A8FFF7DCF9204603B030BD37B50D69D9
:105FEC0004466846FFF77CFE6A4629462046FFF7C2
:105FFC00B4FC01A8FFF7CBF9204603B030BD00007C
:10600C0070B58AB00D46014604A8FFF7C5FF144EC3
:10601C0004A8FFF735FDE8B104A96846FFF7CDFFEA
:10602C0002983146FFF73CFE044610B12C1E18BFF7
:10603C00012401A8FFF7ABF9002CE9D004A96846AC
:10604C00FFF7CCFF6846FFF7BEFC286001A8FFF7FE
:10605C009EF9DDE705A8FFF79AF90AB070BD00BFFD
:10606C00087C0B0037B50C46204613491546FEF745
:10607C0083FC50B901F05CF94FF4165101F048F96A
:10608C0003B0BDE8304001F053B90C492046FEF78F
:10609C0073FC78B94FF4165301A928460193FFF706
:1060AC00AFFF01F009FB019901F0DAF801F004FBF4
:1060BC0003B030BD0020FBE70D7C0B00147C0B0003
:1060CC0070B5D0E900531426044606FB0356AE42C5
:1060DC0005D005F10800FFF7F3FF1435F7E720684A
:1060EC00FFF7FCF8204670BD10B504460C30FFF7E6
:1060FC00E7FF2046FFF739F9204610BD10B5044BD9
:10610C00044640F8043BFFF7EFFF204610BD00BFEC
:10611C00E47A0B0010B50446FFF7F0FF204624216B
:10612C00FEF77BFC204610BD10B5034B0360044604
:10613C00FFF7E4FF204610BDB47C0B0010B50446FD
:10614C00FFF7F2FF20462421FEF767FC204610BD26
:10615C000022C0E9002210B582600C6804604C6813
:10616C0044608C680A604A6084608A6010BD10B517
:10617C00036804461868FEF79DFE204610BD00001B
:10618C002DE9F04F87B0804603931C4B5B68C3F33B
:10619C000803894616466BB9FFF7D0FE044600F19A
:1061AC002403406A0593FFF779FD237B2BB105A8E7
:1061BC00FFF7DDFF07B0BDE8F08F01232373D4E9AF
:1061CC0000535FFA89F905EB830AAA4512D055F8FA
:1061DC00047B3146381DFFF705FE8145F5D33B683E
:1061EC00039A0092D3F808B04A46334641463846E3
:1061FC00D847EAE700232373D9E700BF00ED00E09E
:10620C002DE9F74F9B461A4B5B68C3F30803804696
:10621C00894616466BB9FFF791FE044600F124033C
:10622C00406A0193FFF73AFD237B2BB101A8FFF7DE
:10623C009EFF03B0BDE8F08F01232373D4E9005314
:10624C00F6B205EB830A55450ED055F8047B59463A
:10625C00381DFFF7C7FD8642F5D33B684A46DB681D
:10626C00414638469847EEE700232373DEE700BF2C
:10627C0000ED00E02DE9F341164B5B68C3F3080316
:10628C0005460F461BBBFFF759FE00F124030446DD
:10629C00406A0193FFF702FDD4E90063462406EB44
:1062AC008308B04509D101A8FFF761FFA542B4BF2F
:1062BC000020012002B0BDE8F08156F8040B3946ED
:1062CC000430FFF78FFD8442A8BF0446E9E70020A5
:1062DC00F0E700BF00ED00E0F8B5D0E901539D42B6
:1062EC0004460E460DDB6F1C002F006804DDB90060
:1062FC00FEF7FCFF18B9F8BDFEF7F0FF0020206098
:10630C00A7602768626807EB85019200A2EB850203
:10631C00081D01F015FA47F82560636801336360C6
:10632C000120E8E737B500F124030446406A0193E5
:10633C000D46FFF7B3FCD4E9003203EB8202934223
:10634C0019460BD00968A94203F10403F7D101A83F
:10635C00FFF70DFF0025284603B030BD2946204627
:10636C00FFF7BAFF05460028F1D06368012B01D175
:10637C00FFF700FE01A8FFF7FAFEECE770B5044644
:10638C00D0E900020B4600EB820282420FD001469C
:10639C001D6851F8046BAE4207D1521A01F0D0F9C6
:1063AC006368013B6360012070BD0846EDE7002087
:1063BC00FAE71FB500F124030446406A01910393E8
:1063CC00FFF76CFC01A92046FFF7D8FF18B16368F2
:1063DC000BB9FFF7DBFD03A8FFF7C9FE04B010BD36
:1063EC0070B5D0E904561823044603FB0656AE429A
:1063FC0015D005F110012046FFF7C0FF63680BB9FB
:10640C00FFF7C4FDE06929690368DB68984769698F
:10641C0019B1206A0368DB6898471835E7E7D4E9B7
:10642C000453182606FB0356AE4204D0284600F04F
:10643C00A5FD1835F8E70023636170BD73B50446FC
:10644C00FFF7A4FD04F12403606A0193FFF726FC17
:10645C002046FFF7C5FF01A8FFF789FE606A08B167
:10646C00FEF718FDD4E90453182606FB0356AE427A
:10647C0004D0284600F082FD1835F8E72069FEF7B5
:10648C002DFF2068FEF72AFF204602B070BD0000E9
:10649C000148FFF7D3BF00BF90E603208842F8B550
:1064AC0004460D46164615D9904214D2A2F1140694
:1064BC00751AA1F114072C44B7421AD01CB13146FD
:1064CC002046FFF73FFC06F10800FFF7F9FD143EEC
:1064DC00143CF1E70DD0B5420BD01CB12946204637
:1064EC00FFF730FC05F10800FFF7EAFD1435143412
:1064FC00F1E7F8BD8842F8B504460D46164614D9A6
:10650C00904213D2A2F11006751AA1F110072C4477
:10651C00B74218D01CB13146204600F0ABFD3046D6
:10652C0000F02CFD103E103CF2E70CD0B5420AD026
:10653C001CB12946204600F09DFD284600F01EFDAA
:10654C0010351034F2E7F8BD70B50E1E054611DD9E
:10655C003001FEF7BBFE044658B1D5E9001201EB41
:10656C000212FFF7C7FF2868FEF7B8FE2C60AE607A
:10657C00012070BD0024F6E72DE9F04F904695B050
:10658C0000230391D8F804100A9346229942C0E9DB
:10659C000033C0E90233C0E90433CDE908330446C3
:1065AC00027623DCD8E90057142303FB0757AF42CC
:1065BC003BD029460BA800F05DFD0BA90FA8099E46
:1065CC0000F058FDDDE9091399421BDA089B099A82
:1065DC0003EB061603EB0212314606F11000FFF72F
:1065EC0089FFEEB9099B0133099311E008A8FFF765
:1065FC00ABFF0028D6D108A8FEF7B7FE204615B091
:10660C00BDE8F08F013108A8FFF79EFF0028DDD10F
:10661C000FA800F0B3FC0BA800F0B0FC1435C6E7D3
:10662C000FA9304600F026FDDCE70026CDE90B660D
:10663C000D964FF01409DDE908239E427CDA3301F4
:10664C00D35806930BB90136F5E70023079309FBE2
:10665C0006F302930BAD07A906A8FFF7F8FA8246DA
:10666C000028F0D04FF000038DF817300146079A40
:10667C000DF117032846FFF779FB9DF81770019071
:10668C00002F4AD1BDF81C30ADF84030CDE9117760
:10669C004FF6FF73CDF83CA0ADF842301397D5E917
:1066AC000132934217DB03F1010ABAF1000F30DD1E
:1066BC0009FB0AF0FEF70AFE834660B3D5E9001227
:1066CC0009FB0212FFF7EAFE2868FEF707FEC5F881
:1066DC0000B0C5F808A02B68019A09FB023A6A6859
:1066EC00514609FB02320AF11400FFF7D7FEBAF14A
:1066FC00000F03D00FA95046FFF724FB6B68013342
:10670C006B6011A8FFF7DCFC3FB10BA8FFF7D8FCBE
:10671C0071E7BB46D8E70127F3E7019B2D6809FB1E
:10672C000355069B1B782BB9D8F80030029A1344FA
:10673C001B7CEB8008358EE7216822606268636001
:10674C00A36809920A9A0A93E368A2600B9A0B93C6
:10675C002369E2600C9A0C93636922610D9A0D9384
:10676C00039B089162612376CFE70000F0B50446E5
:10677C0087B00D462646194668461746FEF7E5FAD9
:10678C000B4B46F8043B694603A8FEF7DEFA03AA56
:10679C0039463046FFF7F0FE03A8FEF795FA684637
:1067AC00FEF792FA034B23602046256207B0F0BD3A
:1067BC00E47A0B009C7C0B00F0B50F4685B01D49AC
:1067CC000A9C384616461D46FEF7D6F8C0B9A4B149
:1067DC00294601A8FFF7BCFC1749242000F090FFC4
:1067EC00054630B101AB32462146FFF7BFFF134BD4
:1067FC002B6001A8FEF768FA2C46204605B0F0BDC8
:10680C000F493846FEF7B8F890B9002CF5D0294658
:10681C0001A8FFF79DFC0849242000F071FF0546F4
:10682C000028E6D001AB32462146FFF79FFFE0E798
:10683C000024E2E71C7C0B00D47D0B00B47C0B0025
:10684C00207C0B00014B024A1A6070478CE6032037
:10685C00317C0B002DE9F047089DD0F820900446C0
:10686C000E461746984600F063FD81454CD02B79B7
:10687C00190704D56A6954492046FFF7DCFAB8F1C8
:10688C00000F0DD05B212046FFF750FA4146204601
:10689C00FFF73DFA23684D49DB68022220469847F2
:1068AC002B79DA0723D5D5F808802F21404600F044
:1068BC00CAFF08B100F1010841462046FFF727FA4C
:1068CC002B799B0708D53A212046FFF72FFAEA6867
:1068DC003F492046FFF7AFFA2A79236812F0040FDC
:1068EC00DB6814BF3B493C490222204698472B7970
:1068FC0058071DD529690B461A4613F8010B60B1D0
:10690C00202808D11946F7E7344800F082F900280E
:10691C00ADD0BDE8F0872828EED12368521ADB6889
:10692C002046984723682E49DB6804222046984766
:10693C0000213846FEF7FEFB01462046FFF7E7F93B
:10694C0023682549DB680222204698471EB1314650
:10695C002046FFF7DCF92B7913F0300F2CD023688D
:10696C002049DB680222204698472B79D9060AD5A4
:10697C0023681D49DB68072220469847AA691B49F2
:10698C002046FFF758FA2B799A0611D5DB0605D568
:10699C0023681049DB680222204698472368144973
:1069AC00DB6820460A229847E9692046FFF7AFF9D1
:1069BC005D212046FFF7BAF923680E49DB682046B3
:1069CC000222BDE8F0471847357C0B003C7C0B00DD
:1069DC00FC7B0B003F7C0B00447C0B00B8E60320D7
:1069EC00427C0B00477C0B004A7C0B00527C0B005A
:1069FC00557C0B00607C0B002DE9F0410446076AC6
:106A0C000D46164600F094FC874207D0206A0368B6
:106A1C0032462946DB68BDE8F0411847034800F0D0
:106A2C00F8F80028F2D0BDE8F08100BFB8E60320EA
:106A3C002DE9F04385B0D0F820900C9C05460F460C
:106A4C0090461E4600F074FC814505D1494800F083
:106A5C00E0F8002840F08A802B6A474A01924FF0F8
:106A6C00000901A803938DF80890FFF732F8494606
:106A7C004046FEF75FFB41498046012201A8FFF723
:106A8C00B7F84146FFF735F93FB13D49012201A85E
:106A9C00FFF7AEF83946FFF72CF93EB13949012220
:106AAC0001A8FFF7A5F83146FFF723F92379DF0793
:106ABC000ED5A6682F21304600F0C5FE00B1461C4D
:106ACC003149012201A8FFF793F83146FFF711F97C
:106ADC0023799E0707D52D49022201A8FFF788F8D4
:106AEC00E168FFF703F82379580714D52669334674
:106AFC001F4613F8012B2AB1202A01D11E46F7E7B5
:106B0C00282AF5D12249022201A8FFF771F8BA1BF5
:106B1C003146FFF77DF82379190707D51D49012266
:106B2C0001A8FFF765F86169FEF7F2FF2379DA0631
:106B3C0008D5042218490DEB0200FFF759F8A1699A
:106B4C00FEF7D4FF23799B0607D51449062201A82A
:106B5C00FFF74EF8E169FFF7CCF801A8FEF7A3FFA9
:106B6C00286A0F4903680222DB68984705B0BDE824
:106B7C00F08300BFB8E60320847C0B00127C0B0072
:106B8C00637C0B00437E0B008E7A0B00657C0B0044
:106B9C00687C0B006B7C0B006D7C0B00727C0B001B
:106BAC00607C0B00002340681A46FEF72FBB406840
:106BBC0000220221FEF73ABB002240681146FEF784
:106BCC002DBB002240681146FEF738BB00234068FD
:106BDC001A461946FEF73ABB002340681A46194676
:106BEC00FEF73CBB40680021FEF760BB406800210B
:106BFC00FEF764BB4068002281F00101FEF736BB52
:106C0C0040680022FEF742BB002240681146FEF7A6
:106C1C0045BB002240681146FEF730BB2DE9F0431E
:106C2C0095B014460D460746FEF7ECFD00211C22DC
:106C3C000DA8009100F09EFD40230C9320466B465E
:106C4C000CAA0021FEF7BEF9044600284BD10246DF
:106C5C0001216868FEF7F2FA022180462246686834
:106C6C00FEF7ECFA009E81462146002E3BD000290F
:106C7C0039D17368022B03D00A2B11D0F669F4E7D3
:106C8C00B8F1000FFAD0716906A8043107ADFEF710
:106C9C00E7FD0FCD3C1D0FC42B6823704146EDE77B
:106CAC00B9F1000FEAD07469102201A800F062FD5E
:106CBC0006238DF8143001AD04F10803183418685C
:106CCC0059682A4603C20833A3421546F7D101A9D5
:106CDC0006A807ADFEF7A4FD0FCD3C1D0FC42B6815
:106CEC0023704946CAE70098FEF764F9384615B098
:106CFC00BDE8F083024B034A1A6000225A607047C9
:106D0C00B8E60320FC7C0B00F8B506460D468F1840
:106D1C000024BD420CD0336815F8011B9B6830462B
:106D2C009847031E01DB1C44F3E7002C08BF1C46EC
:106D3C002046F8BD13B50446084659B10191FDF73C
:106D4C0025FE23680199DB680246204602B0BDE8A7
:106D5C001040184702B010BD03689B68184730B547
:106D6C008BB00023012A8DF8243098BF0A2209AC7D
:106D7C000D46B1FBF2F101FB125303F0FF03092B9B
:106D8C0094BF30333733DBB2AA4204F8013DEFD95C
:106D9C002146FFF7CFFF0BB030BD00002DE9F74FB8
:106DAC0055EC104B06460F4610EE102A10EE100A4A
:106DBC002B462946FDF782FD40B153493046FFF77B
:106DCC00B9FF8246504603B0BDE8F08F25F000496C
:106DDC004E4B4FF0FF3220464946FDF76FFD48B948
:106DEC004A4B4FF0FF3220464946FDF749FD08B9A2
:106DFC004749E3E7474B4FF0604220462946FDF7F1
:106E0C0053FD08B14449D9E7444B4FF0604220464A
:106E1C002946FDF72BFD0028F4D100220023204643
:106E2C002946FDF723FDD0B12D213046FFF794FF05
:106E3C0005F1004382461D463949DFF8EC904FF0CE
:106E4C00000B00204FF000085FFA8BF39F4208D92B
:106E5C0042464B46FDF7C2FB0BF1010BF4E78246B1
:106E6C00EAE722462B46FDF7D9F80D460446FDF716
:106E7C0063FD8046FDF70EFA02460B462046294676
:106E8C00FDF7CAF80A2204460D4630464146FFF784
:106E9C0066FF8244002F95D02249DFF88C90304653
:106EAC00FFF748FF4FF000088244002F8AD042467B
:106EBC004B4620462946FDF767FA04460D46FDF77A
:106ECC0013FDB0F1000B1CDA2D213046FFF744FF07
:106EDC00CBF1000103460A2230460193FFF73FFF36
:106EEC00019B184482445846FDF7E4F902460B46D0
:106EFC0020462946FDF790F8013F04460D46FFB2A7
:106F0C00D3E759460023E6E7307D0B00FFFFEF7F08
:106F1C00347D0B00FFFFEF41387D0B00FFFFEFC10D
:106F2C000000E03F3C7D0B000000244038B50446D7
:106F3C0010EE100ACDB2FDF7CFF941EC100B29463B
:106F4C002046BDE83840FFF729BF0000014B002266
:106F5C009A607047C0E6032010B5044608462170BD
:106F6C00FEF738F800236360204610BD704710B55B
:106F7C000C210446FDF751FD204610BD10B504460A
:106F8C000068FEF7ABF9204610BD10B5044600684A
:106F9C0008B1FEF7A3F90023C4E90133236010BD47
:106FAC0038B504460D4600680131FEF79FF910B163
:106FBC00C4E90005012038BD10B50368044623B1AF
:106FCC0043688B4201D3012010BD2046FFF7E8FF38
:106FDC000028F9D0A368002BF5D122681370F2E7D2
:106FEC0037B50D46114601920446FFF7E5FF019AAD
:106FFC0028B92046FFF7C9FF204603B030BDA26078
:10700C002946206800F08EFB2268A3680021D15429
:10701C00F2E7002313B5C0E9003304468360037321
:10702C0041B108460191FDF7B1FC01990246204699
:10703C00FFF7D6FF204602B010BD38B505460068F4
:10704C000C4668B16A688B689A4207D3096800F0ED
:10705C00DEFBA368AB600023A36038BDFEF73EF9EE
:10706C0023682B6063686B60A368AB600023C4E982
:10707C000033F1E710B50023C0E900330446836008
:10708C000373FFF7DAFF204610BD884210B50446A3
:10709C0005D00B682BB18A681946FFF7A1FF204673
:1070AC0010BDFFF772FFFAE710B500230446C0E9E4
:1070BC00003383600373FFF7E8FF204610BD70B503
:1070CC0005460E4609B9002070BD6AB184681444A7
:1070DC002146FFF771FF0028F5D02868AB683146D0
:1070EC00184400F094FBAC600120EDE738B5044681
:1070FC0080688568FFF7E3FFA3689868401B38BD7C
:10710C0007B500238DF80410012201A98DF8053074
:10711C00FFF7D5FF03B05DF804FB08B58068FFF7F7
:10712C00EFFF08BD08B582683AB921B10878B0FA0A
:10713C0080F0400900E0012008BD006809B9007822
:10714C00F5E7FDF719FCF2E730B585B000230D46E5
:10715C000293C0E90033836003731421064B01933F
:10716C0004460390FFF728FF2B6801A91B682846EB
:10717C009847204605B030BD487D0B00054B0222D8
:10718C001A60054B054A9A600020C3E90000FDF720
:10719C00E1BF00BFDCE60320D0E603200000FFFFC8
:1071AC00024B1A68024B1A60704700BF90E503202F
:1071BC00E0E6032070474174704708B5007CFDF78A
:1071CC0051FF20EAE07008BD08B5007CFDF722FFF6
:1071DC0020EAE07008BD08B5007CFDF72BFF40EA03
:1071EC00E07008BD08B5007CFDF71CFF40EAE070BC
:1071FC0008BD007CFDF726BF37B5457C04462DB194
:10720C00207C03B0BDE83040FDF7FCBE007C019152
:10721C00FDF728FF00280199F2DC284603B030BDA9
:10722C0010B514210446FDF7F8FB204610BD0000F4
:10723C0010B54FF47A730446084611460022C4E98F
:10724C000123044B2360012320746374FDF71AFFA0
:10725C00204610BD7C7D0B00007C0023FDF70ABF8F
:10726C000022FFF7F9BF007CFDF7C4BE41747047E4
:10727C007047704708B50021007CFDF733FF40EAEA
:10728C00E07008BD08B50121007CFDF72BFF40EA3A
:10729C00E07008BD08B5007CFDF71CFF20EAE0702B
:1072AC0008BD08B5007CFDF70DFF20EAE07008BDB5
:1072BC0013B50446007C0191FDF70CFF00280199E1
:1072CC0001DC607C20B1207CFDF714FF20EAE0702B
:1072DC0002B010BD007CFDF715BF10B5142104469B
:1072EC00FDF79BFB204610BD10B54FF47A73044696
:1072FC0008460021C4E90113044B236001232074C8
:10730C0063741146FDF7C6FE204610BDAC7D0B0024
:10731C00007C0022FDF7C6BE007CFDF7CBBE10B58D
:10732C0014220446002100F025FA204610BD00006E
:10733C0010B50F4C88B003A8FFF7F1FF2178BFF30D
:10734C005B8F11F001010FD120460191FDF774FB09
:10735C00019948B103AA0748FFF7C6FF2046FDF77D
:10736C0070FB054800F0D0F9024808B010BD00BF12
:10737C00E4E60320E8E603207D720B00014B186065
:10738C00704700BF94E5032008B50B4B43B1FFF7E2
:10739C00CFFF03681B699847002801DDAFF300801D
:1073AC00064B43B100F088F903681B699847002825
:1073BC0001DDAFF3008008BD0000000000000000FC
:1073CC0008B5FFF7E1FFFDF78DFD014B186008BD17
:1073DC0010E703200548064A064908B5121A00F0C2
:1073EC00A1F9054B054A1A6008BD00BF00F4032043
:1073FC0004F4032008800B0000F403201E1C279AC1
:10740C0007B5002300931A466FF07701FDF7C4FE11
:10741C0003B05DF804FB000007B543880A2B08D0C5
:10742C00502B0BD1094B1B684BB103B05DF804EB2F
:10743C001847FFF7E5FF03B05DF804FB002300934A
:10744C001A466FF07701FDF7A7FEF4E700E703207B
:10745C0010B512480021FDF769FF114B1A68114B4A
:10746C009A42114B0CBF012200221A7001D0FFF777
:10747C00B1FFFDF727FD044600F084F90B4B13B167
:10748C002046AFF3008000210848FDF7AFFEBDE8B1
:10749C00104007480021FDF775BE00BF89730B0033
:1074AC0000F403201E1C279AFCE6032000000000B9
:1074BC0025740B00232813B502D9002002B010BD8F
:1074CC00A0F10B03022B1AD8174C2178BFF35B8F5A
:1074DC0011F001010BD120460191FDF7ADFA019994
:1074EC0028B11248FFF738FD2046FDF7AAFA0F4BDA
:1074FC001878FDF777FD0028DFD10120DEE70128A1
:10750C0009D800F075F80021007CFDF733FD80F000
:10751C000100C0B2D2E709380128EED800F0CCF84F
:10752C00007CFDF797FDF2E704E7032008E7032052
:10753C00232838B504460D460AD8FF2908D0FFF792
:10754C00B9FF28B129462046BDE83840FDF7D2BC2A
:10755C0038BD38B504460D46FDF7D4FCFF2810D0D5
:10756C00062804D84D2323FA00F0C30709D420467B
:10757C00FFF7A0FF28B129462046BDE83840FDF7AB
:10758C00C9BC38BD7047704738B50A4B036001233E
:10759C00044643610849202000F0B4F820256060BF
:1075AC000549A560284600F0ADF8C4E9030520465E
:1075BC0038BD00BF18000100D47D0B0038B50A4B54
:1075CC0003600123044643610849202000F09AF827
:1075DC00202560600549A560284600F093F8C4E9B1
:1075EC000305204638BD00BF18000100D47D0B00F8
:1075FC0030B50E4D2978BFF35B8F11F0010487B0C5
:10760C0011D12846FDF718FA68B16846FFF7BCFFA0
:10761C006A4621460648FEF793F82846FDF711FA0C
:10762C00044800F071F8024807B030BD14E703209D
:10763C001CE7032091750B0010B50E4C2378BFF39B
:10764C005B8FDB0786B011D42046FDF7F5F968B1E6
:10765C006846FFF7B3FF6A4601210748FEF770F84A
:10766C002046FDF7EEF9054800F04EF8024806B04A
:10767C0010BD00BF18E7032030E7032093750B0003
:10768C007047000038B5044614252A46002100F046
:10769C0071F825804025074925812846258200F070
:1076AC0031F804496060284600F02CF8E060204670
:1076BC0038BD00BFD47D0B0030B50E4D2978BFF31B
:1076CC005B8F11F0010487B011D12846FDF7B4F996
:1076DC0068B101A8FFF7D6FF01AA21460648FFF7BB
:1076EC00A7FD2846FDF7ADF9044800F00DF8024857
:1076FC0007B030BD44E7032048E703208D760B002C
:10770C00FDF787B9FDF787B9002301461A461846DD
:10771C0000F03AB9024B1844407800F097007047DB
:10772C00457E0B000A44914200F1FF3300D17047B3
:10773C0010B511F8014B03F8014F9142F9D110BD6E
:10774C00884210B501EB020402D98442234607D8C3
:10775C00431EA14208D011F8012B03F8012FF8E7C2
:10776C00024401468A4200D110BD13F8014D02F8C3
:10777C00014DF7E702440346934200D1704703F8EA
:10778C00011BF9E738B5104B1D68AB6B0446B3B958
:10779C001820FDF79BFD0246A86320B90B4B0C4843
:1077AC004221FDF7BBFD0B490B4BC0E900130B4B02
:1077BC0083600B23838100210120C2E90401AB6BA0
:1077CC0000221C615A6138BD94E50320D57D0B0065
:1077DC00EC7D0B000E33CDAB34126DE6ECDE050008
:1077EC00C9B2034610F8012B1AB18A42F9D11846D6
:1077FC007047002918BF0023F9E710B50446FFF7BE
:10780C00EFFF18B92046FDF7C1F8204410BD034620
:10781C0011F8012B03F8012B002AF9D1704710B590
:10782C007AB103460139841813F8010B11F8012FB2
:10783C00904201D1A34201D1801A10BD0028F3D18E
:10784C00FAE71046F9E738B503460C4669B9BDE8C6
:10785C003840FFF7C5BF431C054621461846FFF7C5
:10786C00BFFF0028F7D1284638BD0025F5E70000FA
:10787C00012B2DE9F04701D0242B06D9FDF746FD4D
:10788C00162303600020BDE8F087DFF8E4C00D4646
:10789C002E4615F8014B14F80C7017F00807F7D1A9
:1078AC002D2C32D12C780127B51C002B5BD0102B42
:1078BC0009D1302C07D12C7804F0DF04582C4DD191
:1078CC006C781023023507F1004808F1FF384FF0AF
:1078DC00000CB8FBF3F9664603FB198AA4F1300ED1
:1078EC00BEF1090F16D87446A34224DDBCF1000F7B
:1078FC001EDBB1451CD301D1A24519DB06FB0346A7
:10790C004FF0010C15F8014BE8E72B2C04BF2C7839
:10791C00B51CCAE7A4F1410EBEF1190F01D8373CD2
:10792C00E2E7A4F1610EBEF1190F04D8573CDBE776
:10793C004FF0FF3CE6E7BCF1000F05DA22230360B1
:10794C00464642B930469EE707B17642002AF9D046
:10795C00BCF1000F00D0691E1160F3E73024002B3E
:10796C00B1D10823AFE7302CA5D00A23ABE700BF79
:10797C00467E0B0013460A46014602480068FFF794
:10798C0077BF00BF94E503202DE9F843DFF8B880FA
:10799C000646D8F800001F460D46914600F056F8F2
:1079AC00254B1C6834B9254C1C60254B13B11B6846
:1079BC00C4F8883063681F2B07DDD8F8000000F08E
:1079CC0047F84FF0FF30BDE8F8834EB3D4F8880089
:1079DC0088B91C4B23B9D8F8000000F038F8F0E750
:1079EC004FF48470FDF772FC0028F4D00023C0E93A
:1079FC004033C4F88800636840F8239001229A4011
:107A0C0000EB8301D0F800311343C0F80031022E93
:107A1C00C1F8807002BFD0F804311343C0F80431B0
:107A2C006368D8F800005A1C0233626044F8235093
:107A3C0000F00EF80020C6E7E8E703205CE703201F
:107A4C0000000000D9520B00F8E503207047704786
:107A5C0070470000A9490B00E5490B000D4A0B00CB
:107A6C00114A0B000000000043616C6C206F6E200B
:107A7C0070757265207669727475616C006F6E003A
:107A8C006F6666006465627567006C6564004365CB
:107A9C006C6C756C61722072656164792061742004
:107AAC00737461727475703A2025662073747265F4
:107ABC006E67746820616E64202566207175616C38
:107ACC00697479006C6F63616C49503A20257300BE
:107ADC00000000000000000000000000000000009A
:107AEC002D4A0B00554A0B0000000000000000005E
:107AFC00854A0B00B94A0B0061680B00056A0B0044
:107B0C0000000000000000001B540B0011540B007F
:107B1C0007540B00BD530B00FB530B00EF530B0032
:107B2C00F16B0B00F96B0B00E3530B00DB530B00F9
:107B3C00D1530B00C7530B00296C0B000000000045
:107B4C0000000000A9540B000D550B00AB540B00AA
:107B5C001D550B0051550B007D550B00B1550B00FD
:107B6C00D1540B00AF540B00CB540B00FCFFFFFFA8
:107B7C000000000005550B00000000000000000094
:107B8C00A1560B0097560B008D560B0083560B001D
:107B9C0077560B006B560B00F16B0B00F96B0B005F
:107BAC005F560B0057560B004D560B0043560B00FF
:107BBC00296C0B000000000000000000F3560B00C5
:107BCC003D570B0015570B00F5560B001D570B00BE
:107BDC0025570B002D570B0035570B0000000000EC
:107BEC0000000000AB570B009B570B009D570B0080
:107BFC002564002575007525303478006261756444
:107C0C000053657269616C0053657269616C310077
:107C1C004A534F4E53747265616D4C6F6748616E79
:107C2C00646C657200617070002530313075200015
:107C3C005D20002C200028293A2000205B00636F77
:107C4C006465203D200025690064657461696C736E
:107C5C00203D20000D0A006D006C6E00666E0074F5
:107C6C0000636F64650064657461696C00000000FA
:107C7C000000000000000000595C0B007F5C0B0052
:107C8C003D5C0B00BB580B00000000000000000026
:107C9C0009610B0021610B0061680B00056A0B0088
:107CAC00000000000000000035610B0049610B0072
:107CBC003D6A0B00455C0B0000000000000000005A
:107CCC00575C0B008D5C0B00C5670B00475C0B0011
:107CDC000000000000000000555C0B009B5C0B00DA
:107CEC0071600B00BD5C0B00000000000000000088
:107CFC00B16B0B00BB6B0B00C56B0B00CF6B0B00A0
:107D0C00D96B0B00E56B0B00F16B0B00F96B0B00E7
:107D1C00016C0B000D6C0B00156C0B001F6C0B0039
:107D2C00296C0B006E616E00696E66006F766600E2
:107D3C002E0000000000000000000000796F0B0016
:107D4C007B6F0B0027710B00F9700B0025592D254B
:107D5C006D2D25645425483A254D3A2553257A0036
:107D6C0061736374696D6500000000000000000021
:107D7C00C1710B002D720B0005720B00156D0B0001
:107D8C00D5710B00F1710B00E3710B00FF710B004F
:107D9C00C3710B00C7710B00000000000000000055
:107DAC007F720B00E7720B00BD720B00156D0B00A0
:107DBC00AF720B0081720B0091720B00E1720B0021
:107DCC00A1720B0079720B00005245454E54206D88
:107DDC00616C6C6F632073756363656564656400C7
:107DEC002F746D702F6A656E6B696E732D474343EC
:107DFC002D31302D706970656C696E652D34385F6E
:107E0C0032303230313132345F3136303631383015
:107E1C003633392F7372632F6E65776C69622F6EF0
:107E2C0065776C69622F6C6962632F7374646C691B
:107E3C00622F72616E642E630000202020202020AF
:107E4C0020202028282828282020202020202020FE
:107E5C0020202020202020202020881010101010FE
:107E6C00101010101010101010100404040404044E
:107E7C000404040410101010101010414141414131
:107E8C004101010101010101010101010101010196
:107E9C000101010101101010101010424242424227
:107EAC004202020202020202020202020202020266
:107EBC00020202020210101010200000000000004C
:107ECC0000000000000000000000000000000000A6
:107EDC000000000000000000000000000000000096
:107EEC000000000000000000000000000000000086
:107EFC000000000000000000000000000000000076
:107F0C000000000000000000000000000000000065
:107F1C000000000000000000000000000000000055
:107F2C000000000000000000000000000000000045
:107F3C00000000000000000000000000BD4D0B0020
:107F4C00AD530B0079540B00AD560B0051680B0070
:107F5C00016D0B00596F0B0089710B00AD710B009B
:107F6C00040000001400000003000000474E550000
:107F7C00BD26EC4586B4ED294BDD30AB4F9CE5CBF3
:047F8C00ACB47A2AED
:107F900005000000CC7C0B00E47C0B006C7D0B002A
:107FA00098E5032000000000000000000000000031
:107FB00000000000000000000000000000000000C1
:107FC00000000000000000000000000000000000B1
:107FD00000000000000000000000000000000000A1
:107FE0000000000000000000000000000000000091
:107FF0000000000000000000000000000000000081
:0880000000000000ECE7032082
:048008000000000074
:1080120000000102030405060708090A0B0C0D0EF5
:108022000F101112131415161718191A1B1C1D1EE6
:048032001F202800E3
:048036007856341232
:04000003B000401CED
:00000001FF
