:02000002B0004C
:1040000000400B001E820B00000006000D000502A0
:0840100004015014000000003F
:044018002C7C0B00F1
:10401C0081F0004102E000BF83F0004330B54FEA6D
:10402C0041044FEA430594EA050F08BF90EA020FDA
:10403C001FBF54EA000C55EA020C7FEA645C7FEA6D
:10404C00655C00F0E2804FEA5454D4EB5555B8BF90
:10405C006D420CDD2C4480EA020281EA030382EA01
:10406C00000083EA010180EA020281EA0303362D93
:10407C0088BF30BD11F0004F4FEA01314FF4801C66
:10408C004CEA113102D0404261EB410113F0004F78
:10409C004FEA03334CEA133302D0524263EB43032F
:1040AC0094EA050F00F0A780A4F10104D5F1200ECD
:1040BC000DDB02FA0EFC22FA05F2801841F1000128
:1040CC0003FA0EF2801843FA05F359410EE0A5F1FC
:1040DC0020050EF1200E012A03FA0EFC28BF4CF02D
:1040EC00020C43FA05F3C01851EBE37101F00045E3
:1040FC0007D54FF0000EDCF1000C7EEB00006EEBF0
:10410C000101B1F5801F1BD3B1F5001F0CD3490879
:10411C005FEA30004FEA3C0C04F101044FEA4452D0
:10412C0012F5800F80F09A80BCF1004F08BF5FEA57
:10413C00500C50F1000041EB045141EA050130BD37
:10414C005FEA4C0C404141EB0101013C28BFB1F549
:10415C00801FE9D291F0000F04BF01460020B1FA94
:10416C0081F308BF2033A3F10B03B3F120020CDA67
:10417C000C3208DD02F1140CC2F10C0201FA0CF045
:10418C0021FA02F10CE002F11402D8BFC2F1200CAA
:10419C0001FA02F120FA0CFCDCBF41EA0C01904060
:1041AC00E41AA2BF01EB0451294330BD6FEA0404A9
:1041BC001F3C1CDA0C340EDC04F11404C4F1200294
:1041CC0020FA04F001FA02F340EA030021FA04F3A6
:1041DC0045EA030130BDC4F10C04C4F1200220FAFD
:1041EC0002F001FA04F340EA0300294630BD21FA3B
:1041FC0004F0294630BD94F0000F83F4801306BF01
:10420C0081F480110134013D4EE77FEA645C18BFF4
:10421C007FEA655C29D094EA050F08BF90EA020F8B
:10422C0005D054EA000C04BF1946104630BD91EA83
:10423C00030F1EBF0021002030BD5FEA545C05D186
:10424C004000494128BF41F0004130BD14F58004C5
:10425C003CBF01F5801130BD01F0004545F0FE4139
:10426C0041F470014FF0000030BD7FEA645C1ABF6E
:10427C00194610467FEA655C1CBF0B46024650EAA5
:10428C00013406BF52EA033591EA030F41F40021D1
:10429C0030BD00BF90F0000F04BF0021704730B557
:1042AC004FF4806404F132044FF000054FF000012C
:1042BC0050E700BF90F0000F04BF0021704730B5ED
:1042CC004FF4806404F1320410F0004548BF4042C2
:1042DC004FF000013EE700BF42004FEAE2014FEA17
:1042EC0031014FEA02701FBF12F07F4393F07F4FF2
:1042FC0081F06051704732F07F4208BF704793F0F5
:10430C007F4F04BF41F40021704730B54FF4607407
:10431C0001F0004521F000411CE700BF50EA01020A
:10432C0008BF704730B54FF000050AE050EA0102B3
:10433C0008BF704730B511F0004502D5404261EB23
:10434C0041014FF4806404F132045FEA915C3FF464
:10435C00D8AE4FF003025FEADC0C18BF03325FEA01
:10436C00DC0C18BF033202EBDC02C2F1200300FAB2
:10437C0003FC20FA02F001FA03FE40EA0E0021FAD7
:10438C0002F11444BDE600BF70B54FF0FF0C4CF4C5
:10439C00E06C1CEA11541DBF1CEA135594EA0C0F77
:1043AC0095EA0C0F00F0DEF82C4481EA030621EAB2
:1043BC004C5123EA4C5350EA013518BF52EA0335ED
:1043CC0041F4801143F4801338D0A0FB02CE4FF09F
:1043DC000005E1FB02E506F00042E0FB03E54FF0CF
:1043EC000006E1FB03569CF0000F18BF4EF0010EC7
:1043FC00A4F1FF04B6F5007F64F5407404D25FEAC3
:10440C004E0E6D4146EB060642EAC62141EA555175
:10441C004FEAC52040EA5E504FEACE2EB4F1FD0CB7
:10442C0088BFBCF5E06F1ED8BEF1004F08BF5FEA35
:10443C00500E50F1000041EB045170BD06F00046E7
:10444C0046EA010140EA020081EA0301B4EB5C0494
:10445C00C2BFD4EB0C0541EA045170BD41F480118C
:10446C004FF0000E013C00F3AB8014F1360FDEBFB1
:10447C00002001F0004170BDC4F10004203C35DA8D
:10448C000C341BDC04F11404C4F1200500FA05F310
:10449C0020FA04F001FA05F240EA020001F00042B1
:1044AC0021F0004110EBD37021FA04F642EB060127
:1044BC005EEA430E08BF20EAD37070BDC4F10C0451
:1044CC00C4F1200500FA04F320FA05F001FA04F215
:1044DC0040EA020001F0004110EBD37041F1000101
:1044EC005EEA430E08BF20EAD37070BDC4F120050C
:1044FC0000FA05F24EEA020E20FA04F301FA05F274
:10450C0043EA020321FA04F001F0004121FA04F21B
:10451C0020EA020000EBD3705EEA430E08BF20EAEB
:10452C00D37070BD94F0000F0FD101F00046400025
:10453C0041EB010111F4801F08BF013CF7D041EAA7
:10454C00060195F0000F18BF704703F000465200AB
:10455C0043EB030313F4801F08BF013DF7D043EA7C
:10456C000603704794EA0C0F0CEA135518BF95EA32
:10457C000C0F0CD050EA410618BF52EA4306D1D1B9
:10458C0081EA030101F000414FF0000070BD50EAD8
:10459C00410606BF1046194652EA430619D094EA62
:1045AC000C0F02D150EA013613D195EA0C0F05D14C
:1045BC0052EA03361CBF104619460AD181EA0301A0
:1045CC0001F0004141F0FE4141F470014FF0000058
:1045DC0070BD41F0FE4141F4780170BD70B54FF0F3
:1045EC00FF0C4CF4E06C1CEA11541DBF1CEA135573
:1045FC0094EA0C0F95EA0C0F00F0A7F8A4EB050455
:10460C0081EA030E52EA03354FEA013100F088804B
:10461C004FEA03334FF0805545EA131343EA126314
:10462C004FEA022245EA111545EA10654FEA0026C9
:10463C000EF000419D4208BF964244F1FD0404F582
:10464C00407402D25B084FEA3202B61A65EB0305DE
:10465C005B084FEA32024FF480104FF4002CB6EB9B
:10466C00020E75EB030E22BFB61A754640EA0C001B
:10467C005B084FEA3202B6EB020E75EB030E22BF5B
:10468C00B61A754640EA5C005B084FEA3202B6EB9C
:10469C00020E75EB030E22BFB61A754640EA9C005B
:1046AC005B084FEA3202B6EB020E75EB030E22BF2B
:1046BC00B61A754640EADC0055EA060E18D04FEAE9
:1046CC00051545EA16754FEA06164FEAC30343EA89
:1046DC0052734FEAC2025FEA1C1CC0D111F4801F56
:1046EC000BD141EA00014FF000004FF0004CB6E74F
:1046FC0011F4801F04BF01430020B4F1FD0C88BFEE
:10470C00BCF5E06F3FF6AFAEB5EB030C04BFB6EBF8
:10471C00020C5FEA500C50F1000041EB045170BDEB
:10472C000EF0004E4EEA113114EB5C04C2BFD4EB18
:10473C000C0541EA045170BD41F480114FF0000E9C
:10474C00013C90E645EA060E8DE60CEA135594EA18
:10475C000C0F08BF95EA0C0F3FF43BAF94EA0C0F1B
:10476C000AD150EA01347FF434AF95EA0C0F7FF490
:10477C0025AF104619462CE795EA0C0F06D152EAE4
:10478C0003353FF4FDAE1046194622E750EA4106C8
:10479C0018BF52EA43067FF4C5AE50EA41047FF4D9
:1047AC000DAF52EA43057FF4EBAE12E74FF0FF3C3E
:1047BC0006E000BF4FF0010C02E000BF4FF0010C0F
:1047CC004DF804CD4FEA410C7FEA6C5C4FEA430C88
:1047DC0018BF7FEA6C5C1BD001B050EA410C0CBFD7
:1047EC0052EA430C91EA030F02BF90EA020F002039
:1047FC00704710F1000F91EA030F58BF994208BFA0
:10480C0090422CBFD8176FEAE37040F0010070475C
:10481C004FEA410C7FEA6C5C02D150EA013C07D1B3
:10482C004FEA430C7FEA6C5CD6D152EA033CD3D0FE
:10483C005DF8040B704700BF8446104662468C46F8
:10484C001946634600E000BF01B5FFF7B7FF00282B
:10485C0048BF10F1000F01BD4DF808EDFFF7F4FF54
:10486C000CBF012000205DF808FB00BF4DF808EDDF
:10487C00FFF7EAFF34BF012000205DF808FB00BF02
:10488C004DF808EDFFF7E0FF94BF012000205DF824
:10489C0008FB00BF4DF808EDFFF7CEFF94BF0120D9
:1048AC0000205DF808FB00BF4DF808EDFFF7C4FFD2
:1048BC0034BF012000205DF808FB00BF4FEA410C1B
:1048CC007FEA6C5C02D150EA013C0AD14FEA430CFE
:1048DC007FEA6C5C02D152EA033C02D14FF000003B
:1048EC0070474FF0010070474FEA410212F5001279
:1048FC0015D211D56FF47873B3EB625212D94FEA1B
:10490C00C12343F0004343EA505311F0004F23FA04
:10491C0002F018BF404270474FF00000704750EA59
:10492C00013005D111F0004008BF6FF00040704716
:10493C004FF00000704700BF4A0011D212F5001270
:10494C0011D20DD56FF47873B3EB62520ED44FEADB
:10495C00C12343F0004343EA505323FA02F070475B
:10496C004FF00000704750EA013002D14FF0FF3099
:10497C0070474FF00000704710F8012B11F8013B05
:10498C00012A28BF9A42F7D0D01A7047034613F871
:10499C00012B002AFBD1181A0138704709480A4923
:1049AC00884208B505D0094A824202D0121A02F098
:1049BC009FFF0748074A0021121A02F0C1FF014865
:1049CC0008BD00BF80E5032078810B00F8E50320CB
:1049DC00F8E50320F0E7032070B5074E074C02F012
:1049EC001DFEA41BA4080025AC4200D170BD56F8D6
:1049FC00043B98470135F7E730810B0054810B00DD
:104A0C0000F076B808B500F037F9BDE8084002F0C0
:104A1C00BDBD00F09DBC00F09BBC00F0A1BC000033
:104A2C0008B5034A03490C2000F0B6FBFEE700BFB3
:104A3C00254F0B00407C0B000078B0FA80F0400949
:104A4C0070470123037070477047000010B5084988
:104A5C00044602F04DFC40B90649204602F048FCE1
:104A6C00B0FA80F04009404210BD0120FCE700BFC5
:104A7C00557C0B00587C0B000A4B10B504460360A8
:104A8C0001F042FB214601F07AFD02F037FD02F005
:104A9C0029FD2046044B40F8043B01F00BFC20465A
:104AAC0010BD00BFE47C0B00CC7C0B0010B50446A1
:104ABC00FFF7E2FF20462421FFF7AFFF204610BD91
:104ACC000EB400B58CB00DAA4FF0200C52F8041B9C
:104ADC000392CDE900120023016804AA1E20CDE93F
:104AEC0004C300F061FB0CB05DF804EB03B070473D
:104AFC00F0B52F4E2F48304D97B00222002331468F
:104B0C0000F096FB2D4B0121188802F0F7FD2C4A82
:104B1C002C492D480123336000F0BEFD002268684B
:104B2C00114600F0CDFB002840D029460EA800F01D
:104B3C00B5FC0EA800F02EFD244F0EA887ED000A40
:104B4C0000F058FD224B83ED000A336810EE104A3A
:104B5C0063B33868FFF7C0FB02460B462046CDE92D
:104B6C000223FFF7B9FBDDE90223CDE90001194966
:104B7C001948FFF7A5FF00221146686800F080FB7A
:104B8C00811C08A800F032FF08A904A802F0C2FB9F
:104B9C001249049A1048FFF793FF04A802F0D4FAC4
:104BAC0002F0ACFC4FF4165102F098FC17B0F0BDBB
:104BBC0010E603205C7C0B0048E6032080E5032014
:104BCC00627C0B00594A0B0079560B000CE6032053
:104BDC0008E60320667C0B008CE603209C7C0B0013
:104BEC0008B50A4800F00EFE094B83ED000A094B8C
:104BFC001B68012B10EE100A07D1FFF76DFB024664
:104C0C000B4605480549FFF75BFF08BD14E603207A
:104C1C0004E6032010E603208CE60320A87C0B009E
:104C2C0038B585B20C462846012102F078FD2046A5
:104C3C0000F0C6FB2846002102F071FD2046BDE8BD
:104C4C00384000F0BDBB000010B5094C00F06CF909
:104C5C002368C01A074B984208D900F0F9FA10B132
:104C6C00002000F0FDFA00F05FF9206010BD00BFDD
:104C7C001CE60320005C260530B58DB0FFF7E4FF81
:104C8C001B4B1B68002B31D01A4B1B4C1868C821CE
:104C9C00FFF7C6FF00226068114600F011FB28B335
:104CAC00214604A800F0FAFB04A800F073FC134D95
:104CBC0004A885ED000A00F09DFC114B286883EDDB
:104CCC00000A10EE104AFFF707FB02460B4620467F
:104CDC00CDE90223FFF700FBDDE90223CDE900015A
:104CEC0008490948FFF7ECFEFFF77AFF0DB030BD1D
:104CFC0010E6032080E5032048E603200CE60320A1
:104D0C0008E60320667C0B008CE6032070B5D0E926
:104D1C0000531426044606FB0356AE4204D0284624
:104D2C0002F012FA1435F8E7206800F019FB20465F
:104D3C0070BD8842F8B504460D46164616D9904209
:104D4C0015D2A2F11406751AA1F114072C44B7421E
:104D5C001CD02CB13146204602F072FA337C2374FD
:104D6C00304602F0F1F9143E143CF0E70ED0B54297
:104D7C000CD02CB12946204602F062FA2B7C23740D
:104D8C00284602F0E1F914351434F0E7F8BD2DE9AA
:104D9C00F0410023C0E9003383604F689F42044612
:104DAC000E4623DD4FF0140808FB07F000F0D0FA94
:104DBC000546D8B1D4E9001208FB0212FFF7B9FF7F
:104DCC00206800F0CDFA2560A760D6E9007308FBD7
:104DDC000378B84508D03946284602F04BFA3B7C9C
:104DEC002B7414371435F4E7736863602046BDE800
:104DFC00F081000070B5284B284A9A6000248CB0D2
:104E0C00C3E90044012000F0E7F92146012000F03D
:104E1C00F3F92146224800F0A9FCCDE900440294A4
:104E2C0002F06CFB1F4C0546694603A8FFF7AFFF69
:104E3C00264603A906A8FFF7AAFF1B4B46F8043B1E
:104E4C0006A909A8FFF7A3FF09AA1E21304601F005
:104E5C0079FC09A8FFF75AFF06A8FFF757FF134B79
:104E6C002360256203A8FFF751FF114B236002F06A
:104E7C0045FB4FF4165102F031FB01F045F9214688
:104E8C0001F036FB6846FFF741FF00F04DF8094B87
:104E9C0018600CB070BD00BFF8E503200000FFFFE8
:104EAC0014E6032020E60320CC7C0B00847E0B0050
:104EBC00E47C0B001CE6032008B5024B1B685B6C02
:104ECC00019308BD7402030008B5024B1B685B6CB0
:104EDC00019308BD4802030008B5024B1B689B6C8C
:104EEC00019308BD4802030008B5024B1B68DB6C3C
:104EFC00019308BD4802030008B5024B1B685B6DAB
:104F0C00019308BD4802030008B5024B1B685B689F
:104F1C00019308BD1802030008B5024B1B68DB683F
:104F2C00019308BD1802030008B5024B1B685B69AE
:104F3C00019308BD1802030008B5024B1B689B685F
:104F4C00019308BD2C02030008B5024B1B68DB68FB
:104F5C00019308BD2C02030008B5024B1B681B69AA
:104F6C00019308BD2C02030008B5024B1B689B691A
:104F7C00019308BD2802030008B5024B1B68DB69CE
:104F8C00019308BD2802030008B5024B1B681B6A7D
:104F9C00019308BD2802030008B5024B1B685B6A2D
:104FAC00019308BD2802030008B5024B1B689B6ADD
:104FBC00019308BD2802030008B5024B1B68DB6A8D
:104FCC00019308BD2802030008B5024B1B681B6B3C
:104FDC00019308BD2802030008B5024B1B685B6BEC
:104FEC00019308BD2802030008B5024B1B681B6C1B
:104FFC00019308BD2802030008B5024B1B689B6C8B
:10500C00019308BD2802030008B5024B1B68DB6C3A
:10501C00019308BD2802030008B5024B1B681B6DE9
:10502C00019308BD2802030008B5024B1B685B699D
:10503C00019308BD6402030008B5024B1B689B6812
:10504C00019308BD6802030008B5024B1B68DB68BE
:10505C00019308BD6802030008B5024B1B68DB69AD
:10506C00019308BD3002030008B5024B1B681B6A94
:10507C00019308BD3002030008B5024B1B689B6806
:10508C00019308BD3C02030008B5024B1B68DB68AA
:10509C00019308BD3C02030008B5024B1B681B6959
:1050AC00019308BD3C02030008B5024B1B685B6909
:1050BC00019308BD3C02030008B5024B1B689B69B9
:1050CC00019308BD3C02030008B5024B1B68DB6969
:1050DC00019308BD3C02030008B5024B1B681B6A18
:1050EC00019308BD3C02030008B5024B1B689B6A88
:1050FC00019308BD3C02030008B5024B1B68DB6A38
:10510C00019308BD3C02030008B5024B1B681B6CE5
:10511C00019308BD3C02030008B5024B1B681B68D9
:10512C00019308BD4C02030008B5024B1B685B6879
:10513C00019308BD4C02030008B5024B1B689B6829
:10514C00019308BD4C02030008B5024B1B681B6998
:10515C00019308BD4C02030008B5024B1B685B6948
:10516C00019308BD4C02030008B5024B1B689B69F8
:10517C00019308BD4C02030008B5024B1B68DB69A8
:10518C00019308BD4C02030008B5024B1B681B6A57
:10519C00019308BD4C02030008B5024B1B685B6B06
:1051AC00019308BD6002030008B5024B1B685B6DE0
:1051BC00019308BD6002030008B5024B1B68DB6E4F
:1051CC00019308BD6002030008B5024B1B681B6FFE
:1051DC00019308BD6002030008B5024B1B685B68B5
:1051EC00019308BD2002030008B5024B1B685B69E4
:1051FC00019308BD2002030008B5024B1B68DB6A53
:10520C00019308BD2002030008B5034B1B68D3F8BB
:10521C008830019308BD00002002030008B5034B41
:10522C001B68D3F89430019308BD000020020300E2
:10523C0008B5024B1B681B68019308BD44020300B0
:10524C0008B5024B1B685B68019308BD4402030060
:10525C0008B5024B1B685B69019308BD440203004F
:10526C0008B5024B1B68DB6A019308BD44020300BE
:10527C0008B5024B1B68DB6B019308BD44020300AD
:10528C0008B5024B1B681B68019308BD4002030064
:10529C0008B5024B1B685B68019308BD4002030014
:1052AC0008B5024B1B689B68019308BD40020300C4
:1052BC0008B5024B1B68DB68019308BD4002030074
:1052CC0008B5024B1B681B69019308BD4002030023
:1052DC0008B5024B1B685B69019308BD40020300D3
:1052EC0008B5024B1B689B69019308BD4002030083
:1052FC0008B5024B1B68DB69019308BD4002030033
:10530C0008B5024B1B681B6A019308BD40020300E1
:10531C0008B5024B1B681B6B019308BD40020300D0
:10532C0008B5024B1B685B6B019308BD4002030080
:10533C0008B5024B1B681B6C019308BD40020300AF
:10534C0008B5024B1B685B6C019308BD400203005F
:10535C0008B5024B1B681B68019308BD1C020300B7
:10536C0008B5024B1B685B68019308BD1C02030067
:10537C0008B5024B1B689B68019308BD1C02030017
:10538C0008B5024B1B685B6A019308BD1C02030045
:10539C0008B5024B1B68DB6B019308BD1C020300B4
:1053AC0008B5024B1B681B6C019308BD1C02030063
:1053BC0008B5024B1B685B6C019308BD1C02030013
:1053CC000021FFF711BF10B54368013B0446436051
:1053DC0063B903689B689847A368013BA3602BB92A
:1053EC0023682046DB68BDE81040184710BD70B537
:1053FC00D0E90053044605EB0316AE4204D0284610
:10540C0001F0A2FE1035F8E72068FFF7A9FF20464F
:10541C0070BD10B50446006808B1FFF7D4FF2046F4
:10542C0010BD0000024800230360FFF74DBD00BF14
:10543C0044E60320002240681146FFF741BF0022DA
:10544C0040681146FFF75CBF002240681146FFF729
:10545C0067BF40680022FFF75BBF4068002281F005
:10546C000101FFF745BF002340681A461946FFF7B4
:10547C0037BF002340681A461946FFF729BF0022A0
:10548C0040681146FFF70CBF406800220221FFF76D
:10549C000FBF002340681A46FFF7FABE70B5134BD6
:1054AC0003601825303386B00E4643602A4600212F
:1054BC000446083002F044FA002270681146FFF7E7
:1054CC00FFFE78B100212A46684602F039FA694697
:1054DC000020ADF80050FFF7EFFC18B969462046E4
:1054EC0000F0B8F8204606B070BD00BF387D0B0048
:1054FC00084B10B5282422461846002102F020FA49
:10550C00054B04804FF0FF32426004225A60034A7C
:10551C001A6010BD50E6032048E60320FC7C0B000B
:10552C007047007B7047037B4BB10369B3F1004FAD
:10553C0005D08069B0F1004018BF012070470020F1
:10554C00704703681B6A184770B503680D461B69E2
:10555C00064698470221284601F0CEFD2C21044630
:10556C00284601F0DFFC336804449B6930469847B9
:10557C000221284601F0C0FD204470BDA0F10400BA
:10558C00FFF7E2BF10B520210446FFF746FA20468C
:10559C0010BD0000037B7BB14369002B0CDB07EED5
:1055AC00903A9FED077AF8EEE77A87EE870ADFEDFF
:1055BC00057A20EE270A7047BFEE000A704700BF3D
:1055CC0000FF7F470000C842037B63B10369B3F15E
:1055DC00004F08D007EE903A9FED047AF8EEE77A88
:1055EC0087EE870A70479FED020A70470000C84299
:1055FC0000000000037B7BB1C369002B0CDB07EEC2
:10560C00903A9FED077AF8EEE77A87EE870ADFED9E
:10561C00057A20EE270A7047BFEE000A704700BFDC
:10562C0000FF7F470000C842037B63B18369B3F17D
:10563C00004F08D007EE903A9FED047AF8EEE77A27
:10564C0087EE870A70479FED020A70470000C84238
:10565C000000000030B50D4600F108040FCD0FC45A
:10566C0095E8030084E80300012030BD10B588B034
:10567C000446684601F0B3FD694604A801F0FAFD42
:10568C0004A8A047044604A801F05EFD684601F09A
:10569C005BFD204608B010BD1FB50023CDE902010B
:1056AC00019210241A4669461846ADF80230ADF83E
:1056BC000040FFF7C5FD04B010BD00224068114644
:1056CC00FFF71EBE002240681146FFF729BE406856
:1056DC000022FFF71DBE4068002281F00101FFF798
:1056EC0007BE002340681A461946FFF7F9BD002390
:1056FC0040681A461946FFF7EBBD00224068114678
:10570C00FFF7DEBD002240681146FFF7C9BD4068B7
:10571C0000220221FFF7CCBD002340681A46FFF798
:10572C00B7BD0000024B03225A60024A1A60704750
:10573C0078E60320747D0B00090941EA001107EE9D
:10574C00901A9FED030AF8EEE77A87EE800A70470D
:10575C0000004844006800F0EEB810B50446016043
:10576C0002710AB1FFF7F6FF204610BD13B50446CF
:10577C00019102F047F8019A01462046FFF7EDFF30
:10578C00204602B010BD006800F0DEB82DE9FF41E4
:10579C0004460D4617461E46FFF7DCFF3622002353
:1057AC00CDE9002320680A234FF001086946CDE9B2
:1057BC00028300F0A4F82068036829469B68984788
:1057CC002068414600F0B3F8054640B16FF09F05E4
:1057DC002046FFF7D8FF284604B0BDE8F08102232D
:1057EC0020680193694600F073F80228EED1206816
:1057FC0003685B6998473870206803685B69984751
:10580C003070E5E707B500238DF806308DF80730CA
:10581C000DF106020DF107030221FFF7B7FF40B9A6
:10582C009DF807109DF8060003B05DF804EBFFF738
:10583C0083BFBFEE000A03B05DF804FB7047F8B5F8
:10584C00064615460C468F18BC4206D0336814F831
:10585C00011B9B6830469847F6E72846F8BD007C4C
:10586C000022FFF791BB007C0021FFF795BB007C69
:10587C000021FFF799BB007C0021FFF79DBB007C4A
:10588C000021FFF7A1BB10B514210446FFF7C5F8A2
:10589C00204610BD38B5044615464FF47A730022E5
:1058AC00C4E90123094B2174084623602946FFF7FC
:1058BC009BFBBF3008D16B69DB0705D56868FFF728
:1058CC004FFDE868FFF74CFD204638BDB07D0B005E
:1058DC007FB500221423CDE90122ADF804300B78FA
:1058EC008DF808304B680393CB680493007C0B7ADB
:1058FC00059301A9FFF790FB07B05DF804FB7FB59A
:10590C000023CDE901334A6803921423CA68ADF829
:10591C0004300B7804920A7A0592007C8DF80830DA
:10592C0001AA1946FFF720FB07B05DF804FB007CC9
:10593C000022FFF721BB08B50021007CFFF75CFBC0
:10594C00B0FA80F0400908BD08B50021007CFFF7D3
:10595C005BFBB0FA80F0400908BD704710B5182108
:10596C000446FFF75AF8204610BDF0B5037D062B10
:10597C008DB00E4600F104074FF0000412D000F178
:10598C00080515F8011D0A22304601F0CEFAAF4287
:10599C00044419D0002CF4D02E21304601F0C2FA68
:1059AC000444EEE72F236A4639460A208DF800405E
:1059BC00FFF73AFB6846FEF7E9FF33680246DB68FF
:1059CC00694630469847044620460DB0F0BD0000AD
:1059DC0010B5054B0446112240F8043B002101F0A0
:1059EC00AFFF204610BD00BFD87D0B000346074A11
:1059FC0010B543F8042B01F1100251F8044B43F895
:105A0C00044B9142F9D10A781A7010BDD87D0B0065
:105A1C0010B59DF8084044EA032343EA024242EAE7
:105A2C00016104234160037510BD000007B5064BEE
:105A3C000360CB7800938B784A780978FFF7E8FFFE
:105A4C0003B05DF804FB00BFD87D0B0000F1100320
:105A5C00012213F8101C0129184608D153F8041C14
:105A6C0002EB4102013A03F11003F2D17047022913
:105A7C0004BF53F8041C5218F4E70EB4F0B588B008
:105A8C0000AF07F13405102155F8042B7A60044659
:105A9C002B467818FD60FFF773FC0F287A681AD92B
:105AAC0000F1080323F007036E46ADEB030D411C18
:105ABC002B466846FD60FFF763FC021E04DD23687D
:105ACC0069469B6820469847B5462037BD46BDE8D9
:105ADC00F04003B070470028F7D0236802469B685B
:105AEC0007F1100120469847EFE738B50B680360C3
:105AFC004D6843689D42044608D015B16B6801336C
:105B0C006B60606808B1FFF75EFC656038BD07B577
:105B1C0003688DF807109B6801220DF10701984767
:105B2C0003B05DF804FB0B461146002210B5C0E92A
:105B3C000022044683600BB9204610BDFFF7D5FF49
:105B4C00FAE78368EBB11A78032A1AD8DFE802F077
:105B5C000417021B0520704702685B685268D05C12
:105B6C002D2812D0A0F13003092B0ED974280ED099
:105B7C0066280CD0A0F16E0358425841704706209D
:105B8C0070470020704704207047032070470220A4
:105B9C00704710B50446FFF7D4FF02280ED0C31E81
:105BAC00DBB2012B14D82268A36850685B68BDE88F
:105BBC0010400A220021184401F0C2BF2268A368D9
:105BCC0052685B68D05CA0F174035842584110BD18
:105BDC000020FCE738B50023C0E9003304460E482A
:105BEC00C4E90203A9B10B78032B06D08BB9136857
:105BFC0058684B68C35C6E2B07D013684D685868A7
:105C0C008B6828445B1BA060E36011462046FFF7BD
:105C1C006CFF204638BD00BF4A7E0B0038B500250E
:105C2C000B46C0E90055C0E90255C0E904550446CD
:105C3C0011464BB11A78012A06D103F11002DB6828
:105C4C0082604361FFF751FF204638BD10B54369B0
:105C5C00044663B18068E060013B1030A0602061B5
:105C6C00636113B1FFF7F2FEA060012000E018465B
:105C7C0010BD10B57D210446FFF749FF01232371A8
:105C8C00204610BD08B50379012B02D0022B04D09D
:105C9C0008BD2C21FFF73BFFFAE73A21FAE710B5D4
:105CAC000446FFF7EFFF20467B21FFF730FF002370
:105CBC002371204610BD000013B504460191FFF777
:105CCC00E1FF2368019ADB680349204698470123CA
:105CDC002046237102B010BDE47D0B0013B50446C1
:105CEC000191FFF7CFFF2368019ADB680349204637
:105CFC00984701232046237102B010BDE77D0B00AD
:105D0C002DE9F0470D46222190460446FFF7FFFE91
:105D1C00DFF8A490A8442F464745BA463DD017F863
:105D2C00016B222E06D05C2E04D0304601F0D8FD3B
:105D3C000028F1D12368AAEB05029B68294620466E
:105D4C0098475C212046FFF7E2FE0D2E0AD8072E5D
:105D5C001CD9A6F10803052B18D8DFE803F00D0FAA
:105D6C0011171315222E01D05C2E0FD1314620466F
:105D7C00FFF7CDFE3D46CFE76221F8E77421F6E749
:105D8C006E21F4E76621F2E77221F0E723683246D0
:105D9C00DB68494620469847ECE7BD4205D02368AE
:105DAC007A1B9B6829462046984722212046FFF7FC
:105DBC00AEFEBDE8F08700BFEA7D0B0013B50446CC
:105DCC00CDE90021FFF75EFF2046DDE90021FFF75A
:105DDC0097FF02232046237102B010BD13B5044671
:105DEC00CDE90021FFF74EFF2046DDE90021FFF74A
:105DFC0087FF01232046237102B010BD8068036821
:105E0C00DB6818477047084611B10B685B68184788
:105E1C007047704770477047704738B504460D4659
:105E2C0000682E2101F0CFFD2368C31A2B6023B12B
:105E3C00037803B1013023682060184638BD10B5D3
:105E4C000C210446FEF7E9FD204610BD10B50421D7
:105E5C000446FEF7E2FD204610BD10B504210446B1
:105E6C00FEF7DBFD204610BDFFF73EB808B5FEF788
:105E7C0083FDB0FA80F0400908BD704710B50C46A0
:105E8C0001F03CFB844210D001F0FCFC844205D1B3
:105E9C0001F0F8FCBDE8104001F0CBBA2CB123683E
:105EAC0020465B68BDE81040184710BD0B680360C6
:105EBC004B68436013B15A6801325A60704713B58E
:105ECC00044608460191FEF761FD01990246204601
:105EDC0002B0BDE81040FFF781BF13B50446084679
:105EEC000191FEF753FD23680199DB6802462046B9
:105EFC0002B0BDE81040184707B503688DF80710CD
:105F0C00DB6801220DF10701984703B05DF804FB33
:105F1C000A6802604A6842600022C0E9022210B599
:105F2C0002618C688460CC68C4600C698A60CA6049
:105F3C0004610A6110BD00002DE9F74FD0E900841F
:105F4C004FF0140A00930AFB04F4184BA4101746E4
:105F5C005C434546002C21DD66100AFB06F005EB80
:105F6C0000093A46B9F804B0285801915F4528BF9A
:105F7C005A4601F03AFD002801994FF001030BD16C
:105F8C005F4503D1009A13703446E3E7FCD9A61B96
:105F9C0009F11405013EF7E7F9DBF5E7A5EB080578
:105FAC000248AD10684303B0BDE8F08FCDCCCCCC2B
:105FBC007FB50369057E019103B3F9B1002600F1A9
:105FCC000C04039603A901A8FFF727FF0146A8B10B
:105FDC000DF10B03039A8DF80B602046FFF7ACFF15
:105FEC009DF80B3053B12368142404FB003408349F
:105FFC0034F9023C002BA8BFDDB2E3E7284604B01D
:10600C0070BD0EB4F0B58CB000AF07F1440504467A
:10601C0055F8042B7A602B46202107F11000FD6007
:10602C00FFF7AEF91F287A681AD900F1080323F09C
:10603C0007036E46ADEB030D411C2B466846FD6015
:10604C00FFF79EF9021E04DD23686946DB682046D3
:10605C009847B5463037BD46BDE8F04003B07047B1
:10606C000028F7D023680246DB6807F110012046B0
:10607C009847EFE710B5094C2378BFF35B8FDB072C
:10608C0009D42046FEF7D8FC28B12046FEF7D9FCEF
:10609C00034801F01FFC034810BD00BF84E6032039
:1060AC001F5E0B0084E5032010B5094C2378BFF369
:1060BC005B8FDB0709D42046FEF7BEFC28B12046D7
:1060CC00FEF7BFFC034801F005FC034810BD00BF00
:1060DC0088E60320875E0B0088E5032038B5002591
:1060EC000446C0E90055C0E904558560856140F857
:1060FC00245FFEF7E9FEFFF7BDFFE061FFF7D4FF79
:10610C0025732062204638BD10B50A4C2378BFF3A6
:10611C005B8FDB070CD42046FEF78EFC40B10648A3
:10612C00FFF7DCFF2046FEF78CFC044801F0D2FBA5
:10613C00014810BD80E6032090E6032069660B0041
:10614C00024A034903480023FFF73EB84D640B0095
:10615C00D9630B0059630B0000231A4619461846E5
:10616C00FFF732B837B58D6804466846FFF79EFED8
:10617C006A4629462046FFF751FD01A8FFF749F969
:10618C00204603B030BD37B5CD6804466846FFF7EE
:10619C008DFE6A4629462046FFF71CFD01A8FFF735
:1061AC0038F9204603B030BD37B50D690446684652
:1061BC00FFF77CFE6A4629462046FFF7B4FC01A88F
:1061CC00FFF727F9204603B030BD000070B58AB048
:1061DC000D46014604A8FFF7C5FF144E04A8FFF7AF
:1061EC0035FDE8B104A96846FFF7CDFF02983146AA
:1061FC00FFF73CFE044610B12C1E18BF012401A869
:10620C00FFF707F9002CE9D004A96846FFF7CCFF8B
:10621C006846FFF7BEFC286001A8FFF7FAF8DDE737
:10622C0005A8FFF7F6F80AB070BD00BFF07D0B00B3
:10623C0037B50C46204613491546FEF79DFB50B961
:10624C0001F05CF94FF4165101F048F903B0BDE8C8
:10625C00304001F053B90C492046FEF78DFB78B95C
:10626C004FF4165301A928460193FFF7AFFF01F035
:10627C0009FB019901F0DAF801F004FB03B030BD21
:10628C000020FBE7F57D0B00FC7D0B0070B5D0E921
:10629C0000531426044606FB0356AE4205D005F106
:1062AC000800FFF7F3FF1435F7E72068FFF758F8FD
:1062BC00204670BD10B504460C30FFF7E7FF2046B2
:1062CC00FFF795F8204610BD10B5044B044640F876
:1062DC00043BFFF7EFFF204610BD00BFCC7C0B004A
:1062EC0010B50446FFF7F0FF20462421FEF795FB7E
:1062FC00204610BD10B5034B03600446FFF7E4FFC6
:10630C00204610BD9C7E0B0010B50446FFF7F2FF33
:10631C0020462421FEF781FB204610BD0022C0E957
:10632C00002210B582600C6804604C6844608C6874
:10633C000A604A6084608A6010BD10B50368044628
:10634C001868FEF7D9FD204610BD00002DE9F04F6E
:10635C0087B0804603931C4B5B68C3F308038946E4
:10636C0016466BB9FFF7D0FE044600F12403406AD1
:10637C000593FFF779FD237B2BB105A8FFF7DDFF14
:10638C0007B0BDE8F08F01232373D4E900535FFA03
:10639C0089F905EB830AAA4512D055F8047B3146DE
:1063AC00381DFFF705FE8145F5D33B68039A009233
:1063BC00D3F808B04A46334641463846D847EAE750
:1063CC0000232373D9E700BF00ED00E02DE9F74F60
:1063DC009B461A4B5B68C3F30803804689461646F6
:1063EC006BB9FFF791FE044600F12403406A019358
:1063FC00FFF73AFD237B2BB101A8FFF79EFF03B0FB
:10640C00BDE8F08F01232373D4E90053F6B205EBFA
:10641C00830A55450ED055F8047B5946381DFFF7B5
:10642C00C7FD8642F5D33B684A46DB684146384691
:10643C009847EEE700232373DEE700BF00ED00E092
:10644C002DE9F341164B5B68C3F3080305460F4671
:10645C001BBBFFF759FE00F124030446406A01936D
:10646C00FFF702FDD4E90063462406EB8308B04530
:10647C0009D101A8FFF761FFA542B4BF002001209C
:10648C0002B0BDE8F08156F8040B39460430FFF732
:10649C008FFD8442A8BF0446E9E70020F0E700BF67
:1064AC0000ED00E0F8B5D0E901539D4204460E46DC
:1064BC000DDB6F1C002F006804DDB900FEF758FFE0
:1064CC0018B9F8BDFEF74CFF00202060A7602768C4
:1064DC00626807EB85019200A2EB8502081D01F0B2
:1064EC0015FA47F825606368013363600120E8E71B
:1064FC0037B500F124030446406A01930D46FFF7BB
:10650C00B3FCD4E9003203EB8202934219460BD060
:10651C000968A94203F10403F7D101A8FFF70DFFA5
:10652C000025284603B030BD29462046FFF7BAFFA8
:10653C0005460028F1D06368012B01D1FFF700FE5E
:10654C0001A8FFF7FAFEECE770B50446D0E90002AB
:10655C000B4600EB820282420FD001461D6851F8B7
:10656C00046BAE4207D1521A01F0D0F96368013BBB
:10657C006360012070BD0846EDE70020FAE71FB507
:10658C0000F124030446406A01910393FFF76CFC6D
:10659C0001A92046FFF7D8FF18B163680BB9FFF7C4
:1065AC00DBFD03A8FFF7C9FE04B010BD70B5D0E940
:1065BC0004561823044603FB0656AE4215D005F1CB
:1065CC0010012046FFF7C0FF63680BB9FFF7C4FD4D
:1065DC00E06929690368DB689847696919B1206A21
:1065EC000368DB6898471835E7E7D4E904531826A5
:1065FC0006FB0356AE4204D0284600F0A5FD183524
:10660C00F8E70023636170BD73B50446FFF7A4FD82
:10661C0004F12403606A0193FFF726FC2046FFF780
:10662C00C5FF01A8FFF789FE606A08B1FEF754FCAC
:10663C00D4E90453182606FB0356AE4204D0284670
:10664C0000F082FD1835F8E72069FEF789FE206816
:10665C00FEF786FE204602B070BD00000148FFF731
:10666C00D3BF00BF90E603208842F8B504460D4620
:10667C00164615D9904214D2A2F11406751AA1F13E
:10668C0014072C44B7421AD01CB131462046FFF7F0
:10669C003FFC06F10800FFF7F9FD143E143CF1E74E
:1066AC000DD0B5420BD01CB129462046FFF730FC6B
:1066BC0005F10800FFF7EAFD14351434F1E7F8BDD5
:1066CC008842F8B504460D46164614D9904213D2AA
:1066DC00A2F11006751AA1F110072C44B74218D07C
:1066EC001CB13146204600F0ABFD304600F02CFDCD
:1066FC00103E103CF2E70CD0B5420AD01CB1294632
:10670C00204600F09DFD284600F01EFD103510348B
:10671C00F2E7F8BD70B50E1E054611DD3001FEF72F
:10672C0017FE044658B1D5E9001201EB0212FFF72F
:10673C00C7FF2868FEF714FE2C60AE60012070BD08
:10674C000024F6E72DE9F04F904695B00023039115
:10675C00D8F804100A9346229942C0E90033C0E9E4
:10676C000233C0E90433CDE908330446027623DC56
:10677C00D8E90057142303FB0757AF423BD02946F7
:10678C000BA800F05DFD0BA90FA8099E00F058FDA9
:10679C00DDE9091399421BDA089B099A03EB0616EB
:1067AC0003EB0212314606F11000FFF789FFEEB938
:1067BC00099B0133099311E008A8FFF7ABFF0028F0
:1067CC00D6D108A8FEF713FE204615B0BDE8F08F11
:1067DC00013108A8FFF79EFF0028DDD10FA800F0BB
:1067EC00B3FC0BA800F0B0FC1435C6E70FA930467B
:1067FC0000F026FDDCE70026CDE90B660D964FF088
:10680C001409DDE908239E427CDA3301D358069340
:10681C000BB90136F5E70023079309FB06F3029346
:10682C000BAD07A906A8FFF7F8FA82460028F0D0AE
:10683C004FF000038DF817300146079A0DF117033E
:10684C002846FFF779FB9DF817700190002F4AD16D
:10685C00BDF81C30ADF84030CDE911774FF6FF7321
:10686C00CDF83CA0ADF842301397D5E901329342F4
:10687C0017DB03F1010ABAF1000F30DD09FB0AF056
:10688C00FEF766FD834660B3D5E9001209FB0212E0
:10689C00FFF7EAFE2868FEF763FDC5F800B0C5F8FF
:1068AC0008A02B68019A09FB023A6A68514609FB59
:1068BC0002320AF11400FFF7D7FEBAF1000F03D031
:1068CC000FA95046FFF724FB6B6801336B6011A8CE
:1068DC00FFF7DCFC3FB10BA8FFF7D8FC71E7BB4618
:1068EC00D8E70127F3E7019B2D6809FB0355069BAD
:1068FC001B782BB9D8F80030029A13441B7CEB8020
:10690C0008358EE72168226062686360A36809928B
:10691C000A9A0A93E368A2600B9A0B932369E260CC
:10692C000C9A0C93636922610D9A0D93039B089149
:10693C0062612376CFE70000F0B5044687B00D46C0
:10694C002646194668461746FEF721FA0B4B46F8C1
:10695C00043B694603A8FEF71AFA03AA39463046E7
:10696C00FFF7F0FE03A8FEF7D1F96846FEF7CEF963
:10697C00034B23602046256207B0F0BDCC7C0B0096
:10698C00847E0B00F0B50F4685B01D490A9C384635
:10699C0016461D46FDF7F0FFC0B9A4B1294601A863
:1069AC00FFF7BCFC1749242000F090FF054630B1DE
:1069BC0001AB32462146FFF7BFFF134B2B6001A8FA
:1069CC00FEF7A4F92C46204605B0F0BD0F49384619
:1069DC00FDF7D2FF90B9002CF5D0294601A8FFF79E
:1069EC009DFC0849242000F071FF05460028E6D0E4
:1069FC0001AB32462146FFF79FFFE0E70024E2E7B8
:106A0C00047E0B00BC7F0B009C7E0B00087E0B00F1
:106A1C00014B024A1A6070478CE60320197E0B006A
:106A2C002DE9F047089DD0F8209004460E461746F5
:106A3C00984600F063FD81454CD02B79190704D59D
:106A4C006A6954492046FFF7DCFAB8F1000F0DD003
:106A5C005B212046FFF750FA41462046FFF73DFAEE
:106A6C0023684D49DB680222204698472B79DA07C8
:106A7C0023D5D5F808802F21404600F0CAFF08B175
:106A8C0000F1010841462046FFF727FA2B799B07B6
:106A9C0008D53A212046FFF72FFAEA683F492046ED
:106AAC00FFF7AFFA2A79236812F0040FDB6814BFE2
:106ABC003B493C490222204698472B7958071DD563
:106ACC0029690B461A4613F8010B60B1202808D12E
:106ADC001946F7E7344800F082F90028ADD0BDE83C
:106AEC00F0872828EED12368521ADB682046984795
:106AFC0023682E49DB68042220469847002138463B
:106B0C00FEF75AFB01462046FFF7E7F923682549B3
:106B1C00DB680222204698471EB131462046FFF71B
:106B2C00DCF92B7913F0300F2CD023682049DB686B
:106B3C000222204698472B79D9060AD523681D498D
:106B4C00DB68072220469847AA691B492046FFF7B5
:106B5C0058FA2B799A0611D5DB0605D5236810490E
:106B6C00DB6802222046984723681449DB682046DC
:106B7C000A229847E9692046FFF7AFF95D212046C4
:106B8C00FFF7BAF923680E49DB6820460222BDE8FC
:106B9C00F04718471D7E0B00247E0B00E47D0B0094
:106BAC00277E0B002C7E0B00B8E603202A7E0B0000
:106BBC002F7E0B00327E0B003A7E0B003D7E0B00CD
:106BCC00487E0B002DE9F0410446076A0D46164637
:106BDC0000F094FC874207D0206A036832462946AD
:106BEC00DB68BDE8F0411847034800F0F8F80028CE
:106BFC00F2D0BDE8F08100BFB8E603202DE9F043E8
:106C0C0085B0D0F820900C9C05460F4690461E4649
:106C1C0000F074FC814505D1494800F0E0F80028EB
:106C2C0040F08A802B6A474A01924FF0000901A874
:106C3C0003938DF80890FFF732F849464046FEF76B
:106C4C00BBFA41498046012201A8FFF7B7F841463B
:106C5C00FFF735F93FB13D49012201A8FFF7AEF826
:106C6C003946FFF72CF93EB13949012201A8FFF74B
:106C7C00A5F83146FFF723F92379DF070ED5A6686F
:106C8C002F21304600F0C5FE00B1461C31490122CF
:106C9C0001A8FFF793F83146FFF711F923799E0706
:106CAC0007D52D49022201A8FFF788F8E168FFF704
:106CBC0003F82379580714D5266933461F4613F871
:106CCC00012B2AB1202A01D11E46F7E7282AF5D13B
:106CDC002249022201A8FFF771F8BA1B3146FFF7CF
:106CEC007DF82379190707D51D49012201A8FFF763
:106CFC0065F86169FEF7F2FF2379DA0608D50422FC
:106D0C0018490DEB0200FFF759F8A169FEF7D4FF03
:106D1C0023799B0607D51449062201A8FFF74EF8E4
:106D2C00E169FFF7CCF801A8FEF7A3FF286A0F4929
:106D3C0003680222DB68984705B0BDE8F08300BF0A
:106D4C00B8E603206C7E0B00FA7D0B004B7E0B002B
:106D5C002B800B00C27C0B004D7E0B00507E0B0079
:106D6C00537E0B00557E0B005A7E0B00487E0B00A9
:106D7C00002340681A46FEF78BBA406800220221B5
:106D8C00FEF796BA002240681146FEF789BA002237
:106D9C0040681146FEF794BA002340681A4619461B
:106DAC00FEF796BA002340681A461946FEF798BAC1
:106DBC0040680021FEF7BCBA40680021FEF7C0BA5B
:106DCC004068002281F00101FEF792BA406800226F
:106DDC00FEF79EBA002240681146FEF7A1BA0022C7
:106DEC0040681146FEF78CBA2DE9F04395B0144675
:106DFC000D460746FEF7ECFD00211C220DA8009164
:106E0C0000F09EFD40230C9320466B460CAA0021FB
:106E1C00FEF71AF9044600284BD102460121686896
:106E2C00FEF74EFA0221804622466868FEF748FAC1
:106E3C00009E81462146002E3BD0002939D1736833
:106E4C00022B03D00A2B11D0F669F4E7B8F1000F2E
:106E5C00FAD0716906A8043107ADFEF7E7FD0FCD36
:106E6C003C1D0FC42B6823704146EDE7B9F1000FB0
:106E7C00EAD07469102201A800F062FD06238DF897
:106E8C00143001AD04F108031834186859682A4607
:106E9C0003C20833A3421546F7D101A906A807ADD2
:106EAC00FEF7A4FD0FCD3C1D0FC42B682370494683
:106EBC00CAE70098FEF7C0F8384615B0BDE8F08375
:106ECC00024B034A1A6000225A607047B8E603204E
:106EDC00E47E0B00F8B506460D468F180024BD4223
:106EEC000CD0336815F8011B9B6830469847031E7D
:106EFC0001DB1C44F3E7002C08BF1C462046F8BD00
:106F0C0013B50446084659B10191FDF73FFD2368BE
:106F1C000199DB680246204602B0BDE810401847D4
:106F2C0002B010BD03689B68184730B58BB00023C6
:106F3C00012A8DF8243098BF0A2209AC0D46B1FB0A
:106F4C00F2F101FB125303F0FF03092B94BF303312
:106F5C003733DBB2AA4204F8013DEFD92146FFF7E3
:106F6C00CFFF0BB030BD00002DE9F74F55EC104BA7
:106F7C0006460F4610EE102A10EE100A2B46294634
:106F8C00FDF79CFC40B153493046FFF7B9FF8246F0
:106F9C00504603B0BDE8F08F25F000494E4B4FF042
:106FAC00FF3220464946FDF789FC48B94A4B4FF061
:106FBC00FF3220464946FDF763FC08B94749E3E731
:106FCC00474B4FF0604220462946FDF76DFC08B157
:106FDC004449D9E7444B4FF0604220462946FDF71F
:106FEC0045FC0028F4D10022002320462946FDF759
:106FFC003DFCD0B12D213046FFF794FF05F1004345
:10700C0082461D463949DFF8EC904FF0000B00200A
:10701C004FF000085FFA8BF39F4208D942464B466B
:10702C00FDF7DCFA0BF1010BF4E78246EAE72246A6
:10703C002B46FCF7F3FF0D460446FDF77DFC80461E
:10704C00FDF728F902460B4620462946FCF7E4FFDB
:10705C000A2204460D4630464146FFF766FF82443D
:10706C00002F95D02249DFF88C903046FFF748FF6F
:10707C004FF000088244002F8AD042464B462046EF
:10708C002946FDF781F904460D46FDF72DFCB0F1BC
:10709C00000B1CDA2D213046FFF744FFCBF1000129
:1070AC0003460A2230460193FFF73FFF019B184429
:1070BC0082445846FDF7FEF802460B462046294608
:1070CC00FCF7AAFF013F04460D46FFB2D3E7594631
:1070DC000023E6E7187F0B00FFFFEF7F1C7F0B0000
:1070EC00FFFFEF41207F0B00FFFFEFC10000E03FEF
:1070FC00247F0B000000244038B5044610EE100A23
:10710C00CDB2FDF7E9F841EC100B29462046BDE85D
:10711C003840FFF729BF0000014B00229A607047EE
:10712C00C0E6032010B5044608462170FDF794FF15
:10713C0000236360204610BD704710B50C21044637
:10714C00FDF76BFC204610BD10B504460068FEF739
:10715C0007F9204610BD10B50446006808B1FEF7CB
:10716C00FFF80023C4E90133236010BD38B5044691
:10717C000D4600680131FEF7FBF810B1C4E90005BB
:10718C00012038BD10B50368044623B143688B4217
:10719C0001D3012010BD2046FFF7E8FF0028F9D0ED
:1071AC00A368002BF5D122681370F2E737B50D46B2
:1071BC00114601920446FFF7E5FF019A28B92046D3
:1071CC00FFF7C9FF204603B030BDA26029462068F6
:1071DC0000F08EFB2268A3680021D154F2E7002353
:1071EC0013B5C0E9003304468360037341B108460C
:1071FC000191FDF7CBFB019902462046FFF7D6FF24
:10720C00204602B010BD38B5054600680C4668B182
:10721C006A688B689A4207D3096800F0DEFBA368A2
:10722C00AB600023A36038BDFEF79AF823682B608F
:10723C0063686B60A368AB600023C4E90033F1E7BB
:10724C0010B50023C0E90033044683600373FFF7D5
:10725C00DAFF204610BD884210B5044605D00B68F5
:10726C002BB18A681946FFF7A1FF204610BDFFF726
:10727C0072FFFAE710B500230446C0E900338360BF
:10728C000373FFF7E8FF204610BD70B505460E46A8
:10729C0009B9002070BD6AB1846814442146FFF717
:1072AC0071FF0028F5D02868AB683146184400F00F
:1072BC0094FBAC600120EDE738B504468068856826
:1072CC00FFF7E3FFA3689868401B38BD07B50023A0
:1072DC008DF80410012201A98DF80530FFF7D5FFB8
:1072EC0003B05DF804FB08B58068FFF7EFFF08BD3D
:1072FC0008B582683AB921B10878B0FA80F0400933
:10730C0000E0012008BD006809B90078F5E7FDF739
:10731C0033FBF2E730B585B000230D460293C0E98C
:10732C000033836003731421064B019304460390CE
:10733C00FFF728FF2B6801A91B68284698472046B1
:10734C0005B030BD307F0B00054B02221A60054B97
:10735C00054A9A600020C3E90000FDF73DBF00BF5D
:10736C00DCE60320D0E603200000FFFF024B1A6886
:10737C00024B1A60704700BF8CE50320E0E6032047
:10738C0070474174704708B5007CFDF7ADFE20EAEC
:10739C00E07008BD08B5007CFDF77EFE20EAE070C9
:1073AC0008BD08B5007CFDF787FE40EAE07008BD1B
:1073BC0008B5007CFDF778FE40EAE07008BD007C63
:1073CC00FDF782BE37B5457C04462DB1207C03B059
:1073DC00BDE83040FDF758BE007C0191FDF784FEFE
:1073EC0000280199F2DC284603B030BD10B51421F9
:1073FC000446FDF712FB204610BD000010B54FF4FB
:10740C007A730446084611460022C4E90123044B52
:10741C002360012320746374FDF776FE204610BDB3
:10742C00647F0B00007C0023FDF766BE0022FFF793
:10743C00F9BF007CFDF720BE417470477047704760
:10744C0008B50021007CFDF78FFE40EAE07008BD16
:10745C0008B50121007CFDF787FE40EAE07008BD0D
:10746C0008B5007CFDF778FE20EAE07008BD08B591
:10747C00007CFDF769FE20EAE07008BD13B50446F8
:10748C00007C0191FDF768FE0028019901DC607C0D
:10749C0020B1207CFDF770FE20EAE07002B010BD38
:1074AC00007CFDF771BE10B514210446FDF7B5FA4A
:1074BC00204610BD10B54FF47A73044608460021DF
:1074CC00C4E90113044B2360012320746374114637
:1074DC00FDF722FE204610BD947F0B00007C00229D
:1074EC00FDF722BE007CFDF727BE10B51422044622
:1074FC00002100F025FA204610BD000010B50F4CFD
:10750C0088B003A8FFF7F1FF2178BFF35B8F11F070
:10751C0001010FD120460191FDF78EFA019948B176
:10752C0003AA0748FFF7C6FF2046FDF78AFA05486D
:10753C0000F0D0F9024808B010BD00BFE4E603200B
:10754C00E8E6032049740B00014B1860704700BF3C
:10755C0090E5032008B50B4B43B1FFF7CFFF036851
:10756C001B699847002801DDAFF30080064B43B13F
:10757C0000F088F903681B699847002801DDAFF318
:10758C00008008BD000000000000000008B5FFF7F7
:10759C00E1FFFDF7C9FC014B186008BD10E70320A3
:1075AC000548064A064908B5121A00F0A1F9054B20
:1075BC00054A1A6008BD00BF00F4032004F4032040
:1075CC00F0810B0000F403201E1C279A07B5002342
:1075DC0000931A466FF07701FDF720FE03B05DF8BB
:1075EC0004FB000007B543880A2B08D0502B0BD1A5
:1075FC00094B1B684BB103B05DF804EB1847FFF760
:10760C00E5FF03B05DF804FB002300931A466FF00E
:10761C007701FDF703FEF4E700E7032010B51248ED
:10762C000021FDF7C5FE114B1A68114B9A42114B04
:10763C000CBF012200221A7001D0FFF7B1FFFDF739
:10764C0063FC044600F084F90B4B13B12046AFF3F6
:10765C00008000210848FDF70BFEBDE810400748EC
:10766C000021FDF7D1BD00BF55750B0000F40320C0
:10767C001E1C279AFCE6032000000000F1750B008D
:10768C00232813B502D9002002B010BDA0F10B03C2
:10769C00022B1AD8174C2178BFF35B8F11F0010124
:1076AC000BD120460191FDF7C7F9019928B1124879
:1076BC00FFF738FD2046FDF7C4F90F4B1878FDF79E
:1076CC00D3FC0028DFD10120DEE7012809D800F027
:1076DC0075F80021007CFDF77FFC80F00100C0B242
:1076EC00D2E709380128EED800F0CCF8007CFDF781
:1076FC00F3FCF2E704E7032008E70320232838B55E
:10770C0004460D460AD8FF2908D0FFF7B9FF28B167
:10771C0029462046BDE83840FDF70EBC38BD38B5CB
:10772C0004460D46FDF710FCFF2810D0062804D89F
:10773C004D2323FA00F0C30709D42046FFF7A0FF1E
:10774C0028B129462046BDE83840FDF705BC38BDB8
:10775C007047704738B50A4B0360012304464361F8
:10776C000849202000F0B4F8202560600549A56088
:10777C00284600F0ADF8C4E90305204638BD00BF2B
:10778C0018000100BC7F0B0038B50A4B03600123C5
:10779C00044643610849202000F09AF820256060D7
:1077AC000549A560284600F093F8C4E90305204676
:1077BC0038BD00BF18000100BC7F0B0030B50E4D6A
:1077CC002978BFF35B8F11F0010487B011D12846E3
:1077DC00FDF732F968B16846FFF7BCFF6A462146EF
:1077EC000648FEF757F82846FDF72BF9044800F039
:1077FC0071F8024807B030BD14E703201CE70320E2
:10780C005D770B0010B50E4C2378BFF35B8FDB0755
:10781C0086B011D42046FDF70FF968B16846FFF722
:10782C00B3FF6A4601210748FEF734F82046FDF7FE
:10783C0008F9054800F04EF8024806B010BD00BF2C
:10784C0018E7032030E703205F770B007047000038
:10785C0038B5044614252A46002100F071F825801D
:10786C004025074925812846258200F031F8044936
:10787C006060284600F02CF8E060204638BD00BF60
:10788C00BC7F0B0030B50E4D2978BFF35B8F11F028
:10789C00010487B011D12846FDF7CEF868B101A8D4
:1078AC00FFF7D6FF01AA21460648FFF7A7FD284699
:1078BC00FDF7C7F8044800F00DF8024807B030BDDA
:1078CC0044E7032048E7032059780B00FDF7A1B8E3
:1078DC00FDF7A1B8002301461A46184600F03AB944
:1078EC00024B1844407800F0970070472D800B0035
:1078FC000A44914200F1FF3300D1704710B511F8E2
:10790C00014B03F8014F9142F9D110BD884210B5DB
:10791C0001EB020402D98442234607D8431EA1423C
:10792C0008D011F8012B03F8012FF8E702440146A7
:10793C008A4200D110BD13F8014D02F8014DF7E752
:10794C0002440346934200D1704703F8011BF9E748
:10795C0038B5104B1D68AB6B0446B3B91820FDF756
:10796C00F7FC0246A86320B90B4B0C484221FDF7EB
:10797C0017FD0B490B4BC0E900130B4B83600B231A
:10798C00838100210120C2E90401AB6B00221C6140
:10799C005A6138BD90E50320BD7F0B00D47F0B00EE
:1079AC000E33CDAB34126DE6ECDE0500C9B20346E6
:1079BC0010F8012B1AB18A42F9D1184670470029E8
:1079CC0018BF0023F9E710B50446FFF7EFFF18B90D
:1079DC002046FCF7DBFF204410BD034611F8012BB9
:1079EC0003F8012B002AF9D1704710B57AB1034680
:1079FC000139841813F8010B11F8012F904201D1B1
:107A0C00A34201D1801A10BD0028F3D1FAE7104629
:107A1C00F9E738B503460C4669B9BDE83840FFF7BD
:107A2C00C5BF431C054621461846FFF7BFFF00287B
:107A3C00F7D1284638BD0025F5E70000012B2DE9CC
:107A4C00F04701D0242B06D9FDF7A2FC16230360C6
:107A5C000020BDE8F087DFF8E4C00D462E4615F88F
:107A6C00014B14F80C7017F00807F7D12D2C32D1FC
:107A7C002C780127B51C002B5BD0102B09D1302C96
:107A8C0007D12C7804F0DF04582C4DD16C781023DE
:107A9C00023507F1004808F1FF384FF0000CB8FB35
:107AAC00F3F9664603FB198AA4F1300EBEF1090FF7
:107ABC0016D87446A34224DDBCF1000F1EDBB14581
:107ACC001CD301D1A24519DB06FB03464FF0010C78
:107ADC0015F8014BE8E72B2C04BF2C78B51CCAE732
:107AEC00A4F1410EBEF1190F01D8373CE2E7A4F125
:107AFC00610EBEF1190F04D8573CDBE74FF0FF3C89
:107B0C00E6E7BCF1000F05DA22230360464642B9D2
:107B1C0030469EE707B17642002AF9D0BCF1000F3F
:107B2C0000D0691E1160F3E73024002BB1D108237B
:107B3C00AFE7302CA5D00A23ABE700BF2E800B009B
:107B4C0013460A46014602480068FFF777BF00BF9C
:107B5C0090E503202DE9F843DFF8B8800646D8F805
:107B6C0000001F460D46914600F056F8254B1C6848
:107B7C0034B9254C1C60254B13B11B68C4F88830F4
:107B8C0063681F2B07DDD8F8000000F047F84FF0B2
:107B9C00FF30BDE8F8834EB3D4F8880088B91C4B8D
:107BAC0023B9D8F8000000F038F8F0E74FF48470EF
:107BBC00FDF7CEFB0028F4D00023C0E94033C4F815
:107BCC008800636840F8239001229A4000EB8301FF
:107BDC00D0F800311343C0F80031022EC1F8807088
:107BEC0002BFD0F804311343C0F804316368D8F8ED
:107BFC0000005A1C0233626044F8235000F00EF867
:107C0C000020C6E7E8E703205CE703200000000043
:107C1C005D530B00F4E5032070477047704700007C
:107C2C00A9490B00E5490B000D4A0B00114A0B004A
:107C3C000000000043616C6C206F6E2070757265E3
:107C4C00207669727475616C006F6E006F666600E9
:107C5C006465627567006C65640043656C6C756C7B
:107C6C006172207265616479206174207374617231
:107C7C007475703A20256620737472656E6774682B
:107C8C0020616E64202566207175616C69747900C1
:107C9C006C6F63616C49503A2025730043757272A6
:107CAC00656E74206261747465727920766F6C7481
:107CBC006167653A202566000000000000000000A6
:107CCC0000000000000000002D4A0B00554A0B007C
:107CDC000000000000000000854A0B00B94A0B00B0
:107CEC002D6A0B00D16B0B0000000000000000009F
:107CFC009F540B0095540B008B540B0041540B00FC
:107D0C007F540B0073540B00BD6D0B00C56D0B0045
:107D1C0067540B005F540B0055540B004B540B0075
:107D2C00F56D0B0000000000000000002D550B004D
:107D3C0091550B002F550B00A1550B00D5550B0081
:107D4C0001560B0035560B0055550B0033550B00E7
:107D5C004F550B00FCFFFFFF0000000089550B0086
:107D6C00000000000000000025570B001B570B0003
:107D7C0011570B0007570B00FB560B00EF560B006F
:107D8C00BD6D0B00C56D0B00E3560B00DB560B00F5
:107D9C00D1560B00C7560B00F56D0B000000000010
:107DAC000000000049580B0093580B006B580B0057
:107DBC004B580B0073580B007B580B0083580B006F
:107DCC008B580B00000000000000000077590B00DE
:107DDC0067590B0069590B00256400257500752542
:107DEC0030347800626175640053657269616C00AF
:107DFC0053657269616C31004A534F4E537472650E
:107E0C00616D4C6F6748616E646C65720061707077
:107E1C0000253031307520005D20002C20002829F1
:107E2C003A2000205B00636F6465203D20002569CB
:107E3C000064657461696C73203D20000D0A006D4F
:107E4C00006C6E00666E007400636F6465006465A0
:107E5C007461696C0000000000000000000000006C
:107E6C00255E0B004B5E0B00095E0B00875A0B0066
:107E7C000000000000000000D5620B00ED620B005A
:107E8C002D6A0B00D16B0B000000000000000000FD
:107E9C0001630B0015630B00096C0B00115E0B00EA
:107EAC000000000000000000235E0B00595E0B0078
:107EBC0091690B00135E0B00000000000000000035
:107ECC00215E0B00675E0B003D620B00895E0B00B0
:107EDC0000000000000000007D6D0B00876D0B00A2
:107EEC00916D0B009B6D0B00A56D0B00B16D0B0024
:107EFC00BD6D0B00C56D0B00CD6D0B00D96D0B006E
:107F0C00E16D0B00EB6D0B00F56D0B006E616E00FF
:107F1C00696E66006F7666002E000000000000009F
:107F2C000000000045710B0047710B00F3720B0051
:107F3C00C5720B0025592D256D2D25645425483A05
:107F4C00254D3A2553257A0061736374696D65007C
:107F5C0000000000000000008D730B00F9730B0093
:107F6C00D1730B00E16E0B00A1730B00BD730B0002
:107F7C00AF730B00CB730B008F730B0093730B0061
:107F8C0000000000000000004B740B00B3740B00E9
:107F9C0089740B00E16E0B007B740B004D740B00AD
:107FAC005D740B00AD740B006D740B0045740B000D
:107FBC00005245454E54206D616C6C6F6320737597
:107FCC0063636565646564002F746D702F6A656EFC
:107FDC006B696E732D4743432D31302D706970657D
:107FEC006C696E652D34385F323032303131323459
:107FFC005F313630363138303633392F7372632F68
:10800C006E65776C69622F6E65776C69622F6C692F
:10801C0062632F7374646C69622F72616E642E6379
:10802C00000020202020202020202028282828285C
:10803C002020202020202020202020202020202034
:10804C00202088101010101010101010101010108C
:10805C00101004040404040404040404101010108C
:10806C001010104141414141410101010101010147
:10807C0001010101010101010101010101101010B7
:10808C00101010424242424242020202020202021A
:10809C00020202020202020202020202021010108A
:1080AC001020000000000000000000000000000094
:1080BC0000000000000000000000000000000000B4
:1080CC0000000000000000000000000000000000A4
:1080DC000000000000000000000000000000000094
:1080EC000000000000000000000000000000000084
:1080FC000000000000000000000000000000000074
:10810C000000000000000000000000000000000063
:10811C000000000000000000000000000000000053
:10812C0000000000014E0B0031540B00FD540B00FD
:10813C0031570B001D6A0B00CD6E0B0025710B0027
:08814C0055730B0079730B0061
:10815400040000001400000003000000474E550016
:108164009769C080D3741CD9C42447BCFD747F6D47
:04817400428EA14C4A
:1081780005000000B47E0B00CC7E0B00547F0B0082
:1081880094E503200000000000000000000000004B
:1081980000000000000000000000000000000000D7
:1081A80000000000000000000000000000000000C7
:1081B80000000000000000000000000000000000B7
:1081C80000000000000000000000000000000000A7
:1081D8000000000000000000000000000000000097
:0881E80000000000ECE7032099
:0481F000000000008B
:1081FA0000000102030405060708090A0B0C0D0E0C
:10820A000F101112131415161718191A1B1C1D1EFC
:04821A001F202800F9
:04821E007856341248
:04000003B000401CED
:00000001FF
