:02000002B0004C
:1040000000400B00567F0B00000006000D0005026B
:0840100004015014000000003F
:0440180074790B00AC
:10401C0081F0004102E000BF83F0004330B54FEA6D
:10402C0041044FEA430594EA050F08BF90EA020FDA
:10403C001FBF54EA000C55EA020C7FEA645C7FEA6D
:10404C00655C00F0E2804FEA5454D4EB5555B8BF90
:10405C006D420CDD2C4480EA020281EA030382EA01
:10406C00000083EA010180EA020281EA0303362D93
:10407C0088BF30BD11F0004F4FEA01314FF4801C66
:10408C004CEA113102D0404261EB410113F0004F78
:10409C004FEA03334CEA133302D0524263EB43032F
:1040AC0094EA050F00F0A780A4F10104D5F1200ECD
:1040BC000DDB02FA0EFC22FA05F2801841F1000128
:1040CC0003FA0EF2801843FA05F359410EE0A5F1FC
:1040DC0020050EF1200E012A03FA0EFC28BF4CF02D
:1040EC00020C43FA05F3C01851EBE37101F00045E3
:1040FC0007D54FF0000EDCF1000C7EEB00006EEBF0
:10410C000101B1F5801F1BD3B1F5001F0CD3490879
:10411C005FEA30004FEA3C0C04F101044FEA4452D0
:10412C0012F5800F80F09A80BCF1004F08BF5FEA57
:10413C00500C50F1000041EB045141EA050130BD37
:10414C005FEA4C0C404141EB0101013C28BFB1F549
:10415C00801FE9D291F0000F04BF01460020B1FA94
:10416C0081F308BF2033A3F10B03B3F120020CDA67
:10417C000C3208DD02F1140CC2F10C0201FA0CF045
:10418C0021FA02F10CE002F11402D8BFC2F1200CAA
:10419C0001FA02F120FA0CFCDCBF41EA0C01904060
:1041AC00E41AA2BF01EB0451294330BD6FEA0404A9
:1041BC001F3C1CDA0C340EDC04F11404C4F1200294
:1041CC0020FA04F001FA02F340EA030021FA04F3A6
:1041DC0045EA030130BDC4F10C04C4F1200220FAFD
:1041EC0002F001FA04F340EA0300294630BD21FA3B
:1041FC0004F0294630BD94F0000F83F4801306BF01
:10420C0081F480110134013D4EE77FEA645C18BFF4
:10421C007FEA655C29D094EA050F08BF90EA020F8B
:10422C0005D054EA000C04BF1946104630BD91EA83
:10423C00030F1EBF0021002030BD5FEA545C05D186
:10424C004000494128BF41F0004130BD14F58004C5
:10425C003CBF01F5801130BD01F0004545F0FE4139
:10426C0041F470014FF0000030BD7FEA645C1ABF6E
:10427C00194610467FEA655C1CBF0B46024650EAA5
:10428C00013406BF52EA033591EA030F41F40021D1
:10429C0030BD00BF90F0000F04BF0021704730B557
:1042AC004FF4806404F132044FF000054FF000012C
:1042BC0050E700BF90F0000F04BF0021704730B5ED
:1042CC004FF4806404F1320410F0004548BF4042C2
:1042DC004FF000013EE700BF42004FEAE2014FEA17
:1042EC0031014FEA02701FBF12F07F4393F07F4FF2
:1042FC0081F06051704732F07F4208BF704793F0F5
:10430C007F4F04BF41F40021704730B54FF4607407
:10431C0001F0004521F000411CE700BF50EA01020A
:10432C0008BF704730B54FF000050AE050EA0102B3
:10433C0008BF704730B511F0004502D5404261EB23
:10434C0041014FF4806404F132045FEA915C3FF464
:10435C00D8AE4FF003025FEADC0C18BF03325FEA01
:10436C00DC0C18BF033202EBDC02C2F1200300FAB2
:10437C0003FC20FA02F001FA03FE40EA0E0021FAD7
:10438C0002F11444BDE600BF70B54FF0FF0C4CF4C5
:10439C00E06C1CEA11541DBF1CEA135594EA0C0F77
:1043AC0095EA0C0F00F0DEF82C4481EA030621EAB2
:1043BC004C5123EA4C5350EA013518BF52EA0335ED
:1043CC0041F4801143F4801338D0A0FB02CE4FF09F
:1043DC000005E1FB02E506F00042E0FB03E54FF0CF
:1043EC000006E1FB03569CF0000F18BF4EF0010EC7
:1043FC00A4F1FF04B6F5007F64F5407404D25FEAC3
:10440C004E0E6D4146EB060642EAC62141EA555175
:10441C004FEAC52040EA5E504FEACE2EB4F1FD0CB7
:10442C0088BFBCF5E06F1ED8BEF1004F08BF5FEA35
:10443C00500E50F1000041EB045170BD06F00046E7
:10444C0046EA010140EA020081EA0301B4EB5C0494
:10445C00C2BFD4EB0C0541EA045170BD41F480118C
:10446C004FF0000E013C00F3AB8014F1360FDEBFB1
:10447C00002001F0004170BDC4F10004203C35DA8D
:10448C000C341BDC04F11404C4F1200500FA05F310
:10449C0020FA04F001FA05F240EA020001F00042B1
:1044AC0021F0004110EBD37021FA04F642EB060127
:1044BC005EEA430E08BF20EAD37070BDC4F10C0451
:1044CC00C4F1200500FA04F320FA05F001FA04F215
:1044DC0040EA020001F0004110EBD37041F1000101
:1044EC005EEA430E08BF20EAD37070BDC4F120050C
:1044FC0000FA05F24EEA020E20FA04F301FA05F274
:10450C0043EA020321FA04F001F0004121FA04F21B
:10451C0020EA020000EBD3705EEA430E08BF20EAEB
:10452C00D37070BD94F0000F0FD101F00046400025
:10453C0041EB010111F4801F08BF013CF7D041EAA7
:10454C00060195F0000F18BF704703F000465200AB
:10455C0043EB030313F4801F08BF013DF7D043EA7C
:10456C000603704794EA0C0F0CEA135518BF95EA32
:10457C000C0F0CD050EA410618BF52EA4306D1D1B9
:10458C0081EA030101F000414FF0000070BD50EAD8
:10459C00410606BF1046194652EA430619D094EA62
:1045AC000C0F02D150EA013613D195EA0C0F05D14C
:1045BC0052EA03361CBF104619460AD181EA0301A0
:1045CC0001F0004141F0FE4141F470014FF0000058
:1045DC0070BD41F0FE4141F4780170BD70B54FF0F3
:1045EC00FF0C4CF4E06C1CEA11541DBF1CEA135573
:1045FC0094EA0C0F95EA0C0F00F0A7F8A4EB050455
:10460C0081EA030E52EA03354FEA013100F088804B
:10461C004FEA03334FF0805545EA131343EA126314
:10462C004FEA022245EA111545EA10654FEA0026C9
:10463C000EF000419D4208BF964244F1FD0404F582
:10464C00407402D25B084FEA3202B61A65EB0305DE
:10465C005B084FEA32024FF480104FF4002CB6EB9B
:10466C00020E75EB030E22BFB61A754640EA0C001B
:10467C005B084FEA3202B6EB020E75EB030E22BF5B
:10468C00B61A754640EA5C005B084FEA3202B6EB9C
:10469C00020E75EB030E22BFB61A754640EA9C005B
:1046AC005B084FEA3202B6EB020E75EB030E22BF2B
:1046BC00B61A754640EADC0055EA060E18D04FEAE9
:1046CC00051545EA16754FEA06164FEAC30343EA89
:1046DC0052734FEAC2025FEA1C1CC0D111F4801F56
:1046EC000BD141EA00014FF000004FF0004CB6E74F
:1046FC0011F4801F04BF01430020B4F1FD0C88BFEE
:10470C00BCF5E06F3FF6AFAEB5EB030C04BFB6EBF8
:10471C00020C5FEA500C50F1000041EB045170BDEB
:10472C000EF0004E4EEA113114EB5C04C2BFD4EB18
:10473C000C0541EA045170BD41F480114FF0000E9C
:10474C00013C90E645EA060E8DE60CEA135594EA18
:10475C000C0F08BF95EA0C0F3FF43BAF94EA0C0F1B
:10476C000AD150EA01347FF434AF95EA0C0F7FF490
:10477C0025AF104619462CE795EA0C0F06D152EAE4
:10478C0003353FF4FDAE1046194622E750EA4106C8
:10479C0018BF52EA43067FF4C5AE50EA41047FF4D9
:1047AC000DAF52EA43057FF4EBAE12E74FF0FF3C3E
:1047BC0006E000BF4FF0010C02E000BF4FF0010C0F
:1047CC004DF804CD4FEA410C7FEA6C5C4FEA430C88
:1047DC0018BF7FEA6C5C1BD001B050EA410C0CBFD7
:1047EC0052EA430C91EA030F02BF90EA020F002039
:1047FC00704710F1000F91EA030F58BF994208BFA0
:10480C0090422CBFD8176FEAE37040F0010070475C
:10481C004FEA410C7FEA6C5C02D150EA013C07D1B3
:10482C004FEA430C7FEA6C5CD6D152EA033CD3D0FE
:10483C005DF8040B704700BF8446104662468C46F8
:10484C001946634600E000BF01B5FFF7B7FF00282B
:10485C0048BF10F1000F01BD4DF808EDFFF7F4FF54
:10486C000CBF012000205DF808FB00BF4DF808EDDF
:10487C00FFF7EAFF34BF012000205DF808FB00BF02
:10488C004DF808EDFFF7E0FF94BF012000205DF824
:10489C0008FB00BF4DF808EDFFF7CEFF94BF0120D9
:1048AC0000205DF808FB00BF4DF808EDFFF7C4FFD2
:1048BC0034BF012000205DF808FB00BF4FEA410C1B
:1048CC007FEA6C5C02D150EA013C0AD14FEA430CFE
:1048DC007FEA6C5C02D152EA033C02D14FF000003B
:1048EC0070474FF0010070474FEA410212F5001279
:1048FC0015D211D56FF47873B3EB625212D94FEA1B
:10490C00C12343F0004343EA505311F0004F23FA04
:10491C0002F018BF404270474FF00000704750EA59
:10492C00013005D111F0004008BF6FF00040704716
:10493C004FF00000704700BF4A0011D212F5001270
:10494C0011D20DD56FF47873B3EB62520ED44FEADB
:10495C00C12343F0004343EA505323FA02F070475B
:10496C004FF00000704750EA013002D14FF0FF3099
:10497C0070474FF00000704710F8012B11F8013B05
:10498C00012A28BF9A42F7D0D01A7047034613F871
:10499C00012B002AFBD1181A0138704709480A4923
:1049AC00884208B505D0094A824202D0121A02F098
:1049BC0043FE0748074A0021121A02F065FE01481F
:1049CC0008BD00BF54E50320B07E0B00CCE50320EE
:1049DC00D0E50320F4E7032070B5074E074C02F036
:1049EC00D9FCA41BA4080025AC4200D170BD56F81C
:1049FC00043B98470135F7E7687E0B008C7E0B0073
:104A0C0000F076B808B500F0F7F8BDE8084002F001
:104A1C0079BC00F005BC00F003BC00F009BC000040
:104A2C0008B5034A03490C2000F02EFBFEE700BF3B
:104A3C00754E0B0088790B000078B0FA80F04009B5
:104A4C0070470123037070477047000010B5084988
:104A5C00044602F009FB40B90649204602F004FB6B
:104A6C00B0FA80F04009404210BD0120FCE700BFC5
:104A7C009D790B00A0790B000A4B10B5044603601E
:104A8C0001F0FEF9214601F036FC02F0F3FB02F0D6
:104A9C00E5FB2046044B40F8043B01F0C7FA2046E6
:104AAC0010BD00BF1C7A0B00047A0B0010B5044635
:104ABC00FFF7E2FF20462421FFF7AFFF204610BD91
:104ACC000EB400B58CB00DAA4FF0200C52F8041B9C
:104ADC000392CDE900120023016804AA1E20CDE93F
:104AEC0004C300F0D9FA0CB05DF804EB03B07047C6
:104AFC002DE9F04132493348DFF8F880324E96B058
:104B0C000023092200F00CFB304B03221A60304BBF
:104B1C000121188802F0AEFC00242E4A2E492F48A1
:104B2C00C8F8004000F018FD70682246214600F0DD
:104B3C002FFB002841D031460EA800F00FFC0EA828
:104B4C0000F088FC264F0EA887ED000A00F0B2FC9E
:104B5C00244B83ED000AD8F8003010EE105A63B3E2
:104B6C003868FFF7B9FB02460B462846CDE902230D
:104B7C00FFF7B2FBDDE90223CDE900011A491B481E
:104B8C00FFF79EFF22462146706800F0E1FA811C77
:104B9C0008A800F0E7FD08A904A802F077FA144968
:104BAC00049A1248FFF78CFF04A802F089F902F06E
:104BBC0061FB4FF4165102F04DFB16B0BDE8F081CD
:104BCC00E0E50320A4790B004CE60320FCE5032070
:104BDC0054E50320B4790B00594A0B0039550B00EE
:104BEC00ECE50320E8E50320B8790B0090E6032000
:104BFC00EE790B00F0E5032042F2107000F048BB98
:104C0C0038B5046805467CB16368013B63605BB9E9
:104C1C00236820469B689847A368013BA3601BB997
:104C2C0023682046DB689847284638BD70B5D0E924
:104C3C0000531426044606FB0356AE4204D0284605
:104C4C0002F03EF91435F8E7206800F0F1FA20463E
:104C5C0070BD8842F8B504460D46164616D99042EA
:104C6C0015D2A2F11406751AA1F114072C44B742FF
:104C7C001CD02CB13146204602F09EF9337C2374B3
:104C8C00304602F01DF9143E143CF0E70ED0B5424C
:104C9C000CD02CB12946204602F08EF92B7C2374C3
:104CAC00284602F00DF914351434F0E7F8BD2DE95F
:104CBC00F0410023C0E9003383604F689F420446F3
:104CCC000E4623DD4FF0140808FB07F000F0A8FA9D
:104CDC000546D8B1D4E9001208FB0212FFF7B9FF60
:104CEC00206800F0A5FA2560A760D6E9007308FBE0
:104CFC000378B84508D03946284602F077F93B7C52
:104D0C002B7414371435F4E7736863602046BDE8E0
:104D1C00F08100002F4B70B501251D702E4B082221
:104D2C001A702E4B2E4A9A6000248CB0C3E90044B2
:104D3C00284600F0C9F92146284600F0D5F921464D
:104D4C00284800F065FCCDE90044029402F092FA88
:104D5C00254C0546694603A8FFF7A9FF264603A97B
:104D6C0006A8FFF7A4FF214B46F8043B06A909A8A7
:104D7C00FFF79DFF09AA1E21304601F09FFB09A8F1
:104D8C00FFF754FF06A8FFF751FF194B236025626C
:104D9C0003A8FFF74BFF174B236002F06BFA4FF49D
:104DAC00165102F057FA01F06BF8214601F05CFA4B
:104DBC006846FFF73BFF00F05FF80F4B0F49186098
:104DCC000F4802F0C8F80D490E480CB0BDE8704011
:104DDC0002F0C1B8DCE50320DDE50320D0E50320BB
:104DEC000000FFFFF4E5032004E60320047A0B0027
:104DFC00BC7B0B001C7A0B0000E60320827B0B00B3
:104E0C0028E6032038E6032008B5024B1B685B6CD0
:104E1C00019308BD7402030008B5024B1B685B6C60
:104E2C00019308BD4802030008B5024B1B689B6C3C
:104E3C00019308BD4802030008B5024B1B68DB6CEC
:104E4C00019308BD4802030008B5024B1B685B6D5B
:104E5C00019308BD4802030008B5024B1B685B6850
:104E6C00019308BD1802030008B5024B1B68DB68F0
:104E7C00019308BD1802030008B5024B1B685B695F
:104E8C00019308BD1802030008B5024B1B689B6810
:104E9C00019308BD2C02030008B5024B1B681B6A6A
:104EAC00019308BD2802030008B5024B1B685B6A1E
:104EBC00019308BD2802030008B5024B1B689B6ACE
:104ECC00019308BD2802030008B5024B1B68DB6A7E
:104EDC00019308BD2802030008B5024B1B681B6B2D
:104EEC00019308BD2802030008B5024B1B685B6BDD
:104EFC00019308BD2802030008B5024B1B681B6C0C
:104F0C00019308BD2802030008B5024B1B689B6C7B
:104F1C00019308BD2802030008B5024B1B685B69AE
:104F2C00019308BD6402030008B5024B1B689B6823
:104F3C00019308BD6802030008B5024B1B68DB68CF
:104F4C00019308BD6802030008B5024B1B68DB69BE
:104F5C00019308BD3002030008B5024B1B681B6AA5
:104F6C00019308BD3002030008B5024B1B689B6817
:104F7C00019308BD3C02030008B5024B1B68DB68BB
:104F8C00019308BD3C02030008B5024B1B681B696A
:104F9C00019308BD3C02030008B5024B1B685B691A
:104FAC00019308BD3C02030008B5024B1B689B69CA
:104FBC00019308BD3C02030008B5024B1B68DB697A
:104FCC00019308BD3C02030008B5024B1B681B6A29
:104FDC00019308BD3C02030008B5024B1B689B6A99
:104FEC00019308BD3C02030008B5024B1B68DB6A49
:104FFC00019308BD3C02030008B5024B1B681B6CF7
:10500C00019308BD3C02030008B5024B1B681B68EA
:10501C00019308BD4C02030008B5024B1B685B688A
:10502C00019308BD4C02030008B5024B1B689B683A
:10503C00019308BD4C02030008B5024B1B681B69A9
:10504C00019308BD4C02030008B5024B1B685B6959
:10505C00019308BD4C02030008B5024B1B689B6909
:10506C00019308BD4C02030008B5024B1B68DB69B9
:10507C00019308BD4C02030008B5024B1B681B6A68
:10508C00019308BD4C02030008B5024B1B685B6B17
:10509C00019308BD6002030008B5024B1B685B6DF1
:1050AC00019308BD6002030008B5024B1B68DB6E60
:1050BC00019308BD6002030008B5024B1B681B6F0F
:1050CC00019308BD6002030008B5024B1B685B68C6
:1050DC00019308BD2002030008B5024B1B685B69F5
:1050EC00019308BD2002030008B5024B1B68DB6A64
:1050FC00019308BD2002030008B5034B1B68D3F8CD
:10510C008830019308BD00002002030008B5034B52
:10511C001B68D3F89430019308BD000020020300F3
:10512C0008B5024B1B681B68019308BD44020300C1
:10513C0008B5024B1B685B68019308BD4402030071
:10514C0008B5024B1B68DB6B019308BD44020300DE
:10515C0008B5024B1B681B68019308BD4002030095
:10516C0008B5024B1B685B68019308BD4002030045
:10517C0008B5024B1B689B68019308BD40020300F5
:10518C0008B5024B1B68DB68019308BD40020300A5
:10519C0008B5024B1B681B69019308BD4002030054
:1051AC0008B5024B1B685B69019308BD4002030004
:1051BC0008B5024B1B689B69019308BD40020300B4
:1051CC0008B5024B1B68DB69019308BD4002030064
:1051DC0008B5024B1B681B6A019308BD4002030013
:1051EC0008B5024B1B681B6B019308BD4002030002
:1051FC0008B5024B1B685B6B019308BD40020300B2
:10520C0008B5024B1B681B6C019308BD40020300E0
:10521C0008B5024B1B685B6C019308BD4002030090
:10522C0008B5024B1B681B68019308BD1C020300E8
:10523C0008B5024B1B685B68019308BD1C02030098
:10524C0008B5024B1B689B68019308BD1C02030048
:10525C0008B5024B1B685B6A019308BD1C02030076
:10526C0008B5024B1B68DB6B019308BD1C020300E5
:10527C0008B5024B1B681B6C019308BD1C02030094
:10528C0008B5024B1B685B6C019308BD1C02030044
:10529C000021FFF721BF10B54368013B0446436072
:1052AC0063B903689B689847A368013BA3602BB95B
:1052BC0023682046DB68BDE81040184710BD70B568
:1052CC00D0E90053044605EB0316AE4204D0284641
:1052DC0001F0F6FD1035F8E72068FFF7A9FF20462E
:1052EC0070BD0000024800230360FFF795BD00BFAE
:1052FC0048E60320002240681146FFF749BF002210
:10530C0040681146FFF764BF002240681146FFF762
:10531C006FBF40680022FFF763BF4068002281F036
:10532C000101FFF74DBF002340681A461946FFF7ED
:10533C003FBF002340681A461946FFF731BF0022D1
:10534C0040681146FFF714BF406800220221FFF7A6
:10535C0017BF002340681A46FFF702BF70B5134B06
:10536C0003601825303386B00E4643602A46002170
:10537C000446083002F088F9002270681146FFF7E5
:10538C0007FF78B100212A46684602F07DF969468C
:10539C000020ADF80050FFF737FD18B969462046DC
:1053AC0000F0B8F8204606B070BD00BF707A0B0054
:1053BC00084B10B5282422461846002102F064F947
:1053CC00054B04804FF0FF32426004225A60034ABE
:1053DC001A6010BD54E603204CE60320347A0B000F
:1053EC007047007B7047037B4BB10369B3F1004FEF
:1053FC0005D08069B0F1004018BF01207047002033
:10540C00704703681B6A184770B503680D461B6923
:10541C00064698470221284601F02AFD2C21044615
:10542C00284601F03BFC336804449B69304698479E
:10543C000221284601F01CFD204470BDA0F104009F
:10544C00FFF7E2BF10B520210446FFF7E6FA20462D
:10545C0010BD0000037B7BB14369002B0CDB07EE16
:10546C00903A9FED077AF8EEE77A87EE870ADFED40
:10547C00057A20EE270A7047BFEE000A704700BF7E
:10548C0000FF7F470000C842037B63B10369B3F19F
:10549C00004F08D007EE903A9FED047AF8EEE77AC9
:1054AC0087EE870A70479FED020A70470000C842DA
:1054BC0000000000037B7BB1C369002B0CDB07EE03
:1054CC00903A9FED077AF8EEE77A87EE870ADFEDE0
:1054DC00057A20EE270A7047BFEE000A704700BF1E
:1054EC0000FF7F470000C842037B63B18369B3F1BF
:1054FC00004F08D007EE903A9FED047AF8EEE77A69
:10550C0087EE870A70479FED020A70470000C84279
:10551C000000000030B50D4600F108040FCD0FC49B
:10552C0095E8030084E80300012030BD10B588B075
:10553C000446684601F00FFD694604A801F056FDCB
:10554C0004A8A047044604A801F0BAFC684601F080
:10555C00B7FC204608B010BD1FB50023CDE90201F1
:10556C00019210241A4669461846ADF80230ADF87F
:10557C000040FFF7DDFD04B010BD0022406811466D
:10558C00FFF726BE002240681146FFF731BE406887
:10559C000022FFF725BE4068002281F00101FFF7D1
:1055AC000FBE002340681A461946FFF701BE0023C0
:1055BC0040681A461946FFF7F3BD002240681146B1
:1055CC00FFF7E6BD002240681146FFF7D1BD4068E9
:1055DC0000220221FFF7D4BD002340681A46FFF7D2
:1055EC00BFBD0000024B03225A60024A1A6070478A
:1055FC007CE60320AC7A0B00006800F061B810B5B3
:10560C000446016002710AB1FFF7F6FF204610BD97
:10561C0013B50446019101F099FF019A0146204609
:10562C00FFF7EDFF204602B010BD7047F8B50646F7
:10563C0015460C468F18BC4206D0336814F8011B73
:10564C009B6830469847F6E72846F8BD007C002258
:10565C00FFF722BC007C0021FFF726BC007C002158
:10566C00FFF72ABC007C0021FFF72EBC007C002138
:10567C00FFF732BC10B514210446FFF7CEF92046D3
:10568C0010BD000038B5044615464FF47A7300225D
:10569C00C4E90123094B2174084623602946FFF70E
:1056AC002BFCBF3008D16B69DB0705D56868FFF7A9
:1056BC00BFFDE868FFF7BCFD204638BDE87A0B005B
:1056CC0008B50021007CFFF71FFCB0FA80F0400900
:1056DC0008BD704710B518210446FFF79EF9204607
:1056EC0010BDF0B5037D062B8DB00E4600F10407FE
:1056FC004FF0000412D000F1080515F8011D0A2224
:10570C00304601F0CEFAAF42044419D0002CF4D04C
:10571C002E21304601F0C2FA0444EEE72F236A46EC
:10572C0039460A208DF80040FFF7F6FB6846FFF774
:10573C002DF933680246DB686946304698470446C3
:10574C0020460DB0F0BD000010B5054B04461122EB
:10575C0040F8043B002101F097FF204610BD00BF2C
:10576C00107B0B000346074A10B543F8042B01F1DC
:10577C00100251F8044B43F8044B9142F9D10A78CA
:10578C001A7010BD107B0B0010B59DF8084044EA50
:10579C00032343EA024242EA016104234160037598
:1057AC0010BD000007B5064B0360CB7800938B78D7
:1057BC004A780978FFF7E8FF03B05DF804FB00BFF7
:1057CC00107B0B0000F11003012213F8101C0129AF
:1057DC00184608D153F8041C02EB4102013A03F1BC
:1057EC001003F2D17047022904BF53F8041C52185D
:1057FC00F4E70EB4F0B588B000AF07F13405102112
:10580C0055F8042B7A6004462B467818FD60FFF798
:10581C001FFD0F287A681AD900F1080323F007033B
:10582C006E46ADEB030D411C2B466846FD60FFF741
:10583C000FFD021E04DD236869469B6820469847CD
:10584C00B5462037BD46BDE8F04003B07047002890
:10585C00F7D0236802469B6807F110012046984751
:10586C00EFE738B50B6803604D6843689D4204460A
:10587C0008D015B16B6801336B60606808B1FFF735
:10588C000AFD656038BD07B503688DF807109B6885
:10589C0001220DF10701984703B05DF804FB0B469C
:1058AC001146002210B5C0E90022044683600BB9F2
:1058BC00204610BDFFF7D5FFFAE78368EBB11A78E5
:1058CC00032A1AD8DFE802F00417021B05207047E0
:1058DC0002685B685268D05C2D2812D0A0F13003AE
:1058EC00092B0ED974280ED066280CD0A0F16E03AB
:1058FC0058425841704706207047002070470420DA
:10590C007047032070470220704710B50446FFF71C
:10591C00D4FF02280ED0C31EDBB2012B14D8226890
:10592C00A36850685B68BDE810400A220021184447
:10593C0001F0AABF2268A36852685B68D05CA0F132
:10594C0074035842584110BD0020FCE738B50023C1
:10595C00C0E9003304460E48C4E90203A9B10B7830
:10596C00032B06D08BB9136858684B68C35C6E2B3D
:10597C0007D013684D6858688B6828445B1BA0607F
:10598C00E36011462046FFF76CFF204638BD00BF90
:10599C00827B0B0038B500250B46C0E90055C0E9E9
:1059AC000255C0E90455044611464BB11A78012A38
:1059BC0006D103F11002DB6882604361FFF751FFEF
:1059CC00204638BD10B54369044663B18068E06079
:1059DC00013B1030A0602061636113B1FFF7F2FE50
:1059EC00A060012000E0184610BD10B57D210446D2
:1059FC00FFF749FF01232371204610BD08B5037939
:105A0C00012B02D0022B04D008BD2C21FFF73BFF49
:105A1C00FAE73A21FAE710B50446FFF7EFFF204604
:105A2C007B21FFF730FF00232371204610BD0000BF
:105A3C0013B504460191FFF7E1FF2368019ADB6877
:105A4C0003492046984701232046237102B010BD1C
:105A5C001C7B0B0013B504460191FFF7CFFF2368A5
:105A6C00019ADB680349204698470123204623719D
:105A7C0002B010BD1F7B0B002DE9F0470D46222113
:105A8C0090460446FFF7FFFEDFF8A490A8442F468B
:105A9C004745BA463DD017F8016B222E06D05C2E36
:105AAC0004D0304601F0C0FD0028F1D12368AAEBE8
:105ABC0005029B682946204698475C212046FFF743
:105ACC00E2FE0D2E0AD8072E1CD9A6F10803052BD1
:105ADC0018D8DFE803F00D0F11171315222E01D083
:105AEC005C2E0FD131462046FFF7CDFE3D46CFE769
:105AFC006221F8E77421F6E76E21F4E76621F2E7FC
:105B0C007221F0E723683246DB6849462046984705
:105B1C00ECE7BD4205D023687A1B9B6829462046DA
:105B2C00984722212046FFF7AEFEBDE8F08700BF64
:105B3C00227B0B0013B50446CDE90021FFF75EFF75
:105B4C002046DDE90021FFF797FF02232046237151
:105B5C0002B010BD13B50446CDE90021FFF74EFF8E
:105B6C002046DDE90021FFF787FF01232046237142
:105B7C0002B010BD80680368DB68184770470846A0
:105B8C0011B10B685B6818477047704770477047D6
:105B9C00704738B504460D4600682E2101F0B7FD5C
:105BAC002368C31A2B6023B1037803B10130236837
:105BBC002060184638BD10B50C210446FEF72DFFA9
:105BCC00204610BD10B504210446FEF726FF2046E2
:105BDC0010BD10B504210446FEF71FFF204610BD72
:105BEC00FFF72AB908B5FEF7C7FEB0FA80F04009F6
:105BFC0008BD704710B50C4601F03CFB844210D038
:105C0C0001F0E4FC844205D101F0E0FCBDE8104059
:105C1C0001F0CBBA2CB1236820465B68BDE810407C
:105C2C00184710BD0B6803604B68436013B15A688A
:105C3C0001325A60704713B5044608460191FEF7CD
:105C4C00A5FE01990246204602B0BDE81040FFF7C0
:105C5C0081BF13B5044608460191FEF797FE2368F1
:105C6C000199DB680246204602B0BDE81040184797
:105C7C0007B503688DF80710DB6801220DF10701E9
:105C8C00984703B05DF804FB0A6802604A684260FA
:105C9C000022C0E9022210B502618C688460CC68D5
:105CAC00C4600C698A60CA6004610A6110BD00009E
:105CBC002DE9F74FD0E900844FF0140A00930AFB4A
:105CCC0004F4184BA41017465C434546002C21DD08
:105CDC0066100AFB06F005EB00093A46B9F804B069
:105CEC00285801915F4528BF5A4601F022FD002833
:105CFC0001994FF001030BD15F4503D1009A13704A
:105D0C003446E3E7FCD9A61B09F11405013EF7E77D
:105D1C00F9DBF5E7A5EB08050248AD10684303B0C5
:105D2C00BDE8F08FCDCCCCCC7FB50369057E01915D
:105D3C0003B3F9B1002600F10C04039603A901A8E2
:105D4C00FFF727FF0146A8B10DF10B03039A8DF85D
:105D5C000B602046FFF7ACFF9DF80B3053B1236866
:105D6C00142404FB0034083434F9023C002BA8BF83
:105D7C00DDB2E3E7284604B070BD0EB4F0B58CB0CC
:105D8C0000AF07F14405044655F8042B7A602B4606
:105D9C00202107F11000FD60FFF75AFA1F287A68DE
:105DAC001AD900F1080323F007036E46ADEB030D7F
:105DBC00411C2B466846FD60FFF74AFA021E04DDC3
:105DCC0023686946DB6820469847B5463037BD46A0
:105DDC00BDE8F04003B070470028F7D023680246B6
:105DEC00DB6807F1100120469847EFE710B5094C26
:105DFC002378BFF35B8FDB0709D42046FEF71CFE2C
:105E0C0028B12046FEF71DFE034801F007FC0348AD
:105E1C0010BD00BF88E60320975B0B0058E50320FC
:105E2C0010B5094C2378BFF35B8FDB0709D42046F0
:105E3C00FEF702FE28B12046FEF703FE034801F0F0
:105E4C00EDFB034810BD00BF8CE60320FF5B0B008D
:105E5C005CE5032038B500250446C0E90055C0E9CF
:105E6C0004558560856140F8245FFEF7D5FFFFF788
:105E7C00BDFFE061FFF7D4FF25732062204638BDDB
:105E8C0010B50A4C2378BFF35B8FDB070CD420468C
:105E9C00FEF7D2FD40B10648FFF7DCFF2046FEF7C7
:105EAC00D0FD044801F0BAFB014810BD84E6032084
:105EBC0094E60320E1630B00024A034903480023E4
:105ECC00FFF7FAB8C5610B0051610B00D1600B00F4
:105EDC0000231A4619461846FFF7EEB837B58D68F9
:105EEC0004466846FFF79EFE6A4629462046FFF7A1
:105EFC0051FD01A8FEF784FE204603B030BD37B536
:105F0C00CD6804466846FFF78DFE6A462946204652
:105F1C00FFF71CFD01A8FEF773FE204603B030BD51
:105F2C0037B50D6904466846FFF77CFE6A4629467C
:105F3C002046FFF7B4FC01A8FEF762FE204603B032
:105F4C0030BD000070B58AB00D46014604A8FFF7BD
:105F5C00C5FF144E04A8FFF735FDE8B104A9684647
:105F6C00FFF7CDFF02983146FFF73CFE044610B117
:105F7C002C1E18BF012401A8FEF742FE002CE9D00C
:105F8C0004A96846FFF7CCFF6846FFF7BEFC286003
:105F9C0001A8FEF735FEDDE705A8FEF731FE0AB0D5
:105FAC0070BD00BF287B0B0037B50C46204613494B
:105FBC001546FEF7E1FC50B901F05CF94FF41651AF
:105FCC0001F048F903B0BDE8304001F053B90C4979
:105FDC002046FEF7D1FC78B94FF4165301A9284698
:105FEC000193FFF7AFFF01F0F1FA019901F0DAF834
:105FFC0001F0ECFA03B030BD0020FBE72D7B0B0069
:10600C00347B0B0070B5D0E900531426044606FB14
:10601C000356AE4205D005F10800FFF7F3FF143527
:10602C00F7E72068FFF704F9204670BD10B5044669
:10603C000C30FFF7E7FF2046FFF741F9204610BD73
:10604C0010B5044B044640F8043BFFF7EFFF204625
:10605C0010BD00BF047A0B0010B50446FFF7F0FF2B
:10606C0020462421FEF7D9FC204610BD10B5034B69
:10607C0003600446FFF7E4FF204610BDD47B0B0001
:10608C0010B50446FFF7F2FF20462421FEF7C5FCAD
:10609C00204610BD0022C0E9002210B582600C68B9
:1060AC0004604C6844608C680A604A6084608A6052
:1060BC0010BD10B5036804461868FEF7C5FE2046EF
:1060CC0010BD00002DE9F04F87B0804603931C4BA8
:1060DC005B68C3F30803894616466BB9FFF7D0FE1D
:1060EC00044600F12403406A0593FFF779FD237BF6
:1060FC002BB105A8FFF7DDFF07B0BDE8F08F01233A
:10610C002373D4E900535FFA89F905EB830AAA4596
:10611C0012D055F8047B3146381DFFF705FE81453A
:10612C00F5D33B68039A0092D3F808B04A4633463D
:10613C0041463846D847EAE700232373D9E700BF26
:10614C0000ED00E02DE9F74F9B461A4B5B68C3F35B
:10615C0008038046894616466BB9FFF791FE044644
:10616C0000F12403406A0193FFF73AFD237B2BB126
:10617C0001A8FFF79EFF03B0BDE8F08F0123237346
:10618C00D4E90053F6B205EB830A55450ED055F809
:10619C00047B5946381DFFF7C7FD8642F5D33B6893
:1061AC004A46DB68414638469847EEE7002323739E
:1061BC00DEE700BF00ED00E02DE9F341164B5B6814
:1061CC00C3F3080305460F461BBBFFF759FE00F14E
:1061DC0024030446406A0193FFF702FDD4E90063EF
:1061EC00462406EB8308B04509D101A8FFF761FFEF
:1061FC00A542B4BF0020012002B0BDE8F08156F8E2
:10620C00040B39460430FFF78FFD8442A8BF0446C7
:10621C00E9E70020F0E700BF00ED00E0F8B5D0E9B9
:10622C0001539D4204460E460DDB6F1C002F006887
:10623C0004DDB900FFF704F818B9F8BDFEF7F8FF54
:10624C0000202060A7602768626807EB8501920038
:10625C00A2EB8502081D01F0FDF947F82560636883
:10626C00013363600120E8E737B500F124030446ED
:10627C00406A01930D46FFF7B3FCD4E9003203EBFF
:10628C008202934219460BD00968A94203F1040318
:10629C00F7D101A8FFF70DFF0025284603B030BD4C
:1062AC0029462046FFF7BAFF05460028F1D063685F
:1062BC00012B01D1FFF700FE01A8FFF7FAFEECE776
:1062CC0070B50446D0E900020B4600EB8202824214
:1062DC000FD001461D6851F8046BAE4207D1521A1B
:1062EC0001F0B8F96368013B6360012070BD08469A
:1062FC00EDE70020FAE71FB500F124030446406ADD
:10630C0001910393FFF76CFC01A92046FFF7D8FF1E
:10631C0018B163680BB9FFF7DBFD03A8FFF7C9FEE3
:10632C0004B010BD70B5D0E904561823044603FB25
:10633C000656AE4215D005F110012046FFF7C0FFFE
:10634C0063680BB9FFF7C4FDE06929690368DB6872
:10635C009847696919B1206A0368DB689847183552
:10636C00E7E7D4E90453182606FB0356AE4204D0E3
:10637C00284600F0A5FD1835F8E70023636170BDD1
:10638C0073B50446FFF7A4FD04F12403606A01937E
:10639C00FFF726FC2046FFF7C5FF01A8FFF789FE93
:1063AC00606A08B1FEF740FDD4E90453182606FBD9
:1063BC000356AE4204D0284600F082FD1835F8E7AB
:1063CC002069FEF735FF2068FEF732FF204602B049
:1063DC0070BD00000148FFF7D3BF00BF94E6032057
:1063EC008842F8B504460D46164615D9904214D28B
:1063FC00A2F11406751AA1F114072C44B7421AD055
:10640C001CB131462046FFF73FFC06F10800FFF7B0
:10641C00F9FD143E143CF1E70DD0B5420BD01CB184
:10642C0029462046FFF730FC05F10800FFF7EAFD8E
:10643C0014351434F1E7F8BD8842F8B504460D461E
:10644C00164614D9904213D2A2F11006751AA1F176
:10645C0010072C44B74218D01CB13146204600F02E
:10646C00ABFD304600F02CFD103E103CF2E70CD09A
:10647C00B5420AD01CB12946204600F09DFD2846A5
:10648C0000F01EFD10351034F2E7F8BD70B50E1E8D
:10649C00054611DD3001FEF7C3FE044658B1D5E9BF
:1064AC00001201EB0212FFF7C7FF2868FEF7C0FECF
:1064BC002C60AE60012070BD0024F6E72DE9F04F92
:1064CC00904695B000230391D8F804100A93462205
:1064DC009942C0E90033C0E90233C0E90433CDE985
:1064EC0008330446027623DCD8E90057142303FB57
:1064FC000757AF423BD029460BA800F05DFD0BA916
:10650C000FA8099E00F058FDDDE9091399421BDA2A
:10651C00089B099A03EB061603EB0212314606F1AF
:10652C001000FFF789FFEEB9099B0133099311E0C5
:10653C0008A8FFF7ABFF0028D6D108A8FEF7BFFECE
:10654C00204615B0BDE8F08F013108A8FFF79EFF7B
:10655C000028DDD10FA800F0B3FC0BA800F0B0FCB4
:10656C001435C6E70FA9304600F026FDDCE70026FF
:10657C00CDE90B660D964FF01409DDE908239E4218
:10658C007CDA3301D35806930BB90136F5E70023B7
:10659C00079309FB06F302930BAD07A906A8FFF7B7
:1065AC00F8FA82460028F0D04FF000038DF817302F
:1065BC000146079A0DF117032846FFF779FB9DF862
:1065CC0017700190002F4AD1BDF81C30ADF8403047
:1065DC00CDE911774FF6FF73CDF83CA0ADF8423002
:1065EC001397D5E90132934217DB03F1010ABAF193
:1065FC00000F30DD09FB0AF0FEF712FE834660B394
:10660C00D5E9001209FB0212FFF7EAFE2868FEF733
:10661C000FFEC5F800B0C5F808A02B68019A09FB5D
:10662C00023A6A68514609FB02320AF11400FFF77C
:10663C00D7FEBAF1000F03D00FA95046FFF724FB89
:10664C006B6801336B6011A8FFF7DCFC3FB10BA842
:10665C00FFF7D8FC71E7BB46D8E70127F3E7019BAE
:10666C002D6809FB0355069B1B782BB9D8F8003015
:10667C00029A13441B7CEB8008358EE7216822605C
:10668C0062686360A36809920A9A0A93E368A2603D
:10669C000B9A0B932369E2600C9A0C936369226149
:1066AC000D9A0D93039B089162612376CFE700004E
:1066BC00F0B5044687B00D4626461946684617467F
:1066CC00FEF7F5FA0B4B46F8043B694603A8FEF7B8
:1066DC00EEFA03AA39463046FFF7F0FE03A8FEF7A0
:1066EC00A5FA6846FEF7A2FA034B23602046256202
:1066FC0007B0F0BD047A0B00BC7B0B00F0B50F4665
:10670C0085B01D490A9C384616461D46FEF734F9DD
:10671C00C0B9A4B1294601A8FFF7BCFC1749242035
:10672C0000F078FF054630B101AB32462146FFF749
:10673C00BFFF134B2B6001A8FEF778FA2C462046BE
:10674C0005B0F0BD0F493846FEF716F990B9002C8C
:10675C00F5D0294601A8FFF79DFC0849242000F03C
:10676C0059FF05460028E6D001AB32462146FFF71B
:10677C009FFFE0E70024E2E73C7B0B00F47C0B007E
:10678C00D47B0B00407B0B00014B024A1A60704714
:10679C0090E60320517B0B002DE9F047089DD0F8C3
:1067AC00209004460E461746984600F063FD81453E
:1067BC004CD02B79190704D56A6954492046FFF748
:1067CC00DCFAB8F1000F0DD05B212046FFF750FA30
:1067DC0041462046FFF73DFA23684D49DB6802220B
:1067EC00204698472B79DA0723D5D5F808802F2136
:1067FC00404600F0B2FF08B100F1010841462046C6
:10680C00FFF727FA2B799B0708D53A212046FFF78B
:10681C002FFAEA683F492046FFF7AFFA2A79236836
:10682C0012F0040FDB6814BF3B493C49022220469E
:10683C0098472B7958071DD529690B461A4613F82A
:10684C00010B60B1202808D11946F7E7344800F055
:10685C0082F90028ADD0BDE8F0872828EED1236856
:10686C00521ADB682046984723682E49DB680422BD
:10687C002046984700213846FEF716FC0146204674
:10688C00FFF7E7F923682549DB6802222046984781
:10689C001EB131462046FFF7DCF92B7913F0300F8F
:1068AC002CD023682049DB680222204698472B799C
:1068BC00D9060AD523681D49DB680722204698476C
:1068CC00AA691B492046FFF758FA2B799A0611D56D
:1068DC00DB0605D523681049DB6802222046984761
:1068EC0023681449DB6820460A229847E969204648
:1068FC00FFF7AFF95D212046FFF7BAF923680E497F
:10690C00DB6820460222BDE8F0471847557B0B0098
:10691C005C7B0B001C7B0B005F7B0B00647B0B0018
:10692C00BCE60320627B0B00677B0B006A7B0B00D1
:10693C00727B0B00757B0B00807B0B002DE9F0410B
:10694C000446076A0D46164600F094FC874207D0B1
:10695C00206A036832462946DB68BDE8F0411847D7
:10696C00034800F0F8F80028F2D0BDE8F08100BF31
:10697C00BCE603202DE9F04385B0D0F820900C9CA8
:10698C0005460F4690461E4600F074FC814505D125
:10699C00494800F0E0F8002840F08A802B6A474A0A
:1069AC0001924FF0000901A803938DF80890FFF7AE
:1069BC0032F849464046FEF777FB414980460122B2
:1069CC0001A8FFF7B7F84146FFF735F93FB13D494C
:1069DC00012201A8FFF7AEF83946FFF72CF93EB1BA
:1069EC003949012201A8FFF7A5F83146FFF723F931
:1069FC002379DF070ED5A6682F21304600F0ADFEB7
:106A0C0000B1461C3149012201A8FFF793F8314629
:106A1C00FFF711F923799E0707D52D49022201A80A
:106A2C00FFF788F8E168FFF703F82379580714D5C6
:106A3C00266933461F4613F8012B2AB1202A01D1AF
:106A4C001E46F7E7282AF5D12249022201A8FFF7B2
:106A5C0071F8BA1B3146FFF77DF82379190707D572
:106A6C001D49012201A8FFF765F86169FEF7F2FFE5
:106A7C002379DA0608D5042218490DEB0200FFF73A
:106A8C0059F8A169FEF7D4FF23799B0607D5144961
:106A9C00062201A8FFF74EF8E169FFF7CCF801A830
:106AAC00FEF7A3FF286A0F4903680222DB689847A8
:106ABC0005B0BDE8F08300BFBCE60320A47B0B004F
:106ACC00327B0B00837B0B00637D0B00A2790B00E8
:106ADC00857B0B00887B0B008B7B0B008D7B0B006D
:106AEC00927B0B00807B0B00002340681A46FEF75C
:106AFC0037BB406800220221FEF742BB00224068EF
:106B0C001146FEF735BB002240681146FEF740BB2C
:106B1C00002340681A461946FEF742BB0023406822
:106B2C001A461946FEF744BB40680021FEF768BBC5
:106B3C0040680021FEF76CBB4068002281F0010127
:106B4C00FEF73EBB40680022FEF74ABB00224068BD
:106B5C001146FEF74DBB002240681146FEF738BBCC
:106B6C002DE9F04395B014460D460746FEF7ECFDB3
:106B7C0000211C220DA8009100F086FD40230C93EF
:106B8C0020466B460CAA0021FEF7D6F904460028D5
:106B9C004BD1024601216868FEF7FAFA02218046C1
:106BAC0022466868FEF7F4FA009E81462146002EC4
:106BBC003BD0002939D17368022B03D00A2B11D09A
:106BCC00F669F4E7B8F1000FFAD0716906A8043140
:106BDC0007ADFEF7E7FD0FCD3C1D0FC42B682370EE
:106BEC004146EDE7B9F1000FEAD07469102201A813
:106BFC0000F04AFD06238DF8143001AD04F10803B2
:106C0C001834186859682A4603C20833A34215463B
:106C1C00F7D101A906A807ADFEF7A4FD0FCD3C1DC9
:106C2C000FC42B6823704946CAE70098FEF77CF91D
:106C3C00384615B0BDE8F083024B034A1A600022B7
:106C4C005A607047BCE603201C7C0B00F8B5064666
:106C5C000D468F180024BD420CD0336815F8011B6B
:106C6C009B6830469847031E01DB1C44F3E7002C5D
:106C7C0008BF1C462046F8BD13B50446084659B15A
:106C8C000191FDF783FE23680199DB6802462046DB
:106C9C0002B0BDE81040184702B010BD03689B68F5
:106CAC00184730B58BB00023012A8DF8243098BFDB
:106CBC000A2209AC0D46B1FBF2F101FB125303F0B1
:106CCC00FF03092B94BF30333733DBB2AA4204F8ED
:106CDC00013DEFD92146FFF7CFFF0BB030BD0000CF
:106CEC002DE9F74F55EC104B06460F4610EE102AC7
:106CFC0010EE100A2B462946FDF7E0FD40B1534932
:106D0C003046FFF7B9FF8246504603B0BDE8F08F1E
:106D1C0025F000494E4B4FF0FF3220464946FDF717
:106D2C00CDFD48B94A4B4FF0FF3220464946FDF79E
:106D3C00A7FD08B94749E3E7474B4FF060422046AF
:106D4C002946FDF7B1FD08B14449D9E7444B4FF052
:106D5C00604220462946FDF789FD0028F4D1002227
:106D6C00002320462946FDF781FDD0B12D21304668
:106D7C00FFF794FF05F1004382461D463949DFF8C1
:106D8C00EC904FF0000B00204FF000085FFA8BF3F3
:106D9C009F4208D942464B46FDF720FC0BF1010BF4
:106DAC00F4E78246EAE722462B46FDF737F90D4613
:106DBC000446FDF7C1FD8046FDF76CFA02460B4612
:106DCC0020462946FDF728F90A2204460D4630468E
:106DDC004146FFF766FF8244002F95D02249DFF829
:106DEC008C903046FFF748FF4FF000088244002F8C
:106DFC008AD042464B4620462946FDF7C5FA044642
:106E0C000D46FDF771FDB0F1000B1CDA2D2130465B
:106E1C00FFF744FFCBF1000103460A2230460193F1
:106E2C00FFF73FFF019B184482445846FDF742FA96
:106E3C0002460B4620462946FDF7EEF8013F044674
:106E4C000D46FFB2D3E759460023E6E7507C0B0012
:106E5C00FFFFEF7F547C0B00FFFFEF41587C0B00D2
:106E6C00FFFFEFC10000E03F5C7C0B000000244002
:106E7C0038B5044610EE100ACDB2FDF72DFA41ECF0
:106E8C00100B29462046BDE83840FFF729BF00000B
:106E9C00014B00229A607047C4E6032010B50446EB
:106EAC0008462170FEF750F800236360204610BDA1
:106EBC00704710B50C210446FDF7AFFD204610BD00
:106ECC0010B504460068FEF7B3F9204610BD10B5A6
:106EDC000446006808B1FEF7ABF90023C4E901339E
:106EEC00236010BD38B504460D4600680131FEF72D
:106EFC00A7F910B1C4E90005012038BD10B503682D
:106F0C00044623B143688B4201D3012010BD2046B7
:106F1C00FFF7E8FF0028F9D0A368002BF5D1226811
:106F2C001370F2E737B50D46114601920446FFF790
:106F3C00E5FF019A28B92046FFF7C9FF204603B0A8
:106F4C0030BDA2602946206800F076FB2268A36859
:106F5C000021D154F2E7002313B5C0E900330446F5
:106F6C008360037341B108460191FDF70FFD019950
:106F7C0002462046FFF7D6FF204602B010BD38B5BA
:106F8C00054600680C4668B16A688B689A4207D35C
:106F9C00096800F0C6FBA368AB600023A36038BD92
:106FAC00FEF746F923682B6063686B60A368AB60DF
:106FBC000023C4E90033F1E710B50023C0E9003326
:106FCC00044683600373FFF7DAFF204610BD884246
:106FDC0010B5044605D00B682BB18A681946FFF72B
:106FEC00A1FF204610BDFFF772FFFAE710B5002392
:106FFC000446C0E9003383600373FFF7E8FF2046C3
:10700C0010BD70B505460E4609B9002070BD6AB1B9
:10701C00846814442146FFF771FF0028F5D02868D6
:10702C00AB683146184400F07CFBAC600120EDE706
:10703C0038B5044680688568FFF7E3FFA368986855
:10704C00401B38BD07B500238DF80410012201A99F
:10705C008DF80530FFF7D5FF03B05DF804FB08B5DC
:10706C008068FFF7EFFF08BD08B582683AB921B117
:10707C000878B0FA80F0400900E0012008BD0068F3
:10708C0009B90078F5E7FDF777FCF2E730B585B084
:10709C0000230D460293C0E900338360037314216F
:1070AC00064B019304460390FFF728FF2B6801A9B8
:1070BC001B6828469847204605B030BD687C0B00FD
:1070CC00054B02221A60054B054A9A600020C3E961
:1070DC000000FDF7F9BF00BFE0E60320D4E6032073
:1070EC000000FFFF024B1A68024B1A60704700BF8A
:1070FC0060E50320E4E6032070474174704708B54F
:10710C00007CFDF769FF20EAE07008BD08B5007C43
:10711C00FDF73AFF20EAE07008BD08B5007CFDF7EA
:10712C0043FF40EAE07008BD08B5007CFDF734FF72
:10713C0040EAE07008BD007CFDF73EBF37B5457CEA
:10714C0004462DB1207C03B0BDE83040FDF714BFE0
:10715C00007C0191FDF740FF00280199F2DC2846E4
:10716C0003B030BD10B514210446FDF756FC204683
:10717C0010BD000010B54FF47A7304460846114652
:10718C000022C4E90123044B23600123207463749F
:10719C00FDF732FF204610BD9C7C0B00007C0023C9
:1071AC00FDF722BF0022FFF7F9BF007CFDF7DCBE24
:1071BC00417470477047704708B50021007CFDF79B
:1071CC004BFF40EAE07008BD08B50121007CFDF7DB
:1071DC0043FF40EAE07008BD08B5007CFDF734FFC2
:1071EC0020EAE07008BD08B5007CFDF725FF20EA19
:1071FC00E07008BD13B50446007C0191FDF724FF37
:10720C000028019901DC607C20B1207CFDF72CFF6B
:10721C0020EAE07002B010BD007CFDF72DBF10B568
:10722C0014210446FDF7F9FB204610BD10B54FF4B0
:10723C007A73044608460021C4E90113044B236009
:10724C000123207463741146FDF7DEFE204610BD49
:10725C00CC7C0B00007C0022FDF7DEBE007CFDF731
:10726C00E3BE10B514220446002100F00DFA2046AE
:10727C0010BD000010B50F4C88B003A8FFF7F1FF4C
:10728C002178BFF35B8F11F001010FD120460191E2
:10729C00FDF7D2FB019948B103AA0748FFF7C6FFD7
:1072AC002046FDF7CEFB054800F0B8F9024808B0BF
:1072BC0010BD00BFE8E60320ECE60320C1710B0013
:1072CC00014B1860704700BF64E5032008B50B4BF9
:1072DC0043B1FFF7CFFF03681B699847002801DD16
:1072EC00AFF30080064B43B100F070F903681B69E3
:1072FC009847002801DDAFF3008008BD00000000B6
:10730C000000000008B5FFF7E1FFFDF7B5FD014BEC
:10731C00186008BD14E703200548064A064908B55D
:10732C00121A00F089F9054B054A1A6008BD00BF16
:10733C0000F4032004F40320287F0B0000F4032046
:10734C001E1C279A07B5002300931A466FF077018D
:10735C00FDF7DCFE03B05DF804FB000007B54388C5
:10736C000A2B08D0502B0BD1094B1B684BB103B027
:10737C005DF804EB1847FFF7E5FF03B05DF804FB7D
:10738C00002300931A466FF07701FDF7BFFEF4E778
:10739C0004E7032010B512480021FDF771FF114BD3
:1073AC001A68114B9A42114B0CBF012200221A7021
:1073BC0001D0FFF7B1FFFDF74FFD044600F06CF96B
:1073CC000B4B13B12046AFF3008000210848FDF7AA
:1073DC00B7FEBDE8104007480021FDF78DBE00BF89
:1073EC00CD720B0000F403201E1C279A00E703202B
:1073FC000000000069730B00232813B502D900208C
:10740C0002B010BDA0F10B03022B1AD8174C217837
:10741C00BFF35B8F11F001010BD120460191FDF7F9
:10742C000BFB019928B11248FFF738FD2046FDF7F8
:10743C0008FB0F4B1878FDF78FFD0028DFD10120DA
:10744C00DEE7012809D800F05DF80021007CFDF78B
:10745C004BFD80F00100C0B2D2E709380128EED80C
:10746C0000F0B4F8007CFDF7AFFDF2E708E703206D
:10747C000CE70320232838B504460D460AD8FF290B
:10748C0008D0FFF7B9FF28B129462046BDE838409F
:10749C00FDF7FABC38BD70477047000038B50A4B91
:1074AC0003600123044643610849202000F0B4F82E
:1074BC00202560600549A560284600F0ADF8C4E9B8
:1074CC000305204638BD00BF18000100F47C0B00FA
:1074DC0038B50A4B03600123044643610849202058
:1074EC0000F09AF8202560600549A560284600F058
:1074FC0093F8C4E90305204638BD00BF180001000D
:10750C00F47C0B0030B50E4D2978BFF35B8F11F076
:10751C00010487B011D12846FDF78EFA68B1684690
:10752C00FFF7BCFF6A4621460648FEF7ABF8284633
:10753C00FDF787FA044800F071F8024807B030BD37
:10754C0018E7032020E70320A3740B0010B50E4CA2
:10755C002378BFF35B8FDB0786B011D42046FDF791
:10756C006BFA68B16846FFF7B3FF6A46012107481A
:10757C00FEF788F82046FDF764FA054800F04EF84F
:10758C00024806B010BD00BF1CE7032034E70320FF
:10759C00A5740B007047000038B5044614252A4624
:1075AC00002100F071F825804025074925812846E7
:1075BC00258200F031F804496060284600F02CF870
:1075CC00E060204638BD00BFF47C0B0030B50E4D9A
:1075DC002978BFF35B8F11F0010487B011D12846D5
:1075EC00FDF72AFA68B101A8FFF7D6FF01AA2146D8
:1075FC000648FFF7BFFD2846FDF723FA044800F0C4
:10760C000DF8024807B030BD48E703204CE70320D3
:10761C00A1750B00FDF7FDB9FDF7FDB9002301467F
:10762C001A46184600F03AB9024B1844407800F05C
:10763C0097007047657D0B000A44914200F1FF33BF
:10764C0000D1704710B511F8014B03F8014F91426E
:10765C00F9D110BD884210B501EB020402D9844265
:10766C00234607D8431EA14208D011F8012B03F87A
:10767C00012FF8E7024401468A4200D110BD13F8ED
:10768C00014D02F8014DF7E702440346934200D145
:10769C00704703F8011BF9E738B5104B1D68AB6B4D
:1076AC000446B3B91820FDF7BBFD0246A86320B908
:1076BC000B4B0C484221FDF7DBFD0B490B4BC0E992
:1076CC0000130B4B83600B23838100210120C2E943
:1076DC000401AB6B00221C615A6138BD64E50320C8
:1076EC00F57C0B000C7D0B000E33CDAB34126DE62C
:1076FC00ECDE0500C9B2034610F8012B1AB18A4220
:10770C00F9D118467047002918BF0023F9E710B5C6
:10771C000446FFF7EFFF18B92046FDF737F9204470
:10772C0010BD034611F8012B03F8012B002AF9D1E7
:10773C00704710B57AB103460139841813F8010B60
:10774C0011F8012F904201D1A34201D1801A10BD32
:10775C000028F3D1FAE71046F9E738B503460C4692
:10776C0069B9BDE83840FFF7C5BF431C0546214643
:10777C001846FFF7BFFF0028F7D1284638BD002573
:10778C00F5E70000012B2DE9F04701D0242B06D999
:10779C00FDF766FD162303600020BDE8F087DFF8D7
:1077AC00E4C00D462E4615F8014B14F80C7017F07A
:1077BC000807F7D12D2C32D12C780127B51C002BC2
:1077CC005BD0102B09D1302C07D12C7804F0DF04BE
:1077DC00582C4DD16C781023023507F1004808F174
:1077EC00FF384FF0000CB8FBF3F9664603FB198A1F
:1077FC00A4F1300EBEF1090F16D87446A34224DD55
:10780C00BCF1000F1EDBB1451CD301D1A24519DB25
:10781C0006FB03464FF0010C15F8014BE8E72B2C47
:10782C0004BF2C78B51CCAE7A4F1410EBEF1190FA8
:10783C0001D8373CE2E7A4F1610EBEF1190F04D870
:10784C00573CDBE74FF0FF3CE6E7BCF1000F05DAF5
:10785C0022230360464642B930469EE707B1764282
:10786C00002AF9D0BCF1000F00D0691E1160F3E7BB
:10787C003024002BB1D10823AFE7302CA5D00A233C
:10788C00ABE700BF667D0B0013460A460146024873
:10789C000068FFF777BF00BF64E503202DE9F843CC
:1078AC00DFF8B8800646D8F800001F460D46914612
:1078BC0000F056F8254B1C6834B9254C1C60254B40
:1078CC0013B11B68C4F8883063681F2B07DDD8F828
:1078DC00000000F047F84FF0FF30BDE8F8834EB3DE
:1078EC00D4F8880088B91C4B23B9D8F8000000F0F4
:1078FC0038F8F0E74FF48470FDF792FC0028F4D0D0
:10790C000023C0E94033C4F88800636840F8239032
:10791C0001229A4000EB8301D0F800311343C0F8E8
:10792C000031022EC1F8807002BFD0F8043113432D
:10793C00C0F804316368D8F800005A1C0233626046
:10794C0044F8235000F00EF80020C6E7ECE70320C3
:10795C0060E70320000000002D520B00C8E5032057
:10796C007047704770470000A9490B00E5490B00B0
:10797C000D4A0B00114A0B000000000043616C6CB7
:10798C00206F6E2070757265207669727475616CEB
:10799C00006F6E006F666600626174746572795F69
:1079AC00766F6C74616765006C65640043656C6C24
:1079BC00756C6172207265616479206174207374D6
:1079CC0061727475703A20256620737472656E67E7
:1079DC00746820616E64202566207175616C697411
:1079EC0079006C6F63616C49503A2025730000007C
:1079FC00000000000000000000000000000000007B
:107A0C002D4A0B00554A0B0000000000000000003E
:107A1C00854A0B00B94A0B00A5670B0049690B009E
:107A2C0000000000000000005F530B0055530B00DA
:107A3C004B530B0001530B003F530B0033530B0004
:107A4C00356B0B003D6B0B0027530B001F530B00CA
:107A5C0015530B000B530B006D6B0B00000000005B
:107A6C0000000000ED530B0051540B00EF530B00C2
:107A7C0061540B0095540B00C1540B00F5540B00D2
:107A8C0015540B00F3530B000F540B00FCFFFFFFBE
:107A9C000000000049540B00000000000000000032
:107AAC00E5550B00DB550B00D1550B00C7550B00F2
:107ABC00BB550B00AF550B00356B0B003D6B0B0032
:107ACC00A3550B009B550B0091550B0087550B00D4
:107ADC006D6B0B00000000000000000037560B001F
:107AEC0081560B0059560B0039560B0061560B0092
:107AFC0069560B0071560B0079560B000000000004
:107B0C0000000000EF560B00DF560B00E1560B0097
:107B1C002564002575007525303478006261756424
:107B2C000053657269616C0053657269616C310058
:107B3C004A534F4E53747265616D4C6F6748616E5A
:107B4C00646C6572006170700025303130752000F6
:107B5C005D20002C200028293A2000205B00636F58
:107B6C006465203D200025690064657461696C734F
:107B7C00203D20000D0A006D006C6E00666E0074D6
:107B8C0000636F64650064657461696C00000000DB
:107B9C0000000000000000009D5B0B00C35B0B00AD
:107BAC00815B0B00FF570B00000000000000000081
:107BBC004D600B0065600B00A5670B0049690B005D
:107BCC00000000000000000079600B008D600B00CD
:107BDC0081690B00895B0B000000000000000000B5
:107BEC009B5B0B00D15B0B0009670B008B5B0B00E5
:107BFC000000000000000000995B0B00DF5B0B0035
:107C0C00B55F0B00015C0B000000000000000000E1
:107C1C00F56A0B00FF6A0B00096B0B00136B0B0072
:107C2C001D6B0B00296B0B00356B0B003D6B0B00B8
:107C3C00456B0B00516B0B00596B0B00636B0B000E
:107C4C006D6B0B006E616E00696E66006F76660080
:107C5C002E0000000000000000000000BD6E0B00B4
:107C6C00BF6E0B006B700B003D700B0025592D2562
:107C7C006D2D25645425483A254D3A2553257A0017
:107C8C0061736374696D6500000000000000000002
:107C9C0005710B0071710B0049710B00596C0B00D5
:107CAC0019710B0035710B0027710B0043710B0020
:107CBC0007710B000B710B000000000000000000AE
:107CCC00C3710B002B720B0001720B00596C0B0073
:107CDC00F3710B00C5710B00D5710B0025720B00F5
:107CEC00E5710B00BD710B00005245454E54206DE3
:107CFC00616C6C6F632073756363656564656400A8
:107D0C002F746D702F6A656E6B696E732D474343CC
:107D1C002D31302D706970656C696E652D34385F4E
:107D2C0032303230313132345F31363036313830F6
:107D3C003633392F7372632F6E65776C69622F6ED1
:107D4C0065776C69622F6C6962632F7374646C69FC
:107D5C00622F72616E642E63000020202020202090
:107D6C0020202028282828282020202020202020DF
:107D7C0020202020202020202020881010101010DF
:107D8C00101010101010101010100404040404042F
:107D9C000404040410101010101010414141414112
:107DAC004101010101010101010101010101010177
:107DBC000101010101101010101010424242424208
:107DCC004202020202020202020202020202020247
:107DDC00020202020210101010200000000000002D
:107DEC000000000000000000000000000000000087
:107DFC000000000000000000000000000000000077
:107E0C000000000000000000000000000000000066
:107E1C000000000000000000000000000000000056
:107E2C000000000000000000000000000000000046
:107E3C000000000000000000000000000000000036
:107E4C000000000000000000000000000000000026
:107E5C00000000000000000000000000214D0B009D
:107E6C00F1520B00BD530B00F1550B0095670B0045
:107E7C00456C0B009D6E0B00CD700B00F1700B0070
:107E8C00040000001400000003000000474E5500E1
:107E9C001785F497586D0FC26DF412002A30AE306E
:047EAC00E0F9962D36
:107EB00005000000EC7B0B00047C0B008C7C0B00AD
:107EC00068E5032000000000000000000000000042
:107ED00000000000000000000000000000000000A2
:107EE0000000000000000000000000000000000092
:107EF0000000000000000000000000000000000082
:107F00000000000000000000000000000000000071
:107F10000000000000000000000000000000000061
:087F200000000000F0E703205F
:047F28000000000055
:107F320000000102030405060708090A0B0C0D0ED6
:107F42000F101112131415161718191A1B1C1D1EC7
:047F52001F202800C4
:047F56007856341213
:04000003B000401CED
:00000001FF
